{
  "contractName": "BookLibrary",
  "abi": [
    {
      "inputs": [],
      "stateMutability": "nonpayable",
      "type": "constructor"
    },
    {
      "anonymous": false,
      "inputs": [
        {
          "indexed": true,
          "internalType": "address",
          "name": "previousOwner",
          "type": "address"
        },
        {
          "indexed": true,
          "internalType": "address",
          "name": "newOwner",
          "type": "address"
        }
      ],
      "name": "OwnershipTransferred",
      "type": "event"
    },
    {
      "inputs": [],
      "name": "LIBTokenWrapper",
      "outputs": [
        {
          "internalType": "contract LIBWrapper",
          "name": "",
          "type": "address"
        }
      ],
      "stateMutability": "view",
      "type": "function"
    },
    {
      "inputs": [
        {
          "internalType": "bytes32",
          "name": "",
          "type": "bytes32"
        }
      ],
      "name": "books",
      "outputs": [
        {
          "internalType": "string",
          "name": "name",
          "type": "string"
        },
        {
          "internalType": "uint8",
          "name": "copies",
          "type": "uint8"
        },
        {
          "internalType": "bool",
          "name": "exists",
          "type": "bool"
        }
      ],
      "stateMutability": "view",
      "type": "function"
    },
    {
      "inputs": [
        {
          "internalType": "uint256",
          "name": "",
          "type": "uint256"
        }
      ],
      "name": "booksIds",
      "outputs": [
        {
          "internalType": "bytes32",
          "name": "",
          "type": "bytes32"
        }
      ],
      "stateMutability": "view",
      "type": "function"
    },
    {
      "inputs": [],
      "name": "owner",
      "outputs": [
        {
          "internalType": "address",
          "name": "",
          "type": "address"
        }
      ],
      "stateMutability": "view",
      "type": "function"
    },
    {
      "inputs": [],
      "name": "renounceOwnership",
      "outputs": [],
      "stateMutability": "nonpayable",
      "type": "function"
    },
    {
      "inputs": [],
      "name": "rentFee",
      "outputs": [
        {
          "internalType": "uint256",
          "name": "",
          "type": "uint256"
        }
      ],
      "stateMutability": "view",
      "type": "function"
    },
    {
      "inputs": [
        {
          "internalType": "address",
          "name": "newOwner",
          "type": "address"
        }
      ],
      "name": "transferOwnership",
      "outputs": [],
      "stateMutability": "nonpayable",
      "type": "function"
    },
    {
      "inputs": [
        {
          "internalType": "string",
          "name": "_name",
          "type": "string"
        },
        {
          "internalType": "uint8",
          "name": "_copies",
          "type": "uint8"
        }
      ],
      "name": "addBook",
      "outputs": [],
      "stateMutability": "nonpayable",
      "type": "function"
    },
    {
      "inputs": [
        {
          "internalType": "string",
          "name": "_bookName",
          "type": "string"
        },
        {
          "internalType": "uint8",
          "name": "_copies",
          "type": "uint8"
        }
      ],
      "name": "addCopies",
      "outputs": [],
      "stateMutability": "nonpayable",
      "type": "function"
    },
    {
      "inputs": [
        {
          "internalType": "string",
          "name": "_bookName",
          "type": "string"
        }
      ],
      "name": "borrowBook",
      "outputs": [],
      "stateMutability": "nonpayable",
      "type": "function"
    },
    {
      "inputs": [
        {
          "internalType": "string",
          "name": "_bookName",
          "type": "string"
        }
      ],
      "name": "returnBook",
      "outputs": [],
      "stateMutability": "nonpayable",
      "type": "function"
    },
    {
      "inputs": [
        {
          "internalType": "string",
          "name": "_bookName",
          "type": "string"
        }
      ],
      "name": "getBorrowers",
      "outputs": [
        {
          "internalType": "address[]",
          "name": "",
          "type": "address[]"
        }
      ],
      "stateMutability": "view",
      "type": "function"
    },
    {
      "inputs": [
        {
          "internalType": "string",
          "name": "_bookName",
          "type": "string"
        }
      ],
      "name": "getBook",
      "outputs": [
        {
          "components": [
            {
              "internalType": "string",
              "name": "name",
              "type": "string"
            },
            {
              "internalType": "uint8",
              "name": "copies",
              "type": "uint8"
            },
            {
              "internalType": "address[]",
              "name": "borrowers",
              "type": "address[]"
            },
            {
              "internalType": "bool",
              "name": "exists",
              "type": "bool"
            }
          ],
          "internalType": "struct BookLibrary.Book",
          "name": "",
          "type": "tuple"
        }
      ],
      "stateMutability": "view",
      "type": "function"
    },
    {
      "inputs": [
        {
          "internalType": "string",
          "name": "_bookName",
          "type": "string"
        }
      ],
      "name": "isBookBorrowedByCurrentUser",
      "outputs": [
        {
          "internalType": "bool",
          "name": "",
          "type": "bool"
        }
      ],
      "stateMutability": "view",
      "type": "function"
    },
    {
      "inputs": [],
      "name": "getBooksCount",
      "outputs": [
        {
          "internalType": "uint256",
          "name": "",
          "type": "uint256"
        }
      ],
      "stateMutability": "view",
      "type": "function"
    }
  ],
  "bytecode": "0x6080604052662386f26fc100006002553480156200001c57600080fd5b5060006200002f6200013f60201b60201c565b9050806000806101000a81548173ffffffffffffffffffffffffffffffffffffffff021916908373ffffffffffffffffffffffffffffffffffffffff1602179055508073ffffffffffffffffffffffffffffffffffffffff16600073ffffffffffffffffffffffffffffffffffffffff167f8be0079c531659141344cd1fd0a4f28419497f9722a3daafe3b4186f6b6457e060405160405180910390a350604051620000db9062000147565b604051809103906000f080158015620000f8573d6000803e3d6000fd5b50600160006101000a81548173ffffffffffffffffffffffffffffffffffffffff021916908373ffffffffffffffffffffffffffffffffffffffff16021790555062000155565b600033905090565b613ca4806200288983390190565b61272480620001656000396000f3fe608060405234801561001057600080fd5b50600436106100f55760003560e01c8063a63ac38e11610097578063c43c1dd611610066578063c43c1dd614610286578063ced96fe3146102a4578063dfd83d2a146102c0578063f2fde38b146102de576100f5565b8063a63ac38e146101ec578063b66d5c9114610208578063bf2b23ea14610238578063c37a836114610256576100f5565b8063533c9731116100d3578063533c973114610164578063582bcda514610194578063715018a6146101c45780638da5cb5b146101ce576100f5565b80630c0dee70146100fa5780631ef49a8c1461012c5780633ec2df5d14610148575b600080fd5b610114600480360381019061010f9190611c1f565b6102fa565b604051610123939291906122cd565b60405180910390f35b61014660048036038101906101419190611c71565b6103d6565b005b610162600480360381019061015d9190611cb2565b610623565b005b61017e60048036038101906101799190611c71565b610821565b60405161018b919061227c565b60405180910390f35b6101ae60048036038101906101a99190611c71565b61098a565b6040516101bb919061225a565b60405180910390f35b6101cc610b6b565b005b6101d6610ca5565b6040516101e39190612208565b60405180910390f35b61020660048036038101906102019190611cb2565b610cce565b005b610222600480360381019061021d9190611d06565b610f7a565b60405161022f9190612297565b60405180910390f35b610240610f9b565b60405161024d919061240d565b60405180910390f35b610270600480360381019061026b9190611c71565b610fa1565b60405161027d91906123eb565b60405180910390f35b61028e611273565b60405161029b91906122b2565b60405180910390f35b6102be60048036038101906102b99190611c71565b611299565b005b6102c86117ae565b6040516102d5919061240d565b60405180910390f35b6102f860048036038101906102f39190611bcd565b6117bb565b005b6004602052806000526040600020600091509050806000018054600181600116156101000203166002900480601f0160208091040260200160405190810160405280929190818152602001828054600181600116156101000203166002900480156103a65780601f1061037b576101008083540402835291602001916103a6565b820191906000526020600020905b81548152906001019060200180831161038957829003601f168201915b5050505050908060010160009054906101000a900460ff16908060030160009054906101000a900460ff16905083565b8060016000826040516020016103ec91906121f1565b604051602081830303815290604052805190602001209050811561047957600115156004600083815260200190815260200160002060030160009054906101000a900460ff16151514610474576040517f08c379a000000000000000000000000000000000000000000000000000000000815260040161046b906123ab565b60405180910390fd5b6104e4565b600015156004600083815260200190815260200160002060030160009054906101000a900460ff161515146104e3576040517f08c379a00000000000000000000000000000000000000000000000000000000081526004016104da9061238b565b60405180910390fd5b5b600033856040516020016104f99291906121c9565b604051602081830303815290604052805190602001209050600115156005600083815260200190815260200160002060009054906101000a900460ff16151514610578576040517f08c379a000000000000000000000000000000000000000000000000000000000815260040161056f9061234b565b60405180910390fd5b60008560405160200161058b91906121f1565b604051602081830303815290604052805190602001209050600060046000838152602001908152602001600020905080600101600081819054906101000a900460ff168092919060010191906101000a81548160ff021916908360ff1602179055505060006005600085815260200190815260200160002060006101000a81548160ff02191690831515021790555050505050505050565b61062b611964565b73ffffffffffffffffffffffffffffffffffffffff16610649610ca5565b73ffffffffffffffffffffffffffffffffffffffff161461069f576040517f08c379a00000000000000000000000000000000000000000000000000000000081526004016106969061236b565b60405180910390fd5b8160016000826040516020016106b591906121f1565b604051602081830303815290604052805190602001209050811561074257600115156004600083815260200190815260200160002060030160009054906101000a900460ff1615151461073d576040517f08c379a0000000000000000000000000000000000000000000000000000000008152600401610734906123ab565b60405180910390fd5b6107ad565b600015156004600083815260200190815260200160002060030160009054906101000a900460ff161515146107ac576040517f08c379a00000000000000000000000000000000000000000000000000000000081526004016107a39061238b565b60405180910390fd5b5b6000856040516020016107c091906121f1565b604051602081830303815290604052805190602001209050846004600083815260200190815260200160002060010160008282829054906101000a900460ff160192506101000a81548160ff021916908360ff160217905550505050505050565b600081600160008260405160200161083991906121f1565b60405160208183030381529060405280519060200120905081156108c657600115156004600083815260200190815260200160002060030160009054906101000a900460ff161515146108c1576040517f08c379a00000000000000000000000000000000000000000000000000000000081526004016108b8906123ab565b60405180910390fd5b610931565b600015156004600083815260200190815260200160002060030160009054906101000a900460ff16151514610930576040517f08c379a00000000000000000000000000000000000000000000000000000000081526004016109279061238b565b60405180910390fd5b5b600033866040516020016109469291906121c9565b6040516020818303038152906040528051906020012090506005600082815260200190815260200160002060009054906101000a900460ff16945050505050919050565b60608160016000826040516020016109a291906121f1565b6040516020818303038152906040528051906020012090508115610a2f57600115156004600083815260200190815260200160002060030160009054906101000a900460ff16151514610a2a576040517f08c379a0000000000000000000000000000000000000000000000000000000008152600401610a21906123ab565b60405180910390fd5b610a9a565b600015156004600083815260200190815260200160002060030160009054906101000a900460ff16151514610a99576040517f08c379a0000000000000000000000000000000000000000000000000000000008152600401610a909061238b565b60405180910390fd5b5b600085604051602001610aad91906121f1565b60405160208183030381529060405280519060200120905060046000828152602001908152602001600020600201805480602002602001604051908101604052809291908181526020018280548015610b5b57602002820191906000526020600020905b8160009054906101000a900473ffffffffffffffffffffffffffffffffffffffff1673ffffffffffffffffffffffffffffffffffffffff1681526020019060010190808311610b11575b5050505050945050505050919050565b610b73611964565b73ffffffffffffffffffffffffffffffffffffffff16610b91610ca5565b73ffffffffffffffffffffffffffffffffffffffff1614610be7576040517f08c379a0000000000000000000000000000000000000000000000000000000008152600401610bde9061236b565b60405180910390fd5b600073ffffffffffffffffffffffffffffffffffffffff1660008054906101000a900473ffffffffffffffffffffffffffffffffffffffff1673ffffffffffffffffffffffffffffffffffffffff167f8be0079c531659141344cd1fd0a4f28419497f9722a3daafe3b4186f6b6457e060405160405180910390a360008060006101000a81548173ffffffffffffffffffffffffffffffffffffffff021916908373ffffffffffffffffffffffffffffffffffffffff160217905550565b60008060009054906101000a900473ffffffffffffffffffffffffffffffffffffffff16905090565b610cd6611964565b73ffffffffffffffffffffffffffffffffffffffff16610cf4610ca5565b73ffffffffffffffffffffffffffffffffffffffff1614610d4a576040517f08c379a0000000000000000000000000000000000000000000000000000000008152600401610d419061236b565b60405180910390fd5b8160008082604051602001610d5f91906121f1565b6040516020818303038152906040528051906020012090508115610dec57600115156004600083815260200190815260200160002060030160009054906101000a900460ff16151514610de7576040517f08c379a0000000000000000000000000000000000000000000000000000000008152600401610dde906123ab565b60405180910390fd5b610e57565b600015156004600083815260200190815260200160002060030160009054906101000a900460ff16151514610e56576040517f08c379a0000000000000000000000000000000000000000000000000000000008152600401610e4d9061238b565b60405180910390fd5b5b600085604051602001610e6a91906121f1565b6040516020818303038152906040528051906020012090506060610e8c61196c565b60405180608001604052808981526020018860ff168152602001838152602001600115158152509050600383908060018154018082558091505060019003906000526020600020016000909190919091505580600460008581526020019081526020016000206000820151816000019080519060200190610f0e929190611999565b5060208201518160010160006101000a81548160ff021916908360ff1602179055506040820151816002019080519060200190610f4c929190611a19565b5060608201518160030160006101000a81548160ff0219169083151502179055509050505050505050505050565b60038181548110610f8757fe5b906000526020600020016000915090505481565b60025481565b610fa961196c565b816001600082604051602001610fbf91906121f1565b604051602081830303815290604052805190602001209050811561104c57600115156004600083815260200190815260200160002060030160009054906101000a900460ff16151514611047576040517f08c379a000000000000000000000000000000000000000000000000000000000815260040161103e906123ab565b60405180910390fd5b6110b7565b600015156004600083815260200190815260200160002060030160009054906101000a900460ff161515146110b6576040517f08c379a00000000000000000000000000000000000000000000000000000000081526004016110ad9061238b565b60405180910390fd5b5b6000856040516020016110ca91906121f1565b60405160208183030381529060405280519060200120905060046000828152602001908152602001600020604051806080016040529081600082018054600181600116156101000203166002900480601f0160208091040260200160405190810160405280929190818152602001828054600181600116156101000203166002900480156111995780601f1061116e57610100808354040283529160200191611199565b820191906000526020600020905b81548152906001019060200180831161117c57829003601f168201915b505050505081526020016001820160009054906101000a900460ff1660ff1660ff1681526020016002820180548060200260200160405190810160405280929190818152602001828054801561124457602002820191906000526020600020905b8160009054906101000a900473ffffffffffffffffffffffffffffffffffffffff1673ffffffffffffffffffffffffffffffffffffffff16815260200190600101908083116111fa575b505050505081526020016003820160009054906101000a900460ff161515151581525050945050505050919050565b600160009054906101000a900473ffffffffffffffffffffffffffffffffffffffff1681565b8060016000826040516020016112af91906121f1565b604051602081830303815290604052805190602001209050811561133c57600115156004600083815260200190815260200160002060030160009054906101000a900460ff16151514611337576040517f08c379a000000000000000000000000000000000000000000000000000000000815260040161132e906123ab565b60405180910390fd5b6113a7565b600015156004600083815260200190815260200160002060030160009054906101000a900460ff161515146113a6576040517f08c379a000000000000000000000000000000000000000000000000000000000815260040161139d9061238b565b60405180910390fd5b5b6000846040516020016113ba91906121f1565b604051602081830303815290604052805190602001209050600060046000838152602001908152602001600020905060008160010160009054906101000a900460ff1660ff1611611440576040517f08c379a00000000000000000000000000000000000000000000000000000000081526004016114379061230b565b60405180910390fd5b600033876040516020016114559291906121c9565b604051602081830303815290604052805190602001209050600015156005600083815260200190815260200160002060009054906101000a900460ff161515146114d4576040517f08c379a00000000000000000000000000000000000000000000000000000000081526004016114cb906123cb565b60405180910390fd5b6000600160009054906101000a900473ffffffffffffffffffffffffffffffffffffffff1673ffffffffffffffffffffffffffffffffffffffff16631ba3192b6040518163ffffffff1660e01b815260040160206040518083038186803b15801561153e57600080fd5b505afa158015611552573d6000803e3d6000fd5b505050506040513d601f19601f820116820180604052508101906115769190611c48565b90508073ffffffffffffffffffffffffffffffffffffffff166323b872dd33306002546040518463ffffffff1660e01b81526004016115b793929190612223565b602060405180830381600087803b1580156115d157600080fd5b505af11580156115e5573d6000803e3d6000fd5b505050506040513d601f19601f820116820180604052508101906116099190611bf6565b5060016005600084815260200190815260200160002060006101000a81548160ff02191690831515021790555082600101600081819054906101000a900460ff16809291906001900391906101000a81548160ff021916908360ff16021790555050600015156006600086815260200190815260200160002060003373ffffffffffffffffffffffffffffffffffffffff1673ffffffffffffffffffffffffffffffffffffffff16815260200190815260200160002060009054906101000a900460ff16151514156117a45782600201339080600181540180825580915050600190039060005260206000200160009091909190916101000a81548173ffffffffffffffffffffffffffffffffffffffff021916908373ffffffffffffffffffffffffffffffffffffffff16021790555060016006600086815260200190815260200160002060003373ffffffffffffffffffffffffffffffffffffffff1673ffffffffffffffffffffffffffffffffffffffff16815260200190815260200160002060006101000a81548160ff0219169083151502179055505b5050505050505050565b6000600380549050905090565b6117c3611964565b73ffffffffffffffffffffffffffffffffffffffff166117e1610ca5565b73ffffffffffffffffffffffffffffffffffffffff1614611837576040517f08c379a000000000000000000000000000000000000000000000000000000000815260040161182e9061236b565b60405180910390fd5b600073ffffffffffffffffffffffffffffffffffffffff168173ffffffffffffffffffffffffffffffffffffffff1614156118a7576040517f08c379a000000000000000000000000000000000000000000000000000000000815260040161189e9061232b565b60405180910390fd5b8073ffffffffffffffffffffffffffffffffffffffff1660008054906101000a900473ffffffffffffffffffffffffffffffffffffffff1673ffffffffffffffffffffffffffffffffffffffff167f8be0079c531659141344cd1fd0a4f28419497f9722a3daafe3b4186f6b6457e060405160405180910390a3806000806101000a81548173ffffffffffffffffffffffffffffffffffffffff021916908373ffffffffffffffffffffffffffffffffffffffff16021790555050565b600033905090565b604051806080016040528060608152602001600060ff168152602001606081526020016000151581525090565b828054600181600116156101000203166002900490600052602060002090601f016020900481019282601f106119da57805160ff1916838001178555611a08565b82800160010185558215611a08579182015b82811115611a075782518255916020019190600101906119ec565b5b509050611a159190611aa3565b5090565b828054828255906000526020600020908101928215611a92579160200282015b82811115611a915782518260006101000a81548173ffffffffffffffffffffffffffffffffffffffff021916908373ffffffffffffffffffffffffffffffffffffffff16021790555091602001919060010190611a39565b5b509050611a9f9190611ac0565b5090565b5b80821115611abc576000816000905550600101611aa4565b5090565b5b80821115611af757600081816101000a81549073ffffffffffffffffffffffffffffffffffffffff021916905550600101611ac1565b5090565b600081359050611b0a81612664565b92915050565b600081519050611b1f8161267b565b92915050565b600081359050611b3481612692565b92915050565b600081519050611b49816126a9565b92915050565b600082601f830112611b6057600080fd5b8135611b73611b6e82612455565b612428565b91508082526020830160208301858383011115611b8f57600080fd5b611b9a8382846125e0565b50505092915050565b600081359050611bb2816126c0565b92915050565b600081359050611bc7816126d7565b92915050565b600060208284031215611bdf57600080fd5b6000611bed84828501611afb565b91505092915050565b600060208284031215611c0857600080fd5b6000611c1684828501611b10565b91505092915050565b600060208284031215611c3157600080fd5b6000611c3f84828501611b25565b91505092915050565b600060208284031215611c5a57600080fd5b6000611c6884828501611b3a565b91505092915050565b600060208284031215611c8357600080fd5b600082013567ffffffffffffffff811115611c9d57600080fd5b611ca984828501611b4f565b91505092915050565b60008060408385031215611cc557600080fd5b600083013567ffffffffffffffff811115611cdf57600080fd5b611ceb85828601611b4f565b9250506020611cfc85828601611bb8565b9150509250929050565b600060208284031215611d1857600080fd5b6000611d2684828501611ba3565b91505092915050565b6000611d3b8383611d6d565b60208301905092915050565b611d5081612586565b82525050565b611d67611d6282612515565b612622565b82525050565b611d7681612503565b82525050565b611d8581612503565b82525050565b6000611d9682612491565b611da081856124b4565b9350611dab83612481565b8060005b83811015611ddc578151611dc38882611d2f565b9750611dce836124a7565b925050600181019050611daf565b5085935050505092915050565b6000611df482612491565b611dfe81856124c5565b9350611e0983612481565b8060005b83811015611e3a578151611e218882611d2f565b9750611e2c836124a7565b925050600181019050611e0d565b5085935050505092915050565b611e5081612527565b82525050565b611e5f81612527565b82525050565b611e6e81612533565b82525050565b611e7d81612598565b82525050565b6000611e8e8261249c565b611e9881856124d6565b9350611ea88185602086016125ef565b611eb181612646565b840191505092915050565b6000611ec78261249c565b611ed181856124e7565b9350611ee18185602086016125ef565b611eea81612646565b840191505092915050565b6000611f008261249c565b611f0a81856124f8565b9350611f1a8185602086016125ef565b80840191505092915050565b6000611f336013836124e7565b91507f4e6f206d6f726520636f70696573206c656674000000000000000000000000006000830152602082019050919050565b6000611f736026836124e7565b91507f4f776e61626c653a206e6577206f776e657220697320746865207a65726f206160008301527f64647265737300000000000000000000000000000000000000000000000000006020830152604082019050919050565b6000611fd96031836124e7565b91507f596f752063616e27742072657475726e206120626f6f6b207468617420796f7560008301527f20686176656e277420626f72726f7765640000000000000000000000000000006020830152604082019050919050565b600061203f6020836124e7565b91507f4f776e61626c653a2063616c6c6572206973206e6f7420746865206f776e65726000830152602082019050919050565b600061207f6014836124e7565b91507f426f6f6b20616c726561647920657869737473210000000000000000000000006000830152602082019050919050565b60006120bf6013836124e7565b91507f426f6f6b20646f65736e277420657869737421000000000000000000000000006000830152602082019050919050565b60006120ff6020836124e7565b91507f596f7527766520616c726561647920626f72726f7765642074686520626f6f6b6000830152602082019050919050565b6000608083016000830151848203600086015261214f8282611e83565b915050602083015161216460208601826121ab565b506040830151848203604086015261217c8282611d8b565b91505060608301516121916060860182611e47565b508091505092915050565b6121a58161256f565b82525050565b6121b481612579565b82525050565b6121c381612579565b82525050565b60006121d58285611d56565b6014820191506121e58284611ef5565b91508190509392505050565b60006121fd8284611ef5565b915081905092915050565b600060208201905061221d6000830184611d7c565b92915050565b60006060820190506122386000830186611d47565b6122456020830185611d7c565b612252604083018461219c565b949350505050565b600060208201905081810360008301526122748184611de9565b905092915050565b60006020820190506122916000830184611e56565b92915050565b60006020820190506122ac6000830184611e65565b92915050565b60006020820190506122c76000830184611e74565b92915050565b600060608201905081810360008301526122e78186611ebc565b90506122f660208301856121ba565b6123036040830184611e56565b949350505050565b6000602082019050818103600083015261232481611f26565b9050919050565b6000602082019050818103600083015261234481611f66565b9050919050565b6000602082019050818103600083015261236481611fcc565b9050919050565b6000602082019050818103600083015261238481612032565b9050919050565b600060208201905081810360008301526123a481612072565b9050919050565b600060208201905081810360008301526123c4816120b2565b9050919050565b600060208201905081810360008301526123e4816120f2565b9050919050565b600060208201905081810360008301526124058184612132565b905092915050565b6000602082019050612422600083018461219c565b92915050565b6000604051905081810181811067ffffffffffffffff8211171561244b57600080fd5b8060405250919050565b600067ffffffffffffffff82111561246c57600080fd5b601f19601f8301169050602081019050919050565b6000819050602082019050919050565b600081519050919050565b600081519050919050565b6000602082019050919050565b600082825260208201905092915050565b600082825260208201905092915050565b600082825260208201905092915050565b600082825260208201905092915050565b600081905092915050565b600061250e8261254f565b9050919050565b60006125208261254f565b9050919050565b60008115159050919050565b6000819050919050565b600061254882612503565b9050919050565b600073ffffffffffffffffffffffffffffffffffffffff82169050919050565b6000819050919050565b600060ff82169050919050565b6000612591826125bc565b9050919050565b60006125a3826125aa565b9050919050565b60006125b58261254f565b9050919050565b60006125c7826125ce565b9050919050565b60006125d98261254f565b9050919050565b82818337600083830152505050565b60005b8381101561260d5780820151818401526020810190506125f2565b8381111561261c576000848401525b50505050565b600061262d82612634565b9050919050565b600061263f82612657565b9050919050565b6000601f19601f8301169050919050565b60008160601b9050919050565b61266d81612503565b811461267857600080fd5b50565b61268481612527565b811461268f57600080fd5b50565b61269b81612533565b81146126a657600080fd5b50565b6126b28161253d565b81146126bd57600080fd5b50565b6126c98161256f565b81146126d457600080fd5b50565b6126e081612579565b81146126eb57600080fd5b5056fea2646970667358221220e58a257b41dea6bcb44cf1d99ad531ca4b8535eeaf6deb77c73a246a8a61c5ce64736f6c63430007000033608060405234801561001057600080fd5b50600061002161012d60201b60201c565b9050806000806101000a81548173ffffffffffffffffffffffffffffffffffffffff021916908373ffffffffffffffffffffffffffffffffffffffff1602179055508073ffffffffffffffffffffffffffffffffffffffff16600073ffffffffffffffffffffffffffffffffffffffff167f8be0079c531659141344cd1fd0a4f28419497f9722a3daafe3b4186f6b6457e060405160405180910390a3506040516100cb90610135565b604051809103906000f0801580156100e7573d6000803e3d6000fd5b50600160006101000a81548173ffffffffffffffffffffffffffffffffffffffff021916908373ffffffffffffffffffffffffffffffffffffffff160217905550610142565b600033905090565b612eda80610dca83390190565b610c79806101516000396000f3fe6080604052600436106100595760003560e01c80631ba3192b1461006d578063715018a6146100985780638da5cb5b146100af578063d46eb119146100da578063de0e9a3e146100e4578063f2fde38b1461010d57610068565b3661006857610066610136565b005b600080fd5b34801561007957600080fd5b50610082610243565b60405161008f9190610a95565b60405180910390f35b3480156100a457600080fd5b506100ad610269565b005b3480156100bb57600080fd5b506100c46103a3565b6040516100d19190610a1a565b60405180910390f35b6100e2610136565b005b3480156100f057600080fd5b5061010b6004803603810190610106919061088f565b6103cc565b005b34801561011957600080fd5b50610134600480360381019061012f919061083d565b61064d565b005b60003411610179576040517f08c379a000000000000000000000000000000000000000000000000000000000815260040161017090610ad0565b60405180910390fd5b600160009054906101000a900473ffffffffffffffffffffffffffffffffffffffff1673ffffffffffffffffffffffffffffffffffffffff166340c10f1933346040518363ffffffff1660e01b81526004016101d6929190610a6c565b600060405180830381600087803b1580156101f057600080fd5b505af1158015610204573d6000803e3d6000fd5b505050507f9c1359f4b53f71481ac276ccdffa0cc71cd40491a5b8636617ecd8e25d42e2b83334604051610239929190610a6c565b60405180910390a1565b600160009054906101000a900473ffffffffffffffffffffffffffffffffffffffff1681565b6102716107f6565b73ffffffffffffffffffffffffffffffffffffffff1661028f6103a3565b73ffffffffffffffffffffffffffffffffffffffff16146102e5576040517f08c379a00000000000000000000000000000000000000000000000000000000081526004016102dc90610b10565b60405180910390fd5b600073ffffffffffffffffffffffffffffffffffffffff1660008054906101000a900473ffffffffffffffffffffffffffffffffffffffff1673ffffffffffffffffffffffffffffffffffffffff167f8be0079c531659141344cd1fd0a4f28419497f9722a3daafe3b4186f6b6457e060405160405180910390a360008060006101000a81548173ffffffffffffffffffffffffffffffffffffffff021916908373ffffffffffffffffffffffffffffffffffffffff160217905550565b60008060009054906101000a900473ffffffffffffffffffffffffffffffffffffffff16905090565b6103d46107f6565b73ffffffffffffffffffffffffffffffffffffffff166103f26103a3565b73ffffffffffffffffffffffffffffffffffffffff1614610448576040517f08c379a000000000000000000000000000000000000000000000000000000000815260040161043f90610b10565b60405180910390fd5b6000811161048b576040517f08c379a000000000000000000000000000000000000000000000000000000000815260040161048290610af0565b60405180910390fd5b600160009054906101000a900473ffffffffffffffffffffffffffffffffffffffff1673ffffffffffffffffffffffffffffffffffffffff166323b872dd3330846040518463ffffffff1660e01b81526004016104ea93929190610a35565b602060405180830381600087803b15801561050457600080fd5b505af1158015610518573d6000803e3d6000fd5b505050506040513d601f19601f8201168201806040525081019061053c9190610866565b50600160009054906101000a900473ffffffffffffffffffffffffffffffffffffffff1673ffffffffffffffffffffffffffffffffffffffff166342966c68826040518263ffffffff1660e01b81526004016105989190610b30565b600060405180830381600087803b1580156105b257600080fd5b505af11580156105c6573d6000803e3d6000fd5b505050503373ffffffffffffffffffffffffffffffffffffffff166108fc829081150290604051600060405180830381858888f19350505050158015610610573d6000803e3d6000fd5b507f434a87dd0568dfbbb4bc8b6b51b072be25ff126809317b293b9ed43aaa84fd0e3382604051610642929190610a6c565b60405180910390a150565b6106556107f6565b73ffffffffffffffffffffffffffffffffffffffff166106736103a3565b73ffffffffffffffffffffffffffffffffffffffff16146106c9576040517f08c379a00000000000000000000000000000000000000000000000000000000081526004016106c090610b10565b60405180910390fd5b600073ffffffffffffffffffffffffffffffffffffffff168173ffffffffffffffffffffffffffffffffffffffff161415610739576040517f08c379a000000000000000000000000000000000000000000000000000000000815260040161073090610ab0565b60405180910390fd5b8073ffffffffffffffffffffffffffffffffffffffff1660008054906101000a900473ffffffffffffffffffffffffffffffffffffffff1673ffffffffffffffffffffffffffffffffffffffff167f8be0079c531659141344cd1fd0a4f28419497f9722a3daafe3b4186f6b6457e060405160405180910390a3806000806101000a81548173ffffffffffffffffffffffffffffffffffffffff021916908373ffffffffffffffffffffffffffffffffffffffff16021790555050565b600033905090565b60008135905061080d81610bfe565b92915050565b60008151905061082281610c15565b92915050565b60008135905061083781610c2c565b92915050565b60006020828403121561084f57600080fd5b600061085d848285016107fe565b91505092915050565b60006020828403121561087857600080fd5b600061088684828501610813565b91505092915050565b6000602082840312156108a157600080fd5b60006108af84828501610828565b91505092915050565b6108c181610ba4565b82525050565b6108d081610b5c565b82525050565b6108df81610bb6565b82525050565b60006108f2602683610b4b565b91507f4f776e61626c653a206e6577206f776e657220697320746865207a65726f206160008301527f64647265737300000000000000000000000000000000000000000000000000006020830152604082019050919050565b6000610958601e83610b4b565b91507f5765206e65656420746f2077726170206174206c6561737420312077656900006000830152602082019050919050565b6000610998602083610b4b565b91507f5765206e65656420746f20756e77726170206174206c656173742031207765696000830152602082019050919050565b60006109d8602083610b4b565b91507f4f776e61626c653a2063616c6c6572206973206e6f7420746865206f776e65726000830152602082019050919050565b610a1481610b9a565b82525050565b6000602082019050610a2f60008301846108c7565b92915050565b6000606082019050610a4a60008301866108b8565b610a5760208301856108b8565b610a646040830184610a0b565b949350505050565b6000604082019050610a8160008301856108b8565b610a8e6020830184610a0b565b9392505050565b6000602082019050610aaa60008301846108d6565b92915050565b60006020820190508181036000830152610ac9816108e5565b9050919050565b60006020820190508181036000830152610ae98161094b565b9050919050565b60006020820190508181036000830152610b098161098b565b9050919050565b60006020820190508181036000830152610b29816109cb565b9050919050565b6000602082019050610b456000830184610a0b565b92915050565b600082825260208201905092915050565b6000610b6782610b7a565b9050919050565b60008115159050919050565b600073ffffffffffffffffffffffffffffffffffffffff82169050919050565b6000819050919050565b6000610baf82610bda565b9050919050565b6000610bc182610bc8565b9050919050565b6000610bd382610b7a565b9050919050565b6000610be582610bec565b9050919050565b6000610bf782610b7a565b9050919050565b610c0781610b5c565b8114610c1257600080fd5b50565b610c1e81610b6e565b8114610c2957600080fd5b50565b610c3581610b9a565b8114610c4057600080fd5b5056fea26469706673582212207f3ab6d07c0b31b88531e4d72b60f08ce35fafc1173569eb4f3d5218ac48de0164736f6c6343000700003360806040523480156200001157600080fd5b506040518060400160405280600c81526020017f4c696272617279546f6b656e00000000000000000000000000000000000000008152506040518060400160405280600381526020017f4c4942000000000000000000000000000000000000000000000000000000000081525081818160049080519060200190620000989291906200032f565b508060059080519060200190620000b19291906200032f565b506012600660006101000a81548160ff021916908360ff16021790555050506000600660016101000a81548160ff0219169083151502179055506200010f6000801b620001036200019960201b60201c565b620001a160201b60201c565b620001507f9f2df0fed2c77648de5860a4cc508cd0818c85b8b8a1ab4ceeef8d981c8956a6620001446200019960201b60201c565b620001a160201b60201c565b620001917f65d7a28e3265b37a6474929f336521b332c1681b933f6cb9f3376673440d862a620001856200019960201b60201c565b620001a160201b60201c565b5050620003d5565b600033905090565b620001b38282620001b760201b60201c565b5050565b620001e5816000808581526020019081526020016000206000016200025a60201b62000e921790919060201c565b156200025657620001fb6200019960201b60201c565b73ffffffffffffffffffffffffffffffffffffffff168173ffffffffffffffffffffffffffffffffffffffff16837f2f8788117e7eff1d82e926ec794901d17c78024a50270940304540a733656f0d60405160405180910390a45b5050565b60006200028a836000018373ffffffffffffffffffffffffffffffffffffffff1660001b6200029260201b60201c565b905092915050565b6000620002a683836200030c60201b60201c565b6200030157826000018290806001815401808255809150506001900390600052602060002001600090919091909150558260000180549050836001016000848152602001908152602001600020819055506001905062000306565b600090505b92915050565b600080836001016000848152602001908152602001600020541415905092915050565b828054600181600116156101000203166002900490600052602060002090601f016020900481019282601f106200037257805160ff1916838001178555620003a3565b82800160010185558215620003a3579182015b82811115620003a257825182559160200191906001019062000385565b5b509050620003b29190620003b6565b5090565b5b80821115620003d1576000816000905550600101620003b7565b5090565b612af580620003e56000396000f3fe608060405234801561001057600080fd5b50600436106101a95760003560e01c806370a08231116100f9578063a457c2d711610097578063d539139311610071578063d5391393146104e2578063d547741f14610500578063dd62ed3e1461051c578063e63ab1e91461054c576101a9565b8063a457c2d714610452578063a9059cbb14610482578063ca15c873146104b2576101a9565b80639010d07c116100d35780639010d07c146103b657806391d14854146103e657806395d89b4114610416578063a217fddf14610434576101a9565b806370a082311461036057806379cc6790146103905780638456cb59146103ac576101a9565b8063313ce567116101665780633f4ba83a116101405780633f4ba83a1461030057806340c10f191461030a57806342966c68146103265780635c975abb14610342576101a9565b8063313ce5671461029657806336568abe146102b457806339509351146102d0576101a9565b806306fdde03146101ae578063095ea7b3146101cc57806318160ddd146101fc57806323b872dd1461021a578063248a9ca31461024a5780632f2ff15d1461027a575b600080fd5b6101b661056a565b6040516101c39190612634565b60405180910390f35b6101e660048036038101906101e19190611dc1565b61060c565b6040516101f391906125fe565b60405180910390f35b61020461062a565b6040516102119190612896565b60405180910390f35b610234600480360381019061022f9190611d72565b610634565b60405161024191906125fe565b60405180910390f35b610264600480360381019061025f9190611dfd565b61070d565b6040516102719190612619565b60405180910390f35b610294600480360381019061028f9190611e26565b61072c565b005b61029e61079f565b6040516102ab91906128b1565b60405180910390f35b6102ce60048036038101906102c99190611e26565b6107b6565b005b6102ea60048036038101906102e59190611dc1565b610839565b6040516102f791906125fe565b60405180910390f35b6103086108ec565b005b610324600480360381019061031f9190611dc1565b610966565b005b610340600480360381019061033b9190611e9e565b6109e4565b005b61034a6109f8565b60405161035791906125fe565b60405180910390f35b61037a60048036038101906103759190611d0d565b610a0f565b6040516103879190612896565b60405180910390f35b6103aa60048036038101906103a59190611dc1565b610a58565b005b6103b4610aba565b005b6103d060048036038101906103cb9190611e62565b610b34565b6040516103dd91906125c8565b60405180910390f35b61040060048036038101906103fb9190611e26565b610b65565b60405161040d91906125fe565b60405180910390f35b61041e610b96565b60405161042b9190612634565b60405180910390f35b61043c610c38565b6040516104499190612619565b60405180910390f35b61046c60048036038101906104679190611dc1565b610c3f565b60405161047991906125fe565b60405180910390f35b61049c60048036038101906104979190611dc1565b610d0c565b6040516104a991906125fe565b60405180910390f35b6104cc60048036038101906104c79190611dfd565b610d2a565b6040516104d99190612896565b60405180910390f35b6104ea610d50565b6040516104f79190612619565b60405180910390f35b61051a60048036038101906105159190611e26565b610d74565b005b61053660048036038101906105319190611d36565b610de7565b6040516105439190612896565b60405180910390f35b610554610e6e565b6040516105619190612619565b60405180910390f35b606060048054600181600116156101000203166002900480601f0160208091040260200160405190810160405280929190818152602001828054600181600116156101000203166002900480156106025780601f106105d757610100808354040283529160200191610602565b820191906000526020600020905b8154815290600101906020018083116105e557829003601f168201915b5050505050905090565b6000610620610619610ec2565b8484610eca565b6001905092915050565b6000600354905090565b6000610641848484611095565b6107028461064d610ec2565b6106fd85604051806060016040528060288152602001612a4f60289139600260008b73ffffffffffffffffffffffffffffffffffffffff1673ffffffffffffffffffffffffffffffffffffffff16815260200190815260200160002060006106b3610ec2565b73ffffffffffffffffffffffffffffffffffffffff1673ffffffffffffffffffffffffffffffffffffffff1681526020019081526020016000205461132e9092919063ffffffff16565b610eca565b600190509392505050565b6000806000838152602001908152602001600020600201549050919050565b6107526000808481526020019081526020016000206002015461074d610ec2565b610b65565b610791576040517f08c379a000000000000000000000000000000000000000000000000000000000815260040161078890612696565b60405180910390fd5b61079b8282611383565b5050565b6000600660009054906101000a900460ff16905090565b6107be610ec2565b73ffffffffffffffffffffffffffffffffffffffff168173ffffffffffffffffffffffffffffffffffffffff161461082b576040517f08c379a000000000000000000000000000000000000000000000000000000000815260040161082290612836565b60405180910390fd5b6108358282611416565b5050565b60006108e2610846610ec2565b846108dd8560026000610857610ec2565b73ffffffffffffffffffffffffffffffffffffffff1673ffffffffffffffffffffffffffffffffffffffff16815260200190815260200160002060008973ffffffffffffffffffffffffffffffffffffffff1673ffffffffffffffffffffffffffffffffffffffff168152602001908152602001600020546114a990919063ffffffff16565b610eca565b6001905092915050565b61091d7f65d7a28e3265b37a6474929f336521b332c1681b933f6cb9f3376673440d862a610918610ec2565b610b65565b61095c576040517f08c379a0000000000000000000000000000000000000000000000000000000008152600401610953906126d6565b60405180910390fd5b6109646114fe565b565b6109977f9f2df0fed2c77648de5860a4cc508cd0818c85b8b8a1ab4ceeef8d981c8956a6610992610ec2565b610b65565b6109d6576040517f08c379a00000000000000000000000000000000000000000000000000000000081526004016109cd90612796565b60405180910390fd5b6109e082826115a0565b5050565b6109f56109ef610ec2565b82611736565b50565b6000600660019054906101000a900460ff16905090565b6000600160008373ffffffffffffffffffffffffffffffffffffffff1673ffffffffffffffffffffffffffffffffffffffff168152602001908152602001600020549050919050565b6000610a9782604051806060016040528060248152602001612a7760249139610a8886610a83610ec2565b610de7565b61132e9092919063ffffffff16565b9050610aab83610aa5610ec2565b83610eca565b610ab58383611736565b505050565b610aeb7f65d7a28e3265b37a6474929f336521b332c1681b933f6cb9f3376673440d862a610ae6610ec2565b610b65565b610b2a576040517f08c379a0000000000000000000000000000000000000000000000000000000008152600401610b2190612816565b60405180910390fd5b610b326118e6565b565b6000610b5d8260008086815260200190815260200160002060000161198990919063ffffffff16565b905092915050565b6000610b8e826000808681526020019081526020016000206000016119a390919063ffffffff16565b905092915050565b606060058054600181600116156101000203166002900480601f016020809104026020016040519081016040528092919081815260200182805460018160011615610100020316600290048015610c2e5780601f10610c0357610100808354040283529160200191610c2e565b820191906000526020600020905b815481529060010190602001808311610c1157829003601f168201915b5050505050905090565b6000801b81565b6000610d02610c4c610ec2565b84610cfd85604051806060016040528060258152602001612a9b6025913960026000610c76610ec2565b73ffffffffffffffffffffffffffffffffffffffff1673ffffffffffffffffffffffffffffffffffffffff16815260200190815260200160002060008a73ffffffffffffffffffffffffffffffffffffffff1673ffffffffffffffffffffffffffffffffffffffff1681526020019081526020016000205461132e9092919063ffffffff16565b610eca565b6001905092915050565b6000610d20610d19610ec2565b8484611095565b6001905092915050565b6000610d496000808481526020019081526020016000206000016119d3565b9050919050565b7f9f2df0fed2c77648de5860a4cc508cd0818c85b8b8a1ab4ceeef8d981c8956a681565b610d9a60008084815260200190815260200160002060020154610d95610ec2565b610b65565b610dd9576040517f08c379a0000000000000000000000000000000000000000000000000000000008152600401610dd090612756565b60405180910390fd5b610de38282611416565b5050565b6000600260008473ffffffffffffffffffffffffffffffffffffffff1673ffffffffffffffffffffffffffffffffffffffff16815260200190815260200160002060008373ffffffffffffffffffffffffffffffffffffffff1673ffffffffffffffffffffffffffffffffffffffff16815260200190815260200160002054905092915050565b7f65d7a28e3265b37a6474929f336521b332c1681b933f6cb9f3376673440d862a81565b6000610eba836000018373ffffffffffffffffffffffffffffffffffffffff1660001b6119e8565b905092915050565b600033905090565b600073ffffffffffffffffffffffffffffffffffffffff168373ffffffffffffffffffffffffffffffffffffffff161415610f3a576040517f08c379a0000000000000000000000000000000000000000000000000000000008152600401610f31906127f6565b60405180910390fd5b600073ffffffffffffffffffffffffffffffffffffffff168273ffffffffffffffffffffffffffffffffffffffff161415610faa576040517f08c379a0000000000000000000000000000000000000000000000000000000008152600401610fa1906126f6565b60405180910390fd5b80600260008573ffffffffffffffffffffffffffffffffffffffff1673ffffffffffffffffffffffffffffffffffffffff16815260200190815260200160002060008473ffffffffffffffffffffffffffffffffffffffff1673ffffffffffffffffffffffffffffffffffffffff168152602001908152602001600020819055508173ffffffffffffffffffffffffffffffffffffffff168373ffffffffffffffffffffffffffffffffffffffff167f8c5be1e5ebec7d5bd14f71427d1e84f3dd0314c0f7b2291e5b200ac8c7c3b925836040516110889190612896565b60405180910390a3505050565b600073ffffffffffffffffffffffffffffffffffffffff168373ffffffffffffffffffffffffffffffffffffffff161415611105576040517f08c379a00000000000000000000000000000000000000000000000000000000081526004016110fc906127d6565b60405180910390fd5b600073ffffffffffffffffffffffffffffffffffffffff168273ffffffffffffffffffffffffffffffffffffffff161415611175576040517f08c379a000000000000000000000000000000000000000000000000000000000815260040161116c90612676565b60405180910390fd5b611180838383611a58565b6111ec81604051806060016040528060268152602001612a2960269139600160008773ffffffffffffffffffffffffffffffffffffffff1673ffffffffffffffffffffffffffffffffffffffff1681526020019081526020016000205461132e9092919063ffffffff16565b600160008573ffffffffffffffffffffffffffffffffffffffff1673ffffffffffffffffffffffffffffffffffffffff1681526020019081526020016000208190555061128181600160008573ffffffffffffffffffffffffffffffffffffffff1673ffffffffffffffffffffffffffffffffffffffff168152602001908152602001600020546114a990919063ffffffff16565b600160008473ffffffffffffffffffffffffffffffffffffffff1673ffffffffffffffffffffffffffffffffffffffff168152602001908152602001600020819055508173ffffffffffffffffffffffffffffffffffffffff168373ffffffffffffffffffffffffffffffffffffffff167fddf252ad1be2c89b69c2b068fc378daa952ba7f163c4a11628f55a4df523b3ef836040516113219190612896565b60405180910390a3505050565b6000838311158290611376576040517f08c379a000000000000000000000000000000000000000000000000000000000815260040161136d9190612634565b60405180910390fd5b5082840390509392505050565b6113aa81600080858152602001908152602001600020600001610e9290919063ffffffff16565b15611412576113b7610ec2565b73ffffffffffffffffffffffffffffffffffffffff168173ffffffffffffffffffffffffffffffffffffffff16837f2f8788117e7eff1d82e926ec794901d17c78024a50270940304540a733656f0d60405160405180910390a45b5050565b61143d81600080858152602001908152602001600020600001611a6890919063ffffffff16565b156114a55761144a610ec2565b73ffffffffffffffffffffffffffffffffffffffff168173ffffffffffffffffffffffffffffffffffffffff16837ff6391f5c32d9c69d2a47ea670b442974b53935d1edc7fd64eb21e047a839171b60405160405180910390a45b5050565b6000808284019050838110156114f4576040517f08c379a00000000000000000000000000000000000000000000000000000000081526004016114eb90612716565b60405180910390fd5b8091505092915050565b6115066109f8565b611545576040517f08c379a000000000000000000000000000000000000000000000000000000000815260040161153c906126b6565b60405180910390fd5b6000600660016101000a81548160ff0219169083151502179055507f5db9ee0a495bf2e6ff9c91a7834c1ba4fdd244a5e8aa4e537bd38aeae4b073aa611589610ec2565b60405161159691906125e3565b60405180910390a1565b600073ffffffffffffffffffffffffffffffffffffffff168273ffffffffffffffffffffffffffffffffffffffff161415611610576040517f08c379a000000000000000000000000000000000000000000000000000000000815260040161160790612856565b60405180910390fd5b61161c60008383611a58565b611631816003546114a990919063ffffffff16565b60038190555061168981600160008573ffffffffffffffffffffffffffffffffffffffff1673ffffffffffffffffffffffffffffffffffffffff168152602001908152602001600020546114a990919063ffffffff16565b600160008473ffffffffffffffffffffffffffffffffffffffff1673ffffffffffffffffffffffffffffffffffffffff168152602001908152602001600020819055508173ffffffffffffffffffffffffffffffffffffffff16600073ffffffffffffffffffffffffffffffffffffffff167fddf252ad1be2c89b69c2b068fc378daa952ba7f163c4a11628f55a4df523b3ef8360405161172a9190612896565b60405180910390a35050565b600073ffffffffffffffffffffffffffffffffffffffff168273ffffffffffffffffffffffffffffffffffffffff1614156117a6576040517f08c379a000000000000000000000000000000000000000000000000000000000815260040161179d906127b6565b60405180910390fd5b6117b282600083611a58565b61181e81604051806060016040528060228152602001612a0760229139600160008673ffffffffffffffffffffffffffffffffffffffff1673ffffffffffffffffffffffffffffffffffffffff1681526020019081526020016000205461132e9092919063ffffffff16565b600160008473ffffffffffffffffffffffffffffffffffffffff1673ffffffffffffffffffffffffffffffffffffffff1681526020019081526020016000208190555061187681600354611a9890919063ffffffff16565b600381905550600073ffffffffffffffffffffffffffffffffffffffff168273ffffffffffffffffffffffffffffffffffffffff167fddf252ad1be2c89b69c2b068fc378daa952ba7f163c4a11628f55a4df523b3ef836040516118da9190612896565b60405180910390a35050565b6118ee6109f8565b1561192e576040517f08c379a000000000000000000000000000000000000000000000000000000000815260040161192590612776565b60405180910390fd5b6001600660016101000a81548160ff0219169083151502179055507f62e78cea01bee320cd4e420270b5ea74000d11b0c9f74754ebdbfc544b05a258611972610ec2565b60405161197f91906125e3565b60405180910390a1565b60006119988360000183611ae8565b60001c905092915050565b60006119cb836000018373ffffffffffffffffffffffffffffffffffffffff1660001b611b55565b905092915050565b60006119e182600001611b78565b9050919050565b60006119f48383611b55565b611a4d578260000182908060018154018082558091505060019003906000526020600020016000909190919091505582600001805490508360010160008481526020019081526020016000208190555060019050611a52565b600090505b92915050565b611a63838383611b89565b505050565b6000611a90836000018373ffffffffffffffffffffffffffffffffffffffff1660001b611be1565b905092915050565b600082821115611add576040517f08c379a0000000000000000000000000000000000000000000000000000000008152600401611ad490612736565b60405180910390fd5b818303905092915050565b600081836000018054905011611b33576040517f08c379a0000000000000000000000000000000000000000000000000000000008152600401611b2a90612656565b60405180910390fd5b826000018281548110611b4257fe5b9060005260206000200154905092915050565b600080836001016000848152602001908152602001600020541415905092915050565b600081600001805490509050919050565b611b94838383611cc9565b611b9c6109f8565b15611bdc576040517f08c379a0000000000000000000000000000000000000000000000000000000008152600401611bd390612876565b60405180910390fd5b505050565b60008083600101600084815260200190815260200160002054905060008114611cbd5760006001820390506000600186600001805490500390506000866000018281548110611c2c57fe5b9060005260206000200154905080876000018481548110611c4957fe5b9060005260206000200181905550600183018760010160008381526020019081526020016000208190555086600001805480611c8157fe5b60019003818190600052602060002001600090559055866001016000878152602001908152602001600020600090556001945050505050611cc3565b60009150505b92915050565b505050565b600081359050611cdd816129c1565b92915050565b600081359050611cf2816129d8565b92915050565b600081359050611d07816129ef565b92915050565b600060208284031215611d1f57600080fd5b6000611d2d84828501611cce565b91505092915050565b60008060408385031215611d4957600080fd5b6000611d5785828601611cce565b9250506020611d6885828601611cce565b9150509250929050565b600080600060608486031215611d8757600080fd5b6000611d9586828701611cce565b9350506020611da686828701611cce565b9250506040611db786828701611cf8565b9150509250925092565b60008060408385031215611dd457600080fd5b6000611de285828601611cce565b9250506020611df385828601611cf8565b9150509250929050565b600060208284031215611e0f57600080fd5b6000611e1d84828501611ce3565b91505092915050565b60008060408385031215611e3957600080fd5b6000611e4785828601611ce3565b9250506020611e5885828601611cce565b9150509250929050565b60008060408385031215611e7557600080fd5b6000611e8385828601611ce3565b9250506020611e9485828601611cf8565b9150509250929050565b600060208284031215611eb057600080fd5b6000611ebe84828501611cf8565b91505092915050565b611ed081612947565b82525050565b611edf816128e8565b82525050565b611eee816128fa565b82525050565b611efd81612906565b82525050565b6000611f0e826128cc565b611f1881856128d7565b9350611f2881856020860161297d565b611f31816129b0565b840191505092915050565b6000611f496022836128d7565b91507f456e756d657261626c655365743a20696e646578206f7574206f6620626f756e60008301527f64730000000000000000000000000000000000000000000000000000000000006020830152604082019050919050565b6000611faf6023836128d7565b91507f45524332303a207472616e7366657220746f20746865207a65726f206164647260008301527f65737300000000000000000000000000000000000000000000000000000000006020830152604082019050919050565b6000612015602f836128d7565b91507f416363657373436f6e74726f6c3a2073656e646572206d75737420626520616e60008301527f2061646d696e20746f206772616e7400000000000000000000000000000000006020830152604082019050919050565b600061207b6014836128d7565b91507f5061757361626c653a206e6f74207061757365640000000000000000000000006000830152602082019050919050565b60006120bb6039836128d7565b91507f45524332305072657365744d696e7465725061757365723a206d75737420686160008301527f76652070617573657220726f6c6520746f20756e7061757365000000000000006020830152604082019050919050565b60006121216022836128d7565b91507f45524332303a20617070726f766520746f20746865207a65726f20616464726560008301527f73730000000000000000000000000000000000000000000000000000000000006020830152604082019050919050565b6000612187601b836128d7565b91507f536166654d6174683a206164646974696f6e206f766572666c6f7700000000006000830152602082019050919050565b60006121c7601e836128d7565b91507f536166654d6174683a207375627472616374696f6e206f766572666c6f7700006000830152602082019050919050565b60006122076030836128d7565b91507f416363657373436f6e74726f6c3a2073656e646572206d75737420626520616e60008301527f2061646d696e20746f207265766f6b65000000000000000000000000000000006020830152604082019050919050565b600061226d6010836128d7565b91507f5061757361626c653a20706175736564000000000000000000000000000000006000830152602082019050919050565b60006122ad6036836128d7565b91507f45524332305072657365744d696e7465725061757365723a206d75737420686160008301527f7665206d696e74657220726f6c6520746f206d696e74000000000000000000006020830152604082019050919050565b60006123136021836128d7565b91507f45524332303a206275726e2066726f6d20746865207a65726f2061646472657360008301527f73000000000000000000000000000000000000000000000000000000000000006020830152604082019050919050565b60006123796025836128d7565b91507f45524332303a207472616e736665722066726f6d20746865207a65726f20616460008301527f64726573730000000000000000000000000000000000000000000000000000006020830152604082019050919050565b60006123df6024836128d7565b91507f45524332303a20617070726f76652066726f6d20746865207a65726f2061646460008301527f72657373000000000000000000000000000000000000000000000000000000006020830152604082019050919050565b60006124456037836128d7565b91507f45524332305072657365744d696e7465725061757365723a206d75737420686160008301527f76652070617573657220726f6c6520746f2070617573650000000000000000006020830152604082019050919050565b60006124ab602f836128d7565b91507f416363657373436f6e74726f6c3a2063616e206f6e6c792072656e6f756e636560008301527f20726f6c657320666f722073656c6600000000000000000000000000000000006020830152604082019050919050565b6000612511601f836128d7565b91507f45524332303a206d696e7420746f20746865207a65726f2061646472657373006000830152602082019050919050565b6000612551602a836128d7565b91507f45524332305061757361626c653a20746f6b656e207472616e7366657220776860008301527f696c6520706175736564000000000000000000000000000000000000000000006020830152604082019050919050565b6125b381612930565b82525050565b6125c28161293a565b82525050565b60006020820190506125dd6000830184611ed6565b92915050565b60006020820190506125f86000830184611ec7565b92915050565b60006020820190506126136000830184611ee5565b92915050565b600060208201905061262e6000830184611ef4565b92915050565b6000602082019050818103600083015261264e8184611f03565b905092915050565b6000602082019050818103600083015261266f81611f3c565b9050919050565b6000602082019050818103600083015261268f81611fa2565b9050919050565b600060208201905081810360008301526126af81612008565b9050919050565b600060208201905081810360008301526126cf8161206e565b9050919050565b600060208201905081810360008301526126ef816120ae565b9050919050565b6000602082019050818103600083015261270f81612114565b9050919050565b6000602082019050818103600083015261272f8161217a565b9050919050565b6000602082019050818103600083015261274f816121ba565b9050919050565b6000602082019050818103600083015261276f816121fa565b9050919050565b6000602082019050818103600083015261278f81612260565b9050919050565b600060208201905081810360008301526127af816122a0565b9050919050565b600060208201905081810360008301526127cf81612306565b9050919050565b600060208201905081810360008301526127ef8161236c565b9050919050565b6000602082019050818103600083015261280f816123d2565b9050919050565b6000602082019050818103600083015261282f81612438565b9050919050565b6000602082019050818103600083015261284f8161249e565b9050919050565b6000602082019050818103600083015261286f81612504565b9050919050565b6000602082019050818103600083015261288f81612544565b9050919050565b60006020820190506128ab60008301846125aa565b92915050565b60006020820190506128c660008301846125b9565b92915050565b600081519050919050565b600082825260208201905092915050565b60006128f382612910565b9050919050565b60008115159050919050565b6000819050919050565b600073ffffffffffffffffffffffffffffffffffffffff82169050919050565b6000819050919050565b600060ff82169050919050565b600061295282612959565b9050919050565b60006129648261296b565b9050919050565b600061297682612910565b9050919050565b60005b8381101561299b578082015181840152602081019050612980565b838111156129aa576000848401525b50505050565b6000601f19601f8301169050919050565b6129ca816128e8565b81146129d557600080fd5b50565b6129e181612906565b81146129ec57600080fd5b50565b6129f881612930565b8114612a0357600080fd5b5056fe45524332303a206275726e20616d6f756e7420657863656564732062616c616e636545524332303a207472616e7366657220616d6f756e7420657863656564732062616c616e636545524332303a207472616e7366657220616d6f756e74206578636565647320616c6c6f77616e636545524332303a206275726e20616d6f756e74206578636565647320616c6c6f77616e636545524332303a2064656372656173656420616c6c6f77616e63652062656c6f77207a65726fa26469706673582212209c32345d19fc852f94b41982e1454536a244f701ca886ebf1a7502ca5d5df32264736f6c63430007000033",
  "source": "// SPDX-License-Identifier: UNLICENSED\n\npragma solidity ^0.7.0;\npragma experimental ABIEncoderV2;\n\nimport \"@openzeppelin/contracts/access/Ownable.sol\";\nimport \"./LibraryToken.sol\";\nimport \"./LibWrapper.sol\";\n\ncontract BookLibrary is Ownable {\n    LIBWrapper public LIBTokenWrapper;\n\n    uint public rentFee = 10000000000000000;\n\n    bytes32[] public booksIds;\n    mapping(bytes32 => Book) public books;\n\n    mapping(bytes32 => bool) private userBorrowedBooks;\n    mapping(bytes32 => mapping (address => bool)) private hasUserBorrowedBefore;\n\n    struct Book {\n        string name;\n        uint8 copies;\n        address[] borrowers;\n        bool exists;\n    }\n\n    constructor() {\n      LIBTokenWrapper = new LIBWrapper();\n    }\n    \n    modifier bookShouldExist(string memory _name, bool shouldExist) {\n        bytes32 encodedName = keccak256(abi.encodePacked(_name));\n        if (shouldExist) {\n          require(books[encodedName].exists == true, \"Book doesn't exist!\");\n        } else {\n          require(books[encodedName].exists == false, \"Book already exists!\");\n        }\n        _;\n    }\n\n    function addBook (string memory _name, uint8 _copies) external onlyOwner bookShouldExist(_name, false) {\n        bytes32 encodedName = keccak256(abi.encodePacked(_name));\n\n        address[] memory borrowers;\n        Book memory newBook = Book(_name, _copies, borrowers, true);\n        booksIds.push(encodedName);\n        books[encodedName] = newBook;\n    }\n    \n    function addCopies(string memory _bookName, uint8 _copies) external onlyOwner bookShouldExist(_bookName, true) {\n        bytes32 encodedName = keccak256(abi.encodePacked(_bookName));\n        books[encodedName].copies += _copies;\n    }\n    \n    function borrowBook(string memory _bookName) external bookShouldExist(_bookName, true){    \n        bytes32 encodedName = keccak256(abi.encodePacked(_bookName));\n        Book storage book = books[encodedName]; \n\n        // User can't borrow booksArray with no copies left;\n        require(book.copies > 0, \"No more copies left\");\n    \n        // User shouldn't borrow the same book more than once;\n        bytes32 hash = keccak256(abi.encodePacked(msg.sender, _bookName));\n        require(userBorrowedBooks[hash] == false, \"You've already borrowed the book\");\n\n        LibraryToken libToken = LIBTokenWrapper.LIBToken();\n        // Approve rent for transfer\n        // libToken.increaseAllowance(msg.sender, rentFee);\n        // libToken.approve(msg.sender, rentFee);\n\n        // Transfer rent fee\n        libToken.transferFrom(msg.sender, address(this), rentFee);\n\n        userBorrowedBooks[hash] = true;\n        book.copies--;\n        if (hasUserBorrowedBefore[encodedName][msg.sender] == false) {\n            book.borrowers.push(msg.sender);\n            hasUserBorrowedBefore[encodedName][msg.sender] = true;\n        }\n    }\n    \n    function returnBook(string memory _bookName) external bookShouldExist(_bookName, true) {\n        //Check if user has borrowed this book;\n        bytes32 hash = keccak256(abi.encodePacked(msg.sender, _bookName));\n        require(userBorrowedBooks[hash] == true, \"You can't return a book that you haven't borrowed\");\n        \n        bytes32 encodedName = keccak256(abi.encodePacked(_bookName));\n        Book storage book = books[encodedName];\n        book.copies++;\n        userBorrowedBooks[hash] = false;\n    }\n    \n\n    function getBorrowers(string memory _bookName) external view bookShouldExist(_bookName, true) returns (address[] memory) {\n        bytes32 encodedName = keccak256(abi.encodePacked(_bookName));\n        return books[encodedName].borrowers;\n    }\n\n    function getBook (string memory _bookName) external view bookShouldExist(_bookName, true) returns (Book memory) {\n        bytes32 encodedName = keccak256(abi.encodePacked(_bookName));\n        return books[encodedName];\n    }\n\n    function isBookBorrowedByCurrentUser(string memory _bookName) external view bookShouldExist(_bookName, true) returns(bool) {\n        bytes32 key = keccak256(abi.encodePacked(msg.sender, _bookName));\n        return userBorrowedBooks[key];\n    }\n\n    function getBooksCount() external view returns(uint) {\n        return booksIds.length;\n    }  \n} ",
  "sourcePath": "/Users/viktortodorov/Desktop/BookLibrary/contracts/BookLibrary.sol",
  "compiler": {
    "name": "solc",
    "version": "0.7.0+commit.9e61f92b.Emscripten.clang",
    "optimizer": false,
    "runs": 200
  },
  "schemaVersion": "2.3.5",
  "updatedAt": "2021-06-14T14:10:33.756Z"
}