{
  "contractName": "BookLibrary",
  "abi": [
    {
      "inputs": [
        {
          "internalType": "address payable",
          "name": "_wrapperAddress",
          "type": "address"
        },
        {
          "internalType": "address",
          "name": "_tokenAddress",
          "type": "address"
        }
      ],
      "stateMutability": "nonpayable",
      "type": "constructor"
    },
    {
      "anonymous": false,
      "inputs": [
        {
          "indexed": false,
          "internalType": "string",
          "name": "bookName",
          "type": "string"
        },
        {
          "indexed": false,
          "internalType": "uint8",
          "name": "copies",
          "type": "uint8"
        }
      ],
      "name": "LogBookAdded",
      "type": "event"
    },
    {
      "anonymous": false,
      "inputs": [
        {
          "indexed": false,
          "internalType": "string",
          "name": "bookName",
          "type": "string"
        },
        {
          "indexed": false,
          "internalType": "address",
          "name": "borrower",
          "type": "address"
        }
      ],
      "name": "LogBookBorrowed",
      "type": "event"
    },
    {
      "anonymous": false,
      "inputs": [
        {
          "indexed": false,
          "internalType": "string",
          "name": "bookName",
          "type": "string"
        },
        {
          "indexed": false,
          "internalType": "address",
          "name": "returner",
          "type": "address"
        }
      ],
      "name": "LogBookReturned",
      "type": "event"
    },
    {
      "anonymous": false,
      "inputs": [
        {
          "indexed": true,
          "internalType": "address",
          "name": "previousOwner",
          "type": "address"
        },
        {
          "indexed": true,
          "internalType": "address",
          "name": "newOwner",
          "type": "address"
        }
      ],
      "name": "OwnershipTransferred",
      "type": "event"
    },
    {
      "inputs": [],
      "name": "LIBToken",
      "outputs": [
        {
          "internalType": "contract LibraryToken",
          "name": "",
          "type": "address"
        }
      ],
      "stateMutability": "view",
      "type": "function"
    },
    {
      "inputs": [],
      "name": "LIBTokenWrapper",
      "outputs": [
        {
          "internalType": "contract LIBWrapper",
          "name": "",
          "type": "address"
        }
      ],
      "stateMutability": "view",
      "type": "function"
    },
    {
      "inputs": [
        {
          "internalType": "bytes32",
          "name": "",
          "type": "bytes32"
        }
      ],
      "name": "books",
      "outputs": [
        {
          "internalType": "string",
          "name": "name",
          "type": "string"
        },
        {
          "internalType": "uint8",
          "name": "copies",
          "type": "uint8"
        },
        {
          "internalType": "bool",
          "name": "exists",
          "type": "bool"
        }
      ],
      "stateMutability": "view",
      "type": "function"
    },
    {
      "inputs": [
        {
          "internalType": "uint256",
          "name": "",
          "type": "uint256"
        }
      ],
      "name": "booksIds",
      "outputs": [
        {
          "internalType": "bytes32",
          "name": "",
          "type": "bytes32"
        }
      ],
      "stateMutability": "view",
      "type": "function"
    },
    {
      "inputs": [],
      "name": "libTokenWrapperAddress",
      "outputs": [
        {
          "internalType": "address payable",
          "name": "",
          "type": "address"
        }
      ],
      "stateMutability": "view",
      "type": "function"
    },
    {
      "inputs": [],
      "name": "owner",
      "outputs": [
        {
          "internalType": "address",
          "name": "",
          "type": "address"
        }
      ],
      "stateMutability": "view",
      "type": "function"
    },
    {
      "inputs": [],
      "name": "renounceOwnership",
      "outputs": [],
      "stateMutability": "nonpayable",
      "type": "function"
    },
    {
      "inputs": [],
      "name": "rentFee",
      "outputs": [
        {
          "internalType": "uint256",
          "name": "",
          "type": "uint256"
        }
      ],
      "stateMutability": "view",
      "type": "function"
    },
    {
      "inputs": [
        {
          "internalType": "address",
          "name": "newOwner",
          "type": "address"
        }
      ],
      "name": "transferOwnership",
      "outputs": [],
      "stateMutability": "nonpayable",
      "type": "function"
    },
    {
      "inputs": [
        {
          "internalType": "string",
          "name": "_name",
          "type": "string"
        },
        {
          "internalType": "uint8",
          "name": "_copies",
          "type": "uint8"
        }
      ],
      "name": "addBook",
      "outputs": [],
      "stateMutability": "nonpayable",
      "type": "function"
    },
    {
      "inputs": [
        {
          "internalType": "string",
          "name": "_bookName",
          "type": "string"
        },
        {
          "internalType": "uint8",
          "name": "_copies",
          "type": "uint8"
        }
      ],
      "name": "addCopies",
      "outputs": [],
      "stateMutability": "nonpayable",
      "type": "function"
    },
    {
      "inputs": [
        {
          "internalType": "string",
          "name": "_bookName",
          "type": "string"
        }
      ],
      "name": "borrowBook",
      "outputs": [],
      "stateMutability": "nonpayable",
      "type": "function"
    },
    {
      "inputs": [
        {
          "internalType": "string",
          "name": "_bookName",
          "type": "string"
        }
      ],
      "name": "returnBook",
      "outputs": [],
      "stateMutability": "nonpayable",
      "type": "function"
    },
    {
      "inputs": [
        {
          "internalType": "string",
          "name": "_bookName",
          "type": "string"
        }
      ],
      "name": "getBorrowers",
      "outputs": [
        {
          "internalType": "address[]",
          "name": "",
          "type": "address[]"
        }
      ],
      "stateMutability": "view",
      "type": "function"
    },
    {
      "inputs": [
        {
          "internalType": "string",
          "name": "_bookName",
          "type": "string"
        }
      ],
      "name": "getBook",
      "outputs": [
        {
          "components": [
            {
              "internalType": "string",
              "name": "name",
              "type": "string"
            },
            {
              "internalType": "uint8",
              "name": "copies",
              "type": "uint8"
            },
            {
              "internalType": "address[]",
              "name": "borrowers",
              "type": "address[]"
            },
            {
              "internalType": "bool",
              "name": "exists",
              "type": "bool"
            }
          ],
          "internalType": "struct BookLibrary.Book",
          "name": "",
          "type": "tuple"
        }
      ],
      "stateMutability": "view",
      "type": "function"
    },
    {
      "inputs": [
        {
          "internalType": "string",
          "name": "_bookName",
          "type": "string"
        }
      ],
      "name": "isBookBorrowedByCurrentUser",
      "outputs": [
        {
          "internalType": "bool",
          "name": "",
          "type": "bool"
        }
      ],
      "stateMutability": "view",
      "type": "function"
    },
    {
      "inputs": [],
      "name": "getBooksCount",
      "outputs": [
        {
          "internalType": "uint256",
          "name": "",
          "type": "uint256"
        }
      ],
      "stateMutability": "view",
      "type": "function"
    }
  ],
  "bytecode": "0x6080604052662386f26fc100006004553480156200001c57600080fd5b5060405162002c0538038062002c058339818101604052810190620000429190620001f3565b600062000054620001bd60201b60201c565b9050806000806101000a81548173ffffffffffffffffffffffffffffffffffffffff021916908373ffffffffffffffffffffffffffffffffffffffff1602179055508073ffffffffffffffffffffffffffffffffffffffff16600073ffffffffffffffffffffffffffffffffffffffff167f8be0079c531659141344cd1fd0a4f28419497f9722a3daafe3b4186f6b6457e060405160405180910390a35080600160006101000a81548173ffffffffffffffffffffffffffffffffffffffff021916908373ffffffffffffffffffffffffffffffffffffffff16021790555081600260006101000a81548173ffffffffffffffffffffffffffffffffffffffff021916908373ffffffffffffffffffffffffffffffffffffffff16021790555081600360006101000a81548173ffffffffffffffffffffffffffffffffffffffff021916908373ffffffffffffffffffffffffffffffffffffffff1602179055505050620002b0565b600033905090565b600081519050620001d6816200027c565b92915050565b600081519050620001ed8162000296565b92915050565b600080604083850312156200020757600080fd5b60006200021785828601620001dc565b92505060206200022a85828601620001c5565b9150509250929050565b600062000241826200025c565b9050919050565b600062000255826200025c565b9050919050565b600073ffffffffffffffffffffffffffffffffffffffff82169050919050565b620002878162000234565b81146200029357600080fd5b50565b620002a18162000248565b8114620002ad57600080fd5b50565b61294580620002c06000396000f3fe608060405234801561001057600080fd5b506004361061010b5760003560e01c8063a63ac38e116100a2578063c43c1dd611610071578063c43c1dd6146102ba578063ced96fe3146102d8578063dfd83d2a146102f4578063e2cd0d2d14610312578063f2fde38b146103305761010b565b8063a63ac38e14610220578063b66d5c911461023c578063bf2b23ea1461026c578063c37a83611461028a5761010b565b8063533c9731116100de578063533c973114610198578063582bcda5146101c8578063715018a6146101f85780638da5cb5b146102025761010b565b80630c0dee70146101105780631ba3192b146101425780631ef49a8c146101605780633ec2df5d1461017c575b600080fd5b61012a60048036038101906101259190611d68565b61034c565b604051610139939291906124ca565b60405180910390f35b61014a610428565b604051610157919061244f565b60405180910390f35b61017a60048036038101906101759190611dba565b61044e565b005b61019660048036038101906101919190611dfb565b6106d4565b005b6101b260048036038101906101ad9190611dba565b6108d2565b6040516101bf91906123fe565b60405180910390f35b6101e260048036038101906101dd9190611dba565b610a3b565b6040516101ef91906123dc565b60405180910390f35b610200610c1c565b005b61020a610d56565b604051610217919061236f565b60405180910390f35b61023a60048036038101906102359190611dfb565b610d7f565b005b61025660048036038101906102519190611e4f565b611064565b6040516102639190612419565b60405180910390f35b610274611085565b604051610281919061260a565b60405180910390f35b6102a4600480360381019061029f9190611dba565b61108b565b6040516102b191906125e8565b60405180910390f35b6102c261135d565b6040516102cf9190612434565b60405180910390f35b6102f260048036038101906102ed9190611dba565b611383565b005b6102fc6118d1565b604051610309919061260a565b60405180910390f35b61031a6118de565b604051610327919061238a565b60405180910390f35b61034a60048036038101906103459190611d16565b611904565b005b6006602052806000526040600020600091509050806000018054600181600116156101000203166002900480601f0160208091040260200160405190810160405280929190818152602001828054600181600116156101000203166002900480156103f85780601f106103cd576101008083540402835291602001916103f8565b820191906000526020600020905b8154815290600101906020018083116103db57829003601f168201915b5050505050908060010160009054906101000a900460ff16908060030160009054906101000a900460ff16905083565b600160009054906101000a900473ffffffffffffffffffffffffffffffffffffffff1681565b8060016000826040516020016104649190612358565b60405160208183030381529060405280519060200120905081156104f157600115156006600083815260200190815260200160002060030160009054906101000a900460ff161515146104ec576040517f08c379a00000000000000000000000000000000000000000000000000000000081526004016104e3906125a8565b60405180910390fd5b61055c565b600015156006600083815260200190815260200160002060030160009054906101000a900460ff1615151461055b576040517f08c379a000000000000000000000000000000000000000000000000000000000815260040161055290612588565b60405180910390fd5b5b60003385604051602001610571929190612330565b604051602081830303815290604052805190602001209050600115156007600083815260200190815260200160002060009054906101000a900460ff161515146105f0576040517f08c379a00000000000000000000000000000000000000000000000000000000081526004016105e790612548565b60405180910390fd5b6000856040516020016106039190612358565b604051602081830303815290604052805190602001209050600060066000838152602001908152602001600020905080600101600081819054906101000a900460ff168092919060010191906101000a81548160ff021916908360ff1602179055505060006007600085815260200190815260200160002060006101000a81548160ff0219169083151502179055507f85a44c5a2eee90e84b72a99b84ef7d745f384551951b8fe780fc0645f1c27d8987336040516106c392919061246a565b60405180910390a150505050505050565b6106dc611aad565b73ffffffffffffffffffffffffffffffffffffffff166106fa610d56565b73ffffffffffffffffffffffffffffffffffffffff1614610750576040517f08c379a000000000000000000000000000000000000000000000000000000000815260040161074790612568565b60405180910390fd5b8160016000826040516020016107669190612358565b60405160208183030381529060405280519060200120905081156107f357600115156006600083815260200190815260200160002060030160009054906101000a900460ff161515146107ee576040517f08c379a00000000000000000000000000000000000000000000000000000000081526004016107e5906125a8565b60405180910390fd5b61085e565b600015156006600083815260200190815260200160002060030160009054906101000a900460ff1615151461085d576040517f08c379a000000000000000000000000000000000000000000000000000000000815260040161085490612588565b60405180910390fd5b5b6000856040516020016108719190612358565b604051602081830303815290604052805190602001209050846006600083815260200190815260200160002060010160008282829054906101000a900460ff160192506101000a81548160ff021916908360ff160217905550505050505050565b60008160016000826040516020016108ea9190612358565b604051602081830303815290604052805190602001209050811561097757600115156006600083815260200190815260200160002060030160009054906101000a900460ff16151514610972576040517f08c379a0000000000000000000000000000000000000000000000000000000008152600401610969906125a8565b60405180910390fd5b6109e2565b600015156006600083815260200190815260200160002060030160009054906101000a900460ff161515146109e1576040517f08c379a00000000000000000000000000000000000000000000000000000000081526004016109d890612588565b60405180910390fd5b5b600033866040516020016109f7929190612330565b6040516020818303038152906040528051906020012090506007600082815260200190815260200160002060009054906101000a900460ff16945050505050919050565b6060816001600082604051602001610a539190612358565b6040516020818303038152906040528051906020012090508115610ae057600115156006600083815260200190815260200160002060030160009054906101000a900460ff16151514610adb576040517f08c379a0000000000000000000000000000000000000000000000000000000008152600401610ad2906125a8565b60405180910390fd5b610b4b565b600015156006600083815260200190815260200160002060030160009054906101000a900460ff16151514610b4a576040517f08c379a0000000000000000000000000000000000000000000000000000000008152600401610b4190612588565b60405180910390fd5b5b600085604051602001610b5e9190612358565b60405160208183030381529060405280519060200120905060066000828152602001908152602001600020600201805480602002602001604051908101604052809291908181526020018280548015610c0c57602002820191906000526020600020905b8160009054906101000a900473ffffffffffffffffffffffffffffffffffffffff1673ffffffffffffffffffffffffffffffffffffffff1681526020019060010190808311610bc2575b5050505050945050505050919050565b610c24611aad565b73ffffffffffffffffffffffffffffffffffffffff16610c42610d56565b73ffffffffffffffffffffffffffffffffffffffff1614610c98576040517f08c379a0000000000000000000000000000000000000000000000000000000008152600401610c8f90612568565b60405180910390fd5b600073ffffffffffffffffffffffffffffffffffffffff1660008054906101000a900473ffffffffffffffffffffffffffffffffffffffff1673ffffffffffffffffffffffffffffffffffffffff167f8be0079c531659141344cd1fd0a4f28419497f9722a3daafe3b4186f6b6457e060405160405180910390a360008060006101000a81548173ffffffffffffffffffffffffffffffffffffffff021916908373ffffffffffffffffffffffffffffffffffffffff160217905550565b60008060009054906101000a900473ffffffffffffffffffffffffffffffffffffffff16905090565b610d87611aad565b73ffffffffffffffffffffffffffffffffffffffff16610da5610d56565b73ffffffffffffffffffffffffffffffffffffffff1614610dfb576040517f08c379a0000000000000000000000000000000000000000000000000000000008152600401610df290612568565b60405180910390fd5b8160008082604051602001610e109190612358565b6040516020818303038152906040528051906020012090508115610e9d57600115156006600083815260200190815260200160002060030160009054906101000a900460ff16151514610e98576040517f08c379a0000000000000000000000000000000000000000000000000000000008152600401610e8f906125a8565b60405180910390fd5b610f08565b600015156006600083815260200190815260200160002060030160009054906101000a900460ff16151514610f07576040517f08c379a0000000000000000000000000000000000000000000000000000000008152600401610efe90612588565b60405180910390fd5b5b600085604051602001610f1b9190612358565b6040516020818303038152906040528051906020012090506060610f3d611ab5565b60405180608001604052808981526020018860ff168152602001838152602001600115158152509050600583908060018154018082558091505060019003906000526020600020016000909190919091505580600660008581526020019081526020016000206000820151816000019080519060200190610fbf929190611ae2565b5060208201518160010160006101000a81548160ff021916908360ff1602179055506040820151816002019080519060200190610ffd929190611b62565b5060608201518160030160006101000a81548160ff0219169083151502179055509050507f752e0e9d31b708fdf71a47493e8fc65e25693a74c6a57be3daf36cfca821b604888860405161105292919061249a565b60405180910390a15050505050505050565b6005818154811061107157fe5b906000526020600020016000915090505481565b60045481565b611093611ab5565b8160016000826040516020016110a99190612358565b604051602081830303815290604052805190602001209050811561113657600115156006600083815260200190815260200160002060030160009054906101000a900460ff16151514611131576040517f08c379a0000000000000000000000000000000000000000000000000000000008152600401611128906125a8565b60405180910390fd5b6111a1565b600015156006600083815260200190815260200160002060030160009054906101000a900460ff161515146111a0576040517f08c379a000000000000000000000000000000000000000000000000000000000815260040161119790612588565b60405180910390fd5b5b6000856040516020016111b49190612358565b60405160208183030381529060405280519060200120905060066000828152602001908152602001600020604051806080016040529081600082018054600181600116156101000203166002900480601f0160208091040260200160405190810160405280929190818152602001828054600181600116156101000203166002900480156112835780601f1061125857610100808354040283529160200191611283565b820191906000526020600020905b81548152906001019060200180831161126657829003601f168201915b505050505081526020016001820160009054906101000a900460ff1660ff1660ff1681526020016002820180548060200260200160405190810160405280929190818152602001828054801561132e57602002820191906000526020600020905b8160009054906101000a900473ffffffffffffffffffffffffffffffffffffffff1673ffffffffffffffffffffffffffffffffffffffff16815260200190600101908083116112e4575b505050505081526020016003820160009054906101000a900460ff161515151581525050945050505050919050565b600260009054906101000a900473ffffffffffffffffffffffffffffffffffffffff1681565b8060016000826040516020016113999190612358565b604051602081830303815290604052805190602001209050811561142657600115156006600083815260200190815260200160002060030160009054906101000a900460ff16151514611421576040517f08c379a0000000000000000000000000000000000000000000000000000000008152600401611418906125a8565b60405180910390fd5b611491565b600015156006600083815260200190815260200160002060030160009054906101000a900460ff16151514611490576040517f08c379a000000000000000000000000000000000000000000000000000000000815260040161148790612588565b60405180910390fd5b5b6000846040516020016114a49190612358565b604051602081830303815290604052805190602001209050600060066000838152602001908152602001600020905060008160010160009054906101000a900460ff1660ff161161152a576040517f08c379a000000000000000000000000000000000000000000000000000000000815260040161152190612508565b60405180910390fd5b6000338760405160200161153f929190612330565b604051602081830303815290604052805190602001209050600015156007600083815260200190815260200160002060009054906101000a900460ff161515146115be576040517f08c379a00000000000000000000000000000000000000000000000000000000081526004016115b5906125c8565b60405180910390fd5b6000600260009054906101000a900473ffffffffffffffffffffffffffffffffffffffff1673ffffffffffffffffffffffffffffffffffffffff16631ba3192b6040518163ffffffff1660e01b815260040160206040518083038186803b15801561162857600080fd5b505afa15801561163c573d6000803e3d6000fd5b505050506040513d601f19601f820116820180604052508101906116609190611d91565b90508073ffffffffffffffffffffffffffffffffffffffff166323b872dd33306004546040518463ffffffff1660e01b81526004016116a1939291906123a5565b602060405180830381600087803b1580156116bb57600080fd5b505af11580156116cf573d6000803e3d6000fd5b505050506040513d601f19601f820116820180604052508101906116f39190611d3f565b5060016007600084815260200190815260200160002060006101000a81548160ff02191690831515021790555082600101600081819054906101000a900460ff16809291906001900391906101000a81548160ff021916908360ff16021790555050600015156008600086815260200190815260200160002060003373ffffffffffffffffffffffffffffffffffffffff1673ffffffffffffffffffffffffffffffffffffffff16815260200190815260200160002060009054906101000a900460ff161515141561188e5782600201339080600181540180825580915050600190039060005260206000200160009091909190916101000a81548173ffffffffffffffffffffffffffffffffffffffff021916908373ffffffffffffffffffffffffffffffffffffffff16021790555060016008600086815260200190815260200160002060003373ffffffffffffffffffffffffffffffffffffffff1673ffffffffffffffffffffffffffffffffffffffff16815260200190815260200160002060006101000a81548160ff0219169083151502179055505b7f98a96a27b2755bcd656b9e243159ba0f25cc02a0e56bf8d0bd5ddd80d8a0cbfe88336040516118bf92919061246a565b60405180910390a15050505050505050565b6000600580549050905090565b600360009054906101000a900473ffffffffffffffffffffffffffffffffffffffff1681565b61190c611aad565b73ffffffffffffffffffffffffffffffffffffffff1661192a610d56565b73ffffffffffffffffffffffffffffffffffffffff1614611980576040517f08c379a000000000000000000000000000000000000000000000000000000000815260040161197790612568565b60405180910390fd5b600073ffffffffffffffffffffffffffffffffffffffff168173ffffffffffffffffffffffffffffffffffffffff1614156119f0576040517f08c379a00000000000000000000000000000000000000000000000000000000081526004016119e790612528565b60405180910390fd5b8073ffffffffffffffffffffffffffffffffffffffff1660008054906101000a900473ffffffffffffffffffffffffffffffffffffffff1673ffffffffffffffffffffffffffffffffffffffff167f8be0079c531659141344cd1fd0a4f28419497f9722a3daafe3b4186f6b6457e060405160405180910390a3806000806101000a81548173ffffffffffffffffffffffffffffffffffffffff021916908373ffffffffffffffffffffffffffffffffffffffff16021790555050565b600033905090565b604051806080016040528060608152602001600060ff168152602001606081526020016000151581525090565b828054600181600116156101000203166002900490600052602060002090601f016020900481019282601f10611b2357805160ff1916838001178555611b51565b82800160010185558215611b51579182015b82811115611b50578251825591602001919060010190611b35565b5b509050611b5e9190611bec565b5090565b828054828255906000526020600020908101928215611bdb579160200282015b82811115611bda5782518260006101000a81548173ffffffffffffffffffffffffffffffffffffffff021916908373ffffffffffffffffffffffffffffffffffffffff16021790555091602001919060010190611b82565b5b509050611be89190611c09565b5090565b5b80821115611c05576000816000905550600101611bed565b5090565b5b80821115611c4057600081816101000a81549073ffffffffffffffffffffffffffffffffffffffff021916905550600101611c0a565b5090565b600081359050611c5381612885565b92915050565b600081519050611c688161289c565b92915050565b600081359050611c7d816128b3565b92915050565b600081519050611c92816128ca565b92915050565b600082601f830112611ca957600080fd5b8135611cbc611cb782612652565b612625565b91508082526020830160208301858383011115611cd857600080fd5b611ce3838284612801565b50505092915050565b600081359050611cfb816128e1565b92915050565b600081359050611d10816128f8565b92915050565b600060208284031215611d2857600080fd5b6000611d3684828501611c44565b91505092915050565b600060208284031215611d5157600080fd5b6000611d5f84828501611c59565b91505092915050565b600060208284031215611d7a57600080fd5b6000611d8884828501611c6e565b91505092915050565b600060208284031215611da357600080fd5b6000611db184828501611c83565b91505092915050565b600060208284031215611dcc57600080fd5b600082013567ffffffffffffffff811115611de657600080fd5b611df284828501611c98565b91505092915050565b60008060408385031215611e0e57600080fd5b600083013567ffffffffffffffff811115611e2857600080fd5b611e3485828601611c98565b9250506020611e4585828601611d01565b9150509250929050565b600060208284031215611e6157600080fd5b6000611e6f84828501611cec565b91505092915050565b6000611e848383611ec5565b60208301905092915050565b611e9981612783565b82525050565b611ea881612712565b82525050565b611ebf611eba82612712565b612843565b82525050565b611ece81612700565b82525050565b611edd81612700565b82525050565b6000611eee8261268e565b611ef881856126b1565b9350611f038361267e565b8060005b83811015611f34578151611f1b8882611e78565b9750611f26836126a4565b925050600181019050611f07565b5085935050505092915050565b6000611f4c8261268e565b611f5681856126c2565b9350611f618361267e565b8060005b83811015611f92578151611f798882611e78565b9750611f84836126a4565b925050600181019050611f65565b5085935050505092915050565b611fa881612724565b82525050565b611fb781612724565b82525050565b611fc681612730565b82525050565b611fd581612795565b82525050565b611fe4816127b9565b82525050565b6000611ff582612699565b611fff81856126d3565b935061200f818560208601612810565b61201881612867565b840191505092915050565b600061202e82612699565b61203881856126e4565b9350612048818560208601612810565b61205181612867565b840191505092915050565b600061206782612699565b61207181856126f5565b9350612081818560208601612810565b80840191505092915050565b600061209a6013836126e4565b91507f4e6f206d6f726520636f70696573206c656674000000000000000000000000006000830152602082019050919050565b60006120da6026836126e4565b91507f4f776e61626c653a206e6577206f776e657220697320746865207a65726f206160008301527f64647265737300000000000000000000000000000000000000000000000000006020830152604082019050919050565b60006121406031836126e4565b91507f596f752063616e27742072657475726e206120626f6f6b207468617420796f7560008301527f20686176656e277420626f72726f7765640000000000000000000000000000006020830152604082019050919050565b60006121a66020836126e4565b91507f4f776e61626c653a2063616c6c6572206973206e6f7420746865206f776e65726000830152602082019050919050565b60006121e66014836126e4565b91507f426f6f6b20616c726561647920657869737473210000000000000000000000006000830152602082019050919050565b60006122266013836126e4565b91507f426f6f6b20646f65736e277420657869737421000000000000000000000000006000830152602082019050919050565b60006122666020836126e4565b91507f596f7527766520616c726561647920626f72726f7765642074686520626f6f6b6000830152602082019050919050565b600060808301600083015184820360008601526122b68282611fea565b91505060208301516122cb6020860182612312565b50604083015184820360408601526122e38282611ee3565b91505060608301516122f86060860182611f9f565b508091505092915050565b61230c8161276c565b82525050565b61231b81612776565b82525050565b61232a81612776565b82525050565b600061233c8285611eae565b60148201915061234c828461205c565b91508190509392505050565b6000612364828461205c565b915081905092915050565b60006020820190506123846000830184611ed4565b92915050565b600060208201905061239f6000830184611e9f565b92915050565b60006060820190506123ba6000830186611e90565b6123c76020830185611ed4565b6123d46040830184612303565b949350505050565b600060208201905081810360008301526123f68184611f41565b905092915050565b60006020820190506124136000830184611fae565b92915050565b600060208201905061242e6000830184611fbd565b92915050565b60006020820190506124496000830184611fcc565b92915050565b60006020820190506124646000830184611fdb565b92915050565b600060408201905081810360008301526124848185612023565b90506124936020830184611e90565b9392505050565b600060408201905081810360008301526124b48185612023565b90506124c36020830184612321565b9392505050565b600060608201905081810360008301526124e48186612023565b90506124f36020830185612321565b6125006040830184611fae565b949350505050565b600060208201905081810360008301526125218161208d565b9050919050565b60006020820190508181036000830152612541816120cd565b9050919050565b6000602082019050818103600083015261256181612133565b9050919050565b6000602082019050818103600083015261258181612199565b9050919050565b600060208201905081810360008301526125a1816121d9565b9050919050565b600060208201905081810360008301526125c181612219565b9050919050565b600060208201905081810360008301526125e181612259565b9050919050565b600060208201905081810360008301526126028184612299565b905092915050565b600060208201905061261f6000830184612303565b92915050565b6000604051905081810181811067ffffffffffffffff8211171561264857600080fd5b8060405250919050565b600067ffffffffffffffff82111561266957600080fd5b601f19601f8301169050602081019050919050565b6000819050602082019050919050565b600081519050919050565b600081519050919050565b6000602082019050919050565b600082825260208201905092915050565b600082825260208201905092915050565b600082825260208201905092915050565b600082825260208201905092915050565b600081905092915050565b600061270b8261274c565b9050919050565b600061271d8261274c565b9050919050565b60008115159050919050565b6000819050919050565b600061274582612700565b9050919050565b600073ffffffffffffffffffffffffffffffffffffffff82169050919050565b6000819050919050565b600060ff82169050919050565b600061278e826127dd565b9050919050565b60006127a0826127a7565b9050919050565b60006127b28261274c565b9050919050565b60006127c4826127cb565b9050919050565b60006127d68261274c565b9050919050565b60006127e8826127ef565b9050919050565b60006127fa8261274c565b9050919050565b82818337600083830152505050565b60005b8381101561282e578082015181840152602081019050612813565b8381111561283d576000848401525b50505050565b600061284e82612855565b9050919050565b600061286082612878565b9050919050565b6000601f19601f8301169050919050565b60008160601b9050919050565b61288e81612700565b811461289957600080fd5b50565b6128a581612724565b81146128b057600080fd5b50565b6128bc81612730565b81146128c757600080fd5b50565b6128d38161273a565b81146128de57600080fd5b50565b6128ea8161276c565b81146128f557600080fd5b50565b61290181612776565b811461290c57600080fd5b5056fea26469706673582212204107670590d35a549f7c324dc6d5a77ac6217241a13b163721d603b15b15c3fa64736f6c63430007000033",
  "source": "// SPDX-License-Identifier: UNLICENSED\n\npragma solidity ^0.7.0;\npragma experimental ABIEncoderV2;\n\nimport \"@openzeppelin/contracts/access/Ownable.sol\";\nimport \"./LibraryToken.sol\";\nimport \"./LibWrapper.sol\";\n\ncontract BookLibrary is Ownable {\n    LibraryToken public LIBToken;\n    LIBWrapper public LIBTokenWrapper;\n\n    address payable public libTokenWrapperAddress;\n\n    uint public rentFee = 10000000000000000;\n\n    bytes32[] public booksIds;\n    \n    mapping(bytes32 => Book) public books;\n    mapping(bytes32 => bool) private userBorrowedBooks;\n    mapping(bytes32 => mapping (address => bool)) private hasUserBorrowedBefore;\n\n    event LogBookAdded(string bookName, uint8 copies);\n    event LogBookBorrowed(string bookName, address borrower);\n    event LogBookReturned(string bookName, address returner);\n\n    struct Book {\n        string name;\n        uint8 copies;\n        address[] borrowers;\n        bool exists;\n    }\n\n    constructor(address payable _wrapperAddress, address _tokenAddress) {\n      LIBToken = LibraryToken(_tokenAddress);\n      LIBTokenWrapper = LIBWrapper(_wrapperAddress);\n      libTokenWrapperAddress = _wrapperAddress;\n    }\n    \n    modifier bookShouldExist(string memory _name, bool shouldExist) {\n        bytes32 encodedName = keccak256(abi.encodePacked(_name));\n        if (shouldExist) {\n          require(books[encodedName].exists == true, \"Book doesn't exist!\");\n        } else {\n          require(books[encodedName].exists == false, \"Book already exists!\");\n        }\n        _;\n    }\n\n    function addBook (string memory _name, uint8 _copies) external onlyOwner bookShouldExist(_name, false) {\n        bytes32 encodedName = keccak256(abi.encodePacked(_name));\n\n        address[] memory borrowers;\n        Book memory newBook = Book(_name, _copies, borrowers, true);\n        booksIds.push(encodedName);\n        books[encodedName] = newBook;\n\n        emit LogBookAdded(_name, _copies);\n    }\n    \n    function addCopies(string memory _bookName, uint8 _copies) external onlyOwner bookShouldExist(_bookName, true) {\n        bytes32 encodedName = keccak256(abi.encodePacked(_bookName));\n        books[encodedName].copies += _copies;\n    }\n    \n    function borrowBook(string memory _bookName) external bookShouldExist(_bookName, true){    \n        bytes32 encodedName = keccak256(abi.encodePacked(_bookName));\n        Book storage book = books[encodedName]; \n\n        // User can't borrow booksArray with no copies left;\n        require(book.copies > 0, \"No more copies left\");\n    \n        // User shouldn't borrow the same book more than once;\n        bytes32 hash = keccak256(abi.encodePacked(msg.sender, _bookName));\n        require(userBorrowedBooks[hash] == false, \"You've already borrowed the book\");\n\n        LibraryToken libToken = LIBTokenWrapper.LIBToken();\n        // Approve rent for transfer\n        // libToken.increaseAllowance(msg.sender, rentFee);\n        // libToken.approve(msg.sender, rentFee);\n\n        // Transfer rent fee\n        libToken.transferFrom(msg.sender, address(this), rentFee);\n\n        userBorrowedBooks[hash] = true;\n        book.copies--;\n        if (hasUserBorrowedBefore[encodedName][msg.sender] == false) {\n            book.borrowers.push(msg.sender);\n            hasUserBorrowedBefore[encodedName][msg.sender] = true;\n        }\n\n        emit LogBookBorrowed(_bookName, msg.sender);\n    }\n    \n    function returnBook(string memory _bookName) external bookShouldExist(_bookName, true) {\n        //Check if user has borrowed this book;\n        bytes32 hash = keccak256(abi.encodePacked(msg.sender, _bookName));\n        require(userBorrowedBooks[hash] == true, \"You can't return a book that you haven't borrowed\");\n        \n        bytes32 encodedName = keccak256(abi.encodePacked(_bookName));\n        Book storage book = books[encodedName];\n        book.copies++;\n        userBorrowedBooks[hash] = false;\n\n        emit LogBookReturned(_bookName, msg.sender);\n    }\n    \n\n    function getBorrowers(string memory _bookName) external view bookShouldExist(_bookName, true) returns (address[] memory) {\n        bytes32 encodedName = keccak256(abi.encodePacked(_bookName));\n        return books[encodedName].borrowers;\n    }\n\n    function getBook (string memory _bookName) external view bookShouldExist(_bookName, true) returns (Book memory) {\n        bytes32 encodedName = keccak256(abi.encodePacked(_bookName));\n        return books[encodedName];\n    }\n\n    function isBookBorrowedByCurrentUser(string memory _bookName) external view bookShouldExist(_bookName, true) returns(bool) {\n        bytes32 key = keccak256(abi.encodePacked(msg.sender, _bookName));\n        return userBorrowedBooks[key];\n    }\n\n    function getBooksCount() external view returns(uint) {\n        return booksIds.length;\n    }  \n} ",
  "sourcePath": "/Users/viktortodorov/Desktop/BookLibrary/contracts/BookLibrary.sol",
  "compiler": {
    "name": "solc",
    "version": "0.7.0+commit.9e61f92b.Emscripten.clang",
    "optimizer": false,
    "runs": 200
  },
  "schemaVersion": "2.3.5",
  "updatedAt": "2021-06-15T11:53:52.956Z"
}