{
  "contractName": "BookLibrary",
  "abi": [
    {
      "inputs": [
        {
          "internalType": "address payable",
          "name": "_wrapperAddress",
          "type": "address"
        },
        {
          "internalType": "address",
          "name": "_tokenAddress",
          "type": "address"
        }
      ],
      "stateMutability": "nonpayable",
      "type": "constructor"
    },
    {
      "anonymous": false,
      "inputs": [
        {
          "indexed": true,
          "internalType": "address",
          "name": "previousOwner",
          "type": "address"
        },
        {
          "indexed": true,
          "internalType": "address",
          "name": "newOwner",
          "type": "address"
        }
      ],
      "name": "OwnershipTransferred",
      "type": "event"
    },
    {
      "inputs": [],
      "name": "LIBToken",
      "outputs": [
        {
          "internalType": "contract LibraryToken",
          "name": "",
          "type": "address"
        }
      ],
      "stateMutability": "view",
      "type": "function"
    },
    {
      "inputs": [],
      "name": "LIBTokenWrapper",
      "outputs": [
        {
          "internalType": "contract LIBWrapper",
          "name": "",
          "type": "address"
        }
      ],
      "stateMutability": "view",
      "type": "function"
    },
    {
      "inputs": [
        {
          "internalType": "bytes32",
          "name": "",
          "type": "bytes32"
        }
      ],
      "name": "books",
      "outputs": [
        {
          "internalType": "string",
          "name": "name",
          "type": "string"
        },
        {
          "internalType": "uint8",
          "name": "copies",
          "type": "uint8"
        },
        {
          "internalType": "bool",
          "name": "exists",
          "type": "bool"
        }
      ],
      "stateMutability": "view",
      "type": "function"
    },
    {
      "inputs": [
        {
          "internalType": "uint256",
          "name": "",
          "type": "uint256"
        }
      ],
      "name": "booksIds",
      "outputs": [
        {
          "internalType": "bytes32",
          "name": "",
          "type": "bytes32"
        }
      ],
      "stateMutability": "view",
      "type": "function"
    },
    {
      "inputs": [],
      "name": "libTokenWrapperAddress",
      "outputs": [
        {
          "internalType": "address payable",
          "name": "",
          "type": "address"
        }
      ],
      "stateMutability": "view",
      "type": "function"
    },
    {
      "inputs": [],
      "name": "owner",
      "outputs": [
        {
          "internalType": "address",
          "name": "",
          "type": "address"
        }
      ],
      "stateMutability": "view",
      "type": "function"
    },
    {
      "inputs": [],
      "name": "renounceOwnership",
      "outputs": [],
      "stateMutability": "nonpayable",
      "type": "function"
    },
    {
      "inputs": [],
      "name": "rentFee",
      "outputs": [
        {
          "internalType": "uint256",
          "name": "",
          "type": "uint256"
        }
      ],
      "stateMutability": "view",
      "type": "function"
    },
    {
      "inputs": [
        {
          "internalType": "address",
          "name": "newOwner",
          "type": "address"
        }
      ],
      "name": "transferOwnership",
      "outputs": [],
      "stateMutability": "nonpayable",
      "type": "function"
    },
    {
      "inputs": [
        {
          "internalType": "string",
          "name": "_name",
          "type": "string"
        },
        {
          "internalType": "uint8",
          "name": "_copies",
          "type": "uint8"
        }
      ],
      "name": "addBook",
      "outputs": [],
      "stateMutability": "nonpayable",
      "type": "function"
    },
    {
      "inputs": [
        {
          "internalType": "string",
          "name": "_bookName",
          "type": "string"
        },
        {
          "internalType": "uint8",
          "name": "_copies",
          "type": "uint8"
        }
      ],
      "name": "addCopies",
      "outputs": [],
      "stateMutability": "nonpayable",
      "type": "function"
    },
    {
      "inputs": [
        {
          "internalType": "string",
          "name": "_bookName",
          "type": "string"
        }
      ],
      "name": "borrowBook",
      "outputs": [],
      "stateMutability": "nonpayable",
      "type": "function"
    },
    {
      "inputs": [
        {
          "internalType": "string",
          "name": "_bookName",
          "type": "string"
        }
      ],
      "name": "returnBook",
      "outputs": [],
      "stateMutability": "nonpayable",
      "type": "function"
    },
    {
      "inputs": [
        {
          "internalType": "string",
          "name": "_bookName",
          "type": "string"
        }
      ],
      "name": "getBorrowers",
      "outputs": [
        {
          "internalType": "address[]",
          "name": "",
          "type": "address[]"
        }
      ],
      "stateMutability": "view",
      "type": "function"
    },
    {
      "inputs": [
        {
          "internalType": "string",
          "name": "_bookName",
          "type": "string"
        }
      ],
      "name": "getBook",
      "outputs": [
        {
          "components": [
            {
              "internalType": "string",
              "name": "name",
              "type": "string"
            },
            {
              "internalType": "uint8",
              "name": "copies",
              "type": "uint8"
            },
            {
              "internalType": "address[]",
              "name": "borrowers",
              "type": "address[]"
            },
            {
              "internalType": "bool",
              "name": "exists",
              "type": "bool"
            }
          ],
          "internalType": "struct BookLibrary.Book",
          "name": "",
          "type": "tuple"
        }
      ],
      "stateMutability": "view",
      "type": "function"
    },
    {
      "inputs": [
        {
          "internalType": "string",
          "name": "_bookName",
          "type": "string"
        }
      ],
      "name": "isBookBorrowedByCurrentUser",
      "outputs": [
        {
          "internalType": "bool",
          "name": "",
          "type": "bool"
        }
      ],
      "stateMutability": "view",
      "type": "function"
    },
    {
      "inputs": [],
      "name": "getBooksCount",
      "outputs": [
        {
          "internalType": "uint256",
          "name": "",
          "type": "uint256"
        }
      ],
      "stateMutability": "view",
      "type": "function"
    }
  ],
  "bytecode": "0x6080604052662386f26fc100006004553480156200001c57600080fd5b5060405162002afa38038062002afa8339818101604052810190620000429190620001f3565b600062000054620001bd60201b60201c565b9050806000806101000a81548173ffffffffffffffffffffffffffffffffffffffff021916908373ffffffffffffffffffffffffffffffffffffffff1602179055508073ffffffffffffffffffffffffffffffffffffffff16600073ffffffffffffffffffffffffffffffffffffffff167f8be0079c531659141344cd1fd0a4f28419497f9722a3daafe3b4186f6b6457e060405160405180910390a35080600160006101000a81548173ffffffffffffffffffffffffffffffffffffffff021916908373ffffffffffffffffffffffffffffffffffffffff16021790555081600260006101000a81548173ffffffffffffffffffffffffffffffffffffffff021916908373ffffffffffffffffffffffffffffffffffffffff16021790555081600360006101000a81548173ffffffffffffffffffffffffffffffffffffffff021916908373ffffffffffffffffffffffffffffffffffffffff1602179055505050620002b0565b600033905090565b600081519050620001d6816200027c565b92915050565b600081519050620001ed8162000296565b92915050565b600080604083850312156200020757600080fd5b60006200021785828601620001dc565b92505060206200022a85828601620001c5565b9150509250929050565b600062000241826200025c565b9050919050565b600062000255826200025c565b9050919050565b600073ffffffffffffffffffffffffffffffffffffffff82169050919050565b620002878162000234565b81146200029357600080fd5b50565b620002a18162000248565b8114620002ad57600080fd5b50565b61283a80620002c06000396000f3fe608060405234801561001057600080fd5b506004361061010b5760003560e01c8063a63ac38e116100a2578063c43c1dd611610071578063c43c1dd6146102ba578063ced96fe3146102d8578063dfd83d2a146102f4578063e2cd0d2d14610312578063f2fde38b146103305761010b565b8063a63ac38e14610220578063b66d5c911461023c578063bf2b23ea1461026c578063c37a83611461028a5761010b565b8063533c9731116100de578063533c973114610198578063582bcda5146101c8578063715018a6146101f85780638da5cb5b146102025761010b565b80630c0dee70146101105780631ba3192b146101425780631ef49a8c146101605780633ec2df5d1461017c575b600080fd5b61012a60048036038101906101259190611cbd565b61034c565b604051610139939291906123bf565b60405180910390f35b61014a610428565b60405161015791906123a4565b60405180910390f35b61017a60048036038101906101759190611d0f565b61044e565b005b61019660048036038101906101919190611d50565b61069b565b005b6101b260048036038101906101ad9190611d0f565b610899565b6040516101bf9190612353565b60405180910390f35b6101e260048036038101906101dd9190611d0f565b610a02565b6040516101ef9190612331565b60405180910390f35b610200610be3565b005b61020a610d1d565b60405161021791906122c4565b60405180910390f35b61023a60048036038101906102359190611d50565b610d46565b005b61025660048036038101906102519190611da4565b610ff2565b604051610263919061236e565b60405180910390f35b610274611013565b60405161028191906124ff565b60405180910390f35b6102a4600480360381019061029f9190611d0f565b611019565b6040516102b191906124dd565b60405180910390f35b6102c26112eb565b6040516102cf9190612389565b60405180910390f35b6102f260048036038101906102ed9190611d0f565b611311565b005b6102fc611826565b60405161030991906124ff565b60405180910390f35b61031a611833565b60405161032791906122df565b60405180910390f35b61034a60048036038101906103459190611c6b565b611859565b005b6006602052806000526040600020600091509050806000018054600181600116156101000203166002900480601f0160208091040260200160405190810160405280929190818152602001828054600181600116156101000203166002900480156103f85780601f106103cd576101008083540402835291602001916103f8565b820191906000526020600020905b8154815290600101906020018083116103db57829003601f168201915b5050505050908060010160009054906101000a900460ff16908060030160009054906101000a900460ff16905083565b600160009054906101000a900473ffffffffffffffffffffffffffffffffffffffff1681565b80600160008260405160200161046491906122ad565b60405160208183030381529060405280519060200120905081156104f157600115156006600083815260200190815260200160002060030160009054906101000a900460ff161515146104ec576040517f08c379a00000000000000000000000000000000000000000000000000000000081526004016104e39061249d565b60405180910390fd5b61055c565b600015156006600083815260200190815260200160002060030160009054906101000a900460ff1615151461055b576040517f08c379a00000000000000000000000000000000000000000000000000000000081526004016105529061247d565b60405180910390fd5b5b60003385604051602001610571929190612285565b604051602081830303815290604052805190602001209050600115156007600083815260200190815260200160002060009054906101000a900460ff161515146105f0576040517f08c379a00000000000000000000000000000000000000000000000000000000081526004016105e79061243d565b60405180910390fd5b60008560405160200161060391906122ad565b604051602081830303815290604052805190602001209050600060066000838152602001908152602001600020905080600101600081819054906101000a900460ff168092919060010191906101000a81548160ff021916908360ff1602179055505060006007600085815260200190815260200160002060006101000a81548160ff02191690831515021790555050505050505050565b6106a3611a02565b73ffffffffffffffffffffffffffffffffffffffff166106c1610d1d565b73ffffffffffffffffffffffffffffffffffffffff1614610717576040517f08c379a000000000000000000000000000000000000000000000000000000000815260040161070e9061245d565b60405180910390fd5b81600160008260405160200161072d91906122ad565b60405160208183030381529060405280519060200120905081156107ba57600115156006600083815260200190815260200160002060030160009054906101000a900460ff161515146107b5576040517f08c379a00000000000000000000000000000000000000000000000000000000081526004016107ac9061249d565b60405180910390fd5b610825565b600015156006600083815260200190815260200160002060030160009054906101000a900460ff16151514610824576040517f08c379a000000000000000000000000000000000000000000000000000000000815260040161081b9061247d565b60405180910390fd5b5b60008560405160200161083891906122ad565b604051602081830303815290604052805190602001209050846006600083815260200190815260200160002060010160008282829054906101000a900460ff160192506101000a81548160ff021916908360ff160217905550505050505050565b60008160016000826040516020016108b191906122ad565b604051602081830303815290604052805190602001209050811561093e57600115156006600083815260200190815260200160002060030160009054906101000a900460ff16151514610939576040517f08c379a00000000000000000000000000000000000000000000000000000000081526004016109309061249d565b60405180910390fd5b6109a9565b600015156006600083815260200190815260200160002060030160009054906101000a900460ff161515146109a8576040517f08c379a000000000000000000000000000000000000000000000000000000000815260040161099f9061247d565b60405180910390fd5b5b600033866040516020016109be929190612285565b6040516020818303038152906040528051906020012090506007600082815260200190815260200160002060009054906101000a900460ff16945050505050919050565b6060816001600082604051602001610a1a91906122ad565b6040516020818303038152906040528051906020012090508115610aa757600115156006600083815260200190815260200160002060030160009054906101000a900460ff16151514610aa2576040517f08c379a0000000000000000000000000000000000000000000000000000000008152600401610a999061249d565b60405180910390fd5b610b12565b600015156006600083815260200190815260200160002060030160009054906101000a900460ff16151514610b11576040517f08c379a0000000000000000000000000000000000000000000000000000000008152600401610b089061247d565b60405180910390fd5b5b600085604051602001610b2591906122ad565b60405160208183030381529060405280519060200120905060066000828152602001908152602001600020600201805480602002602001604051908101604052809291908181526020018280548015610bd357602002820191906000526020600020905b8160009054906101000a900473ffffffffffffffffffffffffffffffffffffffff1673ffffffffffffffffffffffffffffffffffffffff1681526020019060010190808311610b89575b5050505050945050505050919050565b610beb611a02565b73ffffffffffffffffffffffffffffffffffffffff16610c09610d1d565b73ffffffffffffffffffffffffffffffffffffffff1614610c5f576040517f08c379a0000000000000000000000000000000000000000000000000000000008152600401610c569061245d565b60405180910390fd5b600073ffffffffffffffffffffffffffffffffffffffff1660008054906101000a900473ffffffffffffffffffffffffffffffffffffffff1673ffffffffffffffffffffffffffffffffffffffff167f8be0079c531659141344cd1fd0a4f28419497f9722a3daafe3b4186f6b6457e060405160405180910390a360008060006101000a81548173ffffffffffffffffffffffffffffffffffffffff021916908373ffffffffffffffffffffffffffffffffffffffff160217905550565b60008060009054906101000a900473ffffffffffffffffffffffffffffffffffffffff16905090565b610d4e611a02565b73ffffffffffffffffffffffffffffffffffffffff16610d6c610d1d565b73ffffffffffffffffffffffffffffffffffffffff1614610dc2576040517f08c379a0000000000000000000000000000000000000000000000000000000008152600401610db99061245d565b60405180910390fd5b8160008082604051602001610dd791906122ad565b6040516020818303038152906040528051906020012090508115610e6457600115156006600083815260200190815260200160002060030160009054906101000a900460ff16151514610e5f576040517f08c379a0000000000000000000000000000000000000000000000000000000008152600401610e569061249d565b60405180910390fd5b610ecf565b600015156006600083815260200190815260200160002060030160009054906101000a900460ff16151514610ece576040517f08c379a0000000000000000000000000000000000000000000000000000000008152600401610ec59061247d565b60405180910390fd5b5b600085604051602001610ee291906122ad565b6040516020818303038152906040528051906020012090506060610f04611a0a565b60405180608001604052808981526020018860ff168152602001838152602001600115158152509050600583908060018154018082558091505060019003906000526020600020016000909190919091505580600660008581526020019081526020016000206000820151816000019080519060200190610f86929190611a37565b5060208201518160010160006101000a81548160ff021916908360ff1602179055506040820151816002019080519060200190610fc4929190611ab7565b5060608201518160030160006101000a81548160ff0219169083151502179055509050505050505050505050565b60058181548110610fff57fe5b906000526020600020016000915090505481565b60045481565b611021611a0a565b81600160008260405160200161103791906122ad565b60405160208183030381529060405280519060200120905081156110c457600115156006600083815260200190815260200160002060030160009054906101000a900460ff161515146110bf576040517f08c379a00000000000000000000000000000000000000000000000000000000081526004016110b69061249d565b60405180910390fd5b61112f565b600015156006600083815260200190815260200160002060030160009054906101000a900460ff1615151461112e576040517f08c379a00000000000000000000000000000000000000000000000000000000081526004016111259061247d565b60405180910390fd5b5b60008560405160200161114291906122ad565b60405160208183030381529060405280519060200120905060066000828152602001908152602001600020604051806080016040529081600082018054600181600116156101000203166002900480601f0160208091040260200160405190810160405280929190818152602001828054600181600116156101000203166002900480156112115780601f106111e657610100808354040283529160200191611211565b820191906000526020600020905b8154815290600101906020018083116111f457829003601f168201915b505050505081526020016001820160009054906101000a900460ff1660ff1660ff168152602001600282018054806020026020016040519081016040528092919081815260200182805480156112bc57602002820191906000526020600020905b8160009054906101000a900473ffffffffffffffffffffffffffffffffffffffff1673ffffffffffffffffffffffffffffffffffffffff1681526020019060010190808311611272575b505050505081526020016003820160009054906101000a900460ff161515151581525050945050505050919050565b600260009054906101000a900473ffffffffffffffffffffffffffffffffffffffff1681565b80600160008260405160200161132791906122ad565b60405160208183030381529060405280519060200120905081156113b457600115156006600083815260200190815260200160002060030160009054906101000a900460ff161515146113af576040517f08c379a00000000000000000000000000000000000000000000000000000000081526004016113a69061249d565b60405180910390fd5b61141f565b600015156006600083815260200190815260200160002060030160009054906101000a900460ff1615151461141e576040517f08c379a00000000000000000000000000000000000000000000000000000000081526004016114159061247d565b60405180910390fd5b5b60008460405160200161143291906122ad565b604051602081830303815290604052805190602001209050600060066000838152602001908152602001600020905060008160010160009054906101000a900460ff1660ff16116114b8576040517f08c379a00000000000000000000000000000000000000000000000000000000081526004016114af906123fd565b60405180910390fd5b600033876040516020016114cd929190612285565b604051602081830303815290604052805190602001209050600015156007600083815260200190815260200160002060009054906101000a900460ff1615151461154c576040517f08c379a0000000000000000000000000000000000000000000000000000000008152600401611543906124bd565b60405180910390fd5b6000600260009054906101000a900473ffffffffffffffffffffffffffffffffffffffff1673ffffffffffffffffffffffffffffffffffffffff16631ba3192b6040518163ffffffff1660e01b815260040160206040518083038186803b1580156115b657600080fd5b505afa1580156115ca573d6000803e3d6000fd5b505050506040513d601f19601f820116820180604052508101906115ee9190611ce6565b90508073ffffffffffffffffffffffffffffffffffffffff166323b872dd33306004546040518463ffffffff1660e01b815260040161162f939291906122fa565b602060405180830381600087803b15801561164957600080fd5b505af115801561165d573d6000803e3d6000fd5b505050506040513d601f19601f820116820180604052508101906116819190611c94565b5060016007600084815260200190815260200160002060006101000a81548160ff02191690831515021790555082600101600081819054906101000a900460ff16809291906001900391906101000a81548160ff021916908360ff16021790555050600015156008600086815260200190815260200160002060003373ffffffffffffffffffffffffffffffffffffffff1673ffffffffffffffffffffffffffffffffffffffff16815260200190815260200160002060009054906101000a900460ff161515141561181c5782600201339080600181540180825580915050600190039060005260206000200160009091909190916101000a81548173ffffffffffffffffffffffffffffffffffffffff021916908373ffffffffffffffffffffffffffffffffffffffff16021790555060016008600086815260200190815260200160002060003373ffffffffffffffffffffffffffffffffffffffff1673ffffffffffffffffffffffffffffffffffffffff16815260200190815260200160002060006101000a81548160ff0219169083151502179055505b5050505050505050565b6000600580549050905090565b600360009054906101000a900473ffffffffffffffffffffffffffffffffffffffff1681565b611861611a02565b73ffffffffffffffffffffffffffffffffffffffff1661187f610d1d565b73ffffffffffffffffffffffffffffffffffffffff16146118d5576040517f08c379a00000000000000000000000000000000000000000000000000000000081526004016118cc9061245d565b60405180910390fd5b600073ffffffffffffffffffffffffffffffffffffffff168173ffffffffffffffffffffffffffffffffffffffff161415611945576040517f08c379a000000000000000000000000000000000000000000000000000000000815260040161193c9061241d565b60405180910390fd5b8073ffffffffffffffffffffffffffffffffffffffff1660008054906101000a900473ffffffffffffffffffffffffffffffffffffffff1673ffffffffffffffffffffffffffffffffffffffff167f8be0079c531659141344cd1fd0a4f28419497f9722a3daafe3b4186f6b6457e060405160405180910390a3806000806101000a81548173ffffffffffffffffffffffffffffffffffffffff021916908373ffffffffffffffffffffffffffffffffffffffff16021790555050565b600033905090565b604051806080016040528060608152602001600060ff168152602001606081526020016000151581525090565b828054600181600116156101000203166002900490600052602060002090601f016020900481019282601f10611a7857805160ff1916838001178555611aa6565b82800160010185558215611aa6579182015b82811115611aa5578251825591602001919060010190611a8a565b5b509050611ab39190611b41565b5090565b828054828255906000526020600020908101928215611b30579160200282015b82811115611b2f5782518260006101000a81548173ffffffffffffffffffffffffffffffffffffffff021916908373ffffffffffffffffffffffffffffffffffffffff16021790555091602001919060010190611ad7565b5b509050611b3d9190611b5e565b5090565b5b80821115611b5a576000816000905550600101611b42565b5090565b5b80821115611b9557600081816101000a81549073ffffffffffffffffffffffffffffffffffffffff021916905550600101611b5f565b5090565b600081359050611ba88161277a565b92915050565b600081519050611bbd81612791565b92915050565b600081359050611bd2816127a8565b92915050565b600081519050611be7816127bf565b92915050565b600082601f830112611bfe57600080fd5b8135611c11611c0c82612547565b61251a565b91508082526020830160208301858383011115611c2d57600080fd5b611c388382846126f6565b50505092915050565b600081359050611c50816127d6565b92915050565b600081359050611c65816127ed565b92915050565b600060208284031215611c7d57600080fd5b6000611c8b84828501611b99565b91505092915050565b600060208284031215611ca657600080fd5b6000611cb484828501611bae565b91505092915050565b600060208284031215611ccf57600080fd5b6000611cdd84828501611bc3565b91505092915050565b600060208284031215611cf857600080fd5b6000611d0684828501611bd8565b91505092915050565b600060208284031215611d2157600080fd5b600082013567ffffffffffffffff811115611d3b57600080fd5b611d4784828501611bed565b91505092915050565b60008060408385031215611d6357600080fd5b600083013567ffffffffffffffff811115611d7d57600080fd5b611d8985828601611bed565b9250506020611d9a85828601611c56565b9150509250929050565b600060208284031215611db657600080fd5b6000611dc484828501611c41565b91505092915050565b6000611dd98383611e1a565b60208301905092915050565b611dee81612678565b82525050565b611dfd81612607565b82525050565b611e14611e0f82612607565b612738565b82525050565b611e23816125f5565b82525050565b611e32816125f5565b82525050565b6000611e4382612583565b611e4d81856125a6565b9350611e5883612573565b8060005b83811015611e89578151611e708882611dcd565b9750611e7b83612599565b925050600181019050611e5c565b5085935050505092915050565b6000611ea182612583565b611eab81856125b7565b9350611eb683612573565b8060005b83811015611ee7578151611ece8882611dcd565b9750611ed983612599565b925050600181019050611eba565b5085935050505092915050565b611efd81612619565b82525050565b611f0c81612619565b82525050565b611f1b81612625565b82525050565b611f2a8161268a565b82525050565b611f39816126ae565b82525050565b6000611f4a8261258e565b611f5481856125c8565b9350611f64818560208601612705565b611f6d8161275c565b840191505092915050565b6000611f838261258e565b611f8d81856125d9565b9350611f9d818560208601612705565b611fa68161275c565b840191505092915050565b6000611fbc8261258e565b611fc681856125ea565b9350611fd6818560208601612705565b80840191505092915050565b6000611fef6013836125d9565b91507f4e6f206d6f726520636f70696573206c656674000000000000000000000000006000830152602082019050919050565b600061202f6026836125d9565b91507f4f776e61626c653a206e6577206f776e657220697320746865207a65726f206160008301527f64647265737300000000000000000000000000000000000000000000000000006020830152604082019050919050565b60006120956031836125d9565b91507f596f752063616e27742072657475726e206120626f6f6b207468617420796f7560008301527f20686176656e277420626f72726f7765640000000000000000000000000000006020830152604082019050919050565b60006120fb6020836125d9565b91507f4f776e61626c653a2063616c6c6572206973206e6f7420746865206f776e65726000830152602082019050919050565b600061213b6014836125d9565b91507f426f6f6b20616c726561647920657869737473210000000000000000000000006000830152602082019050919050565b600061217b6013836125d9565b91507f426f6f6b20646f65736e277420657869737421000000000000000000000000006000830152602082019050919050565b60006121bb6020836125d9565b91507f596f7527766520616c726561647920626f72726f7765642074686520626f6f6b6000830152602082019050919050565b6000608083016000830151848203600086015261220b8282611f3f565b91505060208301516122206020860182612267565b50604083015184820360408601526122388282611e38565b915050606083015161224d6060860182611ef4565b508091505092915050565b61226181612661565b82525050565b6122708161266b565b82525050565b61227f8161266b565b82525050565b60006122918285611e03565b6014820191506122a18284611fb1565b91508190509392505050565b60006122b98284611fb1565b915081905092915050565b60006020820190506122d96000830184611e29565b92915050565b60006020820190506122f46000830184611df4565b92915050565b600060608201905061230f6000830186611de5565b61231c6020830185611e29565b6123296040830184612258565b949350505050565b6000602082019050818103600083015261234b8184611e96565b905092915050565b60006020820190506123686000830184611f03565b92915050565b60006020820190506123836000830184611f12565b92915050565b600060208201905061239e6000830184611f21565b92915050565b60006020820190506123b96000830184611f30565b92915050565b600060608201905081810360008301526123d98186611f78565b90506123e86020830185612276565b6123f56040830184611f03565b949350505050565b6000602082019050818103600083015261241681611fe2565b9050919050565b6000602082019050818103600083015261243681612022565b9050919050565b6000602082019050818103600083015261245681612088565b9050919050565b60006020820190508181036000830152612476816120ee565b9050919050565b600060208201905081810360008301526124968161212e565b9050919050565b600060208201905081810360008301526124b68161216e565b9050919050565b600060208201905081810360008301526124d6816121ae565b9050919050565b600060208201905081810360008301526124f781846121ee565b905092915050565b60006020820190506125146000830184612258565b92915050565b6000604051905081810181811067ffffffffffffffff8211171561253d57600080fd5b8060405250919050565b600067ffffffffffffffff82111561255e57600080fd5b601f19601f8301169050602081019050919050565b6000819050602082019050919050565b600081519050919050565b600081519050919050565b6000602082019050919050565b600082825260208201905092915050565b600082825260208201905092915050565b600082825260208201905092915050565b600082825260208201905092915050565b600081905092915050565b600061260082612641565b9050919050565b600061261282612641565b9050919050565b60008115159050919050565b6000819050919050565b600061263a826125f5565b9050919050565b600073ffffffffffffffffffffffffffffffffffffffff82169050919050565b6000819050919050565b600060ff82169050919050565b6000612683826126d2565b9050919050565b60006126958261269c565b9050919050565b60006126a782612641565b9050919050565b60006126b9826126c0565b9050919050565b60006126cb82612641565b9050919050565b60006126dd826126e4565b9050919050565b60006126ef82612641565b9050919050565b82818337600083830152505050565b60005b83811015612723578082015181840152602081019050612708565b83811115612732576000848401525b50505050565b60006127438261274a565b9050919050565b60006127558261276d565b9050919050565b6000601f19601f8301169050919050565b60008160601b9050919050565b612783816125f5565b811461278e57600080fd5b50565b61279a81612619565b81146127a557600080fd5b50565b6127b181612625565b81146127bc57600080fd5b50565b6127c88161262f565b81146127d357600080fd5b50565b6127df81612661565b81146127ea57600080fd5b50565b6127f68161266b565b811461280157600080fd5b5056fea26469706673582212202a426ff7a96e9df6f22ec50547552b21492ac1d053187adc16ee7bf048eca98864736f6c63430007000033",
  "source": "// SPDX-License-Identifier: UNLICENSED\n\npragma solidity ^0.7.0;\npragma experimental ABIEncoderV2;\n\nimport \"@openzeppelin/contracts/access/Ownable.sol\";\nimport \"./LibraryToken.sol\";\nimport \"./LibWrapper.sol\";\n\ncontract BookLibrary is Ownable {\n    LibraryToken public LIBToken;\n    LIBWrapper public LIBTokenWrapper;\n\n    address payable public libTokenWrapperAddress;\n\n    uint public rentFee = 10000000000000000;\n\n    bytes32[] public booksIds;\n    \n    mapping(bytes32 => Book) public books;\n    mapping(bytes32 => bool) private userBorrowedBooks;\n    mapping(bytes32 => mapping (address => bool)) private hasUserBorrowedBefore;\n\n    struct Book {\n        string name;\n        uint8 copies;\n        address[] borrowers;\n        bool exists;\n    }\n\n    constructor(address payable _wrapperAddress, address _tokenAddress) {\n      LIBToken = LibraryToken(_tokenAddress);\n      LIBTokenWrapper = LIBWrapper(_wrapperAddress);\n      libTokenWrapperAddress = _wrapperAddress;\n    }\n    \n    modifier bookShouldExist(string memory _name, bool shouldExist) {\n        bytes32 encodedName = keccak256(abi.encodePacked(_name));\n        if (shouldExist) {\n          require(books[encodedName].exists == true, \"Book doesn't exist!\");\n        } else {\n          require(books[encodedName].exists == false, \"Book already exists!\");\n        }\n        _;\n    }\n\n    function addBook (string memory _name, uint8 _copies) external onlyOwner bookShouldExist(_name, false) {\n        bytes32 encodedName = keccak256(abi.encodePacked(_name));\n\n        address[] memory borrowers;\n        Book memory newBook = Book(_name, _copies, borrowers, true);\n        booksIds.push(encodedName);\n        books[encodedName] = newBook;\n    }\n    \n    function addCopies(string memory _bookName, uint8 _copies) external onlyOwner bookShouldExist(_bookName, true) {\n        bytes32 encodedName = keccak256(abi.encodePacked(_bookName));\n        books[encodedName].copies += _copies;\n    }\n    \n    function borrowBook(string memory _bookName) external bookShouldExist(_bookName, true){    \n        bytes32 encodedName = keccak256(abi.encodePacked(_bookName));\n        Book storage book = books[encodedName]; \n\n        // User can't borrow booksArray with no copies left;\n        require(book.copies > 0, \"No more copies left\");\n    \n        // User shouldn't borrow the same book more than once;\n        bytes32 hash = keccak256(abi.encodePacked(msg.sender, _bookName));\n        require(userBorrowedBooks[hash] == false, \"You've already borrowed the book\");\n\n        LibraryToken libToken = LIBTokenWrapper.LIBToken();\n        // Approve rent for transfer\n        // libToken.increaseAllowance(msg.sender, rentFee);\n        // libToken.approve(msg.sender, rentFee);\n\n        // Transfer rent fee\n        libToken.transferFrom(msg.sender, address(this), rentFee);\n\n        userBorrowedBooks[hash] = true;\n        book.copies--;\n        if (hasUserBorrowedBefore[encodedName][msg.sender] == false) {\n            book.borrowers.push(msg.sender);\n            hasUserBorrowedBefore[encodedName][msg.sender] = true;\n        }\n    }\n    \n    function returnBook(string memory _bookName) external bookShouldExist(_bookName, true) {\n        //Check if user has borrowed this book;\n        bytes32 hash = keccak256(abi.encodePacked(msg.sender, _bookName));\n        require(userBorrowedBooks[hash] == true, \"You can't return a book that you haven't borrowed\");\n        \n        bytes32 encodedName = keccak256(abi.encodePacked(_bookName));\n        Book storage book = books[encodedName];\n        book.copies++;\n        userBorrowedBooks[hash] = false;\n    }\n    \n\n    function getBorrowers(string memory _bookName) external view bookShouldExist(_bookName, true) returns (address[] memory) {\n        bytes32 encodedName = keccak256(abi.encodePacked(_bookName));\n        return books[encodedName].borrowers;\n    }\n\n    function getBook (string memory _bookName) external view bookShouldExist(_bookName, true) returns (Book memory) {\n        bytes32 encodedName = keccak256(abi.encodePacked(_bookName));\n        return books[encodedName];\n    }\n\n    function isBookBorrowedByCurrentUser(string memory _bookName) external view bookShouldExist(_bookName, true) returns(bool) {\n        bytes32 key = keccak256(abi.encodePacked(msg.sender, _bookName));\n        return userBorrowedBooks[key];\n    }\n\n    function getBooksCount() external view returns(uint) {\n        return booksIds.length;\n    }  \n} ",
  "sourcePath": "/Users/viktortodorov/Desktop/BookLibrary/contracts/BookLibrary.sol",
  "compiler": {
    "name": "solc",
    "version": "0.7.0+commit.9e61f92b.Emscripten.clang",
    "optimizer": false,
    "runs": 200
  },
  "schemaVersion": "2.3.5",
  "updatedAt": "2021-06-15T08:57:04.857Z"
}