{
  "contractName": "BookLibrary",
  "abi": [
    {
      "inputs": [
        {
          "internalType": "address payable",
          "name": "_wrapperAddress",
          "type": "address"
        },
        {
          "internalType": "address",
          "name": "_tokenAddress",
          "type": "address"
        }
      ],
      "stateMutability": "nonpayable",
      "type": "constructor"
    },
    {
      "anonymous": false,
      "inputs": [
        {
          "indexed": false,
          "internalType": "string",
          "name": "bookName",
          "type": "string"
        },
        {
          "indexed": false,
          "internalType": "uint8",
          "name": "copies",
          "type": "uint8"
        }
      ],
      "name": "LogBookAdded",
      "type": "event"
    },
    {
      "anonymous": false,
      "inputs": [
        {
          "indexed": false,
          "internalType": "string",
          "name": "bookName",
          "type": "string"
        },
        {
          "indexed": false,
          "internalType": "address",
          "name": "borrower",
          "type": "address"
        }
      ],
      "name": "LogBookBorrowed",
      "type": "event"
    },
    {
      "anonymous": false,
      "inputs": [
        {
          "indexed": false,
          "internalType": "string",
          "name": "bookName",
          "type": "string"
        },
        {
          "indexed": false,
          "internalType": "address",
          "name": "returner",
          "type": "address"
        }
      ],
      "name": "LogBookReturned",
      "type": "event"
    },
    {
      "anonymous": false,
      "inputs": [
        {
          "indexed": true,
          "internalType": "address",
          "name": "previousOwner",
          "type": "address"
        },
        {
          "indexed": true,
          "internalType": "address",
          "name": "newOwner",
          "type": "address"
        }
      ],
      "name": "OwnershipTransferred",
      "type": "event"
    },
    {
      "inputs": [],
      "name": "LIBToken",
      "outputs": [
        {
          "internalType": "contract LibraryToken",
          "name": "",
          "type": "address"
        }
      ],
      "stateMutability": "view",
      "type": "function"
    },
    {
      "inputs": [],
      "name": "LIBTokenWrapper",
      "outputs": [
        {
          "internalType": "contract LIBWrapper",
          "name": "",
          "type": "address"
        }
      ],
      "stateMutability": "view",
      "type": "function"
    },
    {
      "inputs": [
        {
          "internalType": "bytes32",
          "name": "",
          "type": "bytes32"
        }
      ],
      "name": "books",
      "outputs": [
        {
          "internalType": "string",
          "name": "name",
          "type": "string"
        },
        {
          "internalType": "uint8",
          "name": "copies",
          "type": "uint8"
        },
        {
          "internalType": "bool",
          "name": "exists",
          "type": "bool"
        }
      ],
      "stateMutability": "view",
      "type": "function"
    },
    {
      "inputs": [
        {
          "internalType": "uint256",
          "name": "",
          "type": "uint256"
        }
      ],
      "name": "booksIds",
      "outputs": [
        {
          "internalType": "bytes32",
          "name": "",
          "type": "bytes32"
        }
      ],
      "stateMutability": "view",
      "type": "function"
    },
    {
      "inputs": [],
      "name": "libTokenWrapperAddress",
      "outputs": [
        {
          "internalType": "address payable",
          "name": "",
          "type": "address"
        }
      ],
      "stateMutability": "view",
      "type": "function"
    },
    {
      "inputs": [],
      "name": "owner",
      "outputs": [
        {
          "internalType": "address",
          "name": "",
          "type": "address"
        }
      ],
      "stateMutability": "view",
      "type": "function"
    },
    {
      "inputs": [],
      "name": "renounceOwnership",
      "outputs": [],
      "stateMutability": "nonpayable",
      "type": "function"
    },
    {
      "inputs": [],
      "name": "rentFee",
      "outputs": [
        {
          "internalType": "uint256",
          "name": "",
          "type": "uint256"
        }
      ],
      "stateMutability": "view",
      "type": "function"
    },
    {
      "inputs": [
        {
          "internalType": "address",
          "name": "newOwner",
          "type": "address"
        }
      ],
      "name": "transferOwnership",
      "outputs": [],
      "stateMutability": "nonpayable",
      "type": "function"
    },
    {
      "inputs": [
        {
          "internalType": "string",
          "name": "_name",
          "type": "string"
        },
        {
          "internalType": "uint8",
          "name": "_copies",
          "type": "uint8"
        }
      ],
      "name": "addBook",
      "outputs": [],
      "stateMutability": "nonpayable",
      "type": "function"
    },
    {
      "inputs": [
        {
          "internalType": "string",
          "name": "_bookName",
          "type": "string"
        },
        {
          "internalType": "uint8",
          "name": "_copies",
          "type": "uint8"
        }
      ],
      "name": "addCopies",
      "outputs": [],
      "stateMutability": "nonpayable",
      "type": "function"
    },
    {
      "inputs": [
        {
          "internalType": "string",
          "name": "_bookName",
          "type": "string"
        }
      ],
      "name": "borrowBook",
      "outputs": [],
      "stateMutability": "nonpayable",
      "type": "function"
    },
    {
      "inputs": [
        {
          "internalType": "string",
          "name": "_bookName",
          "type": "string"
        },
        {
          "internalType": "uint256",
          "name": "value",
          "type": "uint256"
        },
        {
          "internalType": "uint256",
          "name": "deadline",
          "type": "uint256"
        },
        {
          "internalType": "uint8",
          "name": "v",
          "type": "uint8"
        },
        {
          "internalType": "bytes32",
          "name": "r",
          "type": "bytes32"
        },
        {
          "internalType": "bytes32",
          "name": "s",
          "type": "bytes32"
        }
      ],
      "name": "borrowBookWithPermit",
      "outputs": [],
      "stateMutability": "nonpayable",
      "type": "function"
    },
    {
      "inputs": [
        {
          "internalType": "string",
          "name": "_bookName",
          "type": "string"
        },
        {
          "internalType": "bytes32",
          "name": "hashedMessage",
          "type": "bytes32"
        },
        {
          "internalType": "uint8",
          "name": "v",
          "type": "uint8"
        },
        {
          "internalType": "bytes32",
          "name": "r",
          "type": "bytes32"
        },
        {
          "internalType": "bytes32",
          "name": "s",
          "type": "bytes32"
        },
        {
          "internalType": "address",
          "name": "receiver",
          "type": "address"
        }
      ],
      "name": "borrowBookWithSignature",
      "outputs": [],
      "stateMutability": "nonpayable",
      "type": "function"
    },
    {
      "inputs": [
        {
          "internalType": "string",
          "name": "_bookName",
          "type": "string"
        },
        {
          "internalType": "bytes32",
          "name": "hashedMessage",
          "type": "bytes32"
        },
        {
          "internalType": "uint8",
          "name": "v",
          "type": "uint8"
        },
        {
          "internalType": "bytes32",
          "name": "r",
          "type": "bytes32"
        },
        {
          "internalType": "bytes32",
          "name": "s",
          "type": "bytes32"
        },
        {
          "internalType": "address",
          "name": "receiver",
          "type": "address"
        }
      ],
      "name": "borrowOnBehalfOf",
      "outputs": [],
      "stateMutability": "nonpayable",
      "type": "function"
    },
    {
      "inputs": [
        {
          "internalType": "string",
          "name": "_bookName",
          "type": "string"
        }
      ],
      "name": "returnBook",
      "outputs": [],
      "stateMutability": "nonpayable",
      "type": "function"
    },
    {
      "inputs": [
        {
          "internalType": "string",
          "name": "_bookName",
          "type": "string"
        }
      ],
      "name": "getBorrowers",
      "outputs": [
        {
          "internalType": "address[]",
          "name": "",
          "type": "address[]"
        }
      ],
      "stateMutability": "view",
      "type": "function"
    },
    {
      "inputs": [
        {
          "internalType": "string",
          "name": "_bookName",
          "type": "string"
        }
      ],
      "name": "getBook",
      "outputs": [
        {
          "components": [
            {
              "internalType": "string",
              "name": "name",
              "type": "string"
            },
            {
              "internalType": "uint8",
              "name": "copies",
              "type": "uint8"
            },
            {
              "internalType": "address[]",
              "name": "borrowers",
              "type": "address[]"
            },
            {
              "internalType": "bool",
              "name": "exists",
              "type": "bool"
            }
          ],
          "internalType": "struct BookLibrary.Book",
          "name": "",
          "type": "tuple"
        }
      ],
      "stateMutability": "view",
      "type": "function"
    },
    {
      "inputs": [
        {
          "internalType": "string",
          "name": "_bookName",
          "type": "string"
        }
      ],
      "name": "isBookBorrowedByCurrentUser",
      "outputs": [
        {
          "internalType": "bool",
          "name": "",
          "type": "bool"
        }
      ],
      "stateMutability": "view",
      "type": "function"
    },
    {
      "inputs": [],
      "name": "getBooksCount",
      "outputs": [
        {
          "internalType": "uint256",
          "name": "",
          "type": "uint256"
        }
      ],
      "stateMutability": "view",
      "type": "function"
    }
  ],
  "bytecode": "0x6080604052662386f26fc100006004553480156200001c57600080fd5b506040516200421d3803806200421d8339818101604052810190620000429190620001f3565b600062000054620001bd60201b60201c565b9050806000806101000a81548173ffffffffffffffffffffffffffffffffffffffff021916908373ffffffffffffffffffffffffffffffffffffffff1602179055508073ffffffffffffffffffffffffffffffffffffffff16600073ffffffffffffffffffffffffffffffffffffffff167f8be0079c531659141344cd1fd0a4f28419497f9722a3daafe3b4186f6b6457e060405160405180910390a35080600160006101000a81548173ffffffffffffffffffffffffffffffffffffffff021916908373ffffffffffffffffffffffffffffffffffffffff16021790555081600260006101000a81548173ffffffffffffffffffffffffffffffffffffffff021916908373ffffffffffffffffffffffffffffffffffffffff16021790555081600360006101000a81548173ffffffffffffffffffffffffffffffffffffffff021916908373ffffffffffffffffffffffffffffffffffffffff1602179055505050620002b0565b600033905090565b600081519050620001d6816200027c565b92915050565b600081519050620001ed8162000296565b92915050565b600080604083850312156200020757600080fd5b60006200021785828601620001dc565b92505060206200022a85828601620001c5565b9150509250929050565b600062000241826200025c565b9050919050565b600062000255826200025c565b9050919050565b600073ffffffffffffffffffffffffffffffffffffffff82169050919050565b620002878162000234565b81146200029357600080fd5b50565b620002a18162000248565b8114620002ad57600080fd5b50565b613f5d80620002c06000396000f3fe608060405234801561001057600080fd5b506004361061012c5760003560e01c8063acc5f047116100ad578063ced96fe311610071578063ced96fe314610331578063d3e78ee41461034d578063dfd83d2a14610369578063e2cd0d2d14610387578063f2fde38b146103a55761012c565b8063acc5f04714610279578063b66d5c9114610295578063bf2b23ea146102c5578063c37a8361146102e3578063c43c1dd6146103135761012c565b8063533c9731116100f4578063533c9731146101d5578063582bcda514610205578063715018a6146102355780638da5cb5b1461023f578063a63ac38e1461025d5761012c565b80630c0dee70146101315780631ba3192b146101635780631ef49a8c146101815780632c224b321461019d5780633ec2df5d146101b9575b600080fd5b61014b60048036038101906101469190612fc5565b6103c1565b60405161015a93929190613aa6565b60405180910390f35b61016b61049d565b60405161017891906139fb565b60405180910390f35b61019b60048036038101906101969190613017565b6104c3565b005b6101b760048036038101906101b291906130f9565b610749565b005b6101d360048036038101906101ce919061319a565b610d13565b005b6101ef60048036038101906101ea9190613017565b610f11565b6040516101fc9190613965565b60405180910390f35b61021f600480360381019061021a9190613017565b61107a565b60405161022c9190613943565b60405180910390f35b61023d61125b565b005b610247611395565b6040516102549190613830565b60405180910390f35b6102776004803603810190610272919061319a565b6113be565b005b610293600480360381019061028e9190613058565b6116a3565b005b6102af60048036038101906102aa91906131ee565b611c6f565b6040516102bc9190613980565b60405180910390f35b6102cd611c90565b6040516102da9190613c06565b60405180910390f35b6102fd60048036038101906102f89190613017565b611c96565b60405161030a9190613be4565b60405180910390f35b61031b611f68565b60405161032891906139e0565b60405180910390f35b61034b60048036038101906103469190613017565b611f8e565b005b61036760048036038101906103629190613058565b6124dc565b005b610371612aa8565b60405161037e9190613c06565b60405180910390f35b61038f612ab5565b60405161039c919061384b565b60405180910390f35b6103bf60048036038101906103ba9190612f73565b612adb565b005b6006602052806000526040600020600091509050806000018054600181600116156101000203166002900480601f01602080910402602001604051908101604052809291908181526020018280546001816001161561010002031660029004801561046d5780601f106104425761010080835404028352916020019161046d565b820191906000526020600020905b81548152906001019060200180831161045057829003601f168201915b5050505050908060010160009054906101000a900460ff16908060030160009054906101000a900460ff16905083565b600160009054906101000a900473ffffffffffffffffffffffffffffffffffffffff1681565b8060016000826040516020016104d991906137f3565b604051602081830303815290604052805190602001209050811561056657600115156006600083815260200190815260200160002060030160009054906101000a900460ff16151514610561576040517f08c379a000000000000000000000000000000000000000000000000000000000815260040161055890613ba4565b60405180910390fd5b6105d1565b600015156006600083815260200190815260200160002060030160009054906101000a900460ff161515146105d0576040517f08c379a00000000000000000000000000000000000000000000000000000000081526004016105c790613b84565b60405180910390fd5b5b600033856040516020016105e69291906137a3565b604051602081830303815290604052805190602001209050600115156007600083815260200190815260200160002060009054906101000a900460ff16151514610665576040517f08c379a000000000000000000000000000000000000000000000000000000000815260040161065c90613b44565b60405180910390fd5b60008560405160200161067891906137f3565b604051602081830303815290604052805190602001209050600060066000838152602001908152602001600020905080600101600081819054906101000a900460ff168092919060010191906101000a81548160ff021916908360ff1602179055505060006007600085815260200190815260200160002060006101000a81548160ff0219169083151502179055507f85a44c5a2eee90e84b72a99b84ef7d745f384551951b8fe780fc0645f1c27d898733604051610738929190613a46565b60405180910390a150505050505050565b85600160008260405160200161075f91906137f3565b60405160208183030381529060405280519060200120905081156107ec57600115156006600083815260200190815260200160002060030160009054906101000a900460ff161515146107e7576040517f08c379a00000000000000000000000000000000000000000000000000000000081526004016107de90613ba4565b60405180910390fd5b610857565b600015156006600083815260200190815260200160002060030160009054906101000a900460ff16151514610856576040517f08c379a000000000000000000000000000000000000000000000000000000000815260040161084d90613b84565b60405180910390fd5b5b60008960405160200161086a91906137f3565b604051602081830303815290604052805190602001209050600060066000838152602001908152602001600020905060008160010160009054906101000a900460ff1660ff16116108f0576040517f08c379a00000000000000000000000000000000000000000000000000000000081526004016108e790613b04565b60405180910390fd5b6000338c6040516020016109059291906137a3565b604051602081830303815290604052805190602001209050600015156007600083815260200190815260200160002060009054906101000a900460ff16151514610984576040517f08c379a000000000000000000000000000000000000000000000000000000000815260040161097b90613bc4565b60405180910390fd5b6000600260009054906101000a900473ffffffffffffffffffffffffffffffffffffffff1673ffffffffffffffffffffffffffffffffffffffff16631ba3192b6040518163ffffffff1660e01b815260040160206040518083038186803b1580156109ee57600080fd5b505afa158015610a02573d6000803e3d6000fd5b505050506040513d601f19601f82011682018060405250810190610a269190612fee565b90508073ffffffffffffffffffffffffffffffffffffffff1663d505accf33308f8f8f8f8f6040518863ffffffff1660e01b8152600401610a6d979695949392919061389d565b600060405180830381600087803b158015610a8757600080fd5b505af1158015610a9b573d6000803e3d6000fd5b505050508073ffffffffffffffffffffffffffffffffffffffff166323b872dd33306004546040518463ffffffff1660e01b8152600401610ade93929190613866565b602060405180830381600087803b158015610af857600080fd5b505af1158015610b0c573d6000803e3d6000fd5b505050506040513d601f19601f82011682018060405250810190610b309190612f9c565b5060016007600084815260200190815260200160002060006101000a81548160ff02191690831515021790555082600101600081819054906101000a900460ff16809291906001900391906101000a81548160ff021916908360ff16021790555050600015156008600086815260200190815260200160002060003373ffffffffffffffffffffffffffffffffffffffff1673ffffffffffffffffffffffffffffffffffffffff16815260200190815260200160002060009054906101000a900460ff1615151415610ccb5782600201339080600181540180825580915050600190039060005260206000200160009091909190916101000a81548173ffffffffffffffffffffffffffffffffffffffff021916908373ffffffffffffffffffffffffffffffffffffffff16021790555060016008600086815260200190815260200160002060003373ffffffffffffffffffffffffffffffffffffffff1673ffffffffffffffffffffffffffffffffffffffff16815260200190815260200160002060006101000a81548160ff0219169083151502179055505b7f98a96a27b2755bcd656b9e243159ba0f25cc02a0e56bf8d0bd5ddd80d8a0cbfe8d33604051610cfc929190613a46565b60405180910390a150505050505050505050505050565b610d1b612c84565b73ffffffffffffffffffffffffffffffffffffffff16610d39611395565b73ffffffffffffffffffffffffffffffffffffffff1614610d8f576040517f08c379a0000000000000000000000000000000000000000000000000000000008152600401610d8690613b64565b60405180910390fd5b816001600082604051602001610da591906137f3565b6040516020818303038152906040528051906020012090508115610e3257600115156006600083815260200190815260200160002060030160009054906101000a900460ff16151514610e2d576040517f08c379a0000000000000000000000000000000000000000000000000000000008152600401610e2490613ba4565b60405180910390fd5b610e9d565b600015156006600083815260200190815260200160002060030160009054906101000a900460ff16151514610e9c576040517f08c379a0000000000000000000000000000000000000000000000000000000008152600401610e9390613b84565b60405180910390fd5b5b600085604051602001610eb091906137f3565b604051602081830303815290604052805190602001209050846006600083815260200190815260200160002060010160008282829054906101000a900460ff160192506101000a81548160ff021916908360ff160217905550505050505050565b6000816001600082604051602001610f2991906137f3565b6040516020818303038152906040528051906020012090508115610fb657600115156006600083815260200190815260200160002060030160009054906101000a900460ff16151514610fb1576040517f08c379a0000000000000000000000000000000000000000000000000000000008152600401610fa890613ba4565b60405180910390fd5b611021565b600015156006600083815260200190815260200160002060030160009054906101000a900460ff16151514611020576040517f08c379a000000000000000000000000000000000000000000000000000000000815260040161101790613b84565b60405180910390fd5b5b600033866040516020016110369291906137a3565b6040516020818303038152906040528051906020012090506007600082815260200190815260200160002060009054906101000a900460ff16945050505050919050565b606081600160008260405160200161109291906137f3565b604051602081830303815290604052805190602001209050811561111f57600115156006600083815260200190815260200160002060030160009054906101000a900460ff1615151461111a576040517f08c379a000000000000000000000000000000000000000000000000000000000815260040161111190613ba4565b60405180910390fd5b61118a565b600015156006600083815260200190815260200160002060030160009054906101000a900460ff16151514611189576040517f08c379a000000000000000000000000000000000000000000000000000000000815260040161118090613b84565b60405180910390fd5b5b60008560405160200161119d91906137f3565b6040516020818303038152906040528051906020012090506006600082815260200190815260200160002060020180548060200260200160405190810160405280929190818152602001828054801561124b57602002820191906000526020600020905b8160009054906101000a900473ffffffffffffffffffffffffffffffffffffffff1673ffffffffffffffffffffffffffffffffffffffff1681526020019060010190808311611201575b5050505050945050505050919050565b611263612c84565b73ffffffffffffffffffffffffffffffffffffffff16611281611395565b73ffffffffffffffffffffffffffffffffffffffff16146112d7576040517f08c379a00000000000000000000000000000000000000000000000000000000081526004016112ce90613b64565b60405180910390fd5b600073ffffffffffffffffffffffffffffffffffffffff1660008054906101000a900473ffffffffffffffffffffffffffffffffffffffff1673ffffffffffffffffffffffffffffffffffffffff167f8be0079c531659141344cd1fd0a4f28419497f9722a3daafe3b4186f6b6457e060405160405180910390a360008060006101000a81548173ffffffffffffffffffffffffffffffffffffffff021916908373ffffffffffffffffffffffffffffffffffffffff160217905550565b60008060009054906101000a900473ffffffffffffffffffffffffffffffffffffffff16905090565b6113c6612c84565b73ffffffffffffffffffffffffffffffffffffffff166113e4611395565b73ffffffffffffffffffffffffffffffffffffffff161461143a576040517f08c379a000000000000000000000000000000000000000000000000000000000815260040161143190613b64565b60405180910390fd5b816000808260405160200161144f91906137f3565b60405160208183030381529060405280519060200120905081156114dc57600115156006600083815260200190815260200160002060030160009054906101000a900460ff161515146114d7576040517f08c379a00000000000000000000000000000000000000000000000000000000081526004016114ce90613ba4565b60405180910390fd5b611547565b600015156006600083815260200190815260200160002060030160009054906101000a900460ff16151514611546576040517f08c379a000000000000000000000000000000000000000000000000000000000815260040161153d90613b84565b60405180910390fd5b5b60008560405160200161155a91906137f3565b604051602081830303815290604052805190602001209050606061157c612d12565b60405180608001604052808981526020018860ff1681526020018381526020016001151581525090506005839080600181540180825580915050600190039060005260206000200160009091909190915055806006600085815260200190815260200160002060008201518160000190805190602001906115fe929190612d3f565b5060208201518160010160006101000a81548160ff021916908360ff160217905550604082015181600201908051906020019061163c929190612dbf565b5060608201518160030160006101000a81548160ff0219169083151502179055509050507f752e0e9d31b708fdf71a47493e8fc65e25693a74c6a57be3daf36cfca821b6048888604051611691929190613a76565b60405180910390a15050505050505050565b8560016000826040516020016116b991906137f3565b604051602081830303815290604052805190602001209050811561174657600115156006600083815260200190815260200160002060030160009054906101000a900460ff16151514611741576040517f08c379a000000000000000000000000000000000000000000000000000000000815260040161173890613ba4565b60405180910390fd5b6117b1565b600015156006600083815260200190815260200160002060030160009054906101000a900460ff161515146117b0576040517f08c379a00000000000000000000000000000000000000000000000000000000081526004016117a790613b84565b60405180910390fd5b5b6000896040516020016117c491906137f3565b604051602081830303815290604052805190602001209050600060066000838152602001908152602001600020905060008160010160009054906101000a900460ff1660ff161161184a576040517f08c379a000000000000000000000000000000000000000000000000000000000815260040161184190613b04565b60405180910390fd5b8573ffffffffffffffffffffffffffffffffffffffff1661186d8b8b8b8b612c8c565b73ffffffffffffffffffffffffffffffffffffffff16146118c3576040517f08c379a00000000000000000000000000000000000000000000000000000000081526004016118ba90613ae4565b60405180910390fd5b6000868c6040516020016118d89291906137cb565b604051602081830303815290604052805190602001209050600015156007600083815260200190815260200160002060009054906101000a900460ff16151514611957576040517f08c379a000000000000000000000000000000000000000000000000000000000815260040161194e90613bc4565b60405180910390fd5b6000600260009054906101000a900473ffffffffffffffffffffffffffffffffffffffff1673ffffffffffffffffffffffffffffffffffffffff16631ba3192b6040518163ffffffff1660e01b815260040160206040518083038186803b1580156119c157600080fd5b505afa1580156119d5573d6000803e3d6000fd5b505050506040513d601f19601f820116820180604052508101906119f99190612fee565b90508073ffffffffffffffffffffffffffffffffffffffff166323b872dd89306004546040518463ffffffff1660e01b8152600401611a3a9392919061390c565b602060405180830381600087803b158015611a5457600080fd5b505af1158015611a68573d6000803e3d6000fd5b505050506040513d601f19601f82011682018060405250810190611a8c9190612f9c565b5060016007600084815260200190815260200160002060006101000a81548160ff02191690831515021790555082600101600081819054906101000a900460ff16809291906001900391906101000a81548160ff021916908360ff16021790555050600015156008600086815260200190815260200160002060008a73ffffffffffffffffffffffffffffffffffffffff1673ffffffffffffffffffffffffffffffffffffffff16815260200190815260200160002060009054906101000a900460ff1615151415611c275782600201889080600181540180825580915050600190039060005260206000200160009091909190916101000a81548173ffffffffffffffffffffffffffffffffffffffff021916908373ffffffffffffffffffffffffffffffffffffffff16021790555060016008600086815260200190815260200160002060008a73ffffffffffffffffffffffffffffffffffffffff1673ffffffffffffffffffffffffffffffffffffffff16815260200190815260200160002060006101000a81548160ff0219169083151502179055505b7f98a96a27b2755bcd656b9e243159ba0f25cc02a0e56bf8d0bd5ddd80d8a0cbfe8d89604051611c58929190613a16565b60405180910390a150505050505050505050505050565b60058181548110611c7c57fe5b906000526020600020016000915090505481565b60045481565b611c9e612d12565b816001600082604051602001611cb491906137f3565b6040516020818303038152906040528051906020012090508115611d4157600115156006600083815260200190815260200160002060030160009054906101000a900460ff16151514611d3c576040517f08c379a0000000000000000000000000000000000000000000000000000000008152600401611d3390613ba4565b60405180910390fd5b611dac565b600015156006600083815260200190815260200160002060030160009054906101000a900460ff16151514611dab576040517f08c379a0000000000000000000000000000000000000000000000000000000008152600401611da290613b84565b60405180910390fd5b5b600085604051602001611dbf91906137f3565b60405160208183030381529060405280519060200120905060066000828152602001908152602001600020604051806080016040529081600082018054600181600116156101000203166002900480601f016020809104026020016040519081016040528092919081815260200182805460018160011615610100020316600290048015611e8e5780601f10611e6357610100808354040283529160200191611e8e565b820191906000526020600020905b815481529060010190602001808311611e7157829003601f168201915b505050505081526020016001820160009054906101000a900460ff1660ff1660ff16815260200160028201805480602002602001604051908101604052809291908181526020018280548015611f3957602002820191906000526020600020905b8160009054906101000a900473ffffffffffffffffffffffffffffffffffffffff1673ffffffffffffffffffffffffffffffffffffffff1681526020019060010190808311611eef575b505050505081526020016003820160009054906101000a900460ff161515151581525050945050505050919050565b600260009054906101000a900473ffffffffffffffffffffffffffffffffffffffff1681565b806001600082604051602001611fa491906137f3565b604051602081830303815290604052805190602001209050811561203157600115156006600083815260200190815260200160002060030160009054906101000a900460ff1615151461202c576040517f08c379a000000000000000000000000000000000000000000000000000000000815260040161202390613ba4565b60405180910390fd5b61209c565b600015156006600083815260200190815260200160002060030160009054906101000a900460ff1615151461209b576040517f08c379a000000000000000000000000000000000000000000000000000000000815260040161209290613b84565b60405180910390fd5b5b6000846040516020016120af91906137f3565b604051602081830303815290604052805190602001209050600060066000838152602001908152602001600020905060008160010160009054906101000a900460ff1660ff1611612135576040517f08c379a000000000000000000000000000000000000000000000000000000000815260040161212c90613b04565b60405180910390fd5b6000338760405160200161214a9291906137a3565b604051602081830303815290604052805190602001209050600015156007600083815260200190815260200160002060009054906101000a900460ff161515146121c9576040517f08c379a00000000000000000000000000000000000000000000000000000000081526004016121c090613bc4565b60405180910390fd5b6000600260009054906101000a900473ffffffffffffffffffffffffffffffffffffffff1673ffffffffffffffffffffffffffffffffffffffff16631ba3192b6040518163ffffffff1660e01b815260040160206040518083038186803b15801561223357600080fd5b505afa158015612247573d6000803e3d6000fd5b505050506040513d601f19601f8201168201806040525081019061226b9190612fee565b90508073ffffffffffffffffffffffffffffffffffffffff166323b872dd33306004546040518463ffffffff1660e01b81526004016122ac93929190613866565b602060405180830381600087803b1580156122c657600080fd5b505af11580156122da573d6000803e3d6000fd5b505050506040513d601f19601f820116820180604052508101906122fe9190612f9c565b5060016007600084815260200190815260200160002060006101000a81548160ff02191690831515021790555082600101600081819054906101000a900460ff16809291906001900391906101000a81548160ff021916908360ff16021790555050600015156008600086815260200190815260200160002060003373ffffffffffffffffffffffffffffffffffffffff1673ffffffffffffffffffffffffffffffffffffffff16815260200190815260200160002060009054906101000a900460ff16151514156124995782600201339080600181540180825580915050600190039060005260206000200160009091909190916101000a81548173ffffffffffffffffffffffffffffffffffffffff021916908373ffffffffffffffffffffffffffffffffffffffff16021790555060016008600086815260200190815260200160002060003373ffffffffffffffffffffffffffffffffffffffff1673ffffffffffffffffffffffffffffffffffffffff16815260200190815260200160002060006101000a81548160ff0219169083151502179055505b7f98a96a27b2755bcd656b9e243159ba0f25cc02a0e56bf8d0bd5ddd80d8a0cbfe88336040516124ca929190613a46565b60405180910390a15050505050505050565b8560016000826040516020016124f291906137f3565b604051602081830303815290604052805190602001209050811561257f57600115156006600083815260200190815260200160002060030160009054906101000a900460ff1615151461257a576040517f08c379a000000000000000000000000000000000000000000000000000000000815260040161257190613ba4565b60405180910390fd5b6125ea565b600015156006600083815260200190815260200160002060030160009054906101000a900460ff161515146125e9576040517f08c379a00000000000000000000000000000000000000000000000000000000081526004016125e090613b84565b60405180910390fd5b5b6000896040516020016125fd91906137f3565b604051602081830303815290604052805190602001209050600060066000838152602001908152602001600020905060008160010160009054906101000a900460ff1660ff1611612683576040517f08c379a000000000000000000000000000000000000000000000000000000000815260040161267a90613b04565b60405180910390fd5b8573ffffffffffffffffffffffffffffffffffffffff166126a68b8b8b8b612c8c565b73ffffffffffffffffffffffffffffffffffffffff16146126fc576040517f08c379a00000000000000000000000000000000000000000000000000000000081526004016126f390613ae4565b60405180910390fd5b6000338c6040516020016127119291906137a3565b604051602081830303815290604052805190602001209050600015156007600083815260200190815260200160002060009054906101000a900460ff16151514612790576040517f08c379a000000000000000000000000000000000000000000000000000000000815260040161278790613bc4565b60405180910390fd5b6000600260009054906101000a900473ffffffffffffffffffffffffffffffffffffffff1673ffffffffffffffffffffffffffffffffffffffff16631ba3192b6040518163ffffffff1660e01b815260040160206040518083038186803b1580156127fa57600080fd5b505afa15801561280e573d6000803e3d6000fd5b505050506040513d601f19601f820116820180604052508101906128329190612fee565b90508073ffffffffffffffffffffffffffffffffffffffff166323b872dd33306004546040518463ffffffff1660e01b815260040161287393929190613866565b602060405180830381600087803b15801561288d57600080fd5b505af11580156128a1573d6000803e3d6000fd5b505050506040513d601f19601f820116820180604052508101906128c59190612f9c565b5060016007600084815260200190815260200160002060006101000a81548160ff02191690831515021790555082600101600081819054906101000a900460ff16809291906001900391906101000a81548160ff021916908360ff16021790555050600015156008600086815260200190815260200160002060003373ffffffffffffffffffffffffffffffffffffffff1673ffffffffffffffffffffffffffffffffffffffff16815260200190815260200160002060009054906101000a900460ff1615151415612a605782600201339080600181540180825580915050600190039060005260206000200160009091909190916101000a81548173ffffffffffffffffffffffffffffffffffffffff021916908373ffffffffffffffffffffffffffffffffffffffff16021790555060016008600086815260200190815260200160002060003373ffffffffffffffffffffffffffffffffffffffff1673ffffffffffffffffffffffffffffffffffffffff16815260200190815260200160002060006101000a81548160ff0219169083151502179055505b7f98a96a27b2755bcd656b9e243159ba0f25cc02a0e56bf8d0bd5ddd80d8a0cbfe8d33604051612a91929190613a46565b60405180910390a150505050505050505050505050565b6000600580549050905090565b600360009054906101000a900473ffffffffffffffffffffffffffffffffffffffff1681565b612ae3612c84565b73ffffffffffffffffffffffffffffffffffffffff16612b01611395565b73ffffffffffffffffffffffffffffffffffffffff1614612b57576040517f08c379a0000000000000000000000000000000000000000000000000000000008152600401612b4e90613b64565b60405180910390fd5b600073ffffffffffffffffffffffffffffffffffffffff168173ffffffffffffffffffffffffffffffffffffffff161415612bc7576040517f08c379a0000000000000000000000000000000000000000000000000000000008152600401612bbe90613b24565b60405180910390fd5b8073ffffffffffffffffffffffffffffffffffffffff1660008054906101000a900473ffffffffffffffffffffffffffffffffffffffff1673ffffffffffffffffffffffffffffffffffffffff167f8be0079c531659141344cd1fd0a4f28419497f9722a3daafe3b4186f6b6457e060405160405180910390a3806000806101000a81548173ffffffffffffffffffffffffffffffffffffffff021916908373ffffffffffffffffffffffffffffffffffffffff16021790555050565b600033905090565b60008085604051602001612ca0919061380a565b60405160208183030381529060405280519060200120905060018186868660405160008152602001604052604051612cdb949392919061399b565b6020604051602081039080840390855afa158015612cfd573d6000803e3d6000fd5b50505060206040510351915050949350505050565b604051806080016040528060608152602001600060ff168152602001606081526020016000151581525090565b828054600181600116156101000203166002900490600052602060002090601f016020900481019282601f10612d8057805160ff1916838001178555612dae565b82800160010185558215612dae579182015b82811115612dad578251825591602001919060010190612d92565b5b509050612dbb9190612e49565b5090565b828054828255906000526020600020908101928215612e38579160200282015b82811115612e375782518260006101000a81548173ffffffffffffffffffffffffffffffffffffffff021916908373ffffffffffffffffffffffffffffffffffffffff16021790555091602001919060010190612ddf565b5b509050612e459190612e66565b5090565b5b80821115612e62576000816000905550600101612e4a565b5090565b5b80821115612e9d57600081816101000a81549073ffffffffffffffffffffffffffffffffffffffff021916905550600101612e67565b5090565b600081359050612eb081613e9d565b92915050565b600081519050612ec581613eb4565b92915050565b600081359050612eda81613ecb565b92915050565b600081519050612eef81613ee2565b92915050565b600082601f830112612f0657600080fd5b8135612f19612f1482613c4e565b613c21565b91508082526020830160208301858383011115612f3557600080fd5b612f40838284613dfd565b50505092915050565b600081359050612f5881613ef9565b92915050565b600081359050612f6d81613f10565b92915050565b600060208284031215612f8557600080fd5b6000612f9384828501612ea1565b91505092915050565b600060208284031215612fae57600080fd5b6000612fbc84828501612eb6565b91505092915050565b600060208284031215612fd757600080fd5b6000612fe584828501612ecb565b91505092915050565b60006020828403121561300057600080fd5b600061300e84828501612ee0565b91505092915050565b60006020828403121561302957600080fd5b600082013567ffffffffffffffff81111561304357600080fd5b61304f84828501612ef5565b91505092915050565b60008060008060008060c0878903121561307157600080fd5b600087013567ffffffffffffffff81111561308b57600080fd5b61309789828a01612ef5565b96505060206130a889828a01612ecb565b95505060406130b989828a01612f5e565b94505060606130ca89828a01612ecb565b93505060806130db89828a01612ecb565b92505060a06130ec89828a01612ea1565b9150509295509295509295565b60008060008060008060c0878903121561311257600080fd5b600087013567ffffffffffffffff81111561312c57600080fd5b61313889828a01612ef5565b965050602061314989828a01612f49565b955050604061315a89828a01612f49565b945050606061316b89828a01612f5e565b935050608061317c89828a01612ecb565b92505060a061318d89828a01612ecb565b9150509295509295509295565b600080604083850312156131ad57600080fd5b600083013567ffffffffffffffff8111156131c757600080fd5b6131d385828601612ef5565b92505060206131e485828601612f5e565b9150509250929050565b60006020828403121561320057600080fd5b600061320e84828501612f49565b91505092915050565b60006132238383613264565b60208301905092915050565b61323881613d7f565b82525050565b61324781613d0e565b82525050565b61325e61325982613d0e565b613e51565b82525050565b61326d81613cfc565b82525050565b61327c81613cfc565b82525050565b61329361328e82613cfc565b613e3f565b82525050565b60006132a482613c8a565b6132ae8185613cad565b93506132b983613c7a565b8060005b838110156132ea5781516132d18882613217565b97506132dc83613ca0565b9250506001810190506132bd565b5085935050505092915050565b600061330282613c8a565b61330c8185613cbe565b935061331783613c7a565b8060005b8381101561334857815161332f8882613217565b975061333a83613ca0565b92505060018101905061331b565b5085935050505092915050565b61335e81613d20565b82525050565b61336d81613d20565b82525050565b61337c81613d2c565b82525050565b61339361338e82613d2c565b613e63565b82525050565b6133a281613d91565b82525050565b6133b181613db5565b82525050565b60006133c282613c95565b6133cc8185613ccf565b93506133dc818560208601613e0c565b6133e581613e7f565b840191505092915050565b60006133fb82613c95565b6134058185613ce0565b9350613415818560208601613e0c565b61341e81613e7f565b840191505092915050565b600061343482613c95565b61343e8185613cf1565b935061344e818560208601613e0c565b80840191505092915050565b6000613467602183613ce0565b91507f52656369766572206861736e2774207369676e656420746865206d657373616760008301527f65000000000000000000000000000000000000000000000000000000000000006020830152604082019050919050565b60006134cd601c83613cf1565b91507f19457468657265756d205369676e6564204d6573736167653a0a3332000000006000830152601c82019050919050565b600061350d601383613ce0565b91507f4e6f206d6f726520636f70696573206c656674000000000000000000000000006000830152602082019050919050565b600061354d602683613ce0565b91507f4f776e61626c653a206e6577206f776e657220697320746865207a65726f206160008301527f64647265737300000000000000000000000000000000000000000000000000006020830152604082019050919050565b60006135b3603183613ce0565b91507f596f752063616e27742072657475726e206120626f6f6b207468617420796f7560008301527f20686176656e277420626f72726f7765640000000000000000000000000000006020830152604082019050919050565b6000613619602083613ce0565b91507f4f776e61626c653a2063616c6c6572206973206e6f7420746865206f776e65726000830152602082019050919050565b6000613659601483613ce0565b91507f426f6f6b20616c726561647920657869737473210000000000000000000000006000830152602082019050919050565b6000613699601383613ce0565b91507f426f6f6b20646f65736e277420657869737421000000000000000000000000006000830152602082019050919050565b60006136d9602083613ce0565b91507f596f7527766520616c726561647920626f72726f7765642074686520626f6f6b6000830152602082019050919050565b6000608083016000830151848203600086015261372982826133b7565b915050602083015161373e6020860182613785565b50604083015184820360408601526137568282613299565b915050606083015161376b6060860182613355565b508091505092915050565b61377f81613d68565b82525050565b61378e81613d72565b82525050565b61379d81613d72565b82525050565b60006137af828561324d565b6014820191506137bf8284613429565b91508190509392505050565b60006137d78285613282565b6014820191506137e78284613429565b91508190509392505050565b60006137ff8284613429565b915081905092915050565b6000613815826134c0565b91506138218284613382565b60208201915081905092915050565b60006020820190506138456000830184613273565b92915050565b6000602082019050613860600083018461323e565b92915050565b600060608201905061387b600083018661322f565b6138886020830185613273565b6138956040830184613776565b949350505050565b600060e0820190506138b2600083018a61322f565b6138bf6020830189613273565b6138cc6040830188613776565b6138d96060830187613776565b6138e66080830186613794565b6138f360a0830185613373565b61390060c0830184613373565b98975050505050505050565b60006060820190506139216000830186613273565b61392e6020830185613273565b61393b6040830184613776565b949350505050565b6000602082019050818103600083015261395d81846132f7565b905092915050565b600060208201905061397a6000830184613364565b92915050565b60006020820190506139956000830184613373565b92915050565b60006080820190506139b06000830187613373565b6139bd6020830186613794565b6139ca6040830185613373565b6139d76060830184613373565b95945050505050565b60006020820190506139f56000830184613399565b92915050565b6000602082019050613a1060008301846133a8565b92915050565b60006040820190508181036000830152613a3081856133f0565b9050613a3f6020830184613273565b9392505050565b60006040820190508181036000830152613a6081856133f0565b9050613a6f602083018461322f565b9392505050565b60006040820190508181036000830152613a9081856133f0565b9050613a9f6020830184613794565b9392505050565b60006060820190508181036000830152613ac081866133f0565b9050613acf6020830185613794565b613adc6040830184613364565b949350505050565b60006020820190508181036000830152613afd8161345a565b9050919050565b60006020820190508181036000830152613b1d81613500565b9050919050565b60006020820190508181036000830152613b3d81613540565b9050919050565b60006020820190508181036000830152613b5d816135a6565b9050919050565b60006020820190508181036000830152613b7d8161360c565b9050919050565b60006020820190508181036000830152613b9d8161364c565b9050919050565b60006020820190508181036000830152613bbd8161368c565b9050919050565b60006020820190508181036000830152613bdd816136cc565b9050919050565b60006020820190508181036000830152613bfe818461370c565b905092915050565b6000602082019050613c1b6000830184613776565b92915050565b6000604051905081810181811067ffffffffffffffff82111715613c4457600080fd5b8060405250919050565b600067ffffffffffffffff821115613c6557600080fd5b601f19601f8301169050602081019050919050565b6000819050602082019050919050565b600081519050919050565b600081519050919050565b6000602082019050919050565b600082825260208201905092915050565b600082825260208201905092915050565b600082825260208201905092915050565b600082825260208201905092915050565b600081905092915050565b6000613d0782613d48565b9050919050565b6000613d1982613d48565b9050919050565b60008115159050919050565b6000819050919050565b6000613d4182613cfc565b9050919050565b600073ffffffffffffffffffffffffffffffffffffffff82169050919050565b6000819050919050565b600060ff82169050919050565b6000613d8a82613dd9565b9050919050565b6000613d9c82613da3565b9050919050565b6000613dae82613d48565b9050919050565b6000613dc082613dc7565b9050919050565b6000613dd282613d48565b9050919050565b6000613de482613deb565b9050919050565b6000613df682613d48565b9050919050565b82818337600083830152505050565b60005b83811015613e2a578082015181840152602081019050613e0f565b83811115613e39576000848401525b50505050565b6000613e4a82613e6d565b9050919050565b6000613e5c82613e6d565b9050919050565b6000819050919050565b6000613e7882613e90565b9050919050565b6000601f19601f8301169050919050565b60008160601b9050919050565b613ea681613cfc565b8114613eb157600080fd5b50565b613ebd81613d20565b8114613ec857600080fd5b50565b613ed481613d2c565b8114613edf57600080fd5b50565b613eeb81613d36565b8114613ef657600080fd5b50565b613f0281613d68565b8114613f0d57600080fd5b50565b613f1981613d72565b8114613f2457600080fd5b5056fea2646970667358221220498a0a84b263244c6cf75b6cc727626ac8412bd1a6d236d066966204b119b9e764736f6c63430007000033",
  "source": "// SPDX-License-Identifier: UNLICENSED\n\npragma solidity ^0.7.0;\npragma experimental ABIEncoderV2;\n\nimport \"@openzeppelin/contracts/access/Ownable.sol\";\nimport \"./LibraryToken.sol\";\nimport \"./LibWrapper.sol\";\n\ncontract BookLibrary is Ownable {\n  LibraryToken public LIBToken;\n  LIBWrapper public LIBTokenWrapper;\n\n  address payable public libTokenWrapperAddress;\n\n  uint public rentFee = 10000000000000000;\n\n  bytes32[] public booksIds;\n  \n  mapping(bytes32 => Book) public books;\n  mapping(bytes32 => bool) private userBorrowedBooks;\n  mapping(bytes32 => mapping (address => bool)) private hasUserBorrowedBefore;\n\n  event LogBookAdded(string bookName, uint8 copies);\n  event LogBookBorrowed(string bookName, address borrower);\n  event LogBookReturned(string bookName, address returner);\n\n  struct Book {\n    string name;\n    uint8 copies;\n    address[] borrowers;\n    bool exists;\n  }\n\n  constructor(address payable _wrapperAddress, address _tokenAddress) {\n    LIBToken = LibraryToken(_tokenAddress);\n    LIBTokenWrapper = LIBWrapper(_wrapperAddress);\n    libTokenWrapperAddress = _wrapperAddress;\n  }\n  \n  modifier bookShouldExist(string memory _name, bool shouldExist) {\n    bytes32 encodedName = keccak256(abi.encodePacked(_name));\n    if (shouldExist) {\n      require(books[encodedName].exists == true, \"Book doesn't exist!\");\n    } else {\n      require(books[encodedName].exists == false, \"Book already exists!\");\n    }\n    _;\n  }\n\n  function addBook (string memory _name, uint8 _copies) external onlyOwner bookShouldExist(_name, false) {\n    bytes32 encodedName = keccak256(abi.encodePacked(_name));\n\n    address[] memory borrowers;\n    Book memory newBook = Book(_name, _copies, borrowers, true);\n    booksIds.push(encodedName);\n    books[encodedName] = newBook;\n\n    emit LogBookAdded(_name, _copies);\n  }\n  \n  function addCopies(string memory _bookName, uint8 _copies) external onlyOwner bookShouldExist(_bookName, true) {\n    bytes32 encodedName = keccak256(abi.encodePacked(_bookName));\n    books[encodedName].copies += _copies;\n  }\n    \n  function borrowBook(string memory _bookName) external bookShouldExist(_bookName, true){    \n    bytes32 encodedName = keccak256(abi.encodePacked(_bookName));\n    Book storage book = books[encodedName]; \n\n    // User can't borrow booksArray with no copies left;\n    require(book.copies > 0, \"No more copies left\");\n\n    // User shouldn't borrow the same book more than once;\n    bytes32 hash = keccak256(abi.encodePacked(msg.sender, _bookName));\n    require(userBorrowedBooks[hash] == false, \"You've already borrowed the book\");\n\n    LibraryToken libToken = LIBTokenWrapper.LIBToken();\n    // Transfer rent fee\n    libToken.transferFrom(msg.sender, address(this), rentFee);\n\n    userBorrowedBooks[hash] = true;\n    book.copies--;\n    if (hasUserBorrowedBefore[encodedName][msg.sender] == false) {\n      book.borrowers.push(msg.sender);\n      hasUserBorrowedBefore[encodedName][msg.sender] = true;\n    }\n\n    emit LogBookBorrowed(_bookName, msg.sender);\n  }\n\n  function borrowBookWithPermit(string memory _bookName, uint256 value, uint256 deadline, uint8 v, bytes32 r, bytes32 s) external bookShouldExist(_bookName, true){    \n    bytes32 encodedName = keccak256(abi.encodePacked(_bookName));\n    Book storage book = books[encodedName]; \n\n    // User can't borrow booksArray with no copies left;\n    require(book.copies > 0, \"No more copies left\");\n\n    // User shouldn't borrow the same book more than once;\n    bytes32 hash = keccak256(abi.encodePacked(msg.sender, _bookName));\n    require(userBorrowedBooks[hash] == false, \"You've already borrowed the book\");\n\n    LibraryToken libToken = LIBTokenWrapper.LIBToken();\n\n    libToken.permit(msg.sender, address(this), value, deadline, v,r,s);\n    // Transfer rent fee\n    libToken.transferFrom(msg.sender, address(this), rentFee);\n\n    userBorrowedBooks[hash] = true;\n    book.copies--;\n    if (hasUserBorrowedBefore[encodedName][msg.sender] == false) {\n      book.borrowers.push(msg.sender);\n      hasUserBorrowedBefore[encodedName][msg.sender] = true;\n    }\n    emit LogBookBorrowed(_bookName, msg.sender);\n  }\n\n  function borrowBookWithSignature (string memory _bookName, bytes32 hashedMessage, uint8 v, bytes32 r, bytes32 s, address receiver) external bookShouldExist(_bookName, true) {\n    bytes32 encodedName = keccak256(abi.encodePacked(_bookName));\n    Book storage book = books[encodedName]; \n\n    // User can't borrow booksArray with no copies left;\n    require(book.copies > 0, \"No more copies left\");\n    require(recoverSigner(hashedMessage, v, r, s) == receiver, \"Reciver hasn't signed the message\");\n    // User shouldn't borrow the same book more than once;\n    bytes32 hash = keccak256(abi.encodePacked(msg.sender, _bookName));\n    require(userBorrowedBooks[hash] == false, \"You've already borrowed the book\");\n\n    LibraryToken libToken = LIBTokenWrapper.LIBToken();\n    // Transfer rent fee\n    libToken.transferFrom(msg.sender, address(this), rentFee);\n\n    userBorrowedBooks[hash] = true;\n    book.copies--;\n    if (hasUserBorrowedBefore[encodedName][msg.sender] == false) {\n      book.borrowers.push(msg.sender);\n      hasUserBorrowedBefore[encodedName][msg.sender] = true;\n    }\n\n    emit LogBookBorrowed(_bookName, msg.sender);\n  }\n\n  function borrowOnBehalfOf(string memory _bookName, bytes32 hashedMessage, uint8 v, bytes32 r, bytes32 s, address receiver) external bookShouldExist(_bookName, true) {\n    bytes32 encodedName = keccak256(abi.encodePacked(_bookName));\n    Book storage book = books[encodedName]; \n\n    // User can't borrow booksArray with no copies left;\n    require(book.copies > 0, \"No more copies left\");\n\n    // User mush have signed the message;\n    require(recoverSigner(hashedMessage, v, r, s) == receiver, \"Reciver hasn't signed the message\");\n\n    // User shouldn't borrow the same book more than once;\n    bytes32 hash = keccak256(abi.encodePacked(receiver, _bookName));\n    require(userBorrowedBooks[hash] == false, \"You've already borrowed the book\");\n\n    LibraryToken libToken = LIBTokenWrapper.LIBToken();\n\n    libToken.transferFrom(receiver, address(this), rentFee);\n\n    userBorrowedBooks[hash] = true;\n    book.copies--;\n    if (hasUserBorrowedBefore[encodedName][receiver] == false) {\n      book.borrowers.push(receiver);\n      hasUserBorrowedBefore[encodedName][receiver] = true;\n    }\n\n    emit LogBookBorrowed(_bookName, receiver);\n\n  }\n  \n  \n  function returnBook(string memory _bookName) external bookShouldExist(_bookName, true) {\n    //Check if user has borrowed this book;\n    bytes32 hash = keccak256(abi.encodePacked(msg.sender, _bookName));\n    require(userBorrowedBooks[hash] == true, \"You can't return a book that you haven't borrowed\");\n    \n    bytes32 encodedName = keccak256(abi.encodePacked(_bookName));\n    Book storage book = books[encodedName];\n    book.copies++;\n    userBorrowedBooks[hash] = false;\n\n    emit LogBookReturned(_bookName, msg.sender);\n  }\n  \n\n  function getBorrowers(string memory _bookName) external view bookShouldExist(_bookName, true) returns (address[] memory) {\n    bytes32 encodedName = keccak256(abi.encodePacked(_bookName));\n    return books[encodedName].borrowers;\n  }\n\n  function getBook (string memory _bookName) external view bookShouldExist(_bookName, true) returns (Book memory) {\n    bytes32 encodedName = keccak256(abi.encodePacked(_bookName));\n    return books[encodedName];\n  }\n\n  function isBookBorrowedByCurrentUser(string memory _bookName) external view bookShouldExist(_bookName, true) returns(bool) {\n    bytes32 key = keccak256(abi.encodePacked(msg.sender, _bookName));\n    return userBorrowedBooks[key];\n  }\n\n  function getBooksCount() external view returns(uint) {\n    return booksIds.length;\n  }  \n\n    function recoverSigner(bytes32 hashedMessage, uint8 v, bytes32 r, bytes32 s) internal returns(address) {\n    bytes32 messageDigest = keccak256(abi.encodePacked(\"\\x19Ethereum Signed Message:\\n32\", hashedMessage));\n    return ecrecover(messageDigest, v, r, s);\n  }\n\n} ",
  "sourcePath": "/Users/viktortodorov/Desktop/BookLibrary/contracts/BookLibrary.sol",
  "compiler": {
    "name": "solc",
    "version": "0.7.0+commit.9e61f92b.Emscripten.clang",
    "optimizer": false,
    "runs": 200
  },
  "schemaVersion": "2.3.5",
  "updatedAt": "2021-06-16T13:08:29.510Z"
}