{
  "contractName": "BookLibrary",
  "abi": [
    {
      "inputs": [
        {
          "internalType": "address payable",
          "name": "_wrapperAddress",
          "type": "address"
        },
        {
          "internalType": "address",
          "name": "_tokenAddress",
          "type": "address"
        }
      ],
      "stateMutability": "nonpayable",
      "type": "constructor"
    },
    {
      "anonymous": false,
      "inputs": [
        {
          "indexed": false,
          "internalType": "string",
          "name": "bookName",
          "type": "string"
        },
        {
          "indexed": false,
          "internalType": "uint8",
          "name": "copies",
          "type": "uint8"
        }
      ],
      "name": "LogBookAdded",
      "type": "event"
    },
    {
      "anonymous": false,
      "inputs": [
        {
          "indexed": false,
          "internalType": "string",
          "name": "bookName",
          "type": "string"
        },
        {
          "indexed": false,
          "internalType": "address",
          "name": "borrower",
          "type": "address"
        }
      ],
      "name": "LogBookBorrowed",
      "type": "event"
    },
    {
      "anonymous": false,
      "inputs": [
        {
          "indexed": false,
          "internalType": "string",
          "name": "bookName",
          "type": "string"
        },
        {
          "indexed": false,
          "internalType": "address",
          "name": "returner",
          "type": "address"
        }
      ],
      "name": "LogBookReturned",
      "type": "event"
    },
    {
      "anonymous": false,
      "inputs": [
        {
          "indexed": true,
          "internalType": "address",
          "name": "previousOwner",
          "type": "address"
        },
        {
          "indexed": true,
          "internalType": "address",
          "name": "newOwner",
          "type": "address"
        }
      ],
      "name": "OwnershipTransferred",
      "type": "event"
    },
    {
      "inputs": [],
      "name": "LIBToken",
      "outputs": [
        {
          "internalType": "contract LibraryToken",
          "name": "",
          "type": "address"
        }
      ],
      "stateMutability": "view",
      "type": "function"
    },
    {
      "inputs": [],
      "name": "LIBTokenWrapper",
      "outputs": [
        {
          "internalType": "contract LIBWrapper",
          "name": "",
          "type": "address"
        }
      ],
      "stateMutability": "view",
      "type": "function"
    },
    {
      "inputs": [
        {
          "internalType": "bytes32",
          "name": "",
          "type": "bytes32"
        }
      ],
      "name": "books",
      "outputs": [
        {
          "internalType": "string",
          "name": "name",
          "type": "string"
        },
        {
          "internalType": "uint8",
          "name": "copies",
          "type": "uint8"
        },
        {
          "internalType": "bool",
          "name": "exists",
          "type": "bool"
        }
      ],
      "stateMutability": "view",
      "type": "function"
    },
    {
      "inputs": [
        {
          "internalType": "uint256",
          "name": "",
          "type": "uint256"
        }
      ],
      "name": "booksIds",
      "outputs": [
        {
          "internalType": "bytes32",
          "name": "",
          "type": "bytes32"
        }
      ],
      "stateMutability": "view",
      "type": "function"
    },
    {
      "inputs": [],
      "name": "libTokenWrapperAddress",
      "outputs": [
        {
          "internalType": "address payable",
          "name": "",
          "type": "address"
        }
      ],
      "stateMutability": "view",
      "type": "function"
    },
    {
      "inputs": [],
      "name": "owner",
      "outputs": [
        {
          "internalType": "address",
          "name": "",
          "type": "address"
        }
      ],
      "stateMutability": "view",
      "type": "function"
    },
    {
      "inputs": [],
      "name": "renounceOwnership",
      "outputs": [],
      "stateMutability": "nonpayable",
      "type": "function"
    },
    {
      "inputs": [],
      "name": "rentFee",
      "outputs": [
        {
          "internalType": "uint256",
          "name": "",
          "type": "uint256"
        }
      ],
      "stateMutability": "view",
      "type": "function"
    },
    {
      "inputs": [
        {
          "internalType": "address",
          "name": "newOwner",
          "type": "address"
        }
      ],
      "name": "transferOwnership",
      "outputs": [],
      "stateMutability": "nonpayable",
      "type": "function"
    },
    {
      "inputs": [
        {
          "internalType": "string",
          "name": "_name",
          "type": "string"
        },
        {
          "internalType": "uint8",
          "name": "_copies",
          "type": "uint8"
        }
      ],
      "name": "addBook",
      "outputs": [],
      "stateMutability": "nonpayable",
      "type": "function"
    },
    {
      "inputs": [
        {
          "internalType": "string",
          "name": "_bookName",
          "type": "string"
        },
        {
          "internalType": "uint8",
          "name": "_copies",
          "type": "uint8"
        }
      ],
      "name": "addCopies",
      "outputs": [],
      "stateMutability": "nonpayable",
      "type": "function"
    },
    {
      "inputs": [
        {
          "internalType": "string",
          "name": "_bookName",
          "type": "string"
        }
      ],
      "name": "borrowBook",
      "outputs": [],
      "stateMutability": "nonpayable",
      "type": "function"
    },
    {
      "inputs": [
        {
          "internalType": "string",
          "name": "_bookName",
          "type": "string"
        },
        {
          "internalType": "bytes32",
          "name": "hashedMessage",
          "type": "bytes32"
        },
        {
          "internalType": "uint8",
          "name": "v",
          "type": "uint8"
        },
        {
          "internalType": "bytes32",
          "name": "r",
          "type": "bytes32"
        },
        {
          "internalType": "bytes32",
          "name": "s",
          "type": "bytes32"
        },
        {
          "internalType": "address",
          "name": "receiver",
          "type": "address"
        }
      ],
      "name": "borrowOnBehalfOf",
      "outputs": [],
      "stateMutability": "nonpayable",
      "type": "function"
    },
    {
      "inputs": [
        {
          "internalType": "string",
          "name": "_bookName",
          "type": "string"
        }
      ],
      "name": "returnBook",
      "outputs": [],
      "stateMutability": "nonpayable",
      "type": "function"
    },
    {
      "inputs": [
        {
          "internalType": "string",
          "name": "_bookName",
          "type": "string"
        }
      ],
      "name": "getBorrowers",
      "outputs": [
        {
          "internalType": "address[]",
          "name": "",
          "type": "address[]"
        }
      ],
      "stateMutability": "view",
      "type": "function"
    },
    {
      "inputs": [
        {
          "internalType": "string",
          "name": "_bookName",
          "type": "string"
        }
      ],
      "name": "getBook",
      "outputs": [
        {
          "components": [
            {
              "internalType": "string",
              "name": "name",
              "type": "string"
            },
            {
              "internalType": "uint8",
              "name": "copies",
              "type": "uint8"
            },
            {
              "internalType": "address[]",
              "name": "borrowers",
              "type": "address[]"
            },
            {
              "internalType": "bool",
              "name": "exists",
              "type": "bool"
            }
          ],
          "internalType": "struct BookLibrary.Book",
          "name": "",
          "type": "tuple"
        }
      ],
      "stateMutability": "view",
      "type": "function"
    },
    {
      "inputs": [
        {
          "internalType": "string",
          "name": "_bookName",
          "type": "string"
        }
      ],
      "name": "isBookBorrowedByCurrentUser",
      "outputs": [
        {
          "internalType": "bool",
          "name": "",
          "type": "bool"
        }
      ],
      "stateMutability": "view",
      "type": "function"
    },
    {
      "inputs": [],
      "name": "getBooksCount",
      "outputs": [
        {
          "internalType": "uint256",
          "name": "",
          "type": "uint256"
        }
      ],
      "stateMutability": "view",
      "type": "function"
    }
  ],
  "bytecode": "0x6080604052662386f26fc100006004553480156200001c57600080fd5b5060405162003529380380620035298339818101604052810190620000429190620001f3565b600062000054620001bd60201b60201c565b9050806000806101000a81548173ffffffffffffffffffffffffffffffffffffffff021916908373ffffffffffffffffffffffffffffffffffffffff1602179055508073ffffffffffffffffffffffffffffffffffffffff16600073ffffffffffffffffffffffffffffffffffffffff167f8be0079c531659141344cd1fd0a4f28419497f9722a3daafe3b4186f6b6457e060405160405180910390a35080600160006101000a81548173ffffffffffffffffffffffffffffffffffffffff021916908373ffffffffffffffffffffffffffffffffffffffff16021790555081600260006101000a81548173ffffffffffffffffffffffffffffffffffffffff021916908373ffffffffffffffffffffffffffffffffffffffff16021790555081600360006101000a81548173ffffffffffffffffffffffffffffffffffffffff021916908373ffffffffffffffffffffffffffffffffffffffff1602179055505050620002b0565b600033905090565b600081519050620001d6816200027c565b92915050565b600081519050620001ed8162000296565b92915050565b600080604083850312156200020757600080fd5b60006200021785828601620001dc565b92505060206200022a85828601620001c5565b9150509250929050565b600062000241826200025c565b9050919050565b600062000255826200025c565b9050919050565b600073ffffffffffffffffffffffffffffffffffffffff82169050919050565b620002878162000234565b81146200029357600080fd5b50565b620002a18162000248565b8114620002ad57600080fd5b50565b61326980620002c06000396000f3fe608060405234801561001057600080fd5b50600436106101165760003560e01c8063acc5f047116100a2578063c43c1dd611610071578063c43c1dd6146102e1578063ced96fe3146102ff578063dfd83d2a1461031b578063e2cd0d2d14610339578063f2fde38b1461035757610116565b8063acc5f04714610247578063b66d5c9114610263578063bf2b23ea14610293578063c37a8361146102b157610116565b8063533c9731116100e9578063533c9731146101a3578063582bcda5146101d3578063715018a6146102035780638da5cb5b1461020d578063a63ac38e1461022b57610116565b80630c0dee701461011b5780631ba3192b1461014d5780631ef49a8c1461016b5780633ec2df5d14610187575b600080fd5b610135600480360381019061013091906123e1565b610373565b60405161014493929190612db2565b60405180910390f35b61015561044f565b6040516101629190612d07565b60405180910390f35b61018560048036038101906101809190612433565b610475565b005b6101a1600480360381019061019c9190612515565b6106fb565b005b6101bd60048036038101906101b89190612433565b6108f9565b6040516101ca9190612c71565b60405180910390f35b6101ed60048036038101906101e89190612433565b610a62565b6040516101fa9190612c4f565b60405180910390f35b61020b610c43565b005b610215610d7d565b6040516102229190612bab565b60405180910390f35b61024560048036038101906102409190612515565b610da6565b005b610261600480360381019061025c9190612474565b61108b565b005b61027d60048036038101906102789190612569565b611657565b60405161028a9190612c8c565b60405180910390f35b61029b611678565b6040516102a89190612f12565b60405180910390f35b6102cb60048036038101906102c69190612433565b61167e565b6040516102d89190612ef0565b60405180910390f35b6102e9611950565b6040516102f69190612cec565b60405180910390f35b61031960048036038101906103149190612433565b611976565b005b610323611ec4565b6040516103309190612f12565b60405180910390f35b610341611ed1565b60405161034e9190612bc6565b60405180910390f35b610371600480360381019061036c919061238f565b611ef7565b005b6006602052806000526040600020600091509050806000018054600181600116156101000203166002900480601f01602080910402602001604051908101604052809291908181526020018280546001816001161561010002031660029004801561041f5780601f106103f45761010080835404028352916020019161041f565b820191906000526020600020905b81548152906001019060200180831161040257829003601f168201915b5050505050908060010160009054906101000a900460ff16908060030160009054906101000a900460ff16905083565b600160009054906101000a900473ffffffffffffffffffffffffffffffffffffffff1681565b80600160008260405160200161048b9190612b6e565b604051602081830303815290604052805190602001209050811561051857600115156006600083815260200190815260200160002060030160009054906101000a900460ff16151514610513576040517f08c379a000000000000000000000000000000000000000000000000000000000815260040161050a90612eb0565b60405180910390fd5b610583565b600015156006600083815260200190815260200160002060030160009054906101000a900460ff16151514610582576040517f08c379a000000000000000000000000000000000000000000000000000000000815260040161057990612e90565b60405180910390fd5b5b60003385604051602001610598929190612b1e565b604051602081830303815290604052805190602001209050600115156007600083815260200190815260200160002060009054906101000a900460ff16151514610617576040517f08c379a000000000000000000000000000000000000000000000000000000000815260040161060e90612e50565b60405180910390fd5b60008560405160200161062a9190612b6e565b604051602081830303815290604052805190602001209050600060066000838152602001908152602001600020905080600101600081819054906101000a900460ff168092919060010191906101000a81548160ff021916908360ff1602179055505060006007600085815260200190815260200160002060006101000a81548160ff0219169083151502179055507f85a44c5a2eee90e84b72a99b84ef7d745f384551951b8fe780fc0645f1c27d8987336040516106ea929190612d52565b60405180910390a150505050505050565b6107036120a0565b73ffffffffffffffffffffffffffffffffffffffff16610721610d7d565b73ffffffffffffffffffffffffffffffffffffffff1614610777576040517f08c379a000000000000000000000000000000000000000000000000000000000815260040161076e90612e70565b60405180910390fd5b81600160008260405160200161078d9190612b6e565b604051602081830303815290604052805190602001209050811561081a57600115156006600083815260200190815260200160002060030160009054906101000a900460ff16151514610815576040517f08c379a000000000000000000000000000000000000000000000000000000000815260040161080c90612eb0565b60405180910390fd5b610885565b600015156006600083815260200190815260200160002060030160009054906101000a900460ff16151514610884576040517f08c379a000000000000000000000000000000000000000000000000000000000815260040161087b90612e90565b60405180910390fd5b5b6000856040516020016108989190612b6e565b604051602081830303815290604052805190602001209050846006600083815260200190815260200160002060010160008282829054906101000a900460ff160192506101000a81548160ff021916908360ff160217905550505050505050565b60008160016000826040516020016109119190612b6e565b604051602081830303815290604052805190602001209050811561099e57600115156006600083815260200190815260200160002060030160009054906101000a900460ff16151514610999576040517f08c379a000000000000000000000000000000000000000000000000000000000815260040161099090612eb0565b60405180910390fd5b610a09565b600015156006600083815260200190815260200160002060030160009054906101000a900460ff16151514610a08576040517f08c379a00000000000000000000000000000000000000000000000000000000081526004016109ff90612e90565b60405180910390fd5b5b60003386604051602001610a1e929190612b1e565b6040516020818303038152906040528051906020012090506007600082815260200190815260200160002060009054906101000a900460ff16945050505050919050565b6060816001600082604051602001610a7a9190612b6e565b6040516020818303038152906040528051906020012090508115610b0757600115156006600083815260200190815260200160002060030160009054906101000a900460ff16151514610b02576040517f08c379a0000000000000000000000000000000000000000000000000000000008152600401610af990612eb0565b60405180910390fd5b610b72565b600015156006600083815260200190815260200160002060030160009054906101000a900460ff16151514610b71576040517f08c379a0000000000000000000000000000000000000000000000000000000008152600401610b6890612e90565b60405180910390fd5b5b600085604051602001610b859190612b6e565b60405160208183030381529060405280519060200120905060066000828152602001908152602001600020600201805480602002602001604051908101604052809291908181526020018280548015610c3357602002820191906000526020600020905b8160009054906101000a900473ffffffffffffffffffffffffffffffffffffffff1673ffffffffffffffffffffffffffffffffffffffff1681526020019060010190808311610be9575b5050505050945050505050919050565b610c4b6120a0565b73ffffffffffffffffffffffffffffffffffffffff16610c69610d7d565b73ffffffffffffffffffffffffffffffffffffffff1614610cbf576040517f08c379a0000000000000000000000000000000000000000000000000000000008152600401610cb690612e70565b60405180910390fd5b600073ffffffffffffffffffffffffffffffffffffffff1660008054906101000a900473ffffffffffffffffffffffffffffffffffffffff1673ffffffffffffffffffffffffffffffffffffffff167f8be0079c531659141344cd1fd0a4f28419497f9722a3daafe3b4186f6b6457e060405160405180910390a360008060006101000a81548173ffffffffffffffffffffffffffffffffffffffff021916908373ffffffffffffffffffffffffffffffffffffffff160217905550565b60008060009054906101000a900473ffffffffffffffffffffffffffffffffffffffff16905090565b610dae6120a0565b73ffffffffffffffffffffffffffffffffffffffff16610dcc610d7d565b73ffffffffffffffffffffffffffffffffffffffff1614610e22576040517f08c379a0000000000000000000000000000000000000000000000000000000008152600401610e1990612e70565b60405180910390fd5b8160008082604051602001610e379190612b6e565b6040516020818303038152906040528051906020012090508115610ec457600115156006600083815260200190815260200160002060030160009054906101000a900460ff16151514610ebf576040517f08c379a0000000000000000000000000000000000000000000000000000000008152600401610eb690612eb0565b60405180910390fd5b610f2f565b600015156006600083815260200190815260200160002060030160009054906101000a900460ff16151514610f2e576040517f08c379a0000000000000000000000000000000000000000000000000000000008152600401610f2590612e90565b60405180910390fd5b5b600085604051602001610f429190612b6e565b6040516020818303038152906040528051906020012090506060610f6461212e565b60405180608001604052808981526020018860ff168152602001838152602001600115158152509050600583908060018154018082558091505060019003906000526020600020016000909190919091505580600660008581526020019081526020016000206000820151816000019080519060200190610fe692919061215b565b5060208201518160010160006101000a81548160ff021916908360ff16021790555060408201518160020190805190602001906110249291906121db565b5060608201518160030160006101000a81548160ff0219169083151502179055509050507f752e0e9d31b708fdf71a47493e8fc65e25693a74c6a57be3daf36cfca821b6048888604051611079929190612d82565b60405180910390a15050505050505050565b8560016000826040516020016110a19190612b6e565b604051602081830303815290604052805190602001209050811561112e57600115156006600083815260200190815260200160002060030160009054906101000a900460ff16151514611129576040517f08c379a000000000000000000000000000000000000000000000000000000000815260040161112090612eb0565b60405180910390fd5b611199565b600015156006600083815260200190815260200160002060030160009054906101000a900460ff16151514611198576040517f08c379a000000000000000000000000000000000000000000000000000000000815260040161118f90612e90565b60405180910390fd5b5b6000896040516020016111ac9190612b6e565b604051602081830303815290604052805190602001209050600060066000838152602001908152602001600020905060008160010160009054906101000a900460ff1660ff1611611232576040517f08c379a000000000000000000000000000000000000000000000000000000000815260040161122990612e10565b60405180910390fd5b8573ffffffffffffffffffffffffffffffffffffffff166112558b8b8b8b6120a8565b73ffffffffffffffffffffffffffffffffffffffff16146112ab576040517f08c379a00000000000000000000000000000000000000000000000000000000081526004016112a290612df0565b60405180910390fd5b6000868c6040516020016112c0929190612b46565b604051602081830303815290604052805190602001209050600015156007600083815260200190815260200160002060009054906101000a900460ff1615151461133f576040517f08c379a000000000000000000000000000000000000000000000000000000000815260040161133690612ed0565b60405180910390fd5b6000600260009054906101000a900473ffffffffffffffffffffffffffffffffffffffff1673ffffffffffffffffffffffffffffffffffffffff16631ba3192b6040518163ffffffff1660e01b815260040160206040518083038186803b1580156113a957600080fd5b505afa1580156113bd573d6000803e3d6000fd5b505050506040513d601f19601f820116820180604052508101906113e1919061240a565b90508073ffffffffffffffffffffffffffffffffffffffff166323b872dd89306004546040518463ffffffff1660e01b815260040161142293929190612c18565b602060405180830381600087803b15801561143c57600080fd5b505af1158015611450573d6000803e3d6000fd5b505050506040513d601f19601f8201168201806040525081019061147491906123b8565b5060016007600084815260200190815260200160002060006101000a81548160ff02191690831515021790555082600101600081819054906101000a900460ff16809291906001900391906101000a81548160ff021916908360ff16021790555050600015156008600086815260200190815260200160002060008a73ffffffffffffffffffffffffffffffffffffffff1673ffffffffffffffffffffffffffffffffffffffff16815260200190815260200160002060009054906101000a900460ff161515141561160f5782600201889080600181540180825580915050600190039060005260206000200160009091909190916101000a81548173ffffffffffffffffffffffffffffffffffffffff021916908373ffffffffffffffffffffffffffffffffffffffff16021790555060016008600086815260200190815260200160002060008a73ffffffffffffffffffffffffffffffffffffffff1673ffffffffffffffffffffffffffffffffffffffff16815260200190815260200160002060006101000a81548160ff0219169083151502179055505b7f98a96a27b2755bcd656b9e243159ba0f25cc02a0e56bf8d0bd5ddd80d8a0cbfe8d89604051611640929190612d22565b60405180910390a150505050505050505050505050565b6005818154811061166457fe5b906000526020600020016000915090505481565b60045481565b61168661212e565b81600160008260405160200161169c9190612b6e565b604051602081830303815290604052805190602001209050811561172957600115156006600083815260200190815260200160002060030160009054906101000a900460ff16151514611724576040517f08c379a000000000000000000000000000000000000000000000000000000000815260040161171b90612eb0565b60405180910390fd5b611794565b600015156006600083815260200190815260200160002060030160009054906101000a900460ff16151514611793576040517f08c379a000000000000000000000000000000000000000000000000000000000815260040161178a90612e90565b60405180910390fd5b5b6000856040516020016117a79190612b6e565b60405160208183030381529060405280519060200120905060066000828152602001908152602001600020604051806080016040529081600082018054600181600116156101000203166002900480601f0160208091040260200160405190810160405280929190818152602001828054600181600116156101000203166002900480156118765780601f1061184b57610100808354040283529160200191611876565b820191906000526020600020905b81548152906001019060200180831161185957829003601f168201915b505050505081526020016001820160009054906101000a900460ff1660ff1660ff1681526020016002820180548060200260200160405190810160405280929190818152602001828054801561192157602002820191906000526020600020905b8160009054906101000a900473ffffffffffffffffffffffffffffffffffffffff1673ffffffffffffffffffffffffffffffffffffffff16815260200190600101908083116118d7575b505050505081526020016003820160009054906101000a900460ff161515151581525050945050505050919050565b600260009054906101000a900473ffffffffffffffffffffffffffffffffffffffff1681565b80600160008260405160200161198c9190612b6e565b6040516020818303038152906040528051906020012090508115611a1957600115156006600083815260200190815260200160002060030160009054906101000a900460ff16151514611a14576040517f08c379a0000000000000000000000000000000000000000000000000000000008152600401611a0b90612eb0565b60405180910390fd5b611a84565b600015156006600083815260200190815260200160002060030160009054906101000a900460ff16151514611a83576040517f08c379a0000000000000000000000000000000000000000000000000000000008152600401611a7a90612e90565b60405180910390fd5b5b600084604051602001611a979190612b6e565b604051602081830303815290604052805190602001209050600060066000838152602001908152602001600020905060008160010160009054906101000a900460ff1660ff1611611b1d576040517f08c379a0000000000000000000000000000000000000000000000000000000008152600401611b1490612e10565b60405180910390fd5b60003387604051602001611b32929190612b1e565b604051602081830303815290604052805190602001209050600015156007600083815260200190815260200160002060009054906101000a900460ff16151514611bb1576040517f08c379a0000000000000000000000000000000000000000000000000000000008152600401611ba890612ed0565b60405180910390fd5b6000600260009054906101000a900473ffffffffffffffffffffffffffffffffffffffff1673ffffffffffffffffffffffffffffffffffffffff16631ba3192b6040518163ffffffff1660e01b815260040160206040518083038186803b158015611c1b57600080fd5b505afa158015611c2f573d6000803e3d6000fd5b505050506040513d601f19601f82011682018060405250810190611c53919061240a565b90508073ffffffffffffffffffffffffffffffffffffffff166323b872dd33306004546040518463ffffffff1660e01b8152600401611c9493929190612be1565b602060405180830381600087803b158015611cae57600080fd5b505af1158015611cc2573d6000803e3d6000fd5b505050506040513d601f19601f82011682018060405250810190611ce691906123b8565b5060016007600084815260200190815260200160002060006101000a81548160ff02191690831515021790555082600101600081819054906101000a900460ff16809291906001900391906101000a81548160ff021916908360ff16021790555050600015156008600086815260200190815260200160002060003373ffffffffffffffffffffffffffffffffffffffff1673ffffffffffffffffffffffffffffffffffffffff16815260200190815260200160002060009054906101000a900460ff1615151415611e815782600201339080600181540180825580915050600190039060005260206000200160009091909190916101000a81548173ffffffffffffffffffffffffffffffffffffffff021916908373ffffffffffffffffffffffffffffffffffffffff16021790555060016008600086815260200190815260200160002060003373ffffffffffffffffffffffffffffffffffffffff1673ffffffffffffffffffffffffffffffffffffffff16815260200190815260200160002060006101000a81548160ff0219169083151502179055505b7f98a96a27b2755bcd656b9e243159ba0f25cc02a0e56bf8d0bd5ddd80d8a0cbfe8833604051611eb2929190612d52565b60405180910390a15050505050505050565b6000600580549050905090565b600360009054906101000a900473ffffffffffffffffffffffffffffffffffffffff1681565b611eff6120a0565b73ffffffffffffffffffffffffffffffffffffffff16611f1d610d7d565b73ffffffffffffffffffffffffffffffffffffffff1614611f73576040517f08c379a0000000000000000000000000000000000000000000000000000000008152600401611f6a90612e70565b60405180910390fd5b600073ffffffffffffffffffffffffffffffffffffffff168173ffffffffffffffffffffffffffffffffffffffff161415611fe3576040517f08c379a0000000000000000000000000000000000000000000000000000000008152600401611fda90612e30565b60405180910390fd5b8073ffffffffffffffffffffffffffffffffffffffff1660008054906101000a900473ffffffffffffffffffffffffffffffffffffffff1673ffffffffffffffffffffffffffffffffffffffff167f8be0079c531659141344cd1fd0a4f28419497f9722a3daafe3b4186f6b6457e060405160405180910390a3806000806101000a81548173ffffffffffffffffffffffffffffffffffffffff021916908373ffffffffffffffffffffffffffffffffffffffff16021790555050565b600033905090565b600080856040516020016120bc9190612b85565b604051602081830303815290604052805190602001209050600181868686604051600081526020016040526040516120f79493929190612ca7565b6020604051602081039080840390855afa158015612119573d6000803e3d6000fd5b50505060206040510351915050949350505050565b604051806080016040528060608152602001600060ff168152602001606081526020016000151581525090565b828054600181600116156101000203166002900490600052602060002090601f016020900481019282601f1061219c57805160ff19168380011785556121ca565b828001600101855582156121ca579182015b828111156121c95782518255916020019190600101906121ae565b5b5090506121d79190612265565b5090565b828054828255906000526020600020908101928215612254579160200282015b828111156122535782518260006101000a81548173ffffffffffffffffffffffffffffffffffffffff021916908373ffffffffffffffffffffffffffffffffffffffff160217905550916020019190600101906121fb565b5b5090506122619190612282565b5090565b5b8082111561227e576000816000905550600101612266565b5090565b5b808211156122b957600081816101000a81549073ffffffffffffffffffffffffffffffffffffffff021916905550600101612283565b5090565b6000813590506122cc816131a9565b92915050565b6000815190506122e1816131c0565b92915050565b6000813590506122f6816131d7565b92915050565b60008151905061230b816131ee565b92915050565b600082601f83011261232257600080fd5b813561233561233082612f5a565b612f2d565b9150808252602083016020830185838301111561235157600080fd5b61235c838284613109565b50505092915050565b60008135905061237481613205565b92915050565b6000813590506123898161321c565b92915050565b6000602082840312156123a157600080fd5b60006123af848285016122bd565b91505092915050565b6000602082840312156123ca57600080fd5b60006123d8848285016122d2565b91505092915050565b6000602082840312156123f357600080fd5b6000612401848285016122e7565b91505092915050565b60006020828403121561241c57600080fd5b600061242a848285016122fc565b91505092915050565b60006020828403121561244557600080fd5b600082013567ffffffffffffffff81111561245f57600080fd5b61246b84828501612311565b91505092915050565b60008060008060008060c0878903121561248d57600080fd5b600087013567ffffffffffffffff8111156124a757600080fd5b6124b389828a01612311565b96505060206124c489828a016122e7565b95505060406124d589828a0161237a565b94505060606124e689828a016122e7565b93505060806124f789828a016122e7565b92505060a061250889828a016122bd565b9150509295509295509295565b6000806040838503121561252857600080fd5b600083013567ffffffffffffffff81111561254257600080fd5b61254e85828601612311565b925050602061255f8582860161237a565b9150509250929050565b60006020828403121561257b57600080fd5b600061258984828501612365565b91505092915050565b600061259e83836125df565b60208301905092915050565b6125b38161308b565b82525050565b6125c28161301a565b82525050565b6125d96125d48261301a565b61315d565b82525050565b6125e881613008565b82525050565b6125f781613008565b82525050565b61260e61260982613008565b61314b565b82525050565b600061261f82612f96565b6126298185612fb9565b935061263483612f86565b8060005b8381101561266557815161264c8882612592565b975061265783612fac565b925050600181019050612638565b5085935050505092915050565b600061267d82612f96565b6126878185612fca565b935061269283612f86565b8060005b838110156126c35781516126aa8882612592565b97506126b583612fac565b925050600181019050612696565b5085935050505092915050565b6126d98161302c565b82525050565b6126e88161302c565b82525050565b6126f781613038565b82525050565b61270e61270982613038565b61316f565b82525050565b61271d8161309d565b82525050565b61272c816130c1565b82525050565b600061273d82612fa1565b6127478185612fdb565b9350612757818560208601613118565b6127608161318b565b840191505092915050565b600061277682612fa1565b6127808185612fec565b9350612790818560208601613118565b6127998161318b565b840191505092915050565b60006127af82612fa1565b6127b98185612ffd565b93506127c9818560208601613118565b80840191505092915050565b60006127e2602183612fec565b91507f52656369766572206861736e2774207369676e656420746865206d657373616760008301527f65000000000000000000000000000000000000000000000000000000000000006020830152604082019050919050565b6000612848601c83612ffd565b91507f19457468657265756d205369676e6564204d6573736167653a0a3332000000006000830152601c82019050919050565b6000612888601383612fec565b91507f4e6f206d6f726520636f70696573206c656674000000000000000000000000006000830152602082019050919050565b60006128c8602683612fec565b91507f4f776e61626c653a206e6577206f776e657220697320746865207a65726f206160008301527f64647265737300000000000000000000000000000000000000000000000000006020830152604082019050919050565b600061292e603183612fec565b91507f596f752063616e27742072657475726e206120626f6f6b207468617420796f7560008301527f20686176656e277420626f72726f7765640000000000000000000000000000006020830152604082019050919050565b6000612994602083612fec565b91507f4f776e61626c653a2063616c6c6572206973206e6f7420746865206f776e65726000830152602082019050919050565b60006129d4601483612fec565b91507f426f6f6b20616c726561647920657869737473210000000000000000000000006000830152602082019050919050565b6000612a14601383612fec565b91507f426f6f6b20646f65736e277420657869737421000000000000000000000000006000830152602082019050919050565b6000612a54602083612fec565b91507f596f7527766520616c726561647920626f72726f7765642074686520626f6f6b6000830152602082019050919050565b60006080830160008301518482036000860152612aa48282612732565b9150506020830151612ab96020860182612b00565b5060408301518482036040860152612ad18282612614565b9150506060830151612ae660608601826126d0565b508091505092915050565b612afa81613074565b82525050565b612b098161307e565b82525050565b612b188161307e565b82525050565b6000612b2a82856125c8565b601482019150612b3a82846127a4565b91508190509392505050565b6000612b5282856125fd565b601482019150612b6282846127a4565b91508190509392505050565b6000612b7a82846127a4565b915081905092915050565b6000612b908261283b565b9150612b9c82846126fd565b60208201915081905092915050565b6000602082019050612bc060008301846125ee565b92915050565b6000602082019050612bdb60008301846125b9565b92915050565b6000606082019050612bf660008301866125aa565b612c0360208301856125ee565b612c106040830184612af1565b949350505050565b6000606082019050612c2d60008301866125ee565b612c3a60208301856125ee565b612c476040830184612af1565b949350505050565b60006020820190508181036000830152612c698184612672565b905092915050565b6000602082019050612c8660008301846126df565b92915050565b6000602082019050612ca160008301846126ee565b92915050565b6000608082019050612cbc60008301876126ee565b612cc96020830186612b0f565b612cd660408301856126ee565b612ce360608301846126ee565b95945050505050565b6000602082019050612d016000830184612714565b92915050565b6000602082019050612d1c6000830184612723565b92915050565b60006040820190508181036000830152612d3c818561276b565b9050612d4b60208301846125ee565b9392505050565b60006040820190508181036000830152612d6c818561276b565b9050612d7b60208301846125aa565b9392505050565b60006040820190508181036000830152612d9c818561276b565b9050612dab6020830184612b0f565b9392505050565b60006060820190508181036000830152612dcc818661276b565b9050612ddb6020830185612b0f565b612de860408301846126df565b949350505050565b60006020820190508181036000830152612e09816127d5565b9050919050565b60006020820190508181036000830152612e298161287b565b9050919050565b60006020820190508181036000830152612e49816128bb565b9050919050565b60006020820190508181036000830152612e6981612921565b9050919050565b60006020820190508181036000830152612e8981612987565b9050919050565b60006020820190508181036000830152612ea9816129c7565b9050919050565b60006020820190508181036000830152612ec981612a07565b9050919050565b60006020820190508181036000830152612ee981612a47565b9050919050565b60006020820190508181036000830152612f0a8184612a87565b905092915050565b6000602082019050612f276000830184612af1565b92915050565b6000604051905081810181811067ffffffffffffffff82111715612f5057600080fd5b8060405250919050565b600067ffffffffffffffff821115612f7157600080fd5b601f19601f8301169050602081019050919050565b6000819050602082019050919050565b600081519050919050565b600081519050919050565b6000602082019050919050565b600082825260208201905092915050565b600082825260208201905092915050565b600082825260208201905092915050565b600082825260208201905092915050565b600081905092915050565b600061301382613054565b9050919050565b600061302582613054565b9050919050565b60008115159050919050565b6000819050919050565b600061304d82613008565b9050919050565b600073ffffffffffffffffffffffffffffffffffffffff82169050919050565b6000819050919050565b600060ff82169050919050565b6000613096826130e5565b9050919050565b60006130a8826130af565b9050919050565b60006130ba82613054565b9050919050565b60006130cc826130d3565b9050919050565b60006130de82613054565b9050919050565b60006130f0826130f7565b9050919050565b600061310282613054565b9050919050565b82818337600083830152505050565b60005b8381101561313657808201518184015260208101905061311b565b83811115613145576000848401525b50505050565b600061315682613179565b9050919050565b600061316882613179565b9050919050565b6000819050919050565b60006131848261319c565b9050919050565b6000601f19601f8301169050919050565b60008160601b9050919050565b6131b281613008565b81146131bd57600080fd5b50565b6131c98161302c565b81146131d457600080fd5b50565b6131e081613038565b81146131eb57600080fd5b50565b6131f781613042565b811461320257600080fd5b50565b61320e81613074565b811461321957600080fd5b50565b6132258161307e565b811461323057600080fd5b5056fea26469706673582212207124c834007f6fdcbc5da6149d5ac650b6ca9b363fa963d10282931b5575684164736f6c63430007000033",
  "source": "// SPDX-License-Identifier: UNLICENSED\n\npragma solidity ^0.7.0;\npragma experimental ABIEncoderV2;\n\nimport \"@openzeppelin/contracts/access/Ownable.sol\";\nimport \"./LibraryToken.sol\";\nimport \"./LibWrapper.sol\";\n\ncontract BookLibrary is Ownable {\n  LibraryToken public LIBToken;\n  LIBWrapper public LIBTokenWrapper;\n\n  address payable public libTokenWrapperAddress;\n\n  uint public rentFee = 10000000000000000;\n\n  bytes32[] public booksIds;\n  \n  mapping(bytes32 => Book) public books;\n  mapping(bytes32 => bool) private userBorrowedBooks;\n  mapping(bytes32 => mapping (address => bool)) private hasUserBorrowedBefore;\n\n  event LogBookAdded(string bookName, uint8 copies);\n  event LogBookBorrowed(string bookName, address borrower);\n  event LogBookReturned(string bookName, address returner);\n\n  struct Book {\n    string name;\n    uint8 copies;\n    address[] borrowers;\n    bool exists;\n  }\n\n  constructor(address payable _wrapperAddress, address _tokenAddress) {\n    LIBToken = LibraryToken(_tokenAddress);\n    LIBTokenWrapper = LIBWrapper(_wrapperAddress);\n    libTokenWrapperAddress = _wrapperAddress;\n  }\n  \n  modifier bookShouldExist(string memory _name, bool shouldExist) {\n    bytes32 encodedName = keccak256(abi.encodePacked(_name));\n    if (shouldExist) {\n      require(books[encodedName].exists == true, \"Book doesn't exist!\");\n    } else {\n      require(books[encodedName].exists == false, \"Book already exists!\");\n    }\n    _;\n  }\n\n  function addBook (string memory _name, uint8 _copies) external onlyOwner bookShouldExist(_name, false) {\n    bytes32 encodedName = keccak256(abi.encodePacked(_name));\n\n    address[] memory borrowers;\n    Book memory newBook = Book(_name, _copies, borrowers, true);\n    booksIds.push(encodedName);\n    books[encodedName] = newBook;\n\n    emit LogBookAdded(_name, _copies);\n  }\n  \n  function addCopies(string memory _bookName, uint8 _copies) external onlyOwner bookShouldExist(_bookName, true) {\n    bytes32 encodedName = keccak256(abi.encodePacked(_bookName));\n    books[encodedName].copies += _copies;\n  }\n    \n  function borrowBook(string memory _bookName) external bookShouldExist(_bookName, true){    \n    bytes32 encodedName = keccak256(abi.encodePacked(_bookName));\n    Book storage book = books[encodedName]; \n\n    // User can't borrow booksArray with no copies left;\n    require(book.copies > 0, \"No more copies left\");\n\n    // User shouldn't borrow the same book more than once;\n    bytes32 hash = keccak256(abi.encodePacked(msg.sender, _bookName));\n    require(userBorrowedBooks[hash] == false, \"You've already borrowed the book\");\n\n    LibraryToken libToken = LIBTokenWrapper.LIBToken();\n    // Approve rent for transfer\n    // libToken.increaseAllowance(msg.sender, rentFee);\n    // libToken.approve(msg.sender, rentFee);\n\n    // Transfer rent fee\n    libToken.transferFrom(msg.sender, address(this), rentFee);\n\n    userBorrowedBooks[hash] = true;\n    book.copies--;\n    if (hasUserBorrowedBefore[encodedName][msg.sender] == false) {\n      book.borrowers.push(msg.sender);\n      hasUserBorrowedBefore[encodedName][msg.sender] = true;\n    }\n\n    emit LogBookBorrowed(_bookName, msg.sender);\n  }\n\n  function borrowOnBehalfOf(string memory _bookName, bytes32 hashedMessage, uint8 v, bytes32 r, bytes32 s, address receiver) external bookShouldExist(_bookName, true) {\n    bytes32 encodedName = keccak256(abi.encodePacked(_bookName));\n    Book storage book = books[encodedName]; \n\n    // User can't borrow booksArray with no copies left;\n    require(book.copies > 0, \"No more copies left\");\n\n    // User mush have signed the message;\n    require(recoverSigner(hashedMessage, v, r, s) == receiver, \"Reciver hasn't signed the message\");\n\n    // User shouldn't borrow the same book more than once;\n    bytes32 hash = keccak256(abi.encodePacked(receiver, _bookName));\n    require(userBorrowedBooks[hash] == false, \"You've already borrowed the book\");\n\n    LibraryToken libToken = LIBTokenWrapper.LIBToken();\n\n    libToken.transferFrom(receiver, address(this), rentFee);\n\n    userBorrowedBooks[hash] = true;\n    book.copies--;\n    if (hasUserBorrowedBefore[encodedName][receiver] == false) {\n      book.borrowers.push(receiver);\n      hasUserBorrowedBefore[encodedName][receiver] = true;\n    }\n\n    emit LogBookBorrowed(_bookName, receiver);\n\n  }\n  \n  \n  function returnBook(string memory _bookName) external bookShouldExist(_bookName, true) {\n    //Check if user has borrowed this book;\n    bytes32 hash = keccak256(abi.encodePacked(msg.sender, _bookName));\n    require(userBorrowedBooks[hash] == true, \"You can't return a book that you haven't borrowed\");\n    \n    bytes32 encodedName = keccak256(abi.encodePacked(_bookName));\n    Book storage book = books[encodedName];\n    book.copies++;\n    userBorrowedBooks[hash] = false;\n\n    emit LogBookReturned(_bookName, msg.sender);\n  }\n  \n\n  function getBorrowers(string memory _bookName) external view bookShouldExist(_bookName, true) returns (address[] memory) {\n    bytes32 encodedName = keccak256(abi.encodePacked(_bookName));\n    return books[encodedName].borrowers;\n  }\n\n  function getBook (string memory _bookName) external view bookShouldExist(_bookName, true) returns (Book memory) {\n    bytes32 encodedName = keccak256(abi.encodePacked(_bookName));\n    return books[encodedName];\n  }\n\n  function isBookBorrowedByCurrentUser(string memory _bookName) external view bookShouldExist(_bookName, true) returns(bool) {\n    bytes32 key = keccak256(abi.encodePacked(msg.sender, _bookName));\n    return userBorrowedBooks[key];\n  }\n\n  function getBooksCount() external view returns(uint) {\n    return booksIds.length;\n  }  \n\n    function recoverSigner(bytes32 hashedMessage, uint8 v, bytes32 r, bytes32 s) internal returns(address) {\n    bytes32 messageDigest = keccak256(abi.encodePacked(\"\\x19Ethereum Signed Message:\\n32\", hashedMessage));\n    return ecrecover(messageDigest, v, r, s);\n  }\n\n} ",
  "sourcePath": "/Users/viktortodorov/Desktop/BookLibrary/contracts/BookLibrary.sol",
  "compiler": {
    "name": "solc",
    "version": "0.7.0+commit.9e61f92b.Emscripten.clang",
    "optimizer": false,
    "runs": 200
  },
  "schemaVersion": "2.3.5",
  "updatedAt": "2021-06-16T09:30:09.041Z"
}