{
  "contractName": "BookLibrary",
  "abi": [
    {
      "inputs": [
        {
          "internalType": "address payable",
          "name": "_wrapperAddress",
          "type": "address"
        },
        {
          "internalType": "address",
          "name": "_tokenAddress",
          "type": "address"
        }
      ],
      "stateMutability": "nonpayable",
      "type": "constructor"
    },
    {
      "anonymous": false,
      "inputs": [
        {
          "indexed": false,
          "internalType": "string",
          "name": "bookName",
          "type": "string"
        },
        {
          "indexed": false,
          "internalType": "uint8",
          "name": "copies",
          "type": "uint8"
        }
      ],
      "name": "LogBookAdded",
      "type": "event"
    },
    {
      "anonymous": false,
      "inputs": [
        {
          "indexed": false,
          "internalType": "string",
          "name": "bookName",
          "type": "string"
        },
        {
          "indexed": false,
          "internalType": "address",
          "name": "borrower",
          "type": "address"
        }
      ],
      "name": "LogBookBorrowed",
      "type": "event"
    },
    {
      "anonymous": false,
      "inputs": [
        {
          "indexed": false,
          "internalType": "string",
          "name": "bookName",
          "type": "string"
        },
        {
          "indexed": false,
          "internalType": "address",
          "name": "returner",
          "type": "address"
        }
      ],
      "name": "LogBookReturned",
      "type": "event"
    },
    {
      "anonymous": false,
      "inputs": [
        {
          "indexed": true,
          "internalType": "address",
          "name": "previousOwner",
          "type": "address"
        },
        {
          "indexed": true,
          "internalType": "address",
          "name": "newOwner",
          "type": "address"
        }
      ],
      "name": "OwnershipTransferred",
      "type": "event"
    },
    {
      "inputs": [],
      "name": "LIBToken",
      "outputs": [
        {
          "internalType": "contract LibraryToken",
          "name": "",
          "type": "address"
        }
      ],
      "stateMutability": "view",
      "type": "function"
    },
    {
      "inputs": [],
      "name": "LIBTokenWrapper",
      "outputs": [
        {
          "internalType": "contract LIBWrapper",
          "name": "",
          "type": "address"
        }
      ],
      "stateMutability": "view",
      "type": "function"
    },
    {
      "inputs": [
        {
          "internalType": "bytes32",
          "name": "",
          "type": "bytes32"
        }
      ],
      "name": "books",
      "outputs": [
        {
          "internalType": "string",
          "name": "name",
          "type": "string"
        },
        {
          "internalType": "uint8",
          "name": "copies",
          "type": "uint8"
        },
        {
          "internalType": "bool",
          "name": "exists",
          "type": "bool"
        }
      ],
      "stateMutability": "view",
      "type": "function"
    },
    {
      "inputs": [
        {
          "internalType": "uint256",
          "name": "",
          "type": "uint256"
        }
      ],
      "name": "booksIds",
      "outputs": [
        {
          "internalType": "bytes32",
          "name": "",
          "type": "bytes32"
        }
      ],
      "stateMutability": "view",
      "type": "function"
    },
    {
      "inputs": [],
      "name": "libTokenWrapperAddress",
      "outputs": [
        {
          "internalType": "address payable",
          "name": "",
          "type": "address"
        }
      ],
      "stateMutability": "view",
      "type": "function"
    },
    {
      "inputs": [],
      "name": "owner",
      "outputs": [
        {
          "internalType": "address",
          "name": "",
          "type": "address"
        }
      ],
      "stateMutability": "view",
      "type": "function"
    },
    {
      "inputs": [],
      "name": "renounceOwnership",
      "outputs": [],
      "stateMutability": "nonpayable",
      "type": "function"
    },
    {
      "inputs": [],
      "name": "rentFee",
      "outputs": [
        {
          "internalType": "uint256",
          "name": "",
          "type": "uint256"
        }
      ],
      "stateMutability": "view",
      "type": "function"
    },
    {
      "inputs": [
        {
          "internalType": "address",
          "name": "newOwner",
          "type": "address"
        }
      ],
      "name": "transferOwnership",
      "outputs": [],
      "stateMutability": "nonpayable",
      "type": "function"
    },
    {
      "inputs": [
        {
          "internalType": "string",
          "name": "_name",
          "type": "string"
        },
        {
          "internalType": "uint8",
          "name": "_copies",
          "type": "uint8"
        }
      ],
      "name": "addBook",
      "outputs": [],
      "stateMutability": "nonpayable",
      "type": "function"
    },
    {
      "inputs": [
        {
          "internalType": "string",
          "name": "_bookName",
          "type": "string"
        },
        {
          "internalType": "uint8",
          "name": "_copies",
          "type": "uint8"
        }
      ],
      "name": "addCopies",
      "outputs": [],
      "stateMutability": "nonpayable",
      "type": "function"
    },
    {
      "inputs": [
        {
          "internalType": "string",
          "name": "_bookName",
          "type": "string"
        }
      ],
      "name": "borrowBook",
      "outputs": [],
      "stateMutability": "nonpayable",
      "type": "function"
    },
    {
      "inputs": [
        {
          "internalType": "string",
          "name": "_bookName",
          "type": "string"
        },
        {
          "internalType": "uint256",
          "name": "value",
          "type": "uint256"
        },
        {
          "internalType": "uint256",
          "name": "deadline",
          "type": "uint256"
        },
        {
          "internalType": "uint8",
          "name": "v",
          "type": "uint8"
        },
        {
          "internalType": "bytes32",
          "name": "r",
          "type": "bytes32"
        },
        {
          "internalType": "bytes32",
          "name": "s",
          "type": "bytes32"
        }
      ],
      "name": "borrowBookWithPermit",
      "outputs": [],
      "stateMutability": "nonpayable",
      "type": "function"
    },
    {
      "inputs": [
        {
          "internalType": "string",
          "name": "_bookName",
          "type": "string"
        },
        {
          "internalType": "bytes32",
          "name": "hashedMessage",
          "type": "bytes32"
        },
        {
          "internalType": "uint8",
          "name": "v",
          "type": "uint8"
        },
        {
          "internalType": "bytes32",
          "name": "r",
          "type": "bytes32"
        },
        {
          "internalType": "bytes32",
          "name": "s",
          "type": "bytes32"
        },
        {
          "internalType": "address",
          "name": "receiver",
          "type": "address"
        }
      ],
      "name": "borrowBookWithSignature",
      "outputs": [],
      "stateMutability": "nonpayable",
      "type": "function"
    },
    {
      "inputs": [
        {
          "internalType": "string",
          "name": "_bookName",
          "type": "string"
        },
        {
          "internalType": "bytes32",
          "name": "hashedMessage",
          "type": "bytes32"
        },
        {
          "internalType": "uint8",
          "name": "v",
          "type": "uint8"
        },
        {
          "internalType": "bytes32",
          "name": "r",
          "type": "bytes32"
        },
        {
          "internalType": "bytes32",
          "name": "s",
          "type": "bytes32"
        },
        {
          "internalType": "address",
          "name": "receiver",
          "type": "address"
        }
      ],
      "name": "borrowOnBehalfOf",
      "outputs": [],
      "stateMutability": "nonpayable",
      "type": "function"
    },
    {
      "inputs": [
        {
          "internalType": "string",
          "name": "_bookName",
          "type": "string"
        }
      ],
      "name": "returnBook",
      "outputs": [],
      "stateMutability": "nonpayable",
      "type": "function"
    },
    {
      "inputs": [],
      "name": "withdrawLibTokens",
      "outputs": [],
      "stateMutability": "nonpayable",
      "type": "function"
    },
    {
      "inputs": [
        {
          "internalType": "string",
          "name": "_bookName",
          "type": "string"
        }
      ],
      "name": "getBorrowers",
      "outputs": [
        {
          "internalType": "address[]",
          "name": "",
          "type": "address[]"
        }
      ],
      "stateMutability": "view",
      "type": "function"
    },
    {
      "inputs": [
        {
          "internalType": "string",
          "name": "_bookName",
          "type": "string"
        }
      ],
      "name": "getBook",
      "outputs": [
        {
          "components": [
            {
              "internalType": "string",
              "name": "name",
              "type": "string"
            },
            {
              "internalType": "uint8",
              "name": "copies",
              "type": "uint8"
            },
            {
              "internalType": "address[]",
              "name": "borrowers",
              "type": "address[]"
            },
            {
              "internalType": "bool",
              "name": "exists",
              "type": "bool"
            }
          ],
          "internalType": "struct BookLibrary.Book",
          "name": "",
          "type": "tuple"
        }
      ],
      "stateMutability": "view",
      "type": "function"
    },
    {
      "inputs": [
        {
          "internalType": "string",
          "name": "_bookName",
          "type": "string"
        }
      ],
      "name": "isBookBorrowedByCurrentUser",
      "outputs": [
        {
          "internalType": "bool",
          "name": "",
          "type": "bool"
        }
      ],
      "stateMutability": "view",
      "type": "function"
    },
    {
      "inputs": [],
      "name": "getBooksCount",
      "outputs": [
        {
          "internalType": "uint256",
          "name": "",
          "type": "uint256"
        }
      ],
      "stateMutability": "view",
      "type": "function"
    }
  ],
  "bytecode": "0x6080604052662386f26fc100006004553480156200001c57600080fd5b5060405162004526380380620045268339818101604052810190620000429190620001f3565b600062000054620001bd60201b60201c565b9050806000806101000a81548173ffffffffffffffffffffffffffffffffffffffff021916908373ffffffffffffffffffffffffffffffffffffffff1602179055508073ffffffffffffffffffffffffffffffffffffffff16600073ffffffffffffffffffffffffffffffffffffffff167f8be0079c531659141344cd1fd0a4f28419497f9722a3daafe3b4186f6b6457e060405160405180910390a35080600160006101000a81548173ffffffffffffffffffffffffffffffffffffffff021916908373ffffffffffffffffffffffffffffffffffffffff16021790555081600260006101000a81548173ffffffffffffffffffffffffffffffffffffffff021916908373ffffffffffffffffffffffffffffffffffffffff16021790555081600360006101000a81548173ffffffffffffffffffffffffffffffffffffffff021916908373ffffffffffffffffffffffffffffffffffffffff1602179055505050620002b0565b600033905090565b600081519050620001d6816200027c565b92915050565b600081519050620001ed8162000296565b92915050565b600080604083850312156200020757600080fd5b60006200021785828601620001dc565b92505060206200022a85828601620001c5565b9150509250929050565b600062000241826200025c565b9050919050565b600062000255826200025c565b9050919050565b600073ffffffffffffffffffffffffffffffffffffffff82169050919050565b620002878162000234565b81146200029357600080fd5b50565b620002a18162000248565b8114620002ad57600080fd5b50565b61426680620002c06000396000f3fe608060405234801561001057600080fd5b50600436106101375760003560e01c8063acc5f047116100b8578063c43c1dd61161007c578063c43c1dd614610328578063ced96fe314610346578063d3e78ee414610362578063dfd83d2a1461037e578063e2cd0d2d1461039c578063f2fde38b146103ba57610137565b8063acc5f04714610284578063b0f9e48a146102a0578063b66d5c91146102aa578063bf2b23ea146102da578063c37a8361146102f857610137565b8063533c9731116100ff578063533c9731146101e0578063582bcda514610210578063715018a6146102405780638da5cb5b1461024a578063a63ac38e1461026857610137565b80630c0dee701461013c5780631ba3192b1461016e5780631ef49a8c1461018c5780632c224b32146101a85780633ec2df5d146101c4575b600080fd5b6101566004803603810190610151919061327c565b6103d6565b60405161016593929190613daf565b60405180910390f35b6101766104b2565b6040516101839190613d04565b60405180910390f35b6101a660048036038101906101a191906132ce565b6104d8565b005b6101c260048036038101906101bd91906133b0565b61075e565b005b6101de60048036038101906101d99190613451565b610d28565b005b6101fa60048036038101906101f591906132ce565b610f26565b6040516102079190613c6e565b60405180910390f35b61022a600480360381019061022591906132ce565b61108f565b6040516102379190613c4c565b60405180910390f35b610248611270565b005b6102526113aa565b60405161025f9190613b10565b60405180910390f35b610282600480360381019061027d9190613451565b6113d3565b005b61029e6004803603810190610299919061330f565b6116b8565b005b6102a8611c84565b005b6102c460048036038101906102bf91906134a5565b611f11565b6040516102d19190613c89565b60405180910390f35b6102e2611f32565b6040516102ef9190613f0f565b60405180910390f35b610312600480360381019061030d91906132ce565b611f38565b60405161031f9190613eed565b60405180910390f35b61033061220a565b60405161033d9190613ce9565b60405180910390f35b610360600480360381019061035b91906132ce565b612230565b005b61037c6004803603810190610377919061330f565b61277e565b005b610386612d4a565b6040516103939190613f0f565b60405180910390f35b6103a4612d57565b6040516103b19190613b2b565b60405180910390f35b6103d460048036038101906103cf919061322a565b612d7d565b005b6006602052806000526040600020600091509050806000018054600181600116156101000203166002900480601f0160208091040260200160405190810160405280929190818152602001828054600181600116156101000203166002900480156104825780601f1061045757610100808354040283529160200191610482565b820191906000526020600020905b81548152906001019060200180831161046557829003601f168201915b5050505050908060010160009054906101000a900460ff16908060030160009054906101000a900460ff16905083565b600160009054906101000a900473ffffffffffffffffffffffffffffffffffffffff1681565b8060016000826040516020016104ee9190613ad3565b604051602081830303815290604052805190602001209050811561057b57600115156006600083815260200190815260200160002060030160009054906101000a900460ff16151514610576576040517f08c379a000000000000000000000000000000000000000000000000000000000815260040161056d90613ead565b60405180910390fd5b6105e6565b600015156006600083815260200190815260200160002060030160009054906101000a900460ff161515146105e5576040517f08c379a00000000000000000000000000000000000000000000000000000000081526004016105dc90613e8d565b60405180910390fd5b5b600033856040516020016105fb929190613a83565b604051602081830303815290604052805190602001209050600115156007600083815260200190815260200160002060009054906101000a900460ff1615151461067a576040517f08c379a000000000000000000000000000000000000000000000000000000000815260040161067190613e4d565b60405180910390fd5b60008560405160200161068d9190613ad3565b604051602081830303815290604052805190602001209050600060066000838152602001908152602001600020905080600101600081819054906101000a900460ff168092919060010191906101000a81548160ff021916908360ff1602179055505060006007600085815260200190815260200160002060006101000a81548160ff0219169083151502179055507f85a44c5a2eee90e84b72a99b84ef7d745f384551951b8fe780fc0645f1c27d89873360405161074d929190613d4f565b60405180910390a150505050505050565b8560016000826040516020016107749190613ad3565b604051602081830303815290604052805190602001209050811561080157600115156006600083815260200190815260200160002060030160009054906101000a900460ff161515146107fc576040517f08c379a00000000000000000000000000000000000000000000000000000000081526004016107f390613ead565b60405180910390fd5b61086c565b600015156006600083815260200190815260200160002060030160009054906101000a900460ff1615151461086b576040517f08c379a000000000000000000000000000000000000000000000000000000000815260040161086290613e8d565b60405180910390fd5b5b60008960405160200161087f9190613ad3565b604051602081830303815290604052805190602001209050600060066000838152602001908152602001600020905060008160010160009054906101000a900460ff1660ff1611610905576040517f08c379a00000000000000000000000000000000000000000000000000000000081526004016108fc90613e0d565b60405180910390fd5b6000338c60405160200161091a929190613a83565b604051602081830303815290604052805190602001209050600015156007600083815260200190815260200160002060009054906101000a900460ff16151514610999576040517f08c379a000000000000000000000000000000000000000000000000000000000815260040161099090613ecd565b60405180910390fd5b6000600260009054906101000a900473ffffffffffffffffffffffffffffffffffffffff1673ffffffffffffffffffffffffffffffffffffffff16631ba3192b6040518163ffffffff1660e01b815260040160206040518083038186803b158015610a0357600080fd5b505afa158015610a17573d6000803e3d6000fd5b505050506040513d601f19601f82011682018060405250810190610a3b91906132a5565b90508073ffffffffffffffffffffffffffffffffffffffff1663d505accf33308f8f8f8f8f6040518863ffffffff1660e01b8152600401610a829796959493929190613b7d565b600060405180830381600087803b158015610a9c57600080fd5b505af1158015610ab0573d6000803e3d6000fd5b505050508073ffffffffffffffffffffffffffffffffffffffff166323b872dd33306004546040518463ffffffff1660e01b8152600401610af393929190613b46565b602060405180830381600087803b158015610b0d57600080fd5b505af1158015610b21573d6000803e3d6000fd5b505050506040513d601f19601f82011682018060405250810190610b459190613253565b5060016007600084815260200190815260200160002060006101000a81548160ff02191690831515021790555082600101600081819054906101000a900460ff16809291906001900391906101000a81548160ff021916908360ff16021790555050600015156008600086815260200190815260200160002060003373ffffffffffffffffffffffffffffffffffffffff1673ffffffffffffffffffffffffffffffffffffffff16815260200190815260200160002060009054906101000a900460ff1615151415610ce05782600201339080600181540180825580915050600190039060005260206000200160009091909190916101000a81548173ffffffffffffffffffffffffffffffffffffffff021916908373ffffffffffffffffffffffffffffffffffffffff16021790555060016008600086815260200190815260200160002060003373ffffffffffffffffffffffffffffffffffffffff1673ffffffffffffffffffffffffffffffffffffffff16815260200190815260200160002060006101000a81548160ff0219169083151502179055505b7f98a96a27b2755bcd656b9e243159ba0f25cc02a0e56bf8d0bd5ddd80d8a0cbfe8d33604051610d11929190613d4f565b60405180910390a150505050505050505050505050565b610d30612f26565b73ffffffffffffffffffffffffffffffffffffffff16610d4e6113aa565b73ffffffffffffffffffffffffffffffffffffffff1614610da4576040517f08c379a0000000000000000000000000000000000000000000000000000000008152600401610d9b90613e6d565b60405180910390fd5b816001600082604051602001610dba9190613ad3565b6040516020818303038152906040528051906020012090508115610e4757600115156006600083815260200190815260200160002060030160009054906101000a900460ff16151514610e42576040517f08c379a0000000000000000000000000000000000000000000000000000000008152600401610e3990613ead565b60405180910390fd5b610eb2565b600015156006600083815260200190815260200160002060030160009054906101000a900460ff16151514610eb1576040517f08c379a0000000000000000000000000000000000000000000000000000000008152600401610ea890613e8d565b60405180910390fd5b5b600085604051602001610ec59190613ad3565b604051602081830303815290604052805190602001209050846006600083815260200190815260200160002060010160008282829054906101000a900460ff160192506101000a81548160ff021916908360ff160217905550505050505050565b6000816001600082604051602001610f3e9190613ad3565b6040516020818303038152906040528051906020012090508115610fcb57600115156006600083815260200190815260200160002060030160009054906101000a900460ff16151514610fc6576040517f08c379a0000000000000000000000000000000000000000000000000000000008152600401610fbd90613ead565b60405180910390fd5b611036565b600015156006600083815260200190815260200160002060030160009054906101000a900460ff16151514611035576040517f08c379a000000000000000000000000000000000000000000000000000000000815260040161102c90613e8d565b60405180910390fd5b5b6000338660405160200161104b929190613a83565b6040516020818303038152906040528051906020012090506007600082815260200190815260200160002060009054906101000a900460ff16945050505050919050565b60608160016000826040516020016110a79190613ad3565b604051602081830303815290604052805190602001209050811561113457600115156006600083815260200190815260200160002060030160009054906101000a900460ff1615151461112f576040517f08c379a000000000000000000000000000000000000000000000000000000000815260040161112690613ead565b60405180910390fd5b61119f565b600015156006600083815260200190815260200160002060030160009054906101000a900460ff1615151461119e576040517f08c379a000000000000000000000000000000000000000000000000000000000815260040161119590613e8d565b60405180910390fd5b5b6000856040516020016111b29190613ad3565b6040516020818303038152906040528051906020012090506006600082815260200190815260200160002060020180548060200260200160405190810160405280929190818152602001828054801561126057602002820191906000526020600020905b8160009054906101000a900473ffffffffffffffffffffffffffffffffffffffff1673ffffffffffffffffffffffffffffffffffffffff1681526020019060010190808311611216575b5050505050945050505050919050565b611278612f26565b73ffffffffffffffffffffffffffffffffffffffff166112966113aa565b73ffffffffffffffffffffffffffffffffffffffff16146112ec576040517f08c379a00000000000000000000000000000000000000000000000000000000081526004016112e390613e6d565b60405180910390fd5b600073ffffffffffffffffffffffffffffffffffffffff1660008054906101000a900473ffffffffffffffffffffffffffffffffffffffff1673ffffffffffffffffffffffffffffffffffffffff167f8be0079c531659141344cd1fd0a4f28419497f9722a3daafe3b4186f6b6457e060405160405180910390a360008060006101000a81548173ffffffffffffffffffffffffffffffffffffffff021916908373ffffffffffffffffffffffffffffffffffffffff160217905550565b60008060009054906101000a900473ffffffffffffffffffffffffffffffffffffffff16905090565b6113db612f26565b73ffffffffffffffffffffffffffffffffffffffff166113f96113aa565b73ffffffffffffffffffffffffffffffffffffffff161461144f576040517f08c379a000000000000000000000000000000000000000000000000000000000815260040161144690613e6d565b60405180910390fd5b81600080826040516020016114649190613ad3565b60405160208183030381529060405280519060200120905081156114f157600115156006600083815260200190815260200160002060030160009054906101000a900460ff161515146114ec576040517f08c379a00000000000000000000000000000000000000000000000000000000081526004016114e390613ead565b60405180910390fd5b61155c565b600015156006600083815260200190815260200160002060030160009054906101000a900460ff1615151461155b576040517f08c379a000000000000000000000000000000000000000000000000000000000815260040161155290613e8d565b60405180910390fd5b5b60008560405160200161156f9190613ad3565b6040516020818303038152906040528051906020012090506060611591612fb4565b60405180608001604052808981526020018860ff168152602001838152602001600115158152509050600583908060018154018082558091505060019003906000526020600020016000909190919091505580600660008581526020019081526020016000206000820151816000019080519060200190611613929190612fe1565b5060208201518160010160006101000a81548160ff021916908360ff1602179055506040820151816002019080519060200190611651929190613061565b5060608201518160030160006101000a81548160ff0219169083151502179055509050507f752e0e9d31b708fdf71a47493e8fc65e25693a74c6a57be3daf36cfca821b60488886040516116a6929190613d7f565b60405180910390a15050505050505050565b8560016000826040516020016116ce9190613ad3565b604051602081830303815290604052805190602001209050811561175b57600115156006600083815260200190815260200160002060030160009054906101000a900460ff16151514611756576040517f08c379a000000000000000000000000000000000000000000000000000000000815260040161174d90613ead565b60405180910390fd5b6117c6565b600015156006600083815260200190815260200160002060030160009054906101000a900460ff161515146117c5576040517f08c379a00000000000000000000000000000000000000000000000000000000081526004016117bc90613e8d565b60405180910390fd5b5b6000896040516020016117d99190613ad3565b604051602081830303815290604052805190602001209050600060066000838152602001908152602001600020905060008160010160009054906101000a900460ff1660ff161161185f576040517f08c379a000000000000000000000000000000000000000000000000000000000815260040161185690613e0d565b60405180910390fd5b8573ffffffffffffffffffffffffffffffffffffffff166118828b8b8b8b612f2e565b73ffffffffffffffffffffffffffffffffffffffff16146118d8576040517f08c379a00000000000000000000000000000000000000000000000000000000081526004016118cf90613ded565b60405180910390fd5b6000868c6040516020016118ed929190613aab565b604051602081830303815290604052805190602001209050600015156007600083815260200190815260200160002060009054906101000a900460ff1615151461196c576040517f08c379a000000000000000000000000000000000000000000000000000000000815260040161196390613ecd565b60405180910390fd5b6000600260009054906101000a900473ffffffffffffffffffffffffffffffffffffffff1673ffffffffffffffffffffffffffffffffffffffff16631ba3192b6040518163ffffffff1660e01b815260040160206040518083038186803b1580156119d657600080fd5b505afa1580156119ea573d6000803e3d6000fd5b505050506040513d601f19601f82011682018060405250810190611a0e91906132a5565b90508073ffffffffffffffffffffffffffffffffffffffff166323b872dd89306004546040518463ffffffff1660e01b8152600401611a4f93929190613c15565b602060405180830381600087803b158015611a6957600080fd5b505af1158015611a7d573d6000803e3d6000fd5b505050506040513d601f19601f82011682018060405250810190611aa19190613253565b5060016007600084815260200190815260200160002060006101000a81548160ff02191690831515021790555082600101600081819054906101000a900460ff16809291906001900391906101000a81548160ff021916908360ff16021790555050600015156008600086815260200190815260200160002060008a73ffffffffffffffffffffffffffffffffffffffff1673ffffffffffffffffffffffffffffffffffffffff16815260200190815260200160002060009054906101000a900460ff1615151415611c3c5782600201889080600181540180825580915050600190039060005260206000200160009091909190916101000a81548173ffffffffffffffffffffffffffffffffffffffff021916908373ffffffffffffffffffffffffffffffffffffffff16021790555060016008600086815260200190815260200160002060008a73ffffffffffffffffffffffffffffffffffffffff1673ffffffffffffffffffffffffffffffffffffffff16815260200190815260200160002060006101000a81548160ff0219169083151502179055505b7f98a96a27b2755bcd656b9e243159ba0f25cc02a0e56bf8d0bd5ddd80d8a0cbfe8d89604051611c6d929190613d1f565b60405180910390a150505050505050505050505050565b611c8c612f26565b73ffffffffffffffffffffffffffffffffffffffff16611caa6113aa565b73ffffffffffffffffffffffffffffffffffffffff1614611d00576040517f08c379a0000000000000000000000000000000000000000000000000000000008152600401611cf790613e6d565b60405180910390fd5b6000600160009054906101000a900473ffffffffffffffffffffffffffffffffffffffff1673ffffffffffffffffffffffffffffffffffffffff166370a08231306040518263ffffffff1660e01b8152600401611d5d9190613b10565b60206040518083038186803b158015611d7557600080fd5b505afa158015611d89573d6000803e3d6000fd5b505050506040513d601f19601f82011682018060405250810190611dad91906134ce565b9050600160009054906101000a900473ffffffffffffffffffffffffffffffffffffffff1673ffffffffffffffffffffffffffffffffffffffff1663095ea7b3600360009054906101000a900473ffffffffffffffffffffffffffffffffffffffff16836040518363ffffffff1660e01b8152600401611e2e929190613bec565b602060405180830381600087803b158015611e4857600080fd5b505af1158015611e5c573d6000803e3d6000fd5b505050506040513d601f19601f82011682018060405250810190611e809190613253565b50600260009054906101000a900473ffffffffffffffffffffffffffffffffffffffff1673ffffffffffffffffffffffffffffffffffffffff1663de0e9a3e826040518263ffffffff1660e01b8152600401611edc9190613f0f565b600060405180830381600087803b158015611ef657600080fd5b505af1158015611f0a573d6000803e3d6000fd5b5050505050565b60058181548110611f1e57fe5b906000526020600020016000915090505481565b60045481565b611f40612fb4565b816001600082604051602001611f569190613ad3565b6040516020818303038152906040528051906020012090508115611fe357600115156006600083815260200190815260200160002060030160009054906101000a900460ff16151514611fde576040517f08c379a0000000000000000000000000000000000000000000000000000000008152600401611fd590613ead565b60405180910390fd5b61204e565b600015156006600083815260200190815260200160002060030160009054906101000a900460ff1615151461204d576040517f08c379a000000000000000000000000000000000000000000000000000000000815260040161204490613e8d565b60405180910390fd5b5b6000856040516020016120619190613ad3565b60405160208183030381529060405280519060200120905060066000828152602001908152602001600020604051806080016040529081600082018054600181600116156101000203166002900480601f0160208091040260200160405190810160405280929190818152602001828054600181600116156101000203166002900480156121305780601f1061210557610100808354040283529160200191612130565b820191906000526020600020905b81548152906001019060200180831161211357829003601f168201915b505050505081526020016001820160009054906101000a900460ff1660ff1660ff168152602001600282018054806020026020016040519081016040528092919081815260200182805480156121db57602002820191906000526020600020905b8160009054906101000a900473ffffffffffffffffffffffffffffffffffffffff1673ffffffffffffffffffffffffffffffffffffffff1681526020019060010190808311612191575b505050505081526020016003820160009054906101000a900460ff161515151581525050945050505050919050565b600260009054906101000a900473ffffffffffffffffffffffffffffffffffffffff1681565b8060016000826040516020016122469190613ad3565b60405160208183030381529060405280519060200120905081156122d357600115156006600083815260200190815260200160002060030160009054906101000a900460ff161515146122ce576040517f08c379a00000000000000000000000000000000000000000000000000000000081526004016122c590613ead565b60405180910390fd5b61233e565b600015156006600083815260200190815260200160002060030160009054906101000a900460ff1615151461233d576040517f08c379a000000000000000000000000000000000000000000000000000000000815260040161233490613e8d565b60405180910390fd5b5b6000846040516020016123519190613ad3565b604051602081830303815290604052805190602001209050600060066000838152602001908152602001600020905060008160010160009054906101000a900460ff1660ff16116123d7576040517f08c379a00000000000000000000000000000000000000000000000000000000081526004016123ce90613e0d565b60405180910390fd5b600033876040516020016123ec929190613a83565b604051602081830303815290604052805190602001209050600015156007600083815260200190815260200160002060009054906101000a900460ff1615151461246b576040517f08c379a000000000000000000000000000000000000000000000000000000000815260040161246290613ecd565b60405180910390fd5b6000600260009054906101000a900473ffffffffffffffffffffffffffffffffffffffff1673ffffffffffffffffffffffffffffffffffffffff16631ba3192b6040518163ffffffff1660e01b815260040160206040518083038186803b1580156124d557600080fd5b505afa1580156124e9573d6000803e3d6000fd5b505050506040513d601f19601f8201168201806040525081019061250d91906132a5565b90508073ffffffffffffffffffffffffffffffffffffffff166323b872dd33306004546040518463ffffffff1660e01b815260040161254e93929190613b46565b602060405180830381600087803b15801561256857600080fd5b505af115801561257c573d6000803e3d6000fd5b505050506040513d601f19601f820116820180604052508101906125a09190613253565b5060016007600084815260200190815260200160002060006101000a81548160ff02191690831515021790555082600101600081819054906101000a900460ff16809291906001900391906101000a81548160ff021916908360ff16021790555050600015156008600086815260200190815260200160002060003373ffffffffffffffffffffffffffffffffffffffff1673ffffffffffffffffffffffffffffffffffffffff16815260200190815260200160002060009054906101000a900460ff161515141561273b5782600201339080600181540180825580915050600190039060005260206000200160009091909190916101000a81548173ffffffffffffffffffffffffffffffffffffffff021916908373ffffffffffffffffffffffffffffffffffffffff16021790555060016008600086815260200190815260200160002060003373ffffffffffffffffffffffffffffffffffffffff1673ffffffffffffffffffffffffffffffffffffffff16815260200190815260200160002060006101000a81548160ff0219169083151502179055505b7f98a96a27b2755bcd656b9e243159ba0f25cc02a0e56bf8d0bd5ddd80d8a0cbfe883360405161276c929190613d4f565b60405180910390a15050505050505050565b8560016000826040516020016127949190613ad3565b604051602081830303815290604052805190602001209050811561282157600115156006600083815260200190815260200160002060030160009054906101000a900460ff1615151461281c576040517f08c379a000000000000000000000000000000000000000000000000000000000815260040161281390613ead565b60405180910390fd5b61288c565b600015156006600083815260200190815260200160002060030160009054906101000a900460ff1615151461288b576040517f08c379a000000000000000000000000000000000000000000000000000000000815260040161288290613e8d565b60405180910390fd5b5b60008960405160200161289f9190613ad3565b604051602081830303815290604052805190602001209050600060066000838152602001908152602001600020905060008160010160009054906101000a900460ff1660ff1611612925576040517f08c379a000000000000000000000000000000000000000000000000000000000815260040161291c90613e0d565b60405180910390fd5b8573ffffffffffffffffffffffffffffffffffffffff166129488b8b8b8b612f2e565b73ffffffffffffffffffffffffffffffffffffffff161461299e576040517f08c379a000000000000000000000000000000000000000000000000000000000815260040161299590613ded565b60405180910390fd5b6000338c6040516020016129b3929190613a83565b604051602081830303815290604052805190602001209050600015156007600083815260200190815260200160002060009054906101000a900460ff16151514612a32576040517f08c379a0000000000000000000000000000000000000000000000000000000008152600401612a2990613ecd565b60405180910390fd5b6000600260009054906101000a900473ffffffffffffffffffffffffffffffffffffffff1673ffffffffffffffffffffffffffffffffffffffff16631ba3192b6040518163ffffffff1660e01b815260040160206040518083038186803b158015612a9c57600080fd5b505afa158015612ab0573d6000803e3d6000fd5b505050506040513d601f19601f82011682018060405250810190612ad491906132a5565b90508073ffffffffffffffffffffffffffffffffffffffff166323b872dd33306004546040518463ffffffff1660e01b8152600401612b1593929190613b46565b602060405180830381600087803b158015612b2f57600080fd5b505af1158015612b43573d6000803e3d6000fd5b505050506040513d601f19601f82011682018060405250810190612b679190613253565b5060016007600084815260200190815260200160002060006101000a81548160ff02191690831515021790555082600101600081819054906101000a900460ff16809291906001900391906101000a81548160ff021916908360ff16021790555050600015156008600086815260200190815260200160002060003373ffffffffffffffffffffffffffffffffffffffff1673ffffffffffffffffffffffffffffffffffffffff16815260200190815260200160002060009054906101000a900460ff1615151415612d025782600201339080600181540180825580915050600190039060005260206000200160009091909190916101000a81548173ffffffffffffffffffffffffffffffffffffffff021916908373ffffffffffffffffffffffffffffffffffffffff16021790555060016008600086815260200190815260200160002060003373ffffffffffffffffffffffffffffffffffffffff1673ffffffffffffffffffffffffffffffffffffffff16815260200190815260200160002060006101000a81548160ff0219169083151502179055505b7f98a96a27b2755bcd656b9e243159ba0f25cc02a0e56bf8d0bd5ddd80d8a0cbfe8d33604051612d33929190613d4f565b60405180910390a150505050505050505050505050565b6000600580549050905090565b600360009054906101000a900473ffffffffffffffffffffffffffffffffffffffff1681565b612d85612f26565b73ffffffffffffffffffffffffffffffffffffffff16612da36113aa565b73ffffffffffffffffffffffffffffffffffffffff1614612df9576040517f08c379a0000000000000000000000000000000000000000000000000000000008152600401612df090613e6d565b60405180910390fd5b600073ffffffffffffffffffffffffffffffffffffffff168173ffffffffffffffffffffffffffffffffffffffff161415612e69576040517f08c379a0000000000000000000000000000000000000000000000000000000008152600401612e6090613e2d565b60405180910390fd5b8073ffffffffffffffffffffffffffffffffffffffff1660008054906101000a900473ffffffffffffffffffffffffffffffffffffffff1673ffffffffffffffffffffffffffffffffffffffff167f8be0079c531659141344cd1fd0a4f28419497f9722a3daafe3b4186f6b6457e060405160405180910390a3806000806101000a81548173ffffffffffffffffffffffffffffffffffffffff021916908373ffffffffffffffffffffffffffffffffffffffff16021790555050565b600033905090565b60008085604051602001612f429190613aea565b60405160208183030381529060405280519060200120905060018186868660405160008152602001604052604051612f7d9493929190613ca4565b6020604051602081039080840390855afa158015612f9f573d6000803e3d6000fd5b50505060206040510351915050949350505050565b604051806080016040528060608152602001600060ff168152602001606081526020016000151581525090565b828054600181600116156101000203166002900490600052602060002090601f016020900481019282601f1061302257805160ff1916838001178555613050565b82800160010185558215613050579182015b8281111561304f578251825591602001919060010190613034565b5b50905061305d91906130eb565b5090565b8280548282559060005260206000209081019282156130da579160200282015b828111156130d95782518260006101000a81548173ffffffffffffffffffffffffffffffffffffffff021916908373ffffffffffffffffffffffffffffffffffffffff16021790555091602001919060010190613081565b5b5090506130e79190613108565b5090565b5b808211156131045760008160009055506001016130ec565b5090565b5b8082111561313f57600081816101000a81549073ffffffffffffffffffffffffffffffffffffffff021916905550600101613109565b5090565b600081359050613152816141a6565b92915050565b600081519050613167816141bd565b92915050565b60008135905061317c816141d4565b92915050565b600081519050613191816141eb565b92915050565b600082601f8301126131a857600080fd5b81356131bb6131b682613f57565b613f2a565b915080825260208301602083018583830111156131d757600080fd5b6131e2838284614106565b50505092915050565b6000813590506131fa81614202565b92915050565b60008151905061320f81614202565b92915050565b60008135905061322481614219565b92915050565b60006020828403121561323c57600080fd5b600061324a84828501613143565b91505092915050565b60006020828403121561326557600080fd5b600061327384828501613158565b91505092915050565b60006020828403121561328e57600080fd5b600061329c8482850161316d565b91505092915050565b6000602082840312156132b757600080fd5b60006132c584828501613182565b91505092915050565b6000602082840312156132e057600080fd5b600082013567ffffffffffffffff8111156132fa57600080fd5b61330684828501613197565b91505092915050565b60008060008060008060c0878903121561332857600080fd5b600087013567ffffffffffffffff81111561334257600080fd5b61334e89828a01613197565b965050602061335f89828a0161316d565b955050604061337089828a01613215565b945050606061338189828a0161316d565b935050608061339289828a0161316d565b92505060a06133a389828a01613143565b9150509295509295509295565b60008060008060008060c087890312156133c957600080fd5b600087013567ffffffffffffffff8111156133e357600080fd5b6133ef89828a01613197565b965050602061340089828a016131eb565b955050604061341189828a016131eb565b945050606061342289828a01613215565b935050608061343389828a0161316d565b92505060a061344489828a0161316d565b9150509295509295509295565b6000806040838503121561346457600080fd5b600083013567ffffffffffffffff81111561347e57600080fd5b61348a85828601613197565b925050602061349b85828601613215565b9150509250929050565b6000602082840312156134b757600080fd5b60006134c5848285016131eb565b91505092915050565b6000602082840312156134e057600080fd5b60006134ee84828501613200565b91505092915050565b60006135038383613544565b60208301905092915050565b61351881614088565b82525050565b61352781614017565b82525050565b61353e61353982614017565b61415a565b82525050565b61354d81614005565b82525050565b61355c81614005565b82525050565b61357361356e82614005565b614148565b82525050565b600061358482613f93565b61358e8185613fb6565b935061359983613f83565b8060005b838110156135ca5781516135b188826134f7565b97506135bc83613fa9565b92505060018101905061359d565b5085935050505092915050565b60006135e282613f93565b6135ec8185613fc7565b93506135f783613f83565b8060005b8381101561362857815161360f88826134f7565b975061361a83613fa9565b9250506001810190506135fb565b5085935050505092915050565b61363e81614029565b82525050565b61364d81614029565b82525050565b61365c81614035565b82525050565b61367361366e82614035565b61416c565b82525050565b6136828161409a565b82525050565b613691816140be565b82525050565b60006136a282613f9e565b6136ac8185613fd8565b93506136bc818560208601614115565b6136c581614188565b840191505092915050565b60006136db82613f9e565b6136e58185613fe9565b93506136f5818560208601614115565b6136fe81614188565b840191505092915050565b600061371482613f9e565b61371e8185613ffa565b935061372e818560208601614115565b80840191505092915050565b6000613747602183613fe9565b91507f52656369766572206861736e2774207369676e656420746865206d657373616760008301527f65000000000000000000000000000000000000000000000000000000000000006020830152604082019050919050565b60006137ad601c83613ffa565b91507f19457468657265756d205369676e6564204d6573736167653a0a3332000000006000830152601c82019050919050565b60006137ed601383613fe9565b91507f4e6f206d6f726520636f70696573206c656674000000000000000000000000006000830152602082019050919050565b600061382d602683613fe9565b91507f4f776e61626c653a206e6577206f776e657220697320746865207a65726f206160008301527f64647265737300000000000000000000000000000000000000000000000000006020830152604082019050919050565b6000613893603183613fe9565b91507f596f752063616e27742072657475726e206120626f6f6b207468617420796f7560008301527f20686176656e277420626f72726f7765640000000000000000000000000000006020830152604082019050919050565b60006138f9602083613fe9565b91507f4f776e61626c653a2063616c6c6572206973206e6f7420746865206f776e65726000830152602082019050919050565b6000613939601483613fe9565b91507f426f6f6b20616c726561647920657869737473210000000000000000000000006000830152602082019050919050565b6000613979601383613fe9565b91507f426f6f6b20646f65736e277420657869737421000000000000000000000000006000830152602082019050919050565b60006139b9602083613fe9565b91507f596f7527766520616c726561647920626f72726f7765642074686520626f6f6b6000830152602082019050919050565b60006080830160008301518482036000860152613a098282613697565b9150506020830151613a1e6020860182613a65565b5060408301518482036040860152613a368282613579565b9150506060830151613a4b6060860182613635565b508091505092915050565b613a5f81614071565b82525050565b613a6e8161407b565b82525050565b613a7d8161407b565b82525050565b6000613a8f828561352d565b601482019150613a9f8284613709565b91508190509392505050565b6000613ab78285613562565b601482019150613ac78284613709565b91508190509392505050565b6000613adf8284613709565b915081905092915050565b6000613af5826137a0565b9150613b018284613662565b60208201915081905092915050565b6000602082019050613b256000830184613553565b92915050565b6000602082019050613b40600083018461351e565b92915050565b6000606082019050613b5b600083018661350f565b613b686020830185613553565b613b756040830184613a56565b949350505050565b600060e082019050613b92600083018a61350f565b613b9f6020830189613553565b613bac6040830188613a56565b613bb96060830187613a56565b613bc66080830186613a74565b613bd360a0830185613653565b613be060c0830184613653565b98975050505050505050565b6000604082019050613c01600083018561350f565b613c0e6020830184613a56565b9392505050565b6000606082019050613c2a6000830186613553565b613c376020830185613553565b613c446040830184613a56565b949350505050565b60006020820190508181036000830152613c6681846135d7565b905092915050565b6000602082019050613c836000830184613644565b92915050565b6000602082019050613c9e6000830184613653565b92915050565b6000608082019050613cb96000830187613653565b613cc66020830186613a74565b613cd36040830185613653565b613ce06060830184613653565b95945050505050565b6000602082019050613cfe6000830184613679565b92915050565b6000602082019050613d196000830184613688565b92915050565b60006040820190508181036000830152613d3981856136d0565b9050613d486020830184613553565b9392505050565b60006040820190508181036000830152613d6981856136d0565b9050613d78602083018461350f565b9392505050565b60006040820190508181036000830152613d9981856136d0565b9050613da86020830184613a74565b9392505050565b60006060820190508181036000830152613dc981866136d0565b9050613dd86020830185613a74565b613de56040830184613644565b949350505050565b60006020820190508181036000830152613e068161373a565b9050919050565b60006020820190508181036000830152613e26816137e0565b9050919050565b60006020820190508181036000830152613e4681613820565b9050919050565b60006020820190508181036000830152613e6681613886565b9050919050565b60006020820190508181036000830152613e86816138ec565b9050919050565b60006020820190508181036000830152613ea68161392c565b9050919050565b60006020820190508181036000830152613ec68161396c565b9050919050565b60006020820190508181036000830152613ee6816139ac565b9050919050565b60006020820190508181036000830152613f0781846139ec565b905092915050565b6000602082019050613f246000830184613a56565b92915050565b6000604051905081810181811067ffffffffffffffff82111715613f4d57600080fd5b8060405250919050565b600067ffffffffffffffff821115613f6e57600080fd5b601f19601f8301169050602081019050919050565b6000819050602082019050919050565b600081519050919050565b600081519050919050565b6000602082019050919050565b600082825260208201905092915050565b600082825260208201905092915050565b600082825260208201905092915050565b600082825260208201905092915050565b600081905092915050565b600061401082614051565b9050919050565b600061402282614051565b9050919050565b60008115159050919050565b6000819050919050565b600061404a82614005565b9050919050565b600073ffffffffffffffffffffffffffffffffffffffff82169050919050565b6000819050919050565b600060ff82169050919050565b6000614093826140e2565b9050919050565b60006140a5826140ac565b9050919050565b60006140b782614051565b9050919050565b60006140c9826140d0565b9050919050565b60006140db82614051565b9050919050565b60006140ed826140f4565b9050919050565b60006140ff82614051565b9050919050565b82818337600083830152505050565b60005b83811015614133578082015181840152602081019050614118565b83811115614142576000848401525b50505050565b600061415382614176565b9050919050565b600061416582614176565b9050919050565b6000819050919050565b600061418182614199565b9050919050565b6000601f19601f8301169050919050565b60008160601b9050919050565b6141af81614005565b81146141ba57600080fd5b50565b6141c681614029565b81146141d157600080fd5b50565b6141dd81614035565b81146141e857600080fd5b50565b6141f48161403f565b81146141ff57600080fd5b50565b61420b81614071565b811461421657600080fd5b50565b6142228161407b565b811461422d57600080fd5b5056fea26469706673582212208fe6fcd04f4c9f7fceb1a8b5465f5426527da3f79eb484e5692c87894139579664736f6c63430007000033",
  "source": "// SPDX-License-Identifier: UNLICENSED\n\npragma solidity ^0.7.0;\npragma experimental ABIEncoderV2;\n\nimport \"@openzeppelin/contracts/access/Ownable.sol\";\nimport \"./LibraryToken.sol\";\nimport \"./LibWrapper.sol\";\n\ncontract BookLibrary is Ownable {\n  LibraryToken public LIBToken;\n  LIBWrapper public LIBTokenWrapper;\n\n  address payable public libTokenWrapperAddress;\n\n  uint public rentFee = 10000000000000000;\n\n  bytes32[] public booksIds;\n  \n  mapping(bytes32 => Book) public books;\n  mapping(bytes32 => bool) private userBorrowedBooks;\n  mapping(bytes32 => mapping (address => bool)) private hasUserBorrowedBefore;\n\n  event LogBookAdded(string bookName, uint8 copies);\n  event LogBookBorrowed(string bookName, address borrower);\n  event LogBookReturned(string bookName, address returner);\n\n  struct Book {\n    string name;\n    uint8 copies;\n    address[] borrowers;\n    bool exists;\n  }\n\n  constructor(address payable _wrapperAddress, address _tokenAddress) {\n    LIBToken = LibraryToken(_tokenAddress);\n    LIBTokenWrapper = LIBWrapper(_wrapperAddress);\n    libTokenWrapperAddress = _wrapperAddress;\n  }\n  \n  modifier bookShouldExist(string memory _name, bool shouldExist) {\n    bytes32 encodedName = keccak256(abi.encodePacked(_name));\n    if (shouldExist) {\n      require(books[encodedName].exists == true, \"Book doesn't exist!\");\n    } else {\n      require(books[encodedName].exists == false, \"Book already exists!\");\n    }\n    _;\n  }\n\n  function addBook (string memory _name, uint8 _copies) external onlyOwner bookShouldExist(_name, false) {\n    bytes32 encodedName = keccak256(abi.encodePacked(_name));\n\n    address[] memory borrowers;\n    Book memory newBook = Book(_name, _copies, borrowers, true);\n    booksIds.push(encodedName);\n    books[encodedName] = newBook;\n\n    emit LogBookAdded(_name, _copies);\n  }\n  \n  function addCopies(string memory _bookName, uint8 _copies) external onlyOwner bookShouldExist(_bookName, true) {\n    bytes32 encodedName = keccak256(abi.encodePacked(_bookName));\n    books[encodedName].copies += _copies;\n  }\n    \n  function borrowBook(string memory _bookName) external bookShouldExist(_bookName, true){    \n    bytes32 encodedName = keccak256(abi.encodePacked(_bookName));\n    Book storage book = books[encodedName]; \n\n    // User can't borrow booksArray with no copies left;\n    require(book.copies > 0, \"No more copies left\");\n\n    // User shouldn't borrow the same book more than once;\n    bytes32 hash = keccak256(abi.encodePacked(msg.sender, _bookName));\n    require(userBorrowedBooks[hash] == false, \"You've already borrowed the book\");\n\n    LibraryToken libToken = LIBTokenWrapper.LIBToken();\n    libToken.transferFrom(msg.sender, address(this), rentFee);\n\n    userBorrowedBooks[hash] = true;\n    book.copies--;\n    if (hasUserBorrowedBefore[encodedName][msg.sender] == false) {\n      book.borrowers.push(msg.sender);\n      hasUserBorrowedBefore[encodedName][msg.sender] = true;\n    }\n\n    emit LogBookBorrowed(_bookName, msg.sender);\n  }\n\n  function borrowBookWithPermit(string memory _bookName, uint256 value, uint256 deadline, uint8 v, bytes32 r, bytes32 s) external bookShouldExist(_bookName, true){    \n    bytes32 encodedName = keccak256(abi.encodePacked(_bookName));\n    Book storage book = books[encodedName]; \n\n    // User can't borrow booksArray with no copies left;\n    require(book.copies > 0, \"No more copies left\");\n\n    // User shouldn't borrow the same book more than once;\n    bytes32 hash = keccak256(abi.encodePacked(msg.sender, _bookName));\n    require(userBorrowedBooks[hash] == false, \"You've already borrowed the book\");\n\n    LibraryToken libToken = LIBTokenWrapper.LIBToken();\n\n    libToken.permit(msg.sender, address(this), value, deadline, v,r,s);\n    libToken.transferFrom(msg.sender, address(this), rentFee);\n\n    userBorrowedBooks[hash] = true;\n    book.copies--;\n    if (hasUserBorrowedBefore[encodedName][msg.sender] == false) {\n      book.borrowers.push(msg.sender);\n      hasUserBorrowedBefore[encodedName][msg.sender] = true;\n    }\n    emit LogBookBorrowed(_bookName, msg.sender);\n  }\n\n  function borrowBookWithSignature (string memory _bookName, bytes32 hashedMessage, uint8 v, bytes32 r, bytes32 s, address receiver) external bookShouldExist(_bookName, true) {\n    bytes32 encodedName = keccak256(abi.encodePacked(_bookName));\n    Book storage book = books[encodedName]; \n\n    // User can't borrow booksArray with no copies left;\n    require(book.copies > 0, \"No more copies left\");\n    require(recoverSigner(hashedMessage, v, r, s) == receiver, \"Reciver hasn't signed the message\");\n    // User shouldn't borrow the same book more than once;\n    bytes32 hash = keccak256(abi.encodePacked(msg.sender, _bookName));\n    require(userBorrowedBooks[hash] == false, \"You've already borrowed the book\");\n\n    LibraryToken libToken = LIBTokenWrapper.LIBToken();\n    // Transfer rent fee\n    libToken.transferFrom(msg.sender, address(this), rentFee);\n\n    userBorrowedBooks[hash] = true;\n    book.copies--;\n    if (hasUserBorrowedBefore[encodedName][msg.sender] == false) {\n      book.borrowers.push(msg.sender);\n      hasUserBorrowedBefore[encodedName][msg.sender] = true;\n    }\n\n    emit LogBookBorrowed(_bookName, msg.sender);\n  }\n\n  function recoverSigner(bytes32 hashedMessage, uint8 v, bytes32 r, bytes32 s) internal returns(address) {\n    bytes32 messageDigest = keccak256(abi.encodePacked(\"\\x19Ethereum Signed Message:\\n32\", hashedMessage));\n    return ecrecover(messageDigest, v, r, s);\n  }\n\n\n  function borrowOnBehalfOf(string memory _bookName, bytes32 hashedMessage, uint8 v, bytes32 r, bytes32 s, address receiver) external bookShouldExist(_bookName, true) {\n    bytes32 encodedName = keccak256(abi.encodePacked(_bookName));\n    Book storage book = books[encodedName]; \n\n    // User can't borrow booksArray with no copies left;\n    require(book.copies > 0, \"No more copies left\");\n\n    // User mush have signed the message;\n    require(recoverSigner(hashedMessage, v, r, s) == receiver, \"Reciver hasn't signed the message\");\n\n    // User shouldn't borrow the same book more than once;\n    bytes32 hash = keccak256(abi.encodePacked(receiver, _bookName));\n    require(userBorrowedBooks[hash] == false, \"You've already borrowed the book\");\n\n    LibraryToken libToken = LIBTokenWrapper.LIBToken();\n\n    libToken.transferFrom(receiver, address(this), rentFee);\n\n    userBorrowedBooks[hash] = true;\n    book.copies--;\n    if (hasUserBorrowedBefore[encodedName][receiver] == false) {\n      book.borrowers.push(receiver);\n      hasUserBorrowedBefore[encodedName][receiver] = true;\n    }\n\n    emit LogBookBorrowed(_bookName, receiver);\n  }\n  \n  function returnBook(string memory _bookName) external bookShouldExist(_bookName, true) {\n    //Check if user has borrowed this book;\n    bytes32 hash = keccak256(abi.encodePacked(msg.sender, _bookName));\n    require(userBorrowedBooks[hash] == true, \"You can't return a book that you haven't borrowed\");\n    \n    bytes32 encodedName = keccak256(abi.encodePacked(_bookName));\n    Book storage book = books[encodedName];\n    book.copies++;\n    userBorrowedBooks[hash] = false;\n\n    emit LogBookReturned(_bookName, msg.sender);\n  }\n  \n  function withdrawLibTokens() public onlyOwner {\n    uint256 tokensAmount = LIBToken.balanceOf(address(this));\n    LIBToken.approve(libTokenWrapperAddress, tokensAmount);\n    LIBTokenWrapper.unwrap(tokensAmount);\n  }\n\n  function getBorrowers(string memory _bookName) external view bookShouldExist(_bookName, true) returns (address[] memory) {\n    bytes32 encodedName = keccak256(abi.encodePacked(_bookName));\n    return books[encodedName].borrowers;\n  }\n\n  function getBook (string memory _bookName) external view bookShouldExist(_bookName, true) returns (Book memory) {\n    bytes32 encodedName = keccak256(abi.encodePacked(_bookName));\n    return books[encodedName];\n  }\n\n  function isBookBorrowedByCurrentUser(string memory _bookName) external view bookShouldExist(_bookName, true) returns(bool) {\n    bytes32 key = keccak256(abi.encodePacked(msg.sender, _bookName));\n    return userBorrowedBooks[key];\n  }\n\n  function getBooksCount() external view returns(uint) {\n    return booksIds.length;\n  }  \n} ",
  "sourcePath": "/Users/viktortodorov/Desktop/BookLibrary/contracts/BookLibrary.sol",
  "compiler": {
    "name": "solc",
    "version": "0.7.0+commit.9e61f92b.Emscripten.clang",
    "optimizer": false,
    "runs": 200
  },
  "schemaVersion": "2.3.5",
  "updatedAt": "2021-06-18T08:48:46.692Z"
}