{
  "contractName": "BookLibrary",
  "abi": [
    {
      "anonymous": false,
      "inputs": [
        {
          "indexed": true,
          "internalType": "address",
          "name": "previousOwner",
          "type": "address"
        },
        {
          "indexed": true,
          "internalType": "address",
          "name": "newOwner",
          "type": "address"
        }
      ],
      "name": "OwnershipTransferred",
      "type": "event"
    },
    {
      "inputs": [
        {
          "internalType": "bytes32",
          "name": "",
          "type": "bytes32"
        }
      ],
      "name": "books",
      "outputs": [
        {
          "internalType": "string",
          "name": "name",
          "type": "string"
        },
        {
          "internalType": "uint8",
          "name": "copies",
          "type": "uint8"
        },
        {
          "internalType": "bool",
          "name": "exists",
          "type": "bool"
        }
      ],
      "stateMutability": "view",
      "type": "function"
    },
    {
      "inputs": [
        {
          "internalType": "uint256",
          "name": "",
          "type": "uint256"
        }
      ],
      "name": "booksIds",
      "outputs": [
        {
          "internalType": "bytes32",
          "name": "",
          "type": "bytes32"
        }
      ],
      "stateMutability": "view",
      "type": "function"
    },
    {
      "inputs": [],
      "name": "owner",
      "outputs": [
        {
          "internalType": "address",
          "name": "",
          "type": "address"
        }
      ],
      "stateMutability": "view",
      "type": "function"
    },
    {
      "inputs": [],
      "name": "renounceOwnership",
      "outputs": [],
      "stateMutability": "nonpayable",
      "type": "function"
    },
    {
      "inputs": [
        {
          "internalType": "address",
          "name": "newOwner",
          "type": "address"
        }
      ],
      "name": "transferOwnership",
      "outputs": [],
      "stateMutability": "nonpayable",
      "type": "function"
    },
    {
      "inputs": [
        {
          "internalType": "string",
          "name": "_name",
          "type": "string"
        },
        {
          "internalType": "uint8",
          "name": "_copies",
          "type": "uint8"
        }
      ],
      "name": "addBook",
      "outputs": [],
      "stateMutability": "nonpayable",
      "type": "function"
    },
    {
      "inputs": [
        {
          "internalType": "string",
          "name": "_bookName",
          "type": "string"
        },
        {
          "internalType": "uint8",
          "name": "_copies",
          "type": "uint8"
        }
      ],
      "name": "addCopies",
      "outputs": [],
      "stateMutability": "nonpayable",
      "type": "function"
    },
    {
      "inputs": [
        {
          "internalType": "string",
          "name": "_bookName",
          "type": "string"
        }
      ],
      "name": "borrowBook",
      "outputs": [],
      "stateMutability": "nonpayable",
      "type": "function"
    },
    {
      "inputs": [
        {
          "internalType": "string",
          "name": "_bookName",
          "type": "string"
        }
      ],
      "name": "returnBook",
      "outputs": [],
      "stateMutability": "nonpayable",
      "type": "function"
    },
    {
      "inputs": [
        {
          "internalType": "string",
          "name": "_bookName",
          "type": "string"
        }
      ],
      "name": "getBorrowers",
      "outputs": [
        {
          "internalType": "address[]",
          "name": "",
          "type": "address[]"
        }
      ],
      "stateMutability": "view",
      "type": "function"
    },
    {
      "inputs": [
        {
          "internalType": "string",
          "name": "_bookName",
          "type": "string"
        }
      ],
      "name": "getBook",
      "outputs": [
        {
          "components": [
            {
              "internalType": "string",
              "name": "name",
              "type": "string"
            },
            {
              "internalType": "uint8",
              "name": "copies",
              "type": "uint8"
            },
            {
              "internalType": "address[]",
              "name": "borrowers",
              "type": "address[]"
            },
            {
              "internalType": "bool",
              "name": "exists",
              "type": "bool"
            }
          ],
          "internalType": "struct BookLibrary.Book",
          "name": "",
          "type": "tuple"
        }
      ],
      "stateMutability": "view",
      "type": "function"
    },
    {
      "inputs": [
        {
          "internalType": "string",
          "name": "_bookName",
          "type": "string"
        }
      ],
      "name": "isBookBorrowedByCurrentUser",
      "outputs": [
        {
          "internalType": "bool",
          "name": "",
          "type": "bool"
        }
      ],
      "stateMutability": "view",
      "type": "function"
    },
    {
      "inputs": [],
      "name": "getBooksCount",
      "outputs": [
        {
          "internalType": "uint256",
          "name": "",
          "type": "uint256"
        }
      ],
      "stateMutability": "view",
      "type": "function"
    }
  ],
  "bytecode": "0x608060405234801561001057600080fd5b5060006100216100c460201b60201c565b9050806000806101000a81548173ffffffffffffffffffffffffffffffffffffffff021916908373ffffffffffffffffffffffffffffffffffffffff1602179055508073ffffffffffffffffffffffffffffffffffffffff16600073ffffffffffffffffffffffffffffffffffffffff167f8be0079c531659141344cd1fd0a4f28419497f9722a3daafe3b4186f6b6457e060405160405180910390a3506100cc565b600033905090565b6123d9806100db6000396000f3fe608060405234801561001057600080fd5b50600436106100cf5760003560e01c80638da5cb5b1161008c578063c37a836111610066578063c37a836114610212578063ced96fe314610242578063dfd83d2a1461025e578063f2fde38b1461027c576100cf565b80638da5cb5b146101a8578063a63ac38e146101c6578063b66d5c91146101e2576100cf565b80630c0dee70146100d45780631ef49a8c146101065780633ec2df5d14610122578063533c97311461013e578063582bcda51461016e578063715018a61461019e575b600080fd5b6100ee60048036038101906100e99190611a07565b610298565b6040516100fd9392919061201c565b60405180910390f35b610120600480360381019061011b9190611a30565b610374565b005b61013c60048036038101906101379190611a71565b6105c1565b005b61015860048036038101906101539190611a30565b6107bf565b6040516101659190611fe6565b60405180910390f35b61018860048036038101906101839190611a30565b610928565b6040516101959190611fc4565b60405180910390f35b6101a6610b09565b005b6101b0610c43565b6040516101bd9190611fa9565b60405180910390f35b6101e060048036038101906101db9190611a71565b610c6c565b005b6101fc60048036038101906101f79190611ac5565b610f18565b6040516102099190612001565b60405180910390f35b61022c60048036038101906102279190611a30565b610f39565b604051610239919061213a565b60405180910390f35b61025c60048036038101906102579190611a30565b61120b565b005b6102666115e9565b604051610273919061215c565b60405180910390f35b610296600480360381019061029191906119de565b6115f6565b005b6002602052806000526040600020600091509050806000018054600181600116156101000203166002900480601f0160208091040260200160405190810160405280929190818152602001828054600181600116156101000203166002900480156103445780601f1061031957610100808354040283529160200191610344565b820191906000526020600020905b81548152906001019060200180831161032757829003601f168201915b5050505050908060010160009054906101000a900460ff16908060030160009054906101000a900460ff16905083565b80600160008260405160200161038a9190611f92565b604051602081830303815290604052805190602001209050811561041757600115156002600083815260200190815260200160002060030160009054906101000a900460ff16151514610412576040517f08c379a0000000000000000000000000000000000000000000000000000000008152600401610409906120fa565b60405180910390fd5b610482565b600015156002600083815260200190815260200160002060030160009054906101000a900460ff16151514610481576040517f08c379a0000000000000000000000000000000000000000000000000000000008152600401610478906120da565b60405180910390fd5b5b60003385604051602001610497929190611f6a565b604051602081830303815290604052805190602001209050600115156003600083815260200190815260200160002060009054906101000a900460ff16151514610516576040517f08c379a000000000000000000000000000000000000000000000000000000000815260040161050d9061209a565b60405180910390fd5b6000856040516020016105299190611f92565b604051602081830303815290604052805190602001209050600060026000838152602001908152602001600020905080600101600081819054906101000a900460ff168092919060010191906101000a81548160ff021916908360ff1602179055505060006003600085815260200190815260200160002060006101000a81548160ff02191690831515021790555050505050505050565b6105c961179f565b73ffffffffffffffffffffffffffffffffffffffff166105e7610c43565b73ffffffffffffffffffffffffffffffffffffffff161461063d576040517f08c379a0000000000000000000000000000000000000000000000000000000008152600401610634906120ba565b60405180910390fd5b8160016000826040516020016106539190611f92565b60405160208183030381529060405280519060200120905081156106e057600115156002600083815260200190815260200160002060030160009054906101000a900460ff161515146106db576040517f08c379a00000000000000000000000000000000000000000000000000000000081526004016106d2906120fa565b60405180910390fd5b61074b565b600015156002600083815260200190815260200160002060030160009054906101000a900460ff1615151461074a576040517f08c379a0000000000000000000000000000000000000000000000000000000008152600401610741906120da565b60405180910390fd5b5b60008560405160200161075e9190611f92565b604051602081830303815290604052805190602001209050846002600083815260200190815260200160002060010160008282829054906101000a900460ff160192506101000a81548160ff021916908360ff160217905550505050505050565b60008160016000826040516020016107d79190611f92565b604051602081830303815290604052805190602001209050811561086457600115156002600083815260200190815260200160002060030160009054906101000a900460ff1615151461085f576040517f08c379a0000000000000000000000000000000000000000000000000000000008152600401610856906120fa565b60405180910390fd5b6108cf565b600015156002600083815260200190815260200160002060030160009054906101000a900460ff161515146108ce576040517f08c379a00000000000000000000000000000000000000000000000000000000081526004016108c5906120da565b60405180910390fd5b5b600033866040516020016108e4929190611f6a565b6040516020818303038152906040528051906020012090506003600082815260200190815260200160002060009054906101000a900460ff16945050505050919050565b60608160016000826040516020016109409190611f92565b60405160208183030381529060405280519060200120905081156109cd57600115156002600083815260200190815260200160002060030160009054906101000a900460ff161515146109c8576040517f08c379a00000000000000000000000000000000000000000000000000000000081526004016109bf906120fa565b60405180910390fd5b610a38565b600015156002600083815260200190815260200160002060030160009054906101000a900460ff16151514610a37576040517f08c379a0000000000000000000000000000000000000000000000000000000008152600401610a2e906120da565b60405180910390fd5b5b600085604051602001610a4b9190611f92565b60405160208183030381529060405280519060200120905060026000828152602001908152602001600020600201805480602002602001604051908101604052809291908181526020018280548015610af957602002820191906000526020600020905b8160009054906101000a900473ffffffffffffffffffffffffffffffffffffffff1673ffffffffffffffffffffffffffffffffffffffff1681526020019060010190808311610aaf575b5050505050945050505050919050565b610b1161179f565b73ffffffffffffffffffffffffffffffffffffffff16610b2f610c43565b73ffffffffffffffffffffffffffffffffffffffff1614610b85576040517f08c379a0000000000000000000000000000000000000000000000000000000008152600401610b7c906120ba565b60405180910390fd5b600073ffffffffffffffffffffffffffffffffffffffff1660008054906101000a900473ffffffffffffffffffffffffffffffffffffffff1673ffffffffffffffffffffffffffffffffffffffff167f8be0079c531659141344cd1fd0a4f28419497f9722a3daafe3b4186f6b6457e060405160405180910390a360008060006101000a81548173ffffffffffffffffffffffffffffffffffffffff021916908373ffffffffffffffffffffffffffffffffffffffff160217905550565b60008060009054906101000a900473ffffffffffffffffffffffffffffffffffffffff16905090565b610c7461179f565b73ffffffffffffffffffffffffffffffffffffffff16610c92610c43565b73ffffffffffffffffffffffffffffffffffffffff1614610ce8576040517f08c379a0000000000000000000000000000000000000000000000000000000008152600401610cdf906120ba565b60405180910390fd5b8160008082604051602001610cfd9190611f92565b6040516020818303038152906040528051906020012090508115610d8a57600115156002600083815260200190815260200160002060030160009054906101000a900460ff16151514610d85576040517f08c379a0000000000000000000000000000000000000000000000000000000008152600401610d7c906120fa565b60405180910390fd5b610df5565b600015156002600083815260200190815260200160002060030160009054906101000a900460ff16151514610df4576040517f08c379a0000000000000000000000000000000000000000000000000000000008152600401610deb906120da565b60405180910390fd5b5b600085604051602001610e089190611f92565b6040516020818303038152906040528051906020012090506060610e2a6117a7565b60405180608001604052808981526020018860ff168152602001838152602001600115158152509050600183908060018154018082558091505060019003906000526020600020016000909190919091505580600260008581526020019081526020016000206000820151816000019080519060200190610eac9291906117d4565b5060208201518160010160006101000a81548160ff021916908360ff1602179055506040820151816002019080519060200190610eea929190611854565b5060608201518160030160006101000a81548160ff0219169083151502179055509050505050505050505050565b60018181548110610f2557fe5b906000526020600020016000915090505481565b610f416117a7565b816001600082604051602001610f579190611f92565b6040516020818303038152906040528051906020012090508115610fe457600115156002600083815260200190815260200160002060030160009054906101000a900460ff16151514610fdf576040517f08c379a0000000000000000000000000000000000000000000000000000000008152600401610fd6906120fa565b60405180910390fd5b61104f565b600015156002600083815260200190815260200160002060030160009054906101000a900460ff1615151461104e576040517f08c379a0000000000000000000000000000000000000000000000000000000008152600401611045906120da565b60405180910390fd5b5b6000856040516020016110629190611f92565b60405160208183030381529060405280519060200120905060026000828152602001908152602001600020604051806080016040529081600082018054600181600116156101000203166002900480601f0160208091040260200160405190810160405280929190818152602001828054600181600116156101000203166002900480156111315780601f1061110657610100808354040283529160200191611131565b820191906000526020600020905b81548152906001019060200180831161111457829003601f168201915b505050505081526020016001820160009054906101000a900460ff1660ff1660ff168152602001600282018054806020026020016040519081016040528092919081815260200182805480156111dc57602002820191906000526020600020905b8160009054906101000a900473ffffffffffffffffffffffffffffffffffffffff1673ffffffffffffffffffffffffffffffffffffffff1681526020019060010190808311611192575b505050505081526020016003820160009054906101000a900460ff161515151581525050945050505050919050565b8060016000826040516020016112219190611f92565b60405160208183030381529060405280519060200120905081156112ae57600115156002600083815260200190815260200160002060030160009054906101000a900460ff161515146112a9576040517f08c379a00000000000000000000000000000000000000000000000000000000081526004016112a0906120fa565b60405180910390fd5b611319565b600015156002600083815260200190815260200160002060030160009054906101000a900460ff16151514611318576040517f08c379a000000000000000000000000000000000000000000000000000000000815260040161130f906120da565b60405180910390fd5b5b60008460405160200161132c9190611f92565b604051602081830303815290604052805190602001209050600060026000838152602001908152602001600020905060008160010160009054906101000a900460ff1660ff16116113b2576040517f08c379a00000000000000000000000000000000000000000000000000000000081526004016113a99061205a565b60405180910390fd5b600033876040516020016113c7929190611f6a565b604051602081830303815290604052805190602001209050600015156003600083815260200190815260200160002060009054906101000a900460ff16151514611446576040517f08c379a000000000000000000000000000000000000000000000000000000000815260040161143d9061211a565b60405180910390fd5b60016003600083815260200190815260200160002060006101000a81548160ff02191690831515021790555081600101600081819054906101000a900460ff16809291906001900391906101000a81548160ff021916908360ff16021790555050600015156004600085815260200190815260200160002060003373ffffffffffffffffffffffffffffffffffffffff1673ffffffffffffffffffffffffffffffffffffffff16815260200190815260200160002060009054906101000a900460ff16151514156115e05781600201339080600181540180825580915050600190039060005260206000200160009091909190916101000a81548173ffffffffffffffffffffffffffffffffffffffff021916908373ffffffffffffffffffffffffffffffffffffffff16021790555060016004600085815260200190815260200160002060003373ffffffffffffffffffffffffffffffffffffffff1673ffffffffffffffffffffffffffffffffffffffff16815260200190815260200160002060006101000a81548160ff0219169083151502179055505b50505050505050565b6000600180549050905090565b6115fe61179f565b73ffffffffffffffffffffffffffffffffffffffff1661161c610c43565b73ffffffffffffffffffffffffffffffffffffffff1614611672576040517f08c379a0000000000000000000000000000000000000000000000000000000008152600401611669906120ba565b60405180910390fd5b600073ffffffffffffffffffffffffffffffffffffffff168173ffffffffffffffffffffffffffffffffffffffff1614156116e2576040517f08c379a00000000000000000000000000000000000000000000000000000000081526004016116d99061207a565b60405180910390fd5b8073ffffffffffffffffffffffffffffffffffffffff1660008054906101000a900473ffffffffffffffffffffffffffffffffffffffff1673ffffffffffffffffffffffffffffffffffffffff167f8be0079c531659141344cd1fd0a4f28419497f9722a3daafe3b4186f6b6457e060405160405180910390a3806000806101000a81548173ffffffffffffffffffffffffffffffffffffffff021916908373ffffffffffffffffffffffffffffffffffffffff16021790555050565b600033905090565b604051806080016040528060608152602001600060ff168152602001606081526020016000151581525090565b828054600181600116156101000203166002900490600052602060002090601f016020900481019282601f1061181557805160ff1916838001178555611843565b82800160010185558215611843579182015b82811115611842578251825591602001919060010190611827565b5b50905061185091906118de565b5090565b8280548282559060005260206000209081019282156118cd579160200282015b828111156118cc5782518260006101000a81548173ffffffffffffffffffffffffffffffffffffffff021916908373ffffffffffffffffffffffffffffffffffffffff16021790555091602001919060010190611874565b5b5090506118da91906118fb565b5090565b5b808211156118f75760008160009055506001016118df565b5090565b5b8082111561193257600081816101000a81549073ffffffffffffffffffffffffffffffffffffffff0219169055506001016118fc565b5090565b60008135905061194581612347565b92915050565b60008135905061195a8161235e565b92915050565b600082601f83011261197157600080fd5b813561198461197f826121a4565b612177565b915080825260208301602083018583830111156119a057600080fd5b6119ab8382846122c3565b50505092915050565b6000813590506119c381612375565b92915050565b6000813590506119d88161238c565b92915050565b6000602082840312156119f057600080fd5b60006119fe84828501611936565b91505092915050565b600060208284031215611a1957600080fd5b6000611a278482850161194b565b91505092915050565b600060208284031215611a4257600080fd5b600082013567ffffffffffffffff811115611a5c57600080fd5b611a6884828501611960565b91505092915050565b60008060408385031215611a8457600080fd5b600083013567ffffffffffffffff811115611a9e57600080fd5b611aaa85828601611960565b9250506020611abb858286016119c9565b9150509250929050565b600060208284031215611ad757600080fd5b6000611ae5848285016119b4565b91505092915050565b6000611afa8383611b1d565b60208301905092915050565b611b17611b1282612264565b612305565b82525050565b611b2681612252565b82525050565b611b3581612252565b82525050565b6000611b46826121e0565b611b508185612203565b9350611b5b836121d0565b8060005b83811015611b8c578151611b738882611aee565b9750611b7e836121f6565b925050600181019050611b5f565b5085935050505092915050565b6000611ba4826121e0565b611bae8185612214565b9350611bb9836121d0565b8060005b83811015611bea578151611bd18882611aee565b9750611bdc836121f6565b925050600181019050611bbd565b5085935050505092915050565b611c0081612276565b82525050565b611c0f81612276565b82525050565b611c1e81612282565b82525050565b6000611c2f826121eb565b611c398185612225565b9350611c498185602086016122d2565b611c5281612329565b840191505092915050565b6000611c68826121eb565b611c728185612236565b9350611c828185602086016122d2565b611c8b81612329565b840191505092915050565b6000611ca1826121eb565b611cab8185612247565b9350611cbb8185602086016122d2565b80840191505092915050565b6000611cd4601383612236565b91507f4e6f206d6f726520636f70696573206c656674000000000000000000000000006000830152602082019050919050565b6000611d14602683612236565b91507f4f776e61626c653a206e6577206f776e657220697320746865207a65726f206160008301527f64647265737300000000000000000000000000000000000000000000000000006020830152604082019050919050565b6000611d7a603183612236565b91507f596f752063616e27742072657475726e206120626f6f6b207468617420796f7560008301527f20686176656e277420626f72726f7765640000000000000000000000000000006020830152604082019050919050565b6000611de0602083612236565b91507f4f776e61626c653a2063616c6c6572206973206e6f7420746865206f776e65726000830152602082019050919050565b6000611e20601483612236565b91507f426f6f6b20616c726561647920657869737473210000000000000000000000006000830152602082019050919050565b6000611e60601383612236565b91507f426f6f6b20646f65736e277420657869737421000000000000000000000000006000830152602082019050919050565b6000611ea0602083612236565b91507f596f7527766520616c726561647920626f72726f7765642074686520626f6f6b6000830152602082019050919050565b60006080830160008301518482036000860152611ef08282611c24565b9150506020830151611f056020860182611f4c565b5060408301518482036040860152611f1d8282611b3b565b9150506060830151611f326060860182611bf7565b508091505092915050565b611f46816122ac565b82525050565b611f55816122b6565b82525050565b611f64816122b6565b82525050565b6000611f768285611b06565b601482019150611f868284611c96565b91508190509392505050565b6000611f9e8284611c96565b915081905092915050565b6000602082019050611fbe6000830184611b2c565b92915050565b60006020820190508181036000830152611fde8184611b99565b905092915050565b6000602082019050611ffb6000830184611c06565b92915050565b60006020820190506120166000830184611c15565b92915050565b600060608201905081810360008301526120368186611c5d565b90506120456020830185611f5b565b6120526040830184611c06565b949350505050565b6000602082019050818103600083015261207381611cc7565b9050919050565b6000602082019050818103600083015261209381611d07565b9050919050565b600060208201905081810360008301526120b381611d6d565b9050919050565b600060208201905081810360008301526120d381611dd3565b9050919050565b600060208201905081810360008301526120f381611e13565b9050919050565b6000602082019050818103600083015261211381611e53565b9050919050565b6000602082019050818103600083015261213381611e93565b9050919050565b600060208201905081810360008301526121548184611ed3565b905092915050565b60006020820190506121716000830184611f3d565b92915050565b6000604051905081810181811067ffffffffffffffff8211171561219a57600080fd5b8060405250919050565b600067ffffffffffffffff8211156121bb57600080fd5b601f19601f8301169050602081019050919050565b6000819050602082019050919050565b600081519050919050565b600081519050919050565b6000602082019050919050565b600082825260208201905092915050565b600082825260208201905092915050565b600082825260208201905092915050565b600082825260208201905092915050565b600081905092915050565b600061225d8261228c565b9050919050565b600061226f8261228c565b9050919050565b60008115159050919050565b6000819050919050565b600073ffffffffffffffffffffffffffffffffffffffff82169050919050565b6000819050919050565b600060ff82169050919050565b82818337600083830152505050565b60005b838110156122f05780820151818401526020810190506122d5565b838111156122ff576000848401525b50505050565b600061231082612317565b9050919050565b60006123228261233a565b9050919050565b6000601f19601f8301169050919050565b60008160601b9050919050565b61235081612252565b811461235b57600080fd5b50565b61236781612282565b811461237257600080fd5b50565b61237e816122ac565b811461238957600080fd5b50565b612395816122b6565b81146123a057600080fd5b5056fea26469706673582212206ce45a3ffa798799a659fcebb1ad56053cb0b49bec2a4a225fa01ebcf178c36064736f6c63430007000033",
  "source": "// SPDX-License-Identifier: UNLICENSED\n\npragma solidity ^0.7.0;\npragma experimental ABIEncoderV2;\n\nimport \"@openzeppelin/contracts/access/Ownable.sol\";\n\ncontract BookLibrary is Ownable {\n    bytes32[] public booksIds;\n    mapping(bytes32 => Book) public books;\n\n    mapping(bytes32 => bool) private userBorrowedBooks;\n    mapping(bytes32 => mapping (address => bool)) private hasUserBorrowedBefore;\n\n    struct Book {\n        string name;\n        uint8 copies;\n        address[] borrowers;\n        bool exists;\n    }\n    \n    modifier bookShouldExist(string memory _name, bool shouldExist) {\n        bytes32 encodedName = keccak256(abi.encodePacked(_name));\n        if (shouldExist) {\n          require(books[encodedName].exists == true, \"Book doesn't exist!\");\n        } else {\n          require(books[encodedName].exists == false, \"Book already exists!\");\n        }\n        _;\n    }\n\n    function addBook (string memory _name, uint8 _copies) external onlyOwner bookShouldExist(_name, false) {\n        bytes32 encodedName = keccak256(abi.encodePacked(_name));\n\n        address[] memory borrowers;\n        Book memory newBook = Book(_name, _copies, borrowers, true);\n        booksIds.push(encodedName);\n        books[encodedName] = newBook;\n    }\n    \n    function addCopies(string memory _bookName, uint8 _copies) external onlyOwner bookShouldExist(_bookName, true) {\n        bytes32 encodedName = keccak256(abi.encodePacked(_bookName));\n        books[encodedName].copies += _copies;\n    }\n    \n    function borrowBook(string memory _bookName) external bookShouldExist(_bookName, true){    \n        bytes32 encodedName = keccak256(abi.encodePacked(_bookName));\n        Book storage book = books[encodedName]; \n\n        // User can't borrow booksArray with no copies left;\n        require(book.copies > 0, \"No more copies left\");\n    \n        // User shouldn't borrow the same book more than once;\n        bytes32 hash = keccak256(abi.encodePacked(msg.sender, _bookName));\n        require(userBorrowedBooks[hash] == false, \"You've already borrowed the book\");\n        \n        userBorrowedBooks[hash] = true;\n        book.copies--;\n        if (hasUserBorrowedBefore[encodedName][msg.sender] == false) {\n            book.borrowers.push(msg.sender);\n            hasUserBorrowedBefore[encodedName][msg.sender] = true;\n        }\n    }\n    \n    function returnBook(string memory _bookName) external bookShouldExist(_bookName, true) {\n        //Check if user has borrowed this book;\n        bytes32 hash = keccak256(abi.encodePacked(msg.sender, _bookName));\n        require(userBorrowedBooks[hash] == true, \"You can't return a book that you haven't borrowed\");\n        \n        bytes32 encodedName = keccak256(abi.encodePacked(_bookName));\n        Book storage book = books[encodedName];\n        book.copies++;\n        userBorrowedBooks[hash] = false;\n    }\n    \n\n    function getBorrowers(string memory _bookName) external view bookShouldExist(_bookName, true) returns (address[] memory) {\n        bytes32 encodedName = keccak256(abi.encodePacked(_bookName));\n        return books[encodedName].borrowers;\n    }\n\n    function getBook (string memory _bookName) external view bookShouldExist(_bookName, true) returns (Book memory) {\n        bytes32 encodedName = keccak256(abi.encodePacked(_bookName));\n        return books[encodedName];\n    }\n\n    function isBookBorrowedByCurrentUser(string memory _bookName) external view bookShouldExist(_bookName, true) returns(bool) {\n        bytes32 key = keccak256(abi.encodePacked(msg.sender, _bookName));\n        return userBorrowedBooks[key];\n    }\n\n    function getBooksCount() external view returns(uint) {\n        return booksIds.length;\n    }  \n}",
  "sourcePath": "/Users/viktortodorov/Desktop/BookLibrary/contracts/BookLibrary.sol",
  "compiler": {
    "name": "solc",
    "version": "0.7.0+commit.9e61f92b.Emscripten.clang",
    "optimizer": false,
    "runs": 200
  },
  "schemaVersion": "2.3.5",
  "updatedAt": "2021-06-11T06:42:47.611Z"
}