{
  "contractName": "BookLibrary",
  "abi": [
    {
      "inputs": [
        {
          "internalType": "address payable",
          "name": "_wrapperAddress",
          "type": "address"
        },
        {
          "internalType": "address",
          "name": "_tokenAddress",
          "type": "address"
        }
      ],
      "stateMutability": "nonpayable",
      "type": "constructor"
    },
    {
      "anonymous": false,
      "inputs": [
        {
          "indexed": false,
          "internalType": "string",
          "name": "bookName",
          "type": "string"
        },
        {
          "indexed": false,
          "internalType": "uint8",
          "name": "copies",
          "type": "uint8"
        }
      ],
      "name": "LogBookAdded",
      "type": "event"
    },
    {
      "anonymous": false,
      "inputs": [
        {
          "indexed": false,
          "internalType": "string",
          "name": "bookName",
          "type": "string"
        },
        {
          "indexed": false,
          "internalType": "address",
          "name": "borrower",
          "type": "address"
        }
      ],
      "name": "LogBookBorrowed",
      "type": "event"
    },
    {
      "anonymous": false,
      "inputs": [
        {
          "indexed": false,
          "internalType": "string",
          "name": "bookName",
          "type": "string"
        },
        {
          "indexed": false,
          "internalType": "address",
          "name": "returner",
          "type": "address"
        }
      ],
      "name": "LogBookReturned",
      "type": "event"
    },
    {
      "anonymous": false,
      "inputs": [
        {
          "indexed": true,
          "internalType": "address",
          "name": "previousOwner",
          "type": "address"
        },
        {
          "indexed": true,
          "internalType": "address",
          "name": "newOwner",
          "type": "address"
        }
      ],
      "name": "OwnershipTransferred",
      "type": "event"
    },
    {
      "inputs": [],
      "name": "LIBToken",
      "outputs": [
        {
          "internalType": "contract LibraryToken",
          "name": "",
          "type": "address"
        }
      ],
      "stateMutability": "view",
      "type": "function"
    },
    {
      "inputs": [],
      "name": "LIBTokenWrapper",
      "outputs": [
        {
          "internalType": "contract LIBWrapper",
          "name": "",
          "type": "address"
        }
      ],
      "stateMutability": "view",
      "type": "function"
    },
    {
      "inputs": [
        {
          "internalType": "bytes32",
          "name": "",
          "type": "bytes32"
        }
      ],
      "name": "books",
      "outputs": [
        {
          "internalType": "string",
          "name": "name",
          "type": "string"
        },
        {
          "internalType": "uint8",
          "name": "copies",
          "type": "uint8"
        },
        {
          "internalType": "bool",
          "name": "exists",
          "type": "bool"
        }
      ],
      "stateMutability": "view",
      "type": "function"
    },
    {
      "inputs": [
        {
          "internalType": "uint256",
          "name": "",
          "type": "uint256"
        }
      ],
      "name": "booksIds",
      "outputs": [
        {
          "internalType": "bytes32",
          "name": "",
          "type": "bytes32"
        }
      ],
      "stateMutability": "view",
      "type": "function"
    },
    {
      "inputs": [],
      "name": "libTokenWrapperAddress",
      "outputs": [
        {
          "internalType": "address payable",
          "name": "",
          "type": "address"
        }
      ],
      "stateMutability": "view",
      "type": "function"
    },
    {
      "inputs": [],
      "name": "owner",
      "outputs": [
        {
          "internalType": "address",
          "name": "",
          "type": "address"
        }
      ],
      "stateMutability": "view",
      "type": "function"
    },
    {
      "inputs": [],
      "name": "renounceOwnership",
      "outputs": [],
      "stateMutability": "nonpayable",
      "type": "function"
    },
    {
      "inputs": [],
      "name": "rentFee",
      "outputs": [
        {
          "internalType": "uint256",
          "name": "",
          "type": "uint256"
        }
      ],
      "stateMutability": "view",
      "type": "function"
    },
    {
      "inputs": [
        {
          "internalType": "address",
          "name": "newOwner",
          "type": "address"
        }
      ],
      "name": "transferOwnership",
      "outputs": [],
      "stateMutability": "nonpayable",
      "type": "function"
    },
    {
      "stateMutability": "payable",
      "type": "receive"
    },
    {
      "inputs": [
        {
          "internalType": "string",
          "name": "_name",
          "type": "string"
        },
        {
          "internalType": "uint8",
          "name": "_copies",
          "type": "uint8"
        }
      ],
      "name": "addBook",
      "outputs": [],
      "stateMutability": "nonpayable",
      "type": "function"
    },
    {
      "inputs": [
        {
          "internalType": "string",
          "name": "_bookName",
          "type": "string"
        },
        {
          "internalType": "uint8",
          "name": "_copies",
          "type": "uint8"
        }
      ],
      "name": "addCopies",
      "outputs": [],
      "stateMutability": "nonpayable",
      "type": "function"
    },
    {
      "inputs": [
        {
          "internalType": "string",
          "name": "_bookName",
          "type": "string"
        }
      ],
      "name": "borrowBook",
      "outputs": [],
      "stateMutability": "nonpayable",
      "type": "function"
    },
    {
      "inputs": [
        {
          "internalType": "string",
          "name": "_bookName",
          "type": "string"
        },
        {
          "internalType": "uint256",
          "name": "value",
          "type": "uint256"
        },
        {
          "internalType": "uint256",
          "name": "deadline",
          "type": "uint256"
        },
        {
          "internalType": "uint8",
          "name": "v",
          "type": "uint8"
        },
        {
          "internalType": "bytes32",
          "name": "r",
          "type": "bytes32"
        },
        {
          "internalType": "bytes32",
          "name": "s",
          "type": "bytes32"
        }
      ],
      "name": "borrowBookWithPermit",
      "outputs": [],
      "stateMutability": "nonpayable",
      "type": "function"
    },
    {
      "inputs": [
        {
          "internalType": "string",
          "name": "_bookName",
          "type": "string"
        },
        {
          "internalType": "bytes32",
          "name": "hashedMessage",
          "type": "bytes32"
        },
        {
          "internalType": "uint8",
          "name": "v",
          "type": "uint8"
        },
        {
          "internalType": "bytes32",
          "name": "r",
          "type": "bytes32"
        },
        {
          "internalType": "bytes32",
          "name": "s",
          "type": "bytes32"
        },
        {
          "internalType": "address",
          "name": "receiver",
          "type": "address"
        }
      ],
      "name": "borrowBookWithSignature",
      "outputs": [],
      "stateMutability": "nonpayable",
      "type": "function"
    },
    {
      "inputs": [
        {
          "internalType": "string",
          "name": "_bookName",
          "type": "string"
        },
        {
          "internalType": "bytes32",
          "name": "hashedMessage",
          "type": "bytes32"
        },
        {
          "internalType": "uint8",
          "name": "v",
          "type": "uint8"
        },
        {
          "internalType": "bytes32",
          "name": "r",
          "type": "bytes32"
        },
        {
          "internalType": "bytes32",
          "name": "s",
          "type": "bytes32"
        },
        {
          "internalType": "address",
          "name": "receiver",
          "type": "address"
        }
      ],
      "name": "borrowOnBehalfOf",
      "outputs": [],
      "stateMutability": "nonpayable",
      "type": "function"
    },
    {
      "inputs": [
        {
          "internalType": "string",
          "name": "_bookName",
          "type": "string"
        }
      ],
      "name": "returnBook",
      "outputs": [],
      "stateMutability": "nonpayable",
      "type": "function"
    },
    {
      "inputs": [],
      "name": "withdrawLibTokens",
      "outputs": [],
      "stateMutability": "nonpayable",
      "type": "function"
    },
    {
      "inputs": [],
      "name": "withdrawETH",
      "outputs": [],
      "stateMutability": "payable",
      "type": "function"
    },
    {
      "inputs": [
        {
          "internalType": "string",
          "name": "_bookName",
          "type": "string"
        }
      ],
      "name": "getBorrowers",
      "outputs": [
        {
          "internalType": "address[]",
          "name": "",
          "type": "address[]"
        }
      ],
      "stateMutability": "view",
      "type": "function"
    },
    {
      "inputs": [
        {
          "internalType": "string",
          "name": "_bookName",
          "type": "string"
        }
      ],
      "name": "getBook",
      "outputs": [
        {
          "components": [
            {
              "internalType": "string",
              "name": "name",
              "type": "string"
            },
            {
              "internalType": "uint8",
              "name": "copies",
              "type": "uint8"
            },
            {
              "internalType": "address[]",
              "name": "borrowers",
              "type": "address[]"
            },
            {
              "internalType": "bool",
              "name": "exists",
              "type": "bool"
            }
          ],
          "internalType": "struct BookLibrary.Book",
          "name": "",
          "type": "tuple"
        }
      ],
      "stateMutability": "view",
      "type": "function"
    },
    {
      "inputs": [
        {
          "internalType": "string",
          "name": "_bookName",
          "type": "string"
        }
      ],
      "name": "isBookBorrowedByCurrentUser",
      "outputs": [
        {
          "internalType": "bool",
          "name": "",
          "type": "bool"
        }
      ],
      "stateMutability": "view",
      "type": "function"
    },
    {
      "inputs": [],
      "name": "getBooksCount",
      "outputs": [
        {
          "internalType": "uint256",
          "name": "",
          "type": "uint256"
        }
      ],
      "stateMutability": "view",
      "type": "function"
    }
  ],
  "bytecode": "0x6080604052662386f26fc100006004553480156200001c57600080fd5b50604051620047cd380380620047cd8339818101604052810190620000429190620001f3565b600062000054620001bd60201b60201c565b9050806000806101000a81548173ffffffffffffffffffffffffffffffffffffffff021916908373ffffffffffffffffffffffffffffffffffffffff1602179055508073ffffffffffffffffffffffffffffffffffffffff16600073ffffffffffffffffffffffffffffffffffffffff167f8be0079c531659141344cd1fd0a4f28419497f9722a3daafe3b4186f6b6457e060405160405180910390a35080600160006101000a81548173ffffffffffffffffffffffffffffffffffffffff021916908373ffffffffffffffffffffffffffffffffffffffff16021790555081600260006101000a81548173ffffffffffffffffffffffffffffffffffffffff021916908373ffffffffffffffffffffffffffffffffffffffff16021790555081600360006101000a81548173ffffffffffffffffffffffffffffffffffffffff021916908373ffffffffffffffffffffffffffffffffffffffff1602179055505050620002b0565b600033905090565b600081519050620001d6816200027c565b92915050565b600081519050620001ed8162000296565b92915050565b600080604083850312156200020757600080fd5b60006200021785828601620001dc565b92505060206200022a85828601620001c5565b9150509250929050565b600062000241826200025c565b9050919050565b600062000255826200025c565b9050919050565b600073ffffffffffffffffffffffffffffffffffffffff82169050919050565b620002878162000234565b81146200029357600080fd5b50565b620002a18162000248565b8114620002ad57600080fd5b50565b61450d80620002c06000396000f3fe6080604052600436106101395760003560e01c8063b0f9e48a116100ab578063ced96fe31161006f578063ced96fe31461041f578063d3e78ee414610448578063dfd83d2a14610471578063e086e5ec1461049c578063e2cd0d2d146104a6578063f2fde38b146104d157610140565b8063b0f9e48a14610338578063b66d5c911461034f578063bf2b23ea1461038c578063c37a8361146103b7578063c43c1dd6146103f457610140565b8063533c9731116100fd578063533c97311461022a578063582bcda514610267578063715018a6146102a45780638da5cb5b146102bb578063a63ac38e146102e6578063acc5f0471461030f57610140565b80630c0dee70146101455780631ba3192b146101845780631ef49a8c146101af5780632c224b32146101d85780633ec2df5d1461020157610140565b3661014057005b600080fd5b34801561015157600080fd5b5061016c600480360381019061016791906134a8565b6104fa565b60405161017b93929190614036565b60405180910390f35b34801561019057600080fd5b506101996105d6565b6040516101a69190613f8b565b60405180910390f35b3480156101bb57600080fd5b506101d660048036038101906101d191906134fa565b6105fc565b005b3480156101e457600080fd5b506101ff60048036038101906101fa91906135dc565b610882565b005b34801561020d57600080fd5b506102286004803603810190610223919061367d565b610e4c565b005b34801561023657600080fd5b50610251600480360381019061024c91906134fa565b61104a565b60405161025e9190613ef5565b60405180910390f35b34801561027357600080fd5b5061028e600480360381019061028991906134fa565b6111b3565b60405161029b9190613ed3565b60405180910390f35b3480156102b057600080fd5b506102b9611394565b005b3480156102c757600080fd5b506102d06114ce565b6040516102dd9190613d7c565b60405180910390f35b3480156102f257600080fd5b5061030d6004803603810190610308919061367d565b6114f7565b005b34801561031b57600080fd5b506103366004803603810190610331919061353b565b6117dc565b005b34801561034457600080fd5b5061034d611da8565b005b34801561035b57600080fd5b50610376600480360381019061037191906136d1565b612078565b6040516103839190613f10565b60405180910390f35b34801561039857600080fd5b506103a1612099565b6040516103ae91906141b6565b60405180910390f35b3480156103c357600080fd5b506103de60048036038101906103d991906134fa565b61209f565b6040516103eb9190614194565b60405180910390f35b34801561040057600080fd5b50610409612371565b6040516104169190613f70565b60405180910390f35b34801561042b57600080fd5b50610446600480360381019061044191906134fa565b612397565b005b34801561045457600080fd5b5061046f600480360381019061046a919061353b565b6128e5565b005b34801561047d57600080fd5b50610486612eb1565b60405161049391906141b6565b60405180910390f35b6104a4612ebe565b005b3480156104b257600080fd5b506104bb612f83565b6040516104c89190613db2565b60405180910390f35b3480156104dd57600080fd5b506104f860048036038101906104f39190613456565b612fa9565b005b6006602052806000526040600020600091509050806000018054600181600116156101000203166002900480601f0160208091040260200160405190810160405280929190818152602001828054600181600116156101000203166002900480156105a65780601f1061057b576101008083540402835291602001916105a6565b820191906000526020600020905b81548152906001019060200180831161058957829003601f168201915b5050505050908060010160009054906101000a900460ff16908060030160009054906101000a900460ff16905083565b600160009054906101000a900473ffffffffffffffffffffffffffffffffffffffff1681565b8060016000826040516020016106129190613d3f565b604051602081830303815290604052805190602001209050811561069f57600115156006600083815260200190815260200160002060030160009054906101000a900460ff1615151461069a576040517f08c379a000000000000000000000000000000000000000000000000000000000815260040161069190614154565b60405180910390fd5b61070a565b600015156006600083815260200190815260200160002060030160009054906101000a900460ff16151514610709576040517f08c379a000000000000000000000000000000000000000000000000000000000815260040161070090614114565b60405180910390fd5b5b6000338560405160200161071f929190613cef565b604051602081830303815290604052805190602001209050600115156007600083815260200190815260200160002060009054906101000a900460ff1615151461079e576040517f08c379a0000000000000000000000000000000000000000000000000000000008152600401610795906140d4565b60405180910390fd5b6000856040516020016107b19190613d3f565b604051602081830303815290604052805190602001209050600060066000838152602001908152602001600020905080600101600081819054906101000a900460ff168092919060010191906101000a81548160ff021916908360ff1602179055505060006007600085815260200190815260200160002060006101000a81548160ff0219169083151502179055507f85a44c5a2eee90e84b72a99b84ef7d745f384551951b8fe780fc0645f1c27d898733604051610871929190613fd6565b60405180910390a150505050505050565b8560016000826040516020016108989190613d3f565b604051602081830303815290604052805190602001209050811561092557600115156006600083815260200190815260200160002060030160009054906101000a900460ff16151514610920576040517f08c379a000000000000000000000000000000000000000000000000000000000815260040161091790614154565b60405180910390fd5b610990565b600015156006600083815260200190815260200160002060030160009054906101000a900460ff1615151461098f576040517f08c379a000000000000000000000000000000000000000000000000000000000815260040161098690614114565b60405180910390fd5b5b6000896040516020016109a39190613d3f565b604051602081830303815290604052805190602001209050600060066000838152602001908152602001600020905060008160010160009054906101000a900460ff1660ff1611610a29576040517f08c379a0000000000000000000000000000000000000000000000000000000008152600401610a2090614094565b60405180910390fd5b6000338c604051602001610a3e929190613cef565b604051602081830303815290604052805190602001209050600015156007600083815260200190815260200160002060009054906101000a900460ff16151514610abd576040517f08c379a0000000000000000000000000000000000000000000000000000000008152600401610ab490614174565b60405180910390fd5b6000600260009054906101000a900473ffffffffffffffffffffffffffffffffffffffff1673ffffffffffffffffffffffffffffffffffffffff16631ba3192b6040518163ffffffff1660e01b815260040160206040518083038186803b158015610b2757600080fd5b505afa158015610b3b573d6000803e3d6000fd5b505050506040513d601f19601f82011682018060405250810190610b5f91906134d1565b90508073ffffffffffffffffffffffffffffffffffffffff1663d505accf33308f8f8f8f8f6040518863ffffffff1660e01b8152600401610ba69796959493929190613e04565b600060405180830381600087803b158015610bc057600080fd5b505af1158015610bd4573d6000803e3d6000fd5b505050508073ffffffffffffffffffffffffffffffffffffffff166323b872dd33306004546040518463ffffffff1660e01b8152600401610c1793929190613dcd565b602060405180830381600087803b158015610c3157600080fd5b505af1158015610c45573d6000803e3d6000fd5b505050506040513d601f19601f82011682018060405250810190610c69919061347f565b5060016007600084815260200190815260200160002060006101000a81548160ff02191690831515021790555082600101600081819054906101000a900460ff16809291906001900391906101000a81548160ff021916908360ff16021790555050600015156008600086815260200190815260200160002060003373ffffffffffffffffffffffffffffffffffffffff1673ffffffffffffffffffffffffffffffffffffffff16815260200190815260200160002060009054906101000a900460ff1615151415610e045782600201339080600181540180825580915050600190039060005260206000200160009091909190916101000a81548173ffffffffffffffffffffffffffffffffffffffff021916908373ffffffffffffffffffffffffffffffffffffffff16021790555060016008600086815260200190815260200160002060003373ffffffffffffffffffffffffffffffffffffffff1673ffffffffffffffffffffffffffffffffffffffff16815260200190815260200160002060006101000a81548160ff0219169083151502179055505b7f98a96a27b2755bcd656b9e243159ba0f25cc02a0e56bf8d0bd5ddd80d8a0cbfe8d33604051610e35929190613fd6565b60405180910390a150505050505050505050505050565b610e54613152565b73ffffffffffffffffffffffffffffffffffffffff16610e726114ce565b73ffffffffffffffffffffffffffffffffffffffff1614610ec8576040517f08c379a0000000000000000000000000000000000000000000000000000000008152600401610ebf906140f4565b60405180910390fd5b816001600082604051602001610ede9190613d3f565b6040516020818303038152906040528051906020012090508115610f6b57600115156006600083815260200190815260200160002060030160009054906101000a900460ff16151514610f66576040517f08c379a0000000000000000000000000000000000000000000000000000000008152600401610f5d90614154565b60405180910390fd5b610fd6565b600015156006600083815260200190815260200160002060030160009054906101000a900460ff16151514610fd5576040517f08c379a0000000000000000000000000000000000000000000000000000000008152600401610fcc90614114565b60405180910390fd5b5b600085604051602001610fe99190613d3f565b604051602081830303815290604052805190602001209050846006600083815260200190815260200160002060010160008282829054906101000a900460ff160192506101000a81548160ff021916908360ff160217905550505050505050565b60008160016000826040516020016110629190613d3f565b60405160208183030381529060405280519060200120905081156110ef57600115156006600083815260200190815260200160002060030160009054906101000a900460ff161515146110ea576040517f08c379a00000000000000000000000000000000000000000000000000000000081526004016110e190614154565b60405180910390fd5b61115a565b600015156006600083815260200190815260200160002060030160009054906101000a900460ff16151514611159576040517f08c379a000000000000000000000000000000000000000000000000000000000815260040161115090614114565b60405180910390fd5b5b6000338660405160200161116f929190613cef565b6040516020818303038152906040528051906020012090506007600082815260200190815260200160002060009054906101000a900460ff16945050505050919050565b60608160016000826040516020016111cb9190613d3f565b604051602081830303815290604052805190602001209050811561125857600115156006600083815260200190815260200160002060030160009054906101000a900460ff16151514611253576040517f08c379a000000000000000000000000000000000000000000000000000000000815260040161124a90614154565b60405180910390fd5b6112c3565b600015156006600083815260200190815260200160002060030160009054906101000a900460ff161515146112c2576040517f08c379a00000000000000000000000000000000000000000000000000000000081526004016112b990614114565b60405180910390fd5b5b6000856040516020016112d69190613d3f565b6040516020818303038152906040528051906020012090506006600082815260200190815260200160002060020180548060200260200160405190810160405280929190818152602001828054801561138457602002820191906000526020600020905b8160009054906101000a900473ffffffffffffffffffffffffffffffffffffffff1673ffffffffffffffffffffffffffffffffffffffff168152602001906001019080831161133a575b5050505050945050505050919050565b61139c613152565b73ffffffffffffffffffffffffffffffffffffffff166113ba6114ce565b73ffffffffffffffffffffffffffffffffffffffff1614611410576040517f08c379a0000000000000000000000000000000000000000000000000000000008152600401611407906140f4565b60405180910390fd5b600073ffffffffffffffffffffffffffffffffffffffff1660008054906101000a900473ffffffffffffffffffffffffffffffffffffffff1673ffffffffffffffffffffffffffffffffffffffff167f8be0079c531659141344cd1fd0a4f28419497f9722a3daafe3b4186f6b6457e060405160405180910390a360008060006101000a81548173ffffffffffffffffffffffffffffffffffffffff021916908373ffffffffffffffffffffffffffffffffffffffff160217905550565b60008060009054906101000a900473ffffffffffffffffffffffffffffffffffffffff16905090565b6114ff613152565b73ffffffffffffffffffffffffffffffffffffffff1661151d6114ce565b73ffffffffffffffffffffffffffffffffffffffff1614611573576040517f08c379a000000000000000000000000000000000000000000000000000000000815260040161156a906140f4565b60405180910390fd5b81600080826040516020016115889190613d3f565b604051602081830303815290604052805190602001209050811561161557600115156006600083815260200190815260200160002060030160009054906101000a900460ff16151514611610576040517f08c379a000000000000000000000000000000000000000000000000000000000815260040161160790614154565b60405180910390fd5b611680565b600015156006600083815260200190815260200160002060030160009054906101000a900460ff1615151461167f576040517f08c379a000000000000000000000000000000000000000000000000000000000815260040161167690614114565b60405180910390fd5b5b6000856040516020016116939190613d3f565b60405160208183030381529060405280519060200120905060606116b56131e0565b60405180608001604052808981526020018860ff16815260200183815260200160011515815250905060058390806001815401808255809150506001900390600052602060002001600090919091909150558060066000858152602001908152602001600020600082015181600001908051906020019061173792919061320d565b5060208201518160010160006101000a81548160ff021916908360ff160217905550604082015181600201908051906020019061177592919061328d565b5060608201518160030160006101000a81548160ff0219169083151502179055509050507f752e0e9d31b708fdf71a47493e8fc65e25693a74c6a57be3daf36cfca821b60488886040516117ca929190614006565b60405180910390a15050505050505050565b8560016000826040516020016117f29190613d3f565b604051602081830303815290604052805190602001209050811561187f57600115156006600083815260200190815260200160002060030160009054906101000a900460ff1615151461187a576040517f08c379a000000000000000000000000000000000000000000000000000000000815260040161187190614154565b60405180910390fd5b6118ea565b600015156006600083815260200190815260200160002060030160009054906101000a900460ff161515146118e9576040517f08c379a00000000000000000000000000000000000000000000000000000000081526004016118e090614114565b60405180910390fd5b5b6000896040516020016118fd9190613d3f565b604051602081830303815290604052805190602001209050600060066000838152602001908152602001600020905060008160010160009054906101000a900460ff1660ff1611611983576040517f08c379a000000000000000000000000000000000000000000000000000000000815260040161197a90614094565b60405180910390fd5b8573ffffffffffffffffffffffffffffffffffffffff166119a68b8b8b8b61315a565b73ffffffffffffffffffffffffffffffffffffffff16146119fc576040517f08c379a00000000000000000000000000000000000000000000000000000000081526004016119f390614074565b60405180910390fd5b6000868c604051602001611a11929190613d17565b604051602081830303815290604052805190602001209050600015156007600083815260200190815260200160002060009054906101000a900460ff16151514611a90576040517f08c379a0000000000000000000000000000000000000000000000000000000008152600401611a8790614174565b60405180910390fd5b6000600260009054906101000a900473ffffffffffffffffffffffffffffffffffffffff1673ffffffffffffffffffffffffffffffffffffffff16631ba3192b6040518163ffffffff1660e01b815260040160206040518083038186803b158015611afa57600080fd5b505afa158015611b0e573d6000803e3d6000fd5b505050506040513d601f19601f82011682018060405250810190611b3291906134d1565b90508073ffffffffffffffffffffffffffffffffffffffff166323b872dd89306004546040518463ffffffff1660e01b8152600401611b7393929190613e9c565b602060405180830381600087803b158015611b8d57600080fd5b505af1158015611ba1573d6000803e3d6000fd5b505050506040513d601f19601f82011682018060405250810190611bc5919061347f565b5060016007600084815260200190815260200160002060006101000a81548160ff02191690831515021790555082600101600081819054906101000a900460ff16809291906001900391906101000a81548160ff021916908360ff16021790555050600015156008600086815260200190815260200160002060008a73ffffffffffffffffffffffffffffffffffffffff1673ffffffffffffffffffffffffffffffffffffffff16815260200190815260200160002060009054906101000a900460ff1615151415611d605782600201889080600181540180825580915050600190039060005260206000200160009091909190916101000a81548173ffffffffffffffffffffffffffffffffffffffff021916908373ffffffffffffffffffffffffffffffffffffffff16021790555060016008600086815260200190815260200160002060008a73ffffffffffffffffffffffffffffffffffffffff1673ffffffffffffffffffffffffffffffffffffffff16815260200190815260200160002060006101000a81548160ff0219169083151502179055505b7f98a96a27b2755bcd656b9e243159ba0f25cc02a0e56bf8d0bd5ddd80d8a0cbfe8d89604051611d91929190613fa6565b60405180910390a150505050505050505050505050565b611db0613152565b73ffffffffffffffffffffffffffffffffffffffff16611dce6114ce565b73ffffffffffffffffffffffffffffffffffffffff1614611e24576040517f08c379a0000000000000000000000000000000000000000000000000000000008152600401611e1b906140f4565b60405180910390fd5b6000600160009054906101000a900473ffffffffffffffffffffffffffffffffffffffff1673ffffffffffffffffffffffffffffffffffffffff166370a08231306040518263ffffffff1660e01b8152600401611e819190613d97565b60206040518083038186803b158015611e9957600080fd5b505afa158015611ead573d6000803e3d6000fd5b505050506040513d601f19601f82011682018060405250810190611ed191906136fa565b905060008111611f16576040517f08c379a0000000000000000000000000000000000000000000000000000000008152600401611f0d90614134565b60405180910390fd5b600160009054906101000a900473ffffffffffffffffffffffffffffffffffffffff1673ffffffffffffffffffffffffffffffffffffffff1663095ea7b3600360009054906101000a900473ffffffffffffffffffffffffffffffffffffffff16836040518363ffffffff1660e01b8152600401611f95929190613e73565b602060405180830381600087803b158015611faf57600080fd5b505af1158015611fc3573d6000803e3d6000fd5b505050506040513d601f19601f82011682018060405250810190611fe7919061347f565b50600260009054906101000a900473ffffffffffffffffffffffffffffffffffffffff1673ffffffffffffffffffffffffffffffffffffffff1663de0e9a3e826040518263ffffffff1660e01b815260040161204391906141b6565b600060405180830381600087803b15801561205d57600080fd5b505af1158015612071573d6000803e3d6000fd5b5050505050565b6005818154811061208557fe5b906000526020600020016000915090505481565b60045481565b6120a76131e0565b8160016000826040516020016120bd9190613d3f565b604051602081830303815290604052805190602001209050811561214a57600115156006600083815260200190815260200160002060030160009054906101000a900460ff16151514612145576040517f08c379a000000000000000000000000000000000000000000000000000000000815260040161213c90614154565b60405180910390fd5b6121b5565b600015156006600083815260200190815260200160002060030160009054906101000a900460ff161515146121b4576040517f08c379a00000000000000000000000000000000000000000000000000000000081526004016121ab90614114565b60405180910390fd5b5b6000856040516020016121c89190613d3f565b60405160208183030381529060405280519060200120905060066000828152602001908152602001600020604051806080016040529081600082018054600181600116156101000203166002900480601f0160208091040260200160405190810160405280929190818152602001828054600181600116156101000203166002900480156122975780601f1061226c57610100808354040283529160200191612297565b820191906000526020600020905b81548152906001019060200180831161227a57829003601f168201915b505050505081526020016001820160009054906101000a900460ff1660ff1660ff1681526020016002820180548060200260200160405190810160405280929190818152602001828054801561234257602002820191906000526020600020905b8160009054906101000a900473ffffffffffffffffffffffffffffffffffffffff1673ffffffffffffffffffffffffffffffffffffffff16815260200190600101908083116122f8575b505050505081526020016003820160009054906101000a900460ff161515151581525050945050505050919050565b600260009054906101000a900473ffffffffffffffffffffffffffffffffffffffff1681565b8060016000826040516020016123ad9190613d3f565b604051602081830303815290604052805190602001209050811561243a57600115156006600083815260200190815260200160002060030160009054906101000a900460ff16151514612435576040517f08c379a000000000000000000000000000000000000000000000000000000000815260040161242c90614154565b60405180910390fd5b6124a5565b600015156006600083815260200190815260200160002060030160009054906101000a900460ff161515146124a4576040517f08c379a000000000000000000000000000000000000000000000000000000000815260040161249b90614114565b60405180910390fd5b5b6000846040516020016124b89190613d3f565b604051602081830303815290604052805190602001209050600060066000838152602001908152602001600020905060008160010160009054906101000a900460ff1660ff161161253e576040517f08c379a000000000000000000000000000000000000000000000000000000000815260040161253590614094565b60405180910390fd5b60003387604051602001612553929190613cef565b604051602081830303815290604052805190602001209050600015156007600083815260200190815260200160002060009054906101000a900460ff161515146125d2576040517f08c379a00000000000000000000000000000000000000000000000000000000081526004016125c990614174565b60405180910390fd5b6000600260009054906101000a900473ffffffffffffffffffffffffffffffffffffffff1673ffffffffffffffffffffffffffffffffffffffff16631ba3192b6040518163ffffffff1660e01b815260040160206040518083038186803b15801561263c57600080fd5b505afa158015612650573d6000803e3d6000fd5b505050506040513d601f19601f8201168201806040525081019061267491906134d1565b90508073ffffffffffffffffffffffffffffffffffffffff166323b872dd33306004546040518463ffffffff1660e01b81526004016126b593929190613dcd565b602060405180830381600087803b1580156126cf57600080fd5b505af11580156126e3573d6000803e3d6000fd5b505050506040513d601f19601f82011682018060405250810190612707919061347f565b5060016007600084815260200190815260200160002060006101000a81548160ff02191690831515021790555082600101600081819054906101000a900460ff16809291906001900391906101000a81548160ff021916908360ff16021790555050600015156008600086815260200190815260200160002060003373ffffffffffffffffffffffffffffffffffffffff1673ffffffffffffffffffffffffffffffffffffffff16815260200190815260200160002060009054906101000a900460ff16151514156128a25782600201339080600181540180825580915050600190039060005260206000200160009091909190916101000a81548173ffffffffffffffffffffffffffffffffffffffff021916908373ffffffffffffffffffffffffffffffffffffffff16021790555060016008600086815260200190815260200160002060003373ffffffffffffffffffffffffffffffffffffffff1673ffffffffffffffffffffffffffffffffffffffff16815260200190815260200160002060006101000a81548160ff0219169083151502179055505b7f98a96a27b2755bcd656b9e243159ba0f25cc02a0e56bf8d0bd5ddd80d8a0cbfe88336040516128d3929190613fd6565b60405180910390a15050505050505050565b8560016000826040516020016128fb9190613d3f565b604051602081830303815290604052805190602001209050811561298857600115156006600083815260200190815260200160002060030160009054906101000a900460ff16151514612983576040517f08c379a000000000000000000000000000000000000000000000000000000000815260040161297a90614154565b60405180910390fd5b6129f3565b600015156006600083815260200190815260200160002060030160009054906101000a900460ff161515146129f2576040517f08c379a00000000000000000000000000000000000000000000000000000000081526004016129e990614114565b60405180910390fd5b5b600089604051602001612a069190613d3f565b604051602081830303815290604052805190602001209050600060066000838152602001908152602001600020905060008160010160009054906101000a900460ff1660ff1611612a8c576040517f08c379a0000000000000000000000000000000000000000000000000000000008152600401612a8390614094565b60405180910390fd5b8573ffffffffffffffffffffffffffffffffffffffff16612aaf8b8b8b8b61315a565b73ffffffffffffffffffffffffffffffffffffffff1614612b05576040517f08c379a0000000000000000000000000000000000000000000000000000000008152600401612afc90614074565b60405180910390fd5b6000338c604051602001612b1a929190613cef565b604051602081830303815290604052805190602001209050600015156007600083815260200190815260200160002060009054906101000a900460ff16151514612b99576040517f08c379a0000000000000000000000000000000000000000000000000000000008152600401612b9090614174565b60405180910390fd5b6000600260009054906101000a900473ffffffffffffffffffffffffffffffffffffffff1673ffffffffffffffffffffffffffffffffffffffff16631ba3192b6040518163ffffffff1660e01b815260040160206040518083038186803b158015612c0357600080fd5b505afa158015612c17573d6000803e3d6000fd5b505050506040513d601f19601f82011682018060405250810190612c3b91906134d1565b90508073ffffffffffffffffffffffffffffffffffffffff166323b872dd33306004546040518463ffffffff1660e01b8152600401612c7c93929190613dcd565b602060405180830381600087803b158015612c9657600080fd5b505af1158015612caa573d6000803e3d6000fd5b505050506040513d601f19601f82011682018060405250810190612cce919061347f565b5060016007600084815260200190815260200160002060006101000a81548160ff02191690831515021790555082600101600081819054906101000a900460ff16809291906001900391906101000a81548160ff021916908360ff16021790555050600015156008600086815260200190815260200160002060003373ffffffffffffffffffffffffffffffffffffffff1673ffffffffffffffffffffffffffffffffffffffff16815260200190815260200160002060009054906101000a900460ff1615151415612e695782600201339080600181540180825580915050600190039060005260206000200160009091909190916101000a81548173ffffffffffffffffffffffffffffffffffffffff021916908373ffffffffffffffffffffffffffffffffffffffff16021790555060016008600086815260200190815260200160002060003373ffffffffffffffffffffffffffffffffffffffff1673ffffffffffffffffffffffffffffffffffffffff16815260200190815260200160002060006101000a81548160ff0219169083151502179055505b7f98a96a27b2755bcd656b9e243159ba0f25cc02a0e56bf8d0bd5ddd80d8a0cbfe8d33604051612e9a929190613fd6565b60405180910390a150505050505050505050505050565b6000600580549050905090565b612ec6613152565b73ffffffffffffffffffffffffffffffffffffffff16612ee46114ce565b73ffffffffffffffffffffffffffffffffffffffff1614612f3a576040517f08c379a0000000000000000000000000000000000000000000000000000000008152600401612f31906140f4565b60405180910390fd5b3373ffffffffffffffffffffffffffffffffffffffff166108fc479081150290604051600060405180830381858888f19350505050158015612f80573d6000803e3d6000fd5b50565b600360009054906101000a900473ffffffffffffffffffffffffffffffffffffffff1681565b612fb1613152565b73ffffffffffffffffffffffffffffffffffffffff16612fcf6114ce565b73ffffffffffffffffffffffffffffffffffffffff1614613025576040517f08c379a000000000000000000000000000000000000000000000000000000000815260040161301c906140f4565b60405180910390fd5b600073ffffffffffffffffffffffffffffffffffffffff168173ffffffffffffffffffffffffffffffffffffffff161415613095576040517f08c379a000000000000000000000000000000000000000000000000000000000815260040161308c906140b4565b60405180910390fd5b8073ffffffffffffffffffffffffffffffffffffffff1660008054906101000a900473ffffffffffffffffffffffffffffffffffffffff1673ffffffffffffffffffffffffffffffffffffffff167f8be0079c531659141344cd1fd0a4f28419497f9722a3daafe3b4186f6b6457e060405160405180910390a3806000806101000a81548173ffffffffffffffffffffffffffffffffffffffff021916908373ffffffffffffffffffffffffffffffffffffffff16021790555050565b600033905090565b6000808560405160200161316e9190613d56565b604051602081830303815290604052805190602001209050600181868686604051600081526020016040526040516131a99493929190613f2b565b6020604051602081039080840390855afa1580156131cb573d6000803e3d6000fd5b50505060206040510351915050949350505050565b604051806080016040528060608152602001600060ff168152602001606081526020016000151581525090565b828054600181600116156101000203166002900490600052602060002090601f016020900481019282601f1061324e57805160ff191683800117855561327c565b8280016001018555821561327c579182015b8281111561327b578251825591602001919060010190613260565b5b5090506132899190613317565b5090565b828054828255906000526020600020908101928215613306579160200282015b828111156133055782518260006101000a81548173ffffffffffffffffffffffffffffffffffffffff021916908373ffffffffffffffffffffffffffffffffffffffff160217905550916020019190600101906132ad565b5b5090506133139190613334565b5090565b5b80821115613330576000816000905550600101613318565b5090565b5b8082111561336b57600081816101000a81549073ffffffffffffffffffffffffffffffffffffffff021916905550600101613335565b5090565b60008135905061337e8161444d565b92915050565b60008151905061339381614464565b92915050565b6000813590506133a88161447b565b92915050565b6000815190506133bd81614492565b92915050565b600082601f8301126133d457600080fd5b81356133e76133e2826141fe565b6141d1565b9150808252602083016020830185838301111561340357600080fd5b61340e8382846143ad565b50505092915050565b600081359050613426816144a9565b92915050565b60008151905061343b816144a9565b92915050565b600081359050613450816144c0565b92915050565b60006020828403121561346857600080fd5b60006134768482850161336f565b91505092915050565b60006020828403121561349157600080fd5b600061349f84828501613384565b91505092915050565b6000602082840312156134ba57600080fd5b60006134c884828501613399565b91505092915050565b6000602082840312156134e357600080fd5b60006134f1848285016133ae565b91505092915050565b60006020828403121561350c57600080fd5b600082013567ffffffffffffffff81111561352657600080fd5b613532848285016133c3565b91505092915050565b60008060008060008060c0878903121561355457600080fd5b600087013567ffffffffffffffff81111561356e57600080fd5b61357a89828a016133c3565b965050602061358b89828a01613399565b955050604061359c89828a01613441565b94505060606135ad89828a01613399565b93505060806135be89828a01613399565b92505060a06135cf89828a0161336f565b9150509295509295509295565b60008060008060008060c087890312156135f557600080fd5b600087013567ffffffffffffffff81111561360f57600080fd5b61361b89828a016133c3565b965050602061362c89828a01613417565b955050604061363d89828a01613417565b945050606061364e89828a01613441565b935050608061365f89828a01613399565b92505060a061367089828a01613399565b9150509295509295509295565b6000806040838503121561369057600080fd5b600083013567ffffffffffffffff8111156136aa57600080fd5b6136b6858286016133c3565b92505060206136c785828601613441565b9150509250929050565b6000602082840312156136e357600080fd5b60006136f184828501613417565b91505092915050565b60006020828403121561370c57600080fd5b600061371a8482850161342c565b91505092915050565b600061372f8383613770565b60208301905092915050565b6137448161432f565b82525050565b613753816142be565b82525050565b61376a613765826142be565b614401565b82525050565b613779816142ac565b82525050565b613788816142ac565b82525050565b61379f61379a826142ac565b6143ef565b82525050565b60006137b08261423a565b6137ba818561425d565b93506137c58361422a565b8060005b838110156137f65781516137dd8882613723565b97506137e883614250565b9250506001810190506137c9565b5085935050505092915050565b600061380e8261423a565b613818818561426e565b93506138238361422a565b8060005b8381101561385457815161383b8882613723565b975061384683614250565b925050600181019050613827565b5085935050505092915050565b61386a816142d0565b82525050565b613879816142d0565b82525050565b613888816142dc565b82525050565b61389f61389a826142dc565b614413565b82525050565b6138ae81614341565b82525050565b6138bd81614365565b82525050565b60006138ce82614245565b6138d8818561427f565b93506138e88185602086016143bc565b6138f18161442f565b840191505092915050565b600061390782614245565b6139118185614290565b93506139218185602086016143bc565b61392a8161442f565b840191505092915050565b600061394082614245565b61394a81856142a1565b935061395a8185602086016143bc565b80840191505092915050565b6000613973602183614290565b91507f52656369766572206861736e2774207369676e656420746865206d657373616760008301527f65000000000000000000000000000000000000000000000000000000000000006020830152604082019050919050565b60006139d9601c836142a1565b91507f19457468657265756d205369676e6564204d6573736167653a0a3332000000006000830152601c82019050919050565b6000613a19601383614290565b91507f4e6f206d6f726520636f70696573206c656674000000000000000000000000006000830152602082019050919050565b6000613a59602683614290565b91507f4f776e61626c653a206e6577206f776e657220697320746865207a65726f206160008301527f64647265737300000000000000000000000000000000000000000000000000006020830152604082019050919050565b6000613abf603183614290565b91507f596f752063616e27742072657475726e206120626f6f6b207468617420796f7560008301527f20686176656e277420626f72726f7765640000000000000000000000000000006020830152604082019050919050565b6000613b25602083614290565b91507f4f776e61626c653a2063616c6c6572206973206e6f7420746865206f776e65726000830152602082019050919050565b6000613b65601483614290565b91507f426f6f6b20616c726561647920657869737473210000000000000000000000006000830152602082019050919050565b6000613ba5601f83614290565b91507f546865726520617265206e6f20746f6b656e7320746f207769746864726177006000830152602082019050919050565b6000613be5601383614290565b91507f426f6f6b20646f65736e277420657869737421000000000000000000000000006000830152602082019050919050565b6000613c25602083614290565b91507f596f7527766520616c726561647920626f72726f7765642074686520626f6f6b6000830152602082019050919050565b60006080830160008301518482036000860152613c7582826138c3565b9150506020830151613c8a6020860182613cd1565b5060408301518482036040860152613ca282826137a5565b9150506060830151613cb76060860182613861565b508091505092915050565b613ccb81614318565b82525050565b613cda81614322565b82525050565b613ce981614322565b82525050565b6000613cfb8285613759565b601482019150613d0b8284613935565b91508190509392505050565b6000613d23828561378e565b601482019150613d338284613935565b91508190509392505050565b6000613d4b8284613935565b915081905092915050565b6000613d61826139cc565b9150613d6d828461388e565b60208201915081905092915050565b6000602082019050613d91600083018461377f565b92915050565b6000602082019050613dac600083018461373b565b92915050565b6000602082019050613dc7600083018461374a565b92915050565b6000606082019050613de2600083018661373b565b613def602083018561373b565b613dfc6040830184613cc2565b949350505050565b600060e082019050613e19600083018a61373b565b613e26602083018961373b565b613e336040830188613cc2565b613e406060830187613cc2565b613e4d6080830186613ce0565b613e5a60a083018561387f565b613e6760c083018461387f565b98975050505050505050565b6000604082019050613e88600083018561373b565b613e956020830184613cc2565b9392505050565b6000606082019050613eb1600083018661377f565b613ebe602083018561373b565b613ecb6040830184613cc2565b949350505050565b60006020820190508181036000830152613eed8184613803565b905092915050565b6000602082019050613f0a6000830184613870565b92915050565b6000602082019050613f25600083018461387f565b92915050565b6000608082019050613f40600083018761387f565b613f4d6020830186613ce0565b613f5a604083018561387f565b613f67606083018461387f565b95945050505050565b6000602082019050613f8560008301846138a5565b92915050565b6000602082019050613fa060008301846138b4565b92915050565b60006040820190508181036000830152613fc081856138fc565b9050613fcf602083018461377f565b9392505050565b60006040820190508181036000830152613ff081856138fc565b9050613fff602083018461373b565b9392505050565b6000604082019050818103600083015261402081856138fc565b905061402f6020830184613ce0565b9392505050565b6000606082019050818103600083015261405081866138fc565b905061405f6020830185613ce0565b61406c6040830184613870565b949350505050565b6000602082019050818103600083015261408d81613966565b9050919050565b600060208201905081810360008301526140ad81613a0c565b9050919050565b600060208201905081810360008301526140cd81613a4c565b9050919050565b600060208201905081810360008301526140ed81613ab2565b9050919050565b6000602082019050818103600083015261410d81613b18565b9050919050565b6000602082019050818103600083015261412d81613b58565b9050919050565b6000602082019050818103600083015261414d81613b98565b9050919050565b6000602082019050818103600083015261416d81613bd8565b9050919050565b6000602082019050818103600083015261418d81613c18565b9050919050565b600060208201905081810360008301526141ae8184613c58565b905092915050565b60006020820190506141cb6000830184613cc2565b92915050565b6000604051905081810181811067ffffffffffffffff821117156141f457600080fd5b8060405250919050565b600067ffffffffffffffff82111561421557600080fd5b601f19601f8301169050602081019050919050565b6000819050602082019050919050565b600081519050919050565b600081519050919050565b6000602082019050919050565b600082825260208201905092915050565b600082825260208201905092915050565b600082825260208201905092915050565b600082825260208201905092915050565b600081905092915050565b60006142b7826142f8565b9050919050565b60006142c9826142f8565b9050919050565b60008115159050919050565b6000819050919050565b60006142f1826142ac565b9050919050565b600073ffffffffffffffffffffffffffffffffffffffff82169050919050565b6000819050919050565b600060ff82169050919050565b600061433a82614389565b9050919050565b600061434c82614353565b9050919050565b600061435e826142f8565b9050919050565b600061437082614377565b9050919050565b6000614382826142f8565b9050919050565b60006143948261439b565b9050919050565b60006143a6826142f8565b9050919050565b82818337600083830152505050565b60005b838110156143da5780820151818401526020810190506143bf565b838111156143e9576000848401525b50505050565b60006143fa8261441d565b9050919050565b600061440c8261441d565b9050919050565b6000819050919050565b600061442882614440565b9050919050565b6000601f19601f8301169050919050565b60008160601b9050919050565b614456816142ac565b811461446157600080fd5b50565b61446d816142d0565b811461447857600080fd5b50565b614484816142dc565b811461448f57600080fd5b50565b61449b816142e6565b81146144a657600080fd5b50565b6144b281614318565b81146144bd57600080fd5b50565b6144c981614322565b81146144d457600080fd5b5056fea26469706673582212209b0c69e237891437473ad5fca0e4575fe089fa1b39802acff82b8363f59a969e64736f6c63430007000033",
  "source": "// SPDX-License-Identifier: UNLICENSED\n\npragma solidity ^0.7.0;\npragma experimental ABIEncoderV2;\n\nimport \"@openzeppelin/contracts/access/Ownable.sol\";\nimport \"./LibraryToken.sol\";\nimport \"./LibWrapper.sol\";\n\ncontract BookLibrary is Ownable {\n  LibraryToken public LIBToken;\n  LIBWrapper public LIBTokenWrapper;\n\n  address payable public libTokenWrapperAddress;\n\n  uint public rentFee = 10000000000000000;\n\n  bytes32[] public booksIds;\n  \n  mapping(bytes32 => Book) public books;\n  mapping(bytes32 => bool) private userBorrowedBooks;\n  mapping(bytes32 => mapping (address => bool)) private hasUserBorrowedBefore;\n\n  event LogBookAdded(string bookName, uint8 copies);\n  event LogBookBorrowed(string bookName, address borrower);\n  event LogBookReturned(string bookName, address returner);\n\n  struct Book {\n    string name;\n    uint8 copies;\n    address[] borrowers;\n    bool exists;\n  }\n\n  constructor(address payable _wrapperAddress, address _tokenAddress) {\n    LIBToken = LibraryToken(_tokenAddress);\n    LIBTokenWrapper = LIBWrapper(_wrapperAddress);\n    libTokenWrapperAddress = _wrapperAddress;\n  }\n  \n  modifier bookShouldExist(string memory _name, bool shouldExist) {\n    bytes32 encodedName = keccak256(abi.encodePacked(_name));\n    if (shouldExist) {\n      require(books[encodedName].exists == true, \"Book doesn't exist!\");\n    } else {\n      require(books[encodedName].exists == false, \"Book already exists!\");\n    }\n    _;\n  }\n\n  function addBook (string memory _name, uint8 _copies) external onlyOwner bookShouldExist(_name, false) {\n    bytes32 encodedName = keccak256(abi.encodePacked(_name));\n\n    address[] memory borrowers;\n    Book memory newBook = Book(_name, _copies, borrowers, true);\n    booksIds.push(encodedName);\n    books[encodedName] = newBook;\n\n    emit LogBookAdded(_name, _copies);\n  }\n  \n  function addCopies(string memory _bookName, uint8 _copies) external onlyOwner bookShouldExist(_bookName, true) {\n    bytes32 encodedName = keccak256(abi.encodePacked(_bookName));\n    books[encodedName].copies += _copies;\n  }\n    \n  function borrowBook(string memory _bookName) external bookShouldExist(_bookName, true){    \n    bytes32 encodedName = keccak256(abi.encodePacked(_bookName));\n    Book storage book = books[encodedName]; \n\n    // User can't borrow booksArray with no copies left;\n    require(book.copies > 0, \"No more copies left\");\n\n    // User shouldn't borrow the same book more than once;\n    bytes32 hash = keccak256(abi.encodePacked(msg.sender, _bookName));\n    require(userBorrowedBooks[hash] == false, \"You've already borrowed the book\");\n\n    LibraryToken libToken = LIBTokenWrapper.LIBToken();\n    libToken.transferFrom(msg.sender, address(this), rentFee);\n\n    userBorrowedBooks[hash] = true;\n    book.copies--;\n    if (hasUserBorrowedBefore[encodedName][msg.sender] == false) {\n      book.borrowers.push(msg.sender);\n      hasUserBorrowedBefore[encodedName][msg.sender] = true;\n    }\n\n    emit LogBookBorrowed(_bookName, msg.sender);\n  }\n\n  function borrowBookWithPermit(string memory _bookName, uint256 value, uint256 deadline, uint8 v, bytes32 r, bytes32 s) external bookShouldExist(_bookName, true){    \n    bytes32 encodedName = keccak256(abi.encodePacked(_bookName));\n    Book storage book = books[encodedName]; \n\n    // User can't borrow booksArray with no copies left;\n    require(book.copies > 0, \"No more copies left\");\n\n    // User shouldn't borrow the same book more than once;\n    bytes32 hash = keccak256(abi.encodePacked(msg.sender, _bookName));\n    require(userBorrowedBooks[hash] == false, \"You've already borrowed the book\");\n\n    LibraryToken libToken = LIBTokenWrapper.LIBToken();\n\n    libToken.permit(msg.sender, address(this), value, deadline, v,r,s);\n    libToken.transferFrom(msg.sender, address(this), rentFee);\n\n    userBorrowedBooks[hash] = true;\n    book.copies--;\n    if (hasUserBorrowedBefore[encodedName][msg.sender] == false) {\n      book.borrowers.push(msg.sender);\n      hasUserBorrowedBefore[encodedName][msg.sender] = true;\n    }\n    emit LogBookBorrowed(_bookName, msg.sender);\n  }\n\n  function borrowBookWithSignature (string memory _bookName, bytes32 hashedMessage, uint8 v, bytes32 r, bytes32 s, address receiver) external bookShouldExist(_bookName, true) {\n    bytes32 encodedName = keccak256(abi.encodePacked(_bookName));\n    Book storage book = books[encodedName]; \n\n    // User can't borrow booksArray with no copies left;\n    require(book.copies > 0, \"No more copies left\");\n    require(recoverSigner(hashedMessage, v, r, s) == receiver, \"Reciver hasn't signed the message\");\n    // User shouldn't borrow the same book more than once;\n    bytes32 hash = keccak256(abi.encodePacked(msg.sender, _bookName));\n    require(userBorrowedBooks[hash] == false, \"You've already borrowed the book\");\n\n    LibraryToken libToken = LIBTokenWrapper.LIBToken();\n    // Transfer rent fee\n    libToken.transferFrom(msg.sender, address(this), rentFee);\n\n    userBorrowedBooks[hash] = true;\n    book.copies--;\n    if (hasUserBorrowedBefore[encodedName][msg.sender] == false) {\n      book.borrowers.push(msg.sender);\n      hasUserBorrowedBefore[encodedName][msg.sender] = true;\n    }\n\n    emit LogBookBorrowed(_bookName, msg.sender);\n  }\n\n  function recoverSigner(bytes32 hashedMessage, uint8 v, bytes32 r, bytes32 s) internal returns(address) {\n    bytes32 messageDigest = keccak256(abi.encodePacked(\"\\x19Ethereum Signed Message:\\n32\", hashedMessage));\n    return ecrecover(messageDigest, v, r, s);\n  }\n\n\n  function borrowOnBehalfOf(string memory _bookName, bytes32 hashedMessage, uint8 v, bytes32 r, bytes32 s, address receiver) external bookShouldExist(_bookName, true) {\n    bytes32 encodedName = keccak256(abi.encodePacked(_bookName));\n    Book storage book = books[encodedName]; \n\n    // User can't borrow booksArray with no copies left;\n    require(book.copies > 0, \"No more copies left\");\n\n    // User mush have signed the message;\n    require(recoverSigner(hashedMessage, v, r, s) == receiver, \"Reciver hasn't signed the message\");\n\n    // User shouldn't borrow the same book more than once;\n    bytes32 hash = keccak256(abi.encodePacked(receiver, _bookName));\n    require(userBorrowedBooks[hash] == false, \"You've already borrowed the book\");\n\n    LibraryToken libToken = LIBTokenWrapper.LIBToken();\n\n    libToken.transferFrom(receiver, address(this), rentFee);\n\n    userBorrowedBooks[hash] = true;\n    book.copies--;\n    if (hasUserBorrowedBefore[encodedName][receiver] == false) {\n      book.borrowers.push(receiver);\n      hasUserBorrowedBefore[encodedName][receiver] = true;\n    }\n\n    emit LogBookBorrowed(_bookName, receiver);\n  }\n  \n  function returnBook(string memory _bookName) external bookShouldExist(_bookName, true) {\n    //Check if user has borrowed this book;\n    bytes32 hash = keccak256(abi.encodePacked(msg.sender, _bookName));\n    require(userBorrowedBooks[hash] == true, \"You can't return a book that you haven't borrowed\");\n    \n    bytes32 encodedName = keccak256(abi.encodePacked(_bookName));\n    Book storage book = books[encodedName];\n    book.copies++;\n    userBorrowedBooks[hash] = false;\n\n    emit LogBookReturned(_bookName, msg.sender);\n  }\n  \n  function withdrawLibTokens() public onlyOwner {\n    uint256 tokensAmount = LIBToken.balanceOf(address(this));\n    require(tokensAmount > 0, \"There are no tokens to withdraw\");\n    LIBToken.approve(libTokenWrapperAddress, tokensAmount);\n    LIBTokenWrapper.unwrap(tokensAmount);\n  }\n\n  function withdrawETH() payable public onlyOwner {\n    msg.sender.transfer(address(this).balance);\n  }\n\n  function getBorrowers(string memory _bookName) external view bookShouldExist(_bookName, true) returns (address[] memory) {\n    bytes32 encodedName = keccak256(abi.encodePacked(_bookName));\n    return books[encodedName].borrowers;\n  }\n\n  function getBook (string memory _bookName) external view bookShouldExist(_bookName, true) returns (Book memory) {\n    bytes32 encodedName = keccak256(abi.encodePacked(_bookName));\n    return books[encodedName];\n  }\n\n  function isBookBorrowedByCurrentUser(string memory _bookName) external view bookShouldExist(_bookName, true) returns(bool) {\n    bytes32 key = keccak256(abi.encodePacked(msg.sender, _bookName));\n    return userBorrowedBooks[key];\n  }\n\n  function getBooksCount() external view returns(uint) {\n    return booksIds.length;\n  }  \n\n  receive() external payable {\n\t} \n} ",
  "sourcePath": "/Users/viktortodorov/Desktop/BookLibrary/contracts/BookLibrary.sol",
  "compiler": {
    "name": "solc",
    "version": "0.7.0+commit.9e61f92b.Emscripten.clang",
    "optimizer": false,
    "runs": 200
  },
  "schemaVersion": "2.3.5",
  "updatedAt": "2021-06-18T11:20:47.864Z"
}