{
  "contractName": "LibraryToken",
  "abi": [
    {
      "inputs": [],
      "stateMutability": "nonpayable",
      "type": "constructor"
    },
    {
      "anonymous": false,
      "inputs": [
        {
          "indexed": true,
          "internalType": "address",
          "name": "owner",
          "type": "address"
        },
        {
          "indexed": true,
          "internalType": "address",
          "name": "spender",
          "type": "address"
        },
        {
          "indexed": false,
          "internalType": "uint256",
          "name": "value",
          "type": "uint256"
        }
      ],
      "name": "Approval",
      "type": "event"
    },
    {
      "anonymous": false,
      "inputs": [
        {
          "indexed": false,
          "internalType": "address",
          "name": "account",
          "type": "address"
        }
      ],
      "name": "Paused",
      "type": "event"
    },
    {
      "anonymous": false,
      "inputs": [
        {
          "indexed": true,
          "internalType": "bytes32",
          "name": "role",
          "type": "bytes32"
        },
        {
          "indexed": true,
          "internalType": "bytes32",
          "name": "previousAdminRole",
          "type": "bytes32"
        },
        {
          "indexed": true,
          "internalType": "bytes32",
          "name": "newAdminRole",
          "type": "bytes32"
        }
      ],
      "name": "RoleAdminChanged",
      "type": "event"
    },
    {
      "anonymous": false,
      "inputs": [
        {
          "indexed": true,
          "internalType": "bytes32",
          "name": "role",
          "type": "bytes32"
        },
        {
          "indexed": true,
          "internalType": "address",
          "name": "account",
          "type": "address"
        },
        {
          "indexed": true,
          "internalType": "address",
          "name": "sender",
          "type": "address"
        }
      ],
      "name": "RoleGranted",
      "type": "event"
    },
    {
      "anonymous": false,
      "inputs": [
        {
          "indexed": true,
          "internalType": "bytes32",
          "name": "role",
          "type": "bytes32"
        },
        {
          "indexed": true,
          "internalType": "address",
          "name": "account",
          "type": "address"
        },
        {
          "indexed": true,
          "internalType": "address",
          "name": "sender",
          "type": "address"
        }
      ],
      "name": "RoleRevoked",
      "type": "event"
    },
    {
      "anonymous": false,
      "inputs": [
        {
          "indexed": true,
          "internalType": "address",
          "name": "from",
          "type": "address"
        },
        {
          "indexed": true,
          "internalType": "address",
          "name": "to",
          "type": "address"
        },
        {
          "indexed": false,
          "internalType": "uint256",
          "name": "value",
          "type": "uint256"
        }
      ],
      "name": "Transfer",
      "type": "event"
    },
    {
      "anonymous": false,
      "inputs": [
        {
          "indexed": false,
          "internalType": "address",
          "name": "account",
          "type": "address"
        }
      ],
      "name": "Unpaused",
      "type": "event"
    },
    {
      "inputs": [],
      "name": "DEFAULT_ADMIN_ROLE",
      "outputs": [
        {
          "internalType": "bytes32",
          "name": "",
          "type": "bytes32"
        }
      ],
      "stateMutability": "view",
      "type": "function"
    },
    {
      "inputs": [],
      "name": "DOMAIN_SEPARATOR",
      "outputs": [
        {
          "internalType": "bytes32",
          "name": "",
          "type": "bytes32"
        }
      ],
      "stateMutability": "view",
      "type": "function"
    },
    {
      "inputs": [],
      "name": "MINTER_ROLE",
      "outputs": [
        {
          "internalType": "bytes32",
          "name": "",
          "type": "bytes32"
        }
      ],
      "stateMutability": "view",
      "type": "function"
    },
    {
      "inputs": [],
      "name": "PAUSER_ROLE",
      "outputs": [
        {
          "internalType": "bytes32",
          "name": "",
          "type": "bytes32"
        }
      ],
      "stateMutability": "view",
      "type": "function"
    },
    {
      "inputs": [],
      "name": "PERMIT_TYPEHASH",
      "outputs": [
        {
          "internalType": "bytes32",
          "name": "",
          "type": "bytes32"
        }
      ],
      "stateMutability": "view",
      "type": "function"
    },
    {
      "inputs": [
        {
          "internalType": "address",
          "name": "owner",
          "type": "address"
        },
        {
          "internalType": "address",
          "name": "spender",
          "type": "address"
        }
      ],
      "name": "allowance",
      "outputs": [
        {
          "internalType": "uint256",
          "name": "",
          "type": "uint256"
        }
      ],
      "stateMutability": "view",
      "type": "function"
    },
    {
      "inputs": [
        {
          "internalType": "address",
          "name": "spender",
          "type": "address"
        },
        {
          "internalType": "uint256",
          "name": "amount",
          "type": "uint256"
        }
      ],
      "name": "approve",
      "outputs": [
        {
          "internalType": "bool",
          "name": "",
          "type": "bool"
        }
      ],
      "stateMutability": "nonpayable",
      "type": "function"
    },
    {
      "inputs": [
        {
          "internalType": "address",
          "name": "account",
          "type": "address"
        }
      ],
      "name": "balanceOf",
      "outputs": [
        {
          "internalType": "uint256",
          "name": "",
          "type": "uint256"
        }
      ],
      "stateMutability": "view",
      "type": "function"
    },
    {
      "inputs": [
        {
          "internalType": "uint256",
          "name": "amount",
          "type": "uint256"
        }
      ],
      "name": "burn",
      "outputs": [],
      "stateMutability": "nonpayable",
      "type": "function"
    },
    {
      "inputs": [
        {
          "internalType": "address",
          "name": "account",
          "type": "address"
        },
        {
          "internalType": "uint256",
          "name": "amount",
          "type": "uint256"
        }
      ],
      "name": "burnFrom",
      "outputs": [],
      "stateMutability": "nonpayable",
      "type": "function"
    },
    {
      "inputs": [],
      "name": "decimals",
      "outputs": [
        {
          "internalType": "uint8",
          "name": "",
          "type": "uint8"
        }
      ],
      "stateMutability": "view",
      "type": "function"
    },
    {
      "inputs": [
        {
          "internalType": "address",
          "name": "spender",
          "type": "address"
        },
        {
          "internalType": "uint256",
          "name": "subtractedValue",
          "type": "uint256"
        }
      ],
      "name": "decreaseAllowance",
      "outputs": [
        {
          "internalType": "bool",
          "name": "",
          "type": "bool"
        }
      ],
      "stateMutability": "nonpayable",
      "type": "function"
    },
    {
      "inputs": [
        {
          "internalType": "bytes32",
          "name": "role",
          "type": "bytes32"
        }
      ],
      "name": "getRoleAdmin",
      "outputs": [
        {
          "internalType": "bytes32",
          "name": "",
          "type": "bytes32"
        }
      ],
      "stateMutability": "view",
      "type": "function"
    },
    {
      "inputs": [
        {
          "internalType": "bytes32",
          "name": "role",
          "type": "bytes32"
        },
        {
          "internalType": "uint256",
          "name": "index",
          "type": "uint256"
        }
      ],
      "name": "getRoleMember",
      "outputs": [
        {
          "internalType": "address",
          "name": "",
          "type": "address"
        }
      ],
      "stateMutability": "view",
      "type": "function"
    },
    {
      "inputs": [
        {
          "internalType": "bytes32",
          "name": "role",
          "type": "bytes32"
        }
      ],
      "name": "getRoleMemberCount",
      "outputs": [
        {
          "internalType": "uint256",
          "name": "",
          "type": "uint256"
        }
      ],
      "stateMutability": "view",
      "type": "function"
    },
    {
      "inputs": [
        {
          "internalType": "bytes32",
          "name": "role",
          "type": "bytes32"
        },
        {
          "internalType": "address",
          "name": "account",
          "type": "address"
        }
      ],
      "name": "grantRole",
      "outputs": [],
      "stateMutability": "nonpayable",
      "type": "function"
    },
    {
      "inputs": [
        {
          "internalType": "bytes32",
          "name": "role",
          "type": "bytes32"
        },
        {
          "internalType": "address",
          "name": "account",
          "type": "address"
        }
      ],
      "name": "hasRole",
      "outputs": [
        {
          "internalType": "bool",
          "name": "",
          "type": "bool"
        }
      ],
      "stateMutability": "view",
      "type": "function"
    },
    {
      "inputs": [
        {
          "internalType": "address",
          "name": "spender",
          "type": "address"
        },
        {
          "internalType": "uint256",
          "name": "addedValue",
          "type": "uint256"
        }
      ],
      "name": "increaseAllowance",
      "outputs": [
        {
          "internalType": "bool",
          "name": "",
          "type": "bool"
        }
      ],
      "stateMutability": "nonpayable",
      "type": "function"
    },
    {
      "inputs": [
        {
          "internalType": "address",
          "name": "to",
          "type": "address"
        },
        {
          "internalType": "uint256",
          "name": "amount",
          "type": "uint256"
        }
      ],
      "name": "mint",
      "outputs": [],
      "stateMutability": "nonpayable",
      "type": "function"
    },
    {
      "inputs": [],
      "name": "name",
      "outputs": [
        {
          "internalType": "string",
          "name": "",
          "type": "string"
        }
      ],
      "stateMutability": "view",
      "type": "function"
    },
    {
      "inputs": [
        {
          "internalType": "address",
          "name": "",
          "type": "address"
        }
      ],
      "name": "nonces",
      "outputs": [
        {
          "internalType": "uint256",
          "name": "",
          "type": "uint256"
        }
      ],
      "stateMutability": "view",
      "type": "function"
    },
    {
      "inputs": [],
      "name": "pause",
      "outputs": [],
      "stateMutability": "nonpayable",
      "type": "function"
    },
    {
      "inputs": [],
      "name": "paused",
      "outputs": [
        {
          "internalType": "bool",
          "name": "",
          "type": "bool"
        }
      ],
      "stateMutability": "view",
      "type": "function"
    },
    {
      "inputs": [
        {
          "internalType": "bytes32",
          "name": "role",
          "type": "bytes32"
        },
        {
          "internalType": "address",
          "name": "account",
          "type": "address"
        }
      ],
      "name": "renounceRole",
      "outputs": [],
      "stateMutability": "nonpayable",
      "type": "function"
    },
    {
      "inputs": [
        {
          "internalType": "bytes32",
          "name": "role",
          "type": "bytes32"
        },
        {
          "internalType": "address",
          "name": "account",
          "type": "address"
        }
      ],
      "name": "revokeRole",
      "outputs": [],
      "stateMutability": "nonpayable",
      "type": "function"
    },
    {
      "inputs": [],
      "name": "symbol",
      "outputs": [
        {
          "internalType": "string",
          "name": "",
          "type": "string"
        }
      ],
      "stateMutability": "view",
      "type": "function"
    },
    {
      "inputs": [],
      "name": "totalSupply",
      "outputs": [
        {
          "internalType": "uint256",
          "name": "",
          "type": "uint256"
        }
      ],
      "stateMutability": "view",
      "type": "function"
    },
    {
      "inputs": [
        {
          "internalType": "address",
          "name": "recipient",
          "type": "address"
        },
        {
          "internalType": "uint256",
          "name": "amount",
          "type": "uint256"
        }
      ],
      "name": "transfer",
      "outputs": [
        {
          "internalType": "bool",
          "name": "",
          "type": "bool"
        }
      ],
      "stateMutability": "nonpayable",
      "type": "function"
    },
    {
      "inputs": [
        {
          "internalType": "address",
          "name": "sender",
          "type": "address"
        },
        {
          "internalType": "address",
          "name": "recipient",
          "type": "address"
        },
        {
          "internalType": "uint256",
          "name": "amount",
          "type": "uint256"
        }
      ],
      "name": "transferFrom",
      "outputs": [
        {
          "internalType": "bool",
          "name": "",
          "type": "bool"
        }
      ],
      "stateMutability": "nonpayable",
      "type": "function"
    },
    {
      "inputs": [],
      "name": "unpause",
      "outputs": [],
      "stateMutability": "nonpayable",
      "type": "function"
    },
    {
      "inputs": [
        {
          "internalType": "address",
          "name": "owner",
          "type": "address"
        },
        {
          "internalType": "address",
          "name": "spender",
          "type": "address"
        },
        {
          "internalType": "uint256",
          "name": "value",
          "type": "uint256"
        },
        {
          "internalType": "uint256",
          "name": "deadline",
          "type": "uint256"
        },
        {
          "internalType": "uint8",
          "name": "v",
          "type": "uint8"
        },
        {
          "internalType": "bytes32",
          "name": "r",
          "type": "bytes32"
        },
        {
          "internalType": "bytes32",
          "name": "s",
          "type": "bytes32"
        }
      ],
      "name": "permit",
      "outputs": [],
      "stateMutability": "nonpayable",
      "type": "function"
    }
  ],
  "bytecode": "0x60806040523480156200001157600080fd5b506040518060400160405280600c81526020017f4c696272617279546f6b656e00000000000000000000000000000000000000008152506040518060400160405280600381526020017f4c494200000000000000000000000000000000000000000000000000000000008152508181816004908051906020019062000098929190620003fc565b508060059080519060200190620000b1929190620003fc565b506012600660006101000a81548160ff021916908360ff16021790555050506000600660016101000a81548160ff0219169083151502179055506200010f6000801b620001036200026660201b60201c565b6200026e60201b60201c565b620001507f9f2df0fed2c77648de5860a4cc508cd0818c85b8b8a1ab4ceeef8d981c8956a6620001446200026660201b60201c565b6200026e60201b60201c565b620001917f65d7a28e3265b37a6474929f336521b332c1681b933f6cb9f3376673440d862a620001856200026660201b60201c565b6200026e60201b60201c565b50507f91ab3d17e3a50a9d89e63fd30b92be7f5336b03b287bb946787a83a9d62a27666040518060400160405280600d81526020017f4c69627261727920546f6b656e00000000000000000000000000000000000000815250805190602001206040518060400160405280600181526020017f31000000000000000000000000000000000000000000000000000000000000008152508051906020012030604051602001620002449493929190620004c4565b604051602081830303815290604052805190602001206007819055506200054f565b600033905090565b6200028082826200028460201b60201c565b5050565b620002b2816000808581526020019081526020016000206000016200032760201b620011bd1790919060201c565b156200032357620002c86200026660201b60201c565b73ffffffffffffffffffffffffffffffffffffffff168173ffffffffffffffffffffffffffffffffffffffff16837f2f8788117e7eff1d82e926ec794901d17c78024a50270940304540a733656f0d60405160405180910390a45b5050565b600062000357836000018373ffffffffffffffffffffffffffffffffffffffff1660001b6200035f60201b60201c565b905092915050565b6000620003738383620003d960201b60201c565b620003ce578260000182908060018154018082558091505060019003906000526020600020016000909190919091505582600001805490508360010160008481526020019081526020016000208190555060019050620003d3565b600090505b92915050565b600080836001016000848152602001908152602001600020541415905092915050565b828054600181600116156101000203166002900490600052602060002090601f016020900481019282601f106200043f57805160ff191683800117855562000470565b8280016001018555821562000470579182015b828111156200046f57825182559160200191906001019062000452565b5b5090506200047f919062000483565b5090565b5b808211156200049e57600081600090555060010162000484565b5090565b620004ad8162000511565b82525050565b620004be8162000525565b82525050565b6000608082019050620004db6000830187620004b3565b620004ea6020830186620004b3565b620004f96040830185620004b3565b620005086060830184620004a2565b95945050505050565b60006200051e826200052f565b9050919050565b6000819050919050565b600073ffffffffffffffffffffffffffffffffffffffff82169050919050565b613119806200055f6000396000f3fe608060405234801561001057600080fd5b50600436106101e55760003560e01c806370a082311161010f578063a457c2d7116100a2578063d539139311610071578063d5391393146105a6578063d547741f146105c4578063dd62ed3e146105e0578063e63ab1e914610610576101e5565b8063a457c2d7146104fa578063a9059cbb1461052a578063ca15c8731461055a578063d505accf1461058a576101e5565b80639010d07c116100de5780639010d07c1461045e57806391d148541461048e57806395d89b41146104be578063a217fddf146104dc576101e5565b806370a08231146103d857806379cc6790146104085780637ecebe00146104245780638456cb5914610454576101e5565b8063313ce567116101875780633f4ba83a116101565780633f4ba83a1461037857806340c10f191461038257806342966c681461039e5780635c975abb146103ba576101e5565b8063313ce567146102f05780633644e5151461030e57806336568abe1461032c5780633950935114610348576101e5565b806323b872dd116101c357806323b872dd14610256578063248a9ca3146102865780632f2ff15d146102b657806330adf81f146102d2576101e5565b806306fdde03146101ea578063095ea7b31461020857806318160ddd14610238575b600080fd5b6101f261062e565b6040516101ff9190612bec565b60405180910390f35b610222600480360381019061021d919061219f565b6106d0565b60405161022f9190612b10565b60405180910390f35b6102406106ee565b60405161024d9190612e8e565b60405180910390f35b610270600480360381019061026b91906120b2565b6106f8565b60405161027d9190612b10565b60405180910390f35b6102a0600480360381019061029b91906121db565b6107d1565b6040516102ad9190612b2b565b60405180910390f35b6102d060048036038101906102cb9190612204565b6107f0565b005b6102da610863565b6040516102e79190612b2b565b60405180910390f35b6102f861088a565b6040516103059190612ea9565b60405180910390f35b6103166108a1565b6040516103239190612b2b565b60405180910390f35b61034660048036038101906103419190612204565b6108a7565b005b610362600480360381019061035d919061219f565b61092a565b60405161036f9190612b10565b60405180910390f35b6103806109dd565b005b61039c6004803603810190610397919061219f565b610a57565b005b6103b860048036038101906103b3919061227c565b610ad5565b005b6103c2610ae9565b6040516103cf9190612b10565b60405180910390f35b6103f260048036038101906103ed919061204d565b610b00565b6040516103ff9190612e8e565b60405180910390f35b610422600480360381019061041d919061219f565b610b49565b005b61043e6004803603810190610439919061204d565b610bab565b60405161044b9190612e8e565b60405180910390f35b61045c610bc3565b005b61047860048036038101906104739190612240565b610c3d565b6040516104859190612ada565b60405180910390f35b6104a860048036038101906104a39190612204565b610c6e565b6040516104b59190612b10565b60405180910390f35b6104c6610c9f565b6040516104d39190612bec565b60405180910390f35b6104e4610d41565b6040516104f19190612b2b565b60405180910390f35b610514600480360381019061050f919061219f565b610d48565b6040516105219190612b10565b60405180910390f35b610544600480360381019061053f919061219f565b610e15565b6040516105519190612b10565b60405180910390f35b610574600480360381019061056f91906121db565b610e33565b6040516105819190612e8e565b60405180910390f35b6105a4600480360381019061059f9190612101565b610e59565b005b6105ae61107b565b6040516105bb9190612b2b565b60405180910390f35b6105de60048036038101906105d99190612204565b61109f565b005b6105fa60048036038101906105f59190612076565b611112565b6040516106079190612e8e565b60405180910390f35b610618611199565b6040516106259190612b2b565b60405180910390f35b606060048054600181600116156101000203166002900480601f0160208091040260200160405190810160405280929190818152602001828054600181600116156101000203166002900480156106c65780601f1061069b576101008083540402835291602001916106c6565b820191906000526020600020905b8154815290600101906020018083116106a957829003601f168201915b5050505050905090565b60006106e46106dd6111ed565b84846111f5565b6001905092915050565b6000600354905090565b60006107058484846113c0565b6107c6846107116111ed565b6107c18560405180606001604052806028815260200161307360289139600260008b73ffffffffffffffffffffffffffffffffffffffff1673ffffffffffffffffffffffffffffffffffffffff16815260200190815260200160002060006107776111ed565b73ffffffffffffffffffffffffffffffffffffffff1673ffffffffffffffffffffffffffffffffffffffff168152602001908152602001600020546116599092919063ffffffff16565b6111f5565b600190509392505050565b6000806000838152602001908152602001600020600201549050919050565b610816600080848152602001908152602001600020600201546108116111ed565b610c6e565b610855576040517f08c379a000000000000000000000000000000000000000000000000000000000815260040161084c90612c4e565b60405180910390fd5b61085f82826116ae565b5050565b7f6e71edae12b1b97f4d1f60370fef10105fa2faae0126114a169c64845d6126c960001b81565b6000600660009054906101000a900460ff16905090565b60075481565b6108af6111ed565b73ffffffffffffffffffffffffffffffffffffffff168173ffffffffffffffffffffffffffffffffffffffff161461091c576040517f08c379a000000000000000000000000000000000000000000000000000000000815260040161091390612e2e565b60405180910390fd5b6109268282611741565b5050565b60006109d36109376111ed565b846109ce85600260006109486111ed565b73ffffffffffffffffffffffffffffffffffffffff1673ffffffffffffffffffffffffffffffffffffffff16815260200190815260200160002060008973ffffffffffffffffffffffffffffffffffffffff1673ffffffffffffffffffffffffffffffffffffffff168152602001908152602001600020546117d490919063ffffffff16565b6111f5565b6001905092915050565b610a0e7f65d7a28e3265b37a6474929f336521b332c1681b933f6cb9f3376673440d862a610a096111ed565b610c6e565b610a4d576040517f08c379a0000000000000000000000000000000000000000000000000000000008152600401610a4490612c8e565b60405180910390fd5b610a55611829565b565b610a887f9f2df0fed2c77648de5860a4cc508cd0818c85b8b8a1ab4ceeef8d981c8956a6610a836111ed565b610c6e565b610ac7576040517f08c379a0000000000000000000000000000000000000000000000000000000008152600401610abe90612d6e565b60405180910390fd5b610ad182826118cb565b5050565b610ae6610ae06111ed565b82611a61565b50565b6000600660019054906101000a900460ff16905090565b6000600160008373ffffffffffffffffffffffffffffffffffffffff1673ffffffffffffffffffffffffffffffffffffffff168152602001908152602001600020549050919050565b6000610b888260405180606001604052806024815260200161309b60249139610b7986610b746111ed565b611112565b6116599092919063ffffffff16565b9050610b9c83610b966111ed565b836111f5565b610ba68383611a61565b505050565b60086020528060005260406000206000915090505481565b610bf47f65d7a28e3265b37a6474929f336521b332c1681b933f6cb9f3376673440d862a610bef6111ed565b610c6e565b610c33576040517f08c379a0000000000000000000000000000000000000000000000000000000008152600401610c2a90612e0e565b60405180910390fd5b610c3b611c11565b565b6000610c6682600080868152602001908152602001600020600001611cb490919063ffffffff16565b905092915050565b6000610c9782600080868152602001908152602001600020600001611cce90919063ffffffff16565b905092915050565b606060058054600181600116156101000203166002900480601f016020809104026020016040519081016040528092919081815260200182805460018160011615610100020316600290048015610d375780601f10610d0c57610100808354040283529160200191610d37565b820191906000526020600020905b815481529060010190602001808311610d1a57829003601f168201915b5050505050905090565b6000801b81565b6000610e0b610d556111ed565b84610e06856040518060600160405280602581526020016130bf6025913960026000610d7f6111ed565b73ffffffffffffffffffffffffffffffffffffffff1673ffffffffffffffffffffffffffffffffffffffff16815260200190815260200160002060008a73ffffffffffffffffffffffffffffffffffffffff1673ffffffffffffffffffffffffffffffffffffffff168152602001908152602001600020546116599092919063ffffffff16565b6111f5565b6001905092915050565b6000610e29610e226111ed565b84846113c0565b6001905092915050565b6000610e52600080848152602001908152602001600020600001611cfe565b9050919050565b42841015610e9c576040517f08c379a0000000000000000000000000000000000000000000000000000000008152600401610e9390612d4e565b60405180910390fd5b60006007547f6e71edae12b1b97f4d1f60370fef10105fa2faae0126114a169c64845d6126c960001b898989600860008e73ffffffffffffffffffffffffffffffffffffffff1673ffffffffffffffffffffffffffffffffffffffff1681526020019081526020016000206000815480929190600101919050558a604051602001610f2c96959493929190612b46565b60405160208183030381529060405280519060200120604051602001610f53929190612aa3565b604051602081830303815290604052805190602001209050600060018286868660405160008152602001604052604051610f909493929190612ba7565b6020604051602081039080840390855afa158015610fb2573d6000803e3d6000fd5b505050602060405103519050600073ffffffffffffffffffffffffffffffffffffffff168173ffffffffffffffffffffffffffffffffffffffff161415801561102657508873ffffffffffffffffffffffffffffffffffffffff168173ffffffffffffffffffffffffffffffffffffffff16145b611065576040517f08c379a000000000000000000000000000000000000000000000000000000000815260040161105c90612dae565b60405180910390fd5b6110708989896111f5565b505050505050505050565b7f9f2df0fed2c77648de5860a4cc508cd0818c85b8b8a1ab4ceeef8d981c8956a681565b6110c5600080848152602001908152602001600020600201546110c06111ed565b610c6e565b611104576040517f08c379a00000000000000000000000000000000000000000000000000000000081526004016110fb90612d0e565b60405180910390fd5b61110e8282611741565b5050565b6000600260008473ffffffffffffffffffffffffffffffffffffffff1673ffffffffffffffffffffffffffffffffffffffff16815260200190815260200160002060008373ffffffffffffffffffffffffffffffffffffffff1673ffffffffffffffffffffffffffffffffffffffff16815260200190815260200160002054905092915050565b7f65d7a28e3265b37a6474929f336521b332c1681b933f6cb9f3376673440d862a81565b60006111e5836000018373ffffffffffffffffffffffffffffffffffffffff1660001b611d13565b905092915050565b600033905090565b600073ffffffffffffffffffffffffffffffffffffffff168373ffffffffffffffffffffffffffffffffffffffff161415611265576040517f08c379a000000000000000000000000000000000000000000000000000000000815260040161125c90612dee565b60405180910390fd5b600073ffffffffffffffffffffffffffffffffffffffff168273ffffffffffffffffffffffffffffffffffffffff1614156112d5576040517f08c379a00000000000000000000000000000000000000000000000000000000081526004016112cc90612cae565b60405180910390fd5b80600260008573ffffffffffffffffffffffffffffffffffffffff1673ffffffffffffffffffffffffffffffffffffffff16815260200190815260200160002060008473ffffffffffffffffffffffffffffffffffffffff1673ffffffffffffffffffffffffffffffffffffffff168152602001908152602001600020819055508173ffffffffffffffffffffffffffffffffffffffff168373ffffffffffffffffffffffffffffffffffffffff167f8c5be1e5ebec7d5bd14f71427d1e84f3dd0314c0f7b2291e5b200ac8c7c3b925836040516113b39190612e8e565b60405180910390a3505050565b600073ffffffffffffffffffffffffffffffffffffffff168373ffffffffffffffffffffffffffffffffffffffff161415611430576040517f08c379a000000000000000000000000000000000000000000000000000000000815260040161142790612dce565b60405180910390fd5b600073ffffffffffffffffffffffffffffffffffffffff168273ffffffffffffffffffffffffffffffffffffffff1614156114a0576040517f08c379a000000000000000000000000000000000000000000000000000000000815260040161149790612c2e565b60405180910390fd5b6114ab838383611d83565b6115178160405180606001604052806026815260200161304d60269139600160008773ffffffffffffffffffffffffffffffffffffffff1673ffffffffffffffffffffffffffffffffffffffff168152602001908152602001600020546116599092919063ffffffff16565b600160008573ffffffffffffffffffffffffffffffffffffffff1673ffffffffffffffffffffffffffffffffffffffff168152602001908152602001600020819055506115ac81600160008573ffffffffffffffffffffffffffffffffffffffff1673ffffffffffffffffffffffffffffffffffffffff168152602001908152602001600020546117d490919063ffffffff16565b600160008473ffffffffffffffffffffffffffffffffffffffff1673ffffffffffffffffffffffffffffffffffffffff168152602001908152602001600020819055508173ffffffffffffffffffffffffffffffffffffffff168373ffffffffffffffffffffffffffffffffffffffff167fddf252ad1be2c89b69c2b068fc378daa952ba7f163c4a11628f55a4df523b3ef8360405161164c9190612e8e565b60405180910390a3505050565b60008383111582906116a1576040517f08c379a00000000000000000000000000000000000000000000000000000000081526004016116989190612bec565b60405180910390fd5b5082840390509392505050565b6116d5816000808581526020019081526020016000206000016111bd90919063ffffffff16565b1561173d576116e26111ed565b73ffffffffffffffffffffffffffffffffffffffff168173ffffffffffffffffffffffffffffffffffffffff16837f2f8788117e7eff1d82e926ec794901d17c78024a50270940304540a733656f0d60405160405180910390a45b5050565b61176881600080858152602001908152602001600020600001611d9390919063ffffffff16565b156117d0576117756111ed565b73ffffffffffffffffffffffffffffffffffffffff168173ffffffffffffffffffffffffffffffffffffffff16837ff6391f5c32d9c69d2a47ea670b442974b53935d1edc7fd64eb21e047a839171b60405160405180910390a45b5050565b60008082840190508381101561181f576040517f08c379a000000000000000000000000000000000000000000000000000000000815260040161181690612cce565b60405180910390fd5b8091505092915050565b611831610ae9565b611870576040517f08c379a000000000000000000000000000000000000000000000000000000000815260040161186790612c6e565b60405180910390fd5b6000600660016101000a81548160ff0219169083151502179055507f5db9ee0a495bf2e6ff9c91a7834c1ba4fdd244a5e8aa4e537bd38aeae4b073aa6118b46111ed565b6040516118c19190612af5565b60405180910390a1565b600073ffffffffffffffffffffffffffffffffffffffff168273ffffffffffffffffffffffffffffffffffffffff16141561193b576040517f08c379a000000000000000000000000000000000000000000000000000000000815260040161193290612e4e565b60405180910390fd5b61194760008383611d83565b61195c816003546117d490919063ffffffff16565b6003819055506119b481600160008573ffffffffffffffffffffffffffffffffffffffff1673ffffffffffffffffffffffffffffffffffffffff168152602001908152602001600020546117d490919063ffffffff16565b600160008473ffffffffffffffffffffffffffffffffffffffff1673ffffffffffffffffffffffffffffffffffffffff168152602001908152602001600020819055508173ffffffffffffffffffffffffffffffffffffffff16600073ffffffffffffffffffffffffffffffffffffffff167fddf252ad1be2c89b69c2b068fc378daa952ba7f163c4a11628f55a4df523b3ef83604051611a559190612e8e565b60405180910390a35050565b600073ffffffffffffffffffffffffffffffffffffffff168273ffffffffffffffffffffffffffffffffffffffff161415611ad1576040517f08c379a0000000000000000000000000000000000000000000000000000000008152600401611ac890612d8e565b60405180910390fd5b611add82600083611d83565b611b498160405180606001604052806022815260200161302b60229139600160008673ffffffffffffffffffffffffffffffffffffffff1673ffffffffffffffffffffffffffffffffffffffff168152602001908152602001600020546116599092919063ffffffff16565b600160008473ffffffffffffffffffffffffffffffffffffffff1673ffffffffffffffffffffffffffffffffffffffff16815260200190815260200160002081905550611ba181600354611dc390919063ffffffff16565b600381905550600073ffffffffffffffffffffffffffffffffffffffff168273ffffffffffffffffffffffffffffffffffffffff167fddf252ad1be2c89b69c2b068fc378daa952ba7f163c4a11628f55a4df523b3ef83604051611c059190612e8e565b60405180910390a35050565b611c19610ae9565b15611c59576040517f08c379a0000000000000000000000000000000000000000000000000000000008152600401611c5090612d2e565b60405180910390fd5b6001600660016101000a81548160ff0219169083151502179055507f62e78cea01bee320cd4e420270b5ea74000d11b0c9f74754ebdbfc544b05a258611c9d6111ed565b604051611caa9190612af5565b60405180910390a1565b6000611cc38360000183611e13565b60001c905092915050565b6000611cf6836000018373ffffffffffffffffffffffffffffffffffffffff1660001b611e80565b905092915050565b6000611d0c82600001611ea3565b9050919050565b6000611d1f8383611e80565b611d78578260000182908060018154018082558091505060019003906000526020600020016000909190919091505582600001805490508360010160008481526020019081526020016000208190555060019050611d7d565b600090505b92915050565b611d8e838383611eb4565b505050565b6000611dbb836000018373ffffffffffffffffffffffffffffffffffffffff1660001b611f0c565b905092915050565b600082821115611e08576040517f08c379a0000000000000000000000000000000000000000000000000000000008152600401611dff90612cee565b60405180910390fd5b818303905092915050565b600081836000018054905011611e5e576040517f08c379a0000000000000000000000000000000000000000000000000000000008152600401611e5590612c0e565b60405180910390fd5b826000018281548110611e6d57fe5b9060005260206000200154905092915050565b600080836001016000848152602001908152602001600020541415905092915050565b600081600001805490509050919050565b611ebf838383611ff4565b611ec7610ae9565b15611f07576040517f08c379a0000000000000000000000000000000000000000000000000000000008152600401611efe90612e6e565b60405180910390fd5b505050565b60008083600101600084815260200190815260200160002054905060008114611fe85760006001820390506000600186600001805490500390506000866000018281548110611f5757fe5b9060005260206000200154905080876000018481548110611f7457fe5b9060005260206000200181905550600183018760010160008381526020019081526020016000208190555086600001805480611fac57fe5b60019003818190600052602060002001600090559055866001016000878152602001908152602001600020600090556001945050505050611fee565b60009150505b92915050565b505050565b60008135905061200881612fce565b92915050565b60008135905061201d81612fe5565b92915050565b60008135905061203281612ffc565b92915050565b60008135905061204781613013565b92915050565b60006020828403121561205f57600080fd5b600061206d84828501611ff9565b91505092915050565b6000806040838503121561208957600080fd5b600061209785828601611ff9565b92505060206120a885828601611ff9565b9150509250929050565b6000806000606084860312156120c757600080fd5b60006120d586828701611ff9565b93505060206120e686828701611ff9565b92505060406120f786828701612023565b9150509250925092565b600080600080600080600060e0888a03121561211c57600080fd5b600061212a8a828b01611ff9565b975050602061213b8a828b01611ff9565b965050604061214c8a828b01612023565b955050606061215d8a828b01612023565b945050608061216e8a828b01612038565b93505060a061217f8a828b0161200e565b92505060c06121908a828b0161200e565b91505092959891949750929550565b600080604083850312156121b257600080fd5b60006121c085828601611ff9565b92505060206121d185828601612023565b9150509250929050565b6000602082840312156121ed57600080fd5b60006121fb8482850161200e565b91505092915050565b6000806040838503121561221757600080fd5b60006122258582860161200e565b925050602061223685828601611ff9565b9150509250929050565b6000806040838503121561225357600080fd5b60006122618582860161200e565b925050602061227285828601612023565b9150509250929050565b60006020828403121561228e57600080fd5b600061229c84828501612023565b91505092915050565b6122ae81612f4a565b82525050565b6122bd81612eeb565b82525050565b6122cc81612efd565b82525050565b6122db81612f09565b82525050565b6122f26122ed82612f09565b612fb3565b82525050565b600061230382612ec4565b61230d8185612ecf565b935061231d818560208601612f80565b61232681612fbd565b840191505092915050565b600061233e602283612ecf565b91507f456e756d657261626c655365743a20696e646578206f7574206f6620626f756e60008301527f64730000000000000000000000000000000000000000000000000000000000006020830152604082019050919050565b60006123a4602383612ecf565b91507f45524332303a207472616e7366657220746f20746865207a65726f206164647260008301527f65737300000000000000000000000000000000000000000000000000000000006020830152604082019050919050565b600061240a602f83612ecf565b91507f416363657373436f6e74726f6c3a2073656e646572206d75737420626520616e60008301527f2061646d696e20746f206772616e7400000000000000000000000000000000006020830152604082019050919050565b6000612470601483612ecf565b91507f5061757361626c653a206e6f74207061757365640000000000000000000000006000830152602082019050919050565b60006124b0603983612ecf565b91507f45524332305072657365744d696e7465725061757365723a206d75737420686160008301527f76652070617573657220726f6c6520746f20756e7061757365000000000000006020830152604082019050919050565b6000612516602283612ecf565b91507f45524332303a20617070726f766520746f20746865207a65726f20616464726560008301527f73730000000000000000000000000000000000000000000000000000000000006020830152604082019050919050565b600061257c600283612ee0565b91507f19010000000000000000000000000000000000000000000000000000000000006000830152600282019050919050565b60006125bc601b83612ecf565b91507f536166654d6174683a206164646974696f6e206f766572666c6f7700000000006000830152602082019050919050565b60006125fc601e83612ecf565b91507f536166654d6174683a207375627472616374696f6e206f766572666c6f7700006000830152602082019050919050565b600061263c603083612ecf565b91507f416363657373436f6e74726f6c3a2073656e646572206d75737420626520616e60008301527f2061646d696e20746f207265766f6b65000000000000000000000000000000006020830152604082019050919050565b60006126a2601083612ecf565b91507f5061757361626c653a20706175736564000000000000000000000000000000006000830152602082019050919050565b60006126e2601883612ecf565b91507f4552433230576974685065726d69743a204558504952454400000000000000006000830152602082019050919050565b6000612722603683612ecf565b91507f45524332305072657365744d696e7465725061757365723a206d75737420686160008301527f7665206d696e74657220726f6c6520746f206d696e74000000000000000000006020830152604082019050919050565b6000612788602183612ecf565b91507f45524332303a206275726e2066726f6d20746865207a65726f2061646472657360008301527f73000000000000000000000000000000000000000000000000000000000000006020830152604082019050919050565b60006127ee602283612ecf565b91507f4552433230576974685065726d69743a20494e56414c49445f5349474e41545560008301527f52450000000000000000000000000000000000000000000000000000000000006020830152604082019050919050565b6000612854602583612ecf565b91507f45524332303a207472616e736665722066726f6d20746865207a65726f20616460008301527f64726573730000000000000000000000000000000000000000000000000000006020830152604082019050919050565b60006128ba602483612ecf565b91507f45524332303a20617070726f76652066726f6d20746865207a65726f2061646460008301527f72657373000000000000000000000000000000000000000000000000000000006020830152604082019050919050565b6000612920603783612ecf565b91507f45524332305072657365744d696e7465725061757365723a206d75737420686160008301527f76652070617573657220726f6c6520746f2070617573650000000000000000006020830152604082019050919050565b6000612986602f83612ecf565b91507f416363657373436f6e74726f6c3a2063616e206f6e6c792072656e6f756e636560008301527f20726f6c657320666f722073656c6600000000000000000000000000000000006020830152604082019050919050565b60006129ec601f83612ecf565b91507f45524332303a206d696e7420746f20746865207a65726f2061646472657373006000830152602082019050919050565b6000612a2c602a83612ecf565b91507f45524332305061757361626c653a20746f6b656e207472616e7366657220776860008301527f696c6520706175736564000000000000000000000000000000000000000000006020830152604082019050919050565b612a8e81612f33565b82525050565b612a9d81612f3d565b82525050565b6000612aae8261256f565b9150612aba82856122e1565b602082019150612aca82846122e1565b6020820191508190509392505050565b6000602082019050612aef60008301846122b4565b92915050565b6000602082019050612b0a60008301846122a5565b92915050565b6000602082019050612b2560008301846122c3565b92915050565b6000602082019050612b4060008301846122d2565b92915050565b600060c082019050612b5b60008301896122d2565b612b6860208301886122b4565b612b7560408301876122b4565b612b826060830186612a85565b612b8f6080830185612a85565b612b9c60a0830184612a85565b979650505050505050565b6000608082019050612bbc60008301876122d2565b612bc96020830186612a94565b612bd660408301856122d2565b612be360608301846122d2565b95945050505050565b60006020820190508181036000830152612c0681846122f8565b905092915050565b60006020820190508181036000830152612c2781612331565b9050919050565b60006020820190508181036000830152612c4781612397565b9050919050565b60006020820190508181036000830152612c67816123fd565b9050919050565b60006020820190508181036000830152612c8781612463565b9050919050565b60006020820190508181036000830152612ca7816124a3565b9050919050565b60006020820190508181036000830152612cc781612509565b9050919050565b60006020820190508181036000830152612ce7816125af565b9050919050565b60006020820190508181036000830152612d07816125ef565b9050919050565b60006020820190508181036000830152612d278161262f565b9050919050565b60006020820190508181036000830152612d4781612695565b9050919050565b60006020820190508181036000830152612d67816126d5565b9050919050565b60006020820190508181036000830152612d8781612715565b9050919050565b60006020820190508181036000830152612da78161277b565b9050919050565b60006020820190508181036000830152612dc7816127e1565b9050919050565b60006020820190508181036000830152612de781612847565b9050919050565b60006020820190508181036000830152612e07816128ad565b9050919050565b60006020820190508181036000830152612e2781612913565b9050919050565b60006020820190508181036000830152612e4781612979565b9050919050565b60006020820190508181036000830152612e67816129df565b9050919050565b60006020820190508181036000830152612e8781612a1f565b9050919050565b6000602082019050612ea36000830184612a85565b92915050565b6000602082019050612ebe6000830184612a94565b92915050565b600081519050919050565b600082825260208201905092915050565b600081905092915050565b6000612ef682612f13565b9050919050565b60008115159050919050565b6000819050919050565b600073ffffffffffffffffffffffffffffffffffffffff82169050919050565b6000819050919050565b600060ff82169050919050565b6000612f5582612f5c565b9050919050565b6000612f6782612f6e565b9050919050565b6000612f7982612f13565b9050919050565b60005b83811015612f9e578082015181840152602081019050612f83565b83811115612fad576000848401525b50505050565b6000819050919050565b6000601f19601f8301169050919050565b612fd781612eeb565b8114612fe257600080fd5b50565b612fee81612f09565b8114612ff957600080fd5b50565b61300581612f33565b811461301057600080fd5b50565b61301c81612f3d565b811461302757600080fd5b5056fe45524332303a206275726e20616d6f756e7420657863656564732062616c616e636545524332303a207472616e7366657220616d6f756e7420657863656564732062616c616e636545524332303a207472616e7366657220616d6f756e74206578636565647320616c6c6f77616e636545524332303a206275726e20616d6f756e74206578636565647320616c6c6f77616e636545524332303a2064656372656173656420616c6c6f77616e63652062656c6f77207a65726fa2646970667358221220d8182ebc0c4599630c8e37216677fa207296a480db9358a1e0b312831d09440f64736f6c63430007000033",
  "source": "// SPDX-License-Identifier: UNLICENSED\n\npragma solidity ^0.7.0;\npragma experimental ABIEncoderV2;\n\nimport \"@openzeppelin/contracts/presets/ERC20PresetMinterPauser.sol\";\n\ncontract LibraryToken is ERC20PresetMinterPauser {\n  bytes32 public DOMAIN_SEPARATOR;\n  // representation of keccak256(\"Permit(address owner,address spender,uint256 value,uint256 nonce,uint256 deadline)\");\n  bytes32 public constant PERMIT_TYPEHASH =\n      0x6e71edae12b1b97f4d1f60370fef10105fa2faae0126114a169c64845d6126c9;\n  mapping(address => uint256) public nonces;\n\n  constructor() ERC20PresetMinterPauser(\"LibraryToken\", \"LIB\") {\n    DOMAIN_SEPARATOR = keccak256(\n      abi.encode(\n        keccak256(\n          \"EIP712Domain(string name,string version,address verifyingContract)\"\n        ),\n        keccak256(bytes('Library Token')),\n        keccak256(bytes(\"1\")),\n        address(this)\n      )\n    );\n  }\n\n  function permit(address owner, address spender, uint256 value, uint256 deadline, uint8 v, bytes32 r, bytes32 s) external {\n    // solhint-disable-next-line\n    require(deadline >= block.timestamp, \"ERC20WithPermit: EXPIRED\");\n\n    bytes32 digest =\n      keccak256(\n        abi.encodePacked(\n          \"\\x19\\x01\",\n          DOMAIN_SEPARATOR,\n          keccak256(\n            abi.encode(\n              PERMIT_TYPEHASH,\n              owner,\n              spender,\n              value,\n              nonces[owner]++,\n              deadline\n            )\n          )\n        )\n      );\n\n    address recoveredAddress = ecrecover(digest, v, r, s);\n    require(\n      recoveredAddress != address(0) && recoveredAddress == owner,\n      \"ERC20WithPermit: INVALID_SIGNATURE\"\n    );\n\n    _approve(owner, spender, value);\n  }\n}",
  "sourcePath": "/Users/viktortodorov/Desktop/BookLibrary/contracts/LibraryToken.sol",
  "compiler": {
    "name": "solc",
    "version": "0.7.0+commit.9e61f92b.Emscripten.clang",
    "optimizer": false,
    "runs": 200
  },
  "schemaVersion": "2.3.5",
  "updatedAt": "2021-06-16T13:08:29.477Z"
}