{
  "contractName": "LibraryToken",
  "abi": [
    {
      "inputs": [],
      "stateMutability": "nonpayable",
      "type": "constructor"
    },
    {
      "anonymous": false,
      "inputs": [
        {
          "indexed": true,
          "internalType": "address",
          "name": "owner",
          "type": "address"
        },
        {
          "indexed": true,
          "internalType": "address",
          "name": "spender",
          "type": "address"
        },
        {
          "indexed": false,
          "internalType": "uint256",
          "name": "value",
          "type": "uint256"
        }
      ],
      "name": "Approval",
      "type": "event"
    },
    {
      "anonymous": false,
      "inputs": [
        {
          "indexed": false,
          "internalType": "address",
          "name": "account",
          "type": "address"
        }
      ],
      "name": "Paused",
      "type": "event"
    },
    {
      "anonymous": false,
      "inputs": [
        {
          "indexed": true,
          "internalType": "bytes32",
          "name": "role",
          "type": "bytes32"
        },
        {
          "indexed": true,
          "internalType": "bytes32",
          "name": "previousAdminRole",
          "type": "bytes32"
        },
        {
          "indexed": true,
          "internalType": "bytes32",
          "name": "newAdminRole",
          "type": "bytes32"
        }
      ],
      "name": "RoleAdminChanged",
      "type": "event"
    },
    {
      "anonymous": false,
      "inputs": [
        {
          "indexed": true,
          "internalType": "bytes32",
          "name": "role",
          "type": "bytes32"
        },
        {
          "indexed": true,
          "internalType": "address",
          "name": "account",
          "type": "address"
        },
        {
          "indexed": true,
          "internalType": "address",
          "name": "sender",
          "type": "address"
        }
      ],
      "name": "RoleGranted",
      "type": "event"
    },
    {
      "anonymous": false,
      "inputs": [
        {
          "indexed": true,
          "internalType": "bytes32",
          "name": "role",
          "type": "bytes32"
        },
        {
          "indexed": true,
          "internalType": "address",
          "name": "account",
          "type": "address"
        },
        {
          "indexed": true,
          "internalType": "address",
          "name": "sender",
          "type": "address"
        }
      ],
      "name": "RoleRevoked",
      "type": "event"
    },
    {
      "anonymous": false,
      "inputs": [
        {
          "indexed": true,
          "internalType": "address",
          "name": "from",
          "type": "address"
        },
        {
          "indexed": true,
          "internalType": "address",
          "name": "to",
          "type": "address"
        },
        {
          "indexed": false,
          "internalType": "uint256",
          "name": "value",
          "type": "uint256"
        }
      ],
      "name": "Transfer",
      "type": "event"
    },
    {
      "anonymous": false,
      "inputs": [
        {
          "indexed": false,
          "internalType": "address",
          "name": "account",
          "type": "address"
        }
      ],
      "name": "Unpaused",
      "type": "event"
    },
    {
      "inputs": [],
      "name": "DEFAULT_ADMIN_ROLE",
      "outputs": [
        {
          "internalType": "bytes32",
          "name": "",
          "type": "bytes32"
        }
      ],
      "stateMutability": "view",
      "type": "function"
    },
    {
      "inputs": [],
      "name": "DOMAIN_SEPARATOR",
      "outputs": [
        {
          "internalType": "bytes32",
          "name": "",
          "type": "bytes32"
        }
      ],
      "stateMutability": "view",
      "type": "function"
    },
    {
      "inputs": [],
      "name": "MINTER_ROLE",
      "outputs": [
        {
          "internalType": "bytes32",
          "name": "",
          "type": "bytes32"
        }
      ],
      "stateMutability": "view",
      "type": "function"
    },
    {
      "inputs": [],
      "name": "PAUSER_ROLE",
      "outputs": [
        {
          "internalType": "bytes32",
          "name": "",
          "type": "bytes32"
        }
      ],
      "stateMutability": "view",
      "type": "function"
    },
    {
      "inputs": [],
      "name": "PERMIT_TYPEHASH",
      "outputs": [
        {
          "internalType": "bytes32",
          "name": "",
          "type": "bytes32"
        }
      ],
      "stateMutability": "view",
      "type": "function"
    },
    {
      "inputs": [
        {
          "internalType": "address",
          "name": "owner",
          "type": "address"
        },
        {
          "internalType": "address",
          "name": "spender",
          "type": "address"
        }
      ],
      "name": "allowance",
      "outputs": [
        {
          "internalType": "uint256",
          "name": "",
          "type": "uint256"
        }
      ],
      "stateMutability": "view",
      "type": "function"
    },
    {
      "inputs": [
        {
          "internalType": "address",
          "name": "spender",
          "type": "address"
        },
        {
          "internalType": "uint256",
          "name": "amount",
          "type": "uint256"
        }
      ],
      "name": "approve",
      "outputs": [
        {
          "internalType": "bool",
          "name": "",
          "type": "bool"
        }
      ],
      "stateMutability": "nonpayable",
      "type": "function"
    },
    {
      "inputs": [
        {
          "internalType": "address",
          "name": "account",
          "type": "address"
        }
      ],
      "name": "balanceOf",
      "outputs": [
        {
          "internalType": "uint256",
          "name": "",
          "type": "uint256"
        }
      ],
      "stateMutability": "view",
      "type": "function"
    },
    {
      "inputs": [
        {
          "internalType": "uint256",
          "name": "amount",
          "type": "uint256"
        }
      ],
      "name": "burn",
      "outputs": [],
      "stateMutability": "nonpayable",
      "type": "function"
    },
    {
      "inputs": [
        {
          "internalType": "address",
          "name": "account",
          "type": "address"
        },
        {
          "internalType": "uint256",
          "name": "amount",
          "type": "uint256"
        }
      ],
      "name": "burnFrom",
      "outputs": [],
      "stateMutability": "nonpayable",
      "type": "function"
    },
    {
      "inputs": [],
      "name": "decimals",
      "outputs": [
        {
          "internalType": "uint8",
          "name": "",
          "type": "uint8"
        }
      ],
      "stateMutability": "view",
      "type": "function"
    },
    {
      "inputs": [
        {
          "internalType": "address",
          "name": "spender",
          "type": "address"
        },
        {
          "internalType": "uint256",
          "name": "subtractedValue",
          "type": "uint256"
        }
      ],
      "name": "decreaseAllowance",
      "outputs": [
        {
          "internalType": "bool",
          "name": "",
          "type": "bool"
        }
      ],
      "stateMutability": "nonpayable",
      "type": "function"
    },
    {
      "inputs": [
        {
          "internalType": "bytes32",
          "name": "role",
          "type": "bytes32"
        }
      ],
      "name": "getRoleAdmin",
      "outputs": [
        {
          "internalType": "bytes32",
          "name": "",
          "type": "bytes32"
        }
      ],
      "stateMutability": "view",
      "type": "function"
    },
    {
      "inputs": [
        {
          "internalType": "bytes32",
          "name": "role",
          "type": "bytes32"
        },
        {
          "internalType": "uint256",
          "name": "index",
          "type": "uint256"
        }
      ],
      "name": "getRoleMember",
      "outputs": [
        {
          "internalType": "address",
          "name": "",
          "type": "address"
        }
      ],
      "stateMutability": "view",
      "type": "function"
    },
    {
      "inputs": [
        {
          "internalType": "bytes32",
          "name": "role",
          "type": "bytes32"
        }
      ],
      "name": "getRoleMemberCount",
      "outputs": [
        {
          "internalType": "uint256",
          "name": "",
          "type": "uint256"
        }
      ],
      "stateMutability": "view",
      "type": "function"
    },
    {
      "inputs": [
        {
          "internalType": "bytes32",
          "name": "role",
          "type": "bytes32"
        },
        {
          "internalType": "address",
          "name": "account",
          "type": "address"
        }
      ],
      "name": "grantRole",
      "outputs": [],
      "stateMutability": "nonpayable",
      "type": "function"
    },
    {
      "inputs": [
        {
          "internalType": "bytes32",
          "name": "role",
          "type": "bytes32"
        },
        {
          "internalType": "address",
          "name": "account",
          "type": "address"
        }
      ],
      "name": "hasRole",
      "outputs": [
        {
          "internalType": "bool",
          "name": "",
          "type": "bool"
        }
      ],
      "stateMutability": "view",
      "type": "function"
    },
    {
      "inputs": [
        {
          "internalType": "address",
          "name": "spender",
          "type": "address"
        },
        {
          "internalType": "uint256",
          "name": "addedValue",
          "type": "uint256"
        }
      ],
      "name": "increaseAllowance",
      "outputs": [
        {
          "internalType": "bool",
          "name": "",
          "type": "bool"
        }
      ],
      "stateMutability": "nonpayable",
      "type": "function"
    },
    {
      "inputs": [
        {
          "internalType": "address",
          "name": "to",
          "type": "address"
        },
        {
          "internalType": "uint256",
          "name": "amount",
          "type": "uint256"
        }
      ],
      "name": "mint",
      "outputs": [],
      "stateMutability": "nonpayable",
      "type": "function"
    },
    {
      "inputs": [],
      "name": "name",
      "outputs": [
        {
          "internalType": "string",
          "name": "",
          "type": "string"
        }
      ],
      "stateMutability": "view",
      "type": "function"
    },
    {
      "inputs": [
        {
          "internalType": "address",
          "name": "",
          "type": "address"
        }
      ],
      "name": "nonces",
      "outputs": [
        {
          "internalType": "uint256",
          "name": "",
          "type": "uint256"
        }
      ],
      "stateMutability": "view",
      "type": "function"
    },
    {
      "inputs": [],
      "name": "pause",
      "outputs": [],
      "stateMutability": "nonpayable",
      "type": "function"
    },
    {
      "inputs": [],
      "name": "paused",
      "outputs": [
        {
          "internalType": "bool",
          "name": "",
          "type": "bool"
        }
      ],
      "stateMutability": "view",
      "type": "function"
    },
    {
      "inputs": [
        {
          "internalType": "bytes32",
          "name": "role",
          "type": "bytes32"
        },
        {
          "internalType": "address",
          "name": "account",
          "type": "address"
        }
      ],
      "name": "renounceRole",
      "outputs": [],
      "stateMutability": "nonpayable",
      "type": "function"
    },
    {
      "inputs": [
        {
          "internalType": "bytes32",
          "name": "role",
          "type": "bytes32"
        },
        {
          "internalType": "address",
          "name": "account",
          "type": "address"
        }
      ],
      "name": "revokeRole",
      "outputs": [],
      "stateMutability": "nonpayable",
      "type": "function"
    },
    {
      "inputs": [],
      "name": "symbol",
      "outputs": [
        {
          "internalType": "string",
          "name": "",
          "type": "string"
        }
      ],
      "stateMutability": "view",
      "type": "function"
    },
    {
      "inputs": [],
      "name": "totalSupply",
      "outputs": [
        {
          "internalType": "uint256",
          "name": "",
          "type": "uint256"
        }
      ],
      "stateMutability": "view",
      "type": "function"
    },
    {
      "inputs": [
        {
          "internalType": "address",
          "name": "recipient",
          "type": "address"
        },
        {
          "internalType": "uint256",
          "name": "amount",
          "type": "uint256"
        }
      ],
      "name": "transfer",
      "outputs": [
        {
          "internalType": "bool",
          "name": "",
          "type": "bool"
        }
      ],
      "stateMutability": "nonpayable",
      "type": "function"
    },
    {
      "inputs": [
        {
          "internalType": "address",
          "name": "sender",
          "type": "address"
        },
        {
          "internalType": "address",
          "name": "recipient",
          "type": "address"
        },
        {
          "internalType": "uint256",
          "name": "amount",
          "type": "uint256"
        }
      ],
      "name": "transferFrom",
      "outputs": [
        {
          "internalType": "bool",
          "name": "",
          "type": "bool"
        }
      ],
      "stateMutability": "nonpayable",
      "type": "function"
    },
    {
      "inputs": [],
      "name": "unpause",
      "outputs": [],
      "stateMutability": "nonpayable",
      "type": "function"
    },
    {
      "inputs": [
        {
          "internalType": "address",
          "name": "owner",
          "type": "address"
        },
        {
          "internalType": "address",
          "name": "spender",
          "type": "address"
        },
        {
          "internalType": "uint256",
          "name": "value",
          "type": "uint256"
        },
        {
          "internalType": "uint256",
          "name": "deadline",
          "type": "uint256"
        },
        {
          "internalType": "uint8",
          "name": "v",
          "type": "uint8"
        },
        {
          "internalType": "bytes32",
          "name": "r",
          "type": "bytes32"
        },
        {
          "internalType": "bytes32",
          "name": "s",
          "type": "bytes32"
        }
      ],
      "name": "getRecoveredAddress",
      "outputs": [
        {
          "internalType": "address",
          "name": "",
          "type": "address"
        }
      ],
      "stateMutability": "view",
      "type": "function"
    },
    {
      "inputs": [
        {
          "internalType": "address",
          "name": "owner",
          "type": "address"
        },
        {
          "internalType": "address",
          "name": "spender",
          "type": "address"
        },
        {
          "internalType": "uint256",
          "name": "value",
          "type": "uint256"
        },
        {
          "internalType": "uint256",
          "name": "deadline",
          "type": "uint256"
        },
        {
          "internalType": "uint8",
          "name": "v",
          "type": "uint8"
        },
        {
          "internalType": "bytes32",
          "name": "r",
          "type": "bytes32"
        },
        {
          "internalType": "bytes32",
          "name": "s",
          "type": "bytes32"
        }
      ],
      "name": "permit",
      "outputs": [],
      "stateMutability": "nonpayable",
      "type": "function"
    }
  ],
  "bytecode": "0x60806040523480156200001157600080fd5b506040518060400160405280600c81526020017f4c696272617279546f6b656e00000000000000000000000000000000000000008152506040518060400160405280600381526020017f4c494200000000000000000000000000000000000000000000000000000000008152508181816004908051906020019062000098929190620003fc565b508060059080519060200190620000b1929190620003fc565b506012600660006101000a81548160ff021916908360ff16021790555050506000600660016101000a81548160ff0219169083151502179055506200010f6000801b620001036200026660201b60201c565b6200026e60201b60201c565b620001507f9f2df0fed2c77648de5860a4cc508cd0818c85b8b8a1ab4ceeef8d981c8956a6620001446200026660201b60201c565b6200026e60201b60201c565b620001917f65d7a28e3265b37a6474929f336521b332c1681b933f6cb9f3376673440d862a620001856200026660201b60201c565b6200026e60201b60201c565b50507f91ab3d17e3a50a9d89e63fd30b92be7f5336b03b287bb946787a83a9d62a27666040518060400160405280600c81526020017f4c696272617279546f6b656e0000000000000000000000000000000000000000815250805190602001206040518060400160405280600181526020017f31000000000000000000000000000000000000000000000000000000000000008152508051906020012030604051602001620002449493929190620004c4565b604051602081830303815290604052805190602001206007819055506200054f565b600033905090565b6200028082826200028460201b60201c565b5050565b620002b2816000808581526020019081526020016000206000016200032760201b6200131d1790919060201c565b156200032357620002c86200026660201b60201c565b73ffffffffffffffffffffffffffffffffffffffff168173ffffffffffffffffffffffffffffffffffffffff16837f2f8788117e7eff1d82e926ec794901d17c78024a50270940304540a733656f0d60405160405180910390a45b5050565b600062000357836000018373ffffffffffffffffffffffffffffffffffffffff1660001b6200035f60201b60201c565b905092915050565b6000620003738383620003d960201b60201c565b620003ce578260000182908060018154018082558091505060019003906000526020600020016000909190919091505582600001805490508360010160008481526020019081526020016000208190555060019050620003d3565b600090505b92915050565b600080836001016000848152602001908152602001600020541415905092915050565b828054600181600116156101000203166002900490600052602060002090601f016020900481019282601f106200043f57805160ff191683800117855562000470565b8280016001018555821562000470579182015b828111156200046f57825182559160200191906001019062000452565b5b5090506200047f919062000483565b5090565b5b808211156200049e57600081600090555060010162000484565b5090565b620004ad8162000511565b82525050565b620004be8162000525565b82525050565b6000608082019050620004db6000830187620004b3565b620004ea6020830186620004b3565b620004f96040830185620004b3565b620005086060830184620004a2565b95945050505050565b60006200051e826200052f565b9050919050565b6000819050919050565b600073ffffffffffffffffffffffffffffffffffffffff82169050919050565b613279806200055f6000396000f3fe608060405234801561001057600080fd5b50600436106101f05760003560e01c806379cc67901161010f578063a9059cbb116100a2578063d547741f11610071578063d547741f146105cf578063dd62ed3e146105eb578063e63ab1e91461061b578063fe8f635d14610639576101f0565b8063a9059cbb14610535578063ca15c87314610565578063d505accf14610595578063d5391393146105b1576101f0565b806391d14854116100de57806391d148541461049957806395d89b41146104c9578063a217fddf146104e7578063a457c2d714610505576101f0565b806379cc6790146104135780637ecebe001461042f5780638456cb591461045f5780639010d07c14610469576101f0565b80633644e5151161018757806340c10f191161015657806340c10f191461038d57806342966c68146103a95780635c975abb146103c557806370a08231146103e3576101f0565b80633644e5151461031957806336568abe1461033757806339509351146103535780633f4ba83a14610383576101f0565b8063248a9ca3116101c3578063248a9ca3146102915780632f2ff15d146102c157806330adf81f146102dd578063313ce567146102fb576101f0565b806306fdde03146101f5578063095ea7b31461021357806318160ddd1461024357806323b872dd14610261575b600080fd5b6101fd610669565b60405161020a9190612d4c565b60405180910390f35b61022d600480360381019061022891906122ff565b61070b565b60405161023a9190612c70565b60405180910390f35b61024b610729565b6040516102589190612fee565b60405180910390f35b61027b60048036038101906102769190612212565b610733565b6040516102889190612c70565b60405180910390f35b6102ab60048036038101906102a6919061233b565b61080c565b6040516102b89190612c8b565b60405180910390f35b6102db60048036038101906102d69190612364565b61082b565b005b6102e561089e565b6040516102f29190612c8b565b60405180910390f35b6103036108c5565b6040516103109190613009565b60405180910390f35b6103216108dc565b60405161032e9190612c8b565b60405180910390f35b610351600480360381019061034c9190612364565b6108e2565b005b61036d600480360381019061036891906122ff565b610965565b60405161037a9190612c70565b60405180910390f35b61038b610a18565b005b6103a760048036038101906103a291906122ff565b610a92565b005b6103c360048036038101906103be91906123dc565b610b10565b005b6103cd610b24565b6040516103da9190612c70565b60405180910390f35b6103fd60048036038101906103f891906121ad565b610b3b565b60405161040a9190612fee565b60405180910390f35b61042d600480360381019061042891906122ff565b610b84565b005b610449600480360381019061044491906121ad565b610be6565b6040516104569190612fee565b60405180910390f35b610467610bfe565b005b610483600480360381019061047e91906123a0565b610c78565b6040516104909190612c3a565b60405180910390f35b6104b360048036038101906104ae9190612364565b610ca9565b6040516104c09190612c70565b60405180910390f35b6104d1610cda565b6040516104de9190612d4c565b60405180910390f35b6104ef610d7c565b6040516104fc9190612c8b565b60405180910390f35b61051f600480360381019061051a91906122ff565b610d83565b60405161052c9190612c70565b60405180910390f35b61054f600480360381019061054a91906122ff565b610e50565b60405161055c9190612c70565b60405180910390f35b61057f600480360381019061057a919061233b565b610e6e565b60405161058c9190612fee565b60405180910390f35b6105af60048036038101906105aa9190612261565b610e94565b005b6105b96110b6565b6040516105c69190612c8b565b60405180910390f35b6105e960048036038101906105e49190612364565b6110da565b005b610605600480360381019061060091906121d6565b61114d565b6040516106129190612fee565b60405180910390f35b6106236111d4565b6040516106309190612c8b565b60405180910390f35b610653600480360381019061064e9190612261565b6111f8565b6040516106609190612c3a565b60405180910390f35b606060048054600181600116156101000203166002900480601f0160208091040260200160405190810160405280929190818152602001828054600181600116156101000203166002900480156107015780601f106106d657610100808354040283529160200191610701565b820191906000526020600020905b8154815290600101906020018083116106e457829003601f168201915b5050505050905090565b600061071f61071861134d565b8484611355565b6001905092915050565b6000600354905090565b6000610740848484611520565b6108018461074c61134d565b6107fc856040518060600160405280602881526020016131d360289139600260008b73ffffffffffffffffffffffffffffffffffffffff1673ffffffffffffffffffffffffffffffffffffffff16815260200190815260200160002060006107b261134d565b73ffffffffffffffffffffffffffffffffffffffff1673ffffffffffffffffffffffffffffffffffffffff168152602001908152602001600020546117b99092919063ffffffff16565b611355565b600190509392505050565b6000806000838152602001908152602001600020600201549050919050565b6108516000808481526020019081526020016000206002015461084c61134d565b610ca9565b610890576040517f08c379a000000000000000000000000000000000000000000000000000000000815260040161088790612dae565b60405180910390fd5b61089a828261180e565b5050565b7f6e71edae12b1b97f4d1f60370fef10105fa2faae0126114a169c64845d6126c960001b81565b6000600660009054906101000a900460ff16905090565b60075481565b6108ea61134d565b73ffffffffffffffffffffffffffffffffffffffff168173ffffffffffffffffffffffffffffffffffffffff1614610957576040517f08c379a000000000000000000000000000000000000000000000000000000000815260040161094e90612f8e565b60405180910390fd5b61096182826118a1565b5050565b6000610a0e61097261134d565b84610a09856002600061098361134d565b73ffffffffffffffffffffffffffffffffffffffff1673ffffffffffffffffffffffffffffffffffffffff16815260200190815260200160002060008973ffffffffffffffffffffffffffffffffffffffff1673ffffffffffffffffffffffffffffffffffffffff1681526020019081526020016000205461193490919063ffffffff16565b611355565b6001905092915050565b610a497f65d7a28e3265b37a6474929f336521b332c1681b933f6cb9f3376673440d862a610a4461134d565b610ca9565b610a88576040517f08c379a0000000000000000000000000000000000000000000000000000000008152600401610a7f90612dee565b60405180910390fd5b610a90611989565b565b610ac37f9f2df0fed2c77648de5860a4cc508cd0818c85b8b8a1ab4ceeef8d981c8956a6610abe61134d565b610ca9565b610b02576040517f08c379a0000000000000000000000000000000000000000000000000000000008152600401610af990612ece565b60405180910390fd5b610b0c8282611a2b565b5050565b610b21610b1b61134d565b82611bc1565b50565b6000600660019054906101000a900460ff16905090565b6000600160008373ffffffffffffffffffffffffffffffffffffffff1673ffffffffffffffffffffffffffffffffffffffff168152602001908152602001600020549050919050565b6000610bc3826040518060600160405280602481526020016131fb60249139610bb486610baf61134d565b61114d565b6117b99092919063ffffffff16565b9050610bd783610bd161134d565b83611355565b610be18383611bc1565b505050565b60086020528060005260406000206000915090505481565b610c2f7f65d7a28e3265b37a6474929f336521b332c1681b933f6cb9f3376673440d862a610c2a61134d565b610ca9565b610c6e576040517f08c379a0000000000000000000000000000000000000000000000000000000008152600401610c6590612f6e565b60405180910390fd5b610c76611d71565b565b6000610ca182600080868152602001908152602001600020600001611e1490919063ffffffff16565b905092915050565b6000610cd282600080868152602001908152602001600020600001611e2e90919063ffffffff16565b905092915050565b606060058054600181600116156101000203166002900480601f016020809104026020016040519081016040528092919081815260200182805460018160011615610100020316600290048015610d725780601f10610d4757610100808354040283529160200191610d72565b820191906000526020600020905b815481529060010190602001808311610d5557829003601f168201915b5050505050905090565b6000801b81565b6000610e46610d9061134d565b84610e418560405180606001604052806025815260200161321f6025913960026000610dba61134d565b73ffffffffffffffffffffffffffffffffffffffff1673ffffffffffffffffffffffffffffffffffffffff16815260200190815260200160002060008a73ffffffffffffffffffffffffffffffffffffffff1673ffffffffffffffffffffffffffffffffffffffff168152602001908152602001600020546117b99092919063ffffffff16565b611355565b6001905092915050565b6000610e64610e5d61134d565b8484611520565b6001905092915050565b6000610e8d600080848152602001908152602001600020600001611e5e565b9050919050565b42841015610ed7576040517f08c379a0000000000000000000000000000000000000000000000000000000008152600401610ece90612eae565b60405180910390fd5b60006007547f6e71edae12b1b97f4d1f60370fef10105fa2faae0126114a169c64845d6126c960001b898989600860008e73ffffffffffffffffffffffffffffffffffffffff1673ffffffffffffffffffffffffffffffffffffffff1681526020019081526020016000206000815480929190600101919050558a604051602001610f6796959493929190612ca6565b60405160208183030381529060405280519060200120604051602001610f8e929190612c03565b604051602081830303815290604052805190602001209050600060018286868660405160008152602001604052604051610fcb9493929190612d07565b6020604051602081039080840390855afa158015610fed573d6000803e3d6000fd5b505050602060405103519050600073ffffffffffffffffffffffffffffffffffffffff168173ffffffffffffffffffffffffffffffffffffffff161415801561106157508873ffffffffffffffffffffffffffffffffffffffff168173ffffffffffffffffffffffffffffffffffffffff16145b6110a0576040517f08c379a000000000000000000000000000000000000000000000000000000000815260040161109790612f0e565b60405180910390fd5b6110ab898989611355565b505050505050505050565b7f9f2df0fed2c77648de5860a4cc508cd0818c85b8b8a1ab4ceeef8d981c8956a681565b611100600080848152602001908152602001600020600201546110fb61134d565b610ca9565b61113f576040517f08c379a000000000000000000000000000000000000000000000000000000000815260040161113690612e6e565b60405180910390fd5b61114982826118a1565b5050565b6000600260008473ffffffffffffffffffffffffffffffffffffffff1673ffffffffffffffffffffffffffffffffffffffff16815260200190815260200160002060008373ffffffffffffffffffffffffffffffffffffffff1673ffffffffffffffffffffffffffffffffffffffff16815260200190815260200160002054905092915050565b7f65d7a28e3265b37a6474929f336521b332c1681b933f6cb9f3376673440d862a81565b6000806007547f6e71edae12b1b97f4d1f60370fef10105fa2faae0126114a169c64845d6126c960001b8a8a8a600860008f73ffffffffffffffffffffffffffffffffffffffff1673ffffffffffffffffffffffffffffffffffffffff168152602001908152602001600020548b60405160200161127b96959493929190612ca6565b604051602081830303815290604052805190602001206040516020016112a2929190612c03565b6040516020818303038152906040528051906020012090506000600182878787604051600081526020016040526040516112df9493929190612d07565b6020604051602081039080840390855afa158015611301573d6000803e3d6000fd5b5050506020604051035190508092505050979650505050505050565b6000611345836000018373ffffffffffffffffffffffffffffffffffffffff1660001b611e73565b905092915050565b600033905090565b600073ffffffffffffffffffffffffffffffffffffffff168373ffffffffffffffffffffffffffffffffffffffff1614156113c5576040517f08c379a00000000000000000000000000000000000000000000000000000000081526004016113bc90612f4e565b60405180910390fd5b600073ffffffffffffffffffffffffffffffffffffffff168273ffffffffffffffffffffffffffffffffffffffff161415611435576040517f08c379a000000000000000000000000000000000000000000000000000000000815260040161142c90612e0e565b60405180910390fd5b80600260008573ffffffffffffffffffffffffffffffffffffffff1673ffffffffffffffffffffffffffffffffffffffff16815260200190815260200160002060008473ffffffffffffffffffffffffffffffffffffffff1673ffffffffffffffffffffffffffffffffffffffff168152602001908152602001600020819055508173ffffffffffffffffffffffffffffffffffffffff168373ffffffffffffffffffffffffffffffffffffffff167f8c5be1e5ebec7d5bd14f71427d1e84f3dd0314c0f7b2291e5b200ac8c7c3b925836040516115139190612fee565b60405180910390a3505050565b600073ffffffffffffffffffffffffffffffffffffffff168373ffffffffffffffffffffffffffffffffffffffff161415611590576040517f08c379a000000000000000000000000000000000000000000000000000000000815260040161158790612f2e565b60405180910390fd5b600073ffffffffffffffffffffffffffffffffffffffff168273ffffffffffffffffffffffffffffffffffffffff161415611600576040517f08c379a00000000000000000000000000000000000000000000000000000000081526004016115f790612d8e565b60405180910390fd5b61160b838383611ee3565b611677816040518060600160405280602681526020016131ad60269139600160008773ffffffffffffffffffffffffffffffffffffffff1673ffffffffffffffffffffffffffffffffffffffff168152602001908152602001600020546117b99092919063ffffffff16565b600160008573ffffffffffffffffffffffffffffffffffffffff1673ffffffffffffffffffffffffffffffffffffffff1681526020019081526020016000208190555061170c81600160008573ffffffffffffffffffffffffffffffffffffffff1673ffffffffffffffffffffffffffffffffffffffff1681526020019081526020016000205461193490919063ffffffff16565b600160008473ffffffffffffffffffffffffffffffffffffffff1673ffffffffffffffffffffffffffffffffffffffff168152602001908152602001600020819055508173ffffffffffffffffffffffffffffffffffffffff168373ffffffffffffffffffffffffffffffffffffffff167fddf252ad1be2c89b69c2b068fc378daa952ba7f163c4a11628f55a4df523b3ef836040516117ac9190612fee565b60405180910390a3505050565b6000838311158290611801576040517f08c379a00000000000000000000000000000000000000000000000000000000081526004016117f89190612d4c565b60405180910390fd5b5082840390509392505050565b6118358160008085815260200190815260200160002060000161131d90919063ffffffff16565b1561189d5761184261134d565b73ffffffffffffffffffffffffffffffffffffffff168173ffffffffffffffffffffffffffffffffffffffff16837f2f8788117e7eff1d82e926ec794901d17c78024a50270940304540a733656f0d60405160405180910390a45b5050565b6118c881600080858152602001908152602001600020600001611ef390919063ffffffff16565b15611930576118d561134d565b73ffffffffffffffffffffffffffffffffffffffff168173ffffffffffffffffffffffffffffffffffffffff16837ff6391f5c32d9c69d2a47ea670b442974b53935d1edc7fd64eb21e047a839171b60405160405180910390a45b5050565b60008082840190508381101561197f576040517f08c379a000000000000000000000000000000000000000000000000000000000815260040161197690612e2e565b60405180910390fd5b8091505092915050565b611991610b24565b6119d0576040517f08c379a00000000000000000000000000000000000000000000000000000000081526004016119c790612dce565b60405180910390fd5b6000600660016101000a81548160ff0219169083151502179055507f5db9ee0a495bf2e6ff9c91a7834c1ba4fdd244a5e8aa4e537bd38aeae4b073aa611a1461134d565b604051611a219190612c55565b60405180910390a1565b600073ffffffffffffffffffffffffffffffffffffffff168273ffffffffffffffffffffffffffffffffffffffff161415611a9b576040517f08c379a0000000000000000000000000000000000000000000000000000000008152600401611a9290612fae565b60405180910390fd5b611aa760008383611ee3565b611abc8160035461193490919063ffffffff16565b600381905550611b1481600160008573ffffffffffffffffffffffffffffffffffffffff1673ffffffffffffffffffffffffffffffffffffffff1681526020019081526020016000205461193490919063ffffffff16565b600160008473ffffffffffffffffffffffffffffffffffffffff1673ffffffffffffffffffffffffffffffffffffffff168152602001908152602001600020819055508173ffffffffffffffffffffffffffffffffffffffff16600073ffffffffffffffffffffffffffffffffffffffff167fddf252ad1be2c89b69c2b068fc378daa952ba7f163c4a11628f55a4df523b3ef83604051611bb59190612fee565b60405180910390a35050565b600073ffffffffffffffffffffffffffffffffffffffff168273ffffffffffffffffffffffffffffffffffffffff161415611c31576040517f08c379a0000000000000000000000000000000000000000000000000000000008152600401611c2890612eee565b60405180910390fd5b611c3d82600083611ee3565b611ca98160405180606001604052806022815260200161318b60229139600160008673ffffffffffffffffffffffffffffffffffffffff1673ffffffffffffffffffffffffffffffffffffffff168152602001908152602001600020546117b99092919063ffffffff16565b600160008473ffffffffffffffffffffffffffffffffffffffff1673ffffffffffffffffffffffffffffffffffffffff16815260200190815260200160002081905550611d0181600354611f2390919063ffffffff16565b600381905550600073ffffffffffffffffffffffffffffffffffffffff168273ffffffffffffffffffffffffffffffffffffffff167fddf252ad1be2c89b69c2b068fc378daa952ba7f163c4a11628f55a4df523b3ef83604051611d659190612fee565b60405180910390a35050565b611d79610b24565b15611db9576040517f08c379a0000000000000000000000000000000000000000000000000000000008152600401611db090612e8e565b60405180910390fd5b6001600660016101000a81548160ff0219169083151502179055507f62e78cea01bee320cd4e420270b5ea74000d11b0c9f74754ebdbfc544b05a258611dfd61134d565b604051611e0a9190612c55565b60405180910390a1565b6000611e238360000183611f73565b60001c905092915050565b6000611e56836000018373ffffffffffffffffffffffffffffffffffffffff1660001b611fe0565b905092915050565b6000611e6c82600001612003565b9050919050565b6000611e7f8383611fe0565b611ed8578260000182908060018154018082558091505060019003906000526020600020016000909190919091505582600001805490508360010160008481526020019081526020016000208190555060019050611edd565b600090505b92915050565b611eee838383612014565b505050565b6000611f1b836000018373ffffffffffffffffffffffffffffffffffffffff1660001b61206c565b905092915050565b600082821115611f68576040517f08c379a0000000000000000000000000000000000000000000000000000000008152600401611f5f90612e4e565b60405180910390fd5b818303905092915050565b600081836000018054905011611fbe576040517f08c379a0000000000000000000000000000000000000000000000000000000008152600401611fb590612d6e565b60405180910390fd5b826000018281548110611fcd57fe5b9060005260206000200154905092915050565b600080836001016000848152602001908152602001600020541415905092915050565b600081600001805490509050919050565b61201f838383612154565b612027610b24565b15612067576040517f08c379a000000000000000000000000000000000000000000000000000000000815260040161205e90612fce565b60405180910390fd5b505050565b6000808360010160008481526020019081526020016000205490506000811461214857600060018203905060006001866000018054905003905060008660000182815481106120b757fe5b90600052602060002001549050808760000184815481106120d457fe5b906000526020600020018190555060018301876001016000838152602001908152602001600020819055508660000180548061210c57fe5b6001900381819060005260206000200160009055905586600101600087815260200190815260200160002060009055600194505050505061214e565b60009150505b92915050565b505050565b6000813590506121688161312e565b92915050565b60008135905061217d81613145565b92915050565b6000813590506121928161315c565b92915050565b6000813590506121a781613173565b92915050565b6000602082840312156121bf57600080fd5b60006121cd84828501612159565b91505092915050565b600080604083850312156121e957600080fd5b60006121f785828601612159565b925050602061220885828601612159565b9150509250929050565b60008060006060848603121561222757600080fd5b600061223586828701612159565b935050602061224686828701612159565b925050604061225786828701612183565b9150509250925092565b600080600080600080600060e0888a03121561227c57600080fd5b600061228a8a828b01612159565b975050602061229b8a828b01612159565b96505060406122ac8a828b01612183565b95505060606122bd8a828b01612183565b94505060806122ce8a828b01612198565b93505060a06122df8a828b0161216e565b92505060c06122f08a828b0161216e565b91505092959891949750929550565b6000806040838503121561231257600080fd5b600061232085828601612159565b925050602061233185828601612183565b9150509250929050565b60006020828403121561234d57600080fd5b600061235b8482850161216e565b91505092915050565b6000806040838503121561237757600080fd5b60006123858582860161216e565b925050602061239685828601612159565b9150509250929050565b600080604083850312156123b357600080fd5b60006123c18582860161216e565b92505060206123d285828601612183565b9150509250929050565b6000602082840312156123ee57600080fd5b60006123fc84828501612183565b91505092915050565b61240e816130aa565b82525050565b61241d8161304b565b82525050565b61242c8161305d565b82525050565b61243b81613069565b82525050565b61245261244d82613069565b613113565b82525050565b600061246382613024565b61246d818561302f565b935061247d8185602086016130e0565b6124868161311d565b840191505092915050565b600061249e60228361302f565b91507f456e756d657261626c655365743a20696e646578206f7574206f6620626f756e60008301527f64730000000000000000000000000000000000000000000000000000000000006020830152604082019050919050565b600061250460238361302f565b91507f45524332303a207472616e7366657220746f20746865207a65726f206164647260008301527f65737300000000000000000000000000000000000000000000000000000000006020830152604082019050919050565b600061256a602f8361302f565b91507f416363657373436f6e74726f6c3a2073656e646572206d75737420626520616e60008301527f2061646d696e20746f206772616e7400000000000000000000000000000000006020830152604082019050919050565b60006125d060148361302f565b91507f5061757361626c653a206e6f74207061757365640000000000000000000000006000830152602082019050919050565b600061261060398361302f565b91507f45524332305072657365744d696e7465725061757365723a206d75737420686160008301527f76652070617573657220726f6c6520746f20756e7061757365000000000000006020830152604082019050919050565b600061267660228361302f565b91507f45524332303a20617070726f766520746f20746865207a65726f20616464726560008301527f73730000000000000000000000000000000000000000000000000000000000006020830152604082019050919050565b60006126dc600283613040565b91507f19010000000000000000000000000000000000000000000000000000000000006000830152600282019050919050565b600061271c601b8361302f565b91507f536166654d6174683a206164646974696f6e206f766572666c6f7700000000006000830152602082019050919050565b600061275c601e8361302f565b91507f536166654d6174683a207375627472616374696f6e206f766572666c6f7700006000830152602082019050919050565b600061279c60308361302f565b91507f416363657373436f6e74726f6c3a2073656e646572206d75737420626520616e60008301527f2061646d696e20746f207265766f6b65000000000000000000000000000000006020830152604082019050919050565b600061280260108361302f565b91507f5061757361626c653a20706175736564000000000000000000000000000000006000830152602082019050919050565b600061284260188361302f565b91507f4552433230576974685065726d69743a204558504952454400000000000000006000830152602082019050919050565b600061288260368361302f565b91507f45524332305072657365744d696e7465725061757365723a206d75737420686160008301527f7665206d696e74657220726f6c6520746f206d696e74000000000000000000006020830152604082019050919050565b60006128e860218361302f565b91507f45524332303a206275726e2066726f6d20746865207a65726f2061646472657360008301527f73000000000000000000000000000000000000000000000000000000000000006020830152604082019050919050565b600061294e60228361302f565b91507f4552433230576974685065726d69743a20494e56414c49445f5349474e41545560008301527f52450000000000000000000000000000000000000000000000000000000000006020830152604082019050919050565b60006129b460258361302f565b91507f45524332303a207472616e736665722066726f6d20746865207a65726f20616460008301527f64726573730000000000000000000000000000000000000000000000000000006020830152604082019050919050565b6000612a1a60248361302f565b91507f45524332303a20617070726f76652066726f6d20746865207a65726f2061646460008301527f72657373000000000000000000000000000000000000000000000000000000006020830152604082019050919050565b6000612a8060378361302f565b91507f45524332305072657365744d696e7465725061757365723a206d75737420686160008301527f76652070617573657220726f6c6520746f2070617573650000000000000000006020830152604082019050919050565b6000612ae6602f8361302f565b91507f416363657373436f6e74726f6c3a2063616e206f6e6c792072656e6f756e636560008301527f20726f6c657320666f722073656c6600000000000000000000000000000000006020830152604082019050919050565b6000612b4c601f8361302f565b91507f45524332303a206d696e7420746f20746865207a65726f2061646472657373006000830152602082019050919050565b6000612b8c602a8361302f565b91507f45524332305061757361626c653a20746f6b656e207472616e7366657220776860008301527f696c6520706175736564000000000000000000000000000000000000000000006020830152604082019050919050565b612bee81613093565b82525050565b612bfd8161309d565b82525050565b6000612c0e826126cf565b9150612c1a8285612441565b602082019150612c2a8284612441565b6020820191508190509392505050565b6000602082019050612c4f6000830184612414565b92915050565b6000602082019050612c6a6000830184612405565b92915050565b6000602082019050612c856000830184612423565b92915050565b6000602082019050612ca06000830184612432565b92915050565b600060c082019050612cbb6000830189612432565b612cc86020830188612414565b612cd56040830187612414565b612ce26060830186612be5565b612cef6080830185612be5565b612cfc60a0830184612be5565b979650505050505050565b6000608082019050612d1c6000830187612432565b612d296020830186612bf4565b612d366040830185612432565b612d436060830184612432565b95945050505050565b60006020820190508181036000830152612d668184612458565b905092915050565b60006020820190508181036000830152612d8781612491565b9050919050565b60006020820190508181036000830152612da7816124f7565b9050919050565b60006020820190508181036000830152612dc78161255d565b9050919050565b60006020820190508181036000830152612de7816125c3565b9050919050565b60006020820190508181036000830152612e0781612603565b9050919050565b60006020820190508181036000830152612e2781612669565b9050919050565b60006020820190508181036000830152612e478161270f565b9050919050565b60006020820190508181036000830152612e678161274f565b9050919050565b60006020820190508181036000830152612e878161278f565b9050919050565b60006020820190508181036000830152612ea7816127f5565b9050919050565b60006020820190508181036000830152612ec781612835565b9050919050565b60006020820190508181036000830152612ee781612875565b9050919050565b60006020820190508181036000830152612f07816128db565b9050919050565b60006020820190508181036000830152612f2781612941565b9050919050565b60006020820190508181036000830152612f47816129a7565b9050919050565b60006020820190508181036000830152612f6781612a0d565b9050919050565b60006020820190508181036000830152612f8781612a73565b9050919050565b60006020820190508181036000830152612fa781612ad9565b9050919050565b60006020820190508181036000830152612fc781612b3f565b9050919050565b60006020820190508181036000830152612fe781612b7f565b9050919050565b60006020820190506130036000830184612be5565b92915050565b600060208201905061301e6000830184612bf4565b92915050565b600081519050919050565b600082825260208201905092915050565b600081905092915050565b600061305682613073565b9050919050565b60008115159050919050565b6000819050919050565b600073ffffffffffffffffffffffffffffffffffffffff82169050919050565b6000819050919050565b600060ff82169050919050565b60006130b5826130bc565b9050919050565b60006130c7826130ce565b9050919050565b60006130d982613073565b9050919050565b60005b838110156130fe5780820151818401526020810190506130e3565b8381111561310d576000848401525b50505050565b6000819050919050565b6000601f19601f8301169050919050565b6131378161304b565b811461314257600080fd5b50565b61314e81613069565b811461315957600080fd5b50565b61316581613093565b811461317057600080fd5b50565b61317c8161309d565b811461318757600080fd5b5056fe45524332303a206275726e20616d6f756e7420657863656564732062616c616e636545524332303a207472616e7366657220616d6f756e7420657863656564732062616c616e636545524332303a207472616e7366657220616d6f756e74206578636565647320616c6c6f77616e636545524332303a206275726e20616d6f756e74206578636565647320616c6c6f77616e636545524332303a2064656372656173656420616c6c6f77616e63652062656c6f77207a65726fa264697066735822122059f92357f29bae62aa53c063bf71aaaa60299c9414414f9ea1277cf8f98731f764736f6c63430007000033",
  "source": "// SPDX-License-Identifier: UNLICENSED\n\npragma solidity ^0.7.0;\npragma experimental ABIEncoderV2;\n\nimport \"@openzeppelin/contracts/presets/ERC20PresetMinterPauser.sol\";\n\ncontract LibraryToken is ERC20PresetMinterPauser {\n  bytes32 public DOMAIN_SEPARATOR;\n  // representation of keccak256(\"Permit(address owner,address spender,uint256 value,uint256 nonce,uint256 deadline)\");\n  bytes32 public constant PERMIT_TYPEHASH =\n      0x6e71edae12b1b97f4d1f60370fef10105fa2faae0126114a169c64845d6126c9;\n  mapping(address => uint256) public nonces;\n\n  constructor() ERC20PresetMinterPauser(\"LibraryToken\", \"LIB\") {\n    DOMAIN_SEPARATOR = keccak256(\n      abi.encode(\n        keccak256(\n          \"EIP712Domain(string name,string version,address verifyingContract)\"\n        ),\n        keccak256(bytes('LibraryToken')),\n        keccak256(bytes(\"1\")),\n        address(this)\n      )\n    );\n  }\n\n  function getRecoveredAddress(address owner, address spender, uint256 value, uint256 deadline, uint8 v, bytes32 r, bytes32 s) external view returns (address) {\n    bytes32 digest =\n      keccak256(\n        abi.encodePacked(\n          \"\\x19\\x01\",\n          DOMAIN_SEPARATOR,\n          keccak256(\n            abi.encode(\n              PERMIT_TYPEHASH,\n              owner,\n              spender,\n              value,\n              nonces[owner],\n              deadline\n            )\n          )\n        )\n      );\n\n    address recoveredAddress = ecrecover(digest, v, r, s);\n\n    return recoveredAddress;\n  }\n\n  function permit(address owner, address spender, uint256 value, uint256 deadline, uint8 v, bytes32 r, bytes32 s) external {\n    // solhint-disable-next-line\n    require(deadline >= block.timestamp, \"ERC20WithPermit: EXPIRED\");\n\n    bytes32 digest =\n      keccak256(\n        abi.encodePacked(\n          \"\\x19\\x01\",\n          DOMAIN_SEPARATOR,\n          keccak256(\n            abi.encode(\n              PERMIT_TYPEHASH,\n              owner,\n              spender,\n              value,\n              nonces[owner]++,\n              deadline\n            )\n          )\n        )\n      );\n\n    address recoveredAddress = ecrecover(digest, v, r, s);\n\n    require(\n      recoveredAddress != address(0) && recoveredAddress == owner,\n      \"ERC20WithPermit: INVALID_SIGNATURE\"\n    );\n\n    _approve(owner, spender, value);\n  }\n}",
  "sourcePath": "/Users/viktortodorov/Desktop/BookLibrary/contracts/LibraryToken.sol",
  "compiler": {
    "name": "solc",
    "version": "0.7.0+commit.9e61f92b.Emscripten.clang",
    "optimizer": false,
    "runs": 200
  },
  "schemaVersion": "2.3.5",
  "updatedAt": "2021-06-18T08:48:46.661Z"
}