{
  "contractName": "LIBWrapper",
  "abi": [
    {
      "inputs": [],
      "stateMutability": "nonpayable",
      "type": "constructor"
    },
    {
      "anonymous": false,
      "inputs": [
        {
          "indexed": false,
          "internalType": "address",
          "name": "sender",
          "type": "address"
        },
        {
          "indexed": false,
          "internalType": "uint256",
          "name": "amount",
          "type": "uint256"
        }
      ],
      "name": "LogLIBUnwrapped",
      "type": "event"
    },
    {
      "anonymous": false,
      "inputs": [
        {
          "indexed": false,
          "internalType": "address",
          "name": "sender",
          "type": "address"
        },
        {
          "indexed": false,
          "internalType": "uint256",
          "name": "amount",
          "type": "uint256"
        }
      ],
      "name": "LogLIBWrapped",
      "type": "event"
    },
    {
      "anonymous": false,
      "inputs": [
        {
          "indexed": true,
          "internalType": "address",
          "name": "previousOwner",
          "type": "address"
        },
        {
          "indexed": true,
          "internalType": "address",
          "name": "newOwner",
          "type": "address"
        }
      ],
      "name": "OwnershipTransferred",
      "type": "event"
    },
    {
      "inputs": [],
      "name": "LIBToken",
      "outputs": [
        {
          "internalType": "contract LibraryToken",
          "name": "",
          "type": "address"
        }
      ],
      "stateMutability": "view",
      "type": "function"
    },
    {
      "inputs": [],
      "name": "LIBTokenAddress",
      "outputs": [
        {
          "internalType": "address",
          "name": "",
          "type": "address"
        }
      ],
      "stateMutability": "view",
      "type": "function"
    },
    {
      "inputs": [],
      "name": "MINTER_ROLE",
      "outputs": [
        {
          "internalType": "bytes32",
          "name": "",
          "type": "bytes32"
        }
      ],
      "stateMutability": "view",
      "type": "function"
    },
    {
      "inputs": [],
      "name": "owner",
      "outputs": [
        {
          "internalType": "address",
          "name": "",
          "type": "address"
        }
      ],
      "stateMutability": "view",
      "type": "function"
    },
    {
      "inputs": [],
      "name": "renounceOwnership",
      "outputs": [],
      "stateMutability": "nonpayable",
      "type": "function"
    },
    {
      "inputs": [
        {
          "internalType": "address",
          "name": "newOwner",
          "type": "address"
        }
      ],
      "name": "transferOwnership",
      "outputs": [],
      "stateMutability": "nonpayable",
      "type": "function"
    },
    {
      "stateMutability": "payable",
      "type": "receive"
    },
    {
      "inputs": [],
      "name": "wrap",
      "outputs": [],
      "stateMutability": "payable",
      "type": "function"
    },
    {
      "inputs": [
        {
          "internalType": "uint256",
          "name": "value",
          "type": "uint256"
        }
      ],
      "name": "unwrap",
      "outputs": [],
      "stateMutability": "nonpayable",
      "type": "function"
    }
  ],
  "bytecode": "0x608060405234801561001057600080fd5b50600061002161012d60201b60201c565b9050806000806101000a81548173ffffffffffffffffffffffffffffffffffffffff021916908373ffffffffffffffffffffffffffffffffffffffff1602179055508073ffffffffffffffffffffffffffffffffffffffff16600073ffffffffffffffffffffffffffffffffffffffff167f8be0079c531659141344cd1fd0a4f28419497f9722a3daafe3b4186f6b6457e060405160405180910390a3506040516100cb90610135565b604051809103906000f0801580156100e7573d6000803e3d6000fd5b50600160006101000a81548173ffffffffffffffffffffffffffffffffffffffff021916908373ffffffffffffffffffffffffffffffffffffffff160217905550610142565b600033905090565b612eda80610ec483390190565b610d73806101516000396000f3fe60806040526004361061007f5760003560e01c8063d46eb1191161004e578063d46eb1191461012b578063d539139314610135578063de0e9a3e14610160578063f2fde38b146101895761008e565b80631ba3192b14610093578063715018a6146100be5780638da5cb5b146100d5578063d3a68ecc146101005761008e565b3661008e5761008c6101b2565b005b600080fd5b34801561009f57600080fd5b506100a86102bf565b6040516100b59190610b85565b60405180910390f35b3480156100ca57600080fd5b506100d36102e5565b005b3480156100e157600080fd5b506100ea61041f565b6040516100f79190610aef565b60405180910390f35b34801561010c57600080fd5b50610115610448565b6040516101229190610aef565b60405180910390f35b6101336101b2565b005b34801561014157600080fd5b5061014a61046e565b6040516101579190610b6a565b60405180910390f35b34801561016c57600080fd5b5061018760048036038101906101829190610955565b610492565b005b34801561019557600080fd5b506101b060048036038101906101ab9190610903565b610713565b005b600034116101f5576040517f08c379a00000000000000000000000000000000000000000000000000000000081526004016101ec90610bc0565b60405180910390fd5b600160009054906101000a900473ffffffffffffffffffffffffffffffffffffffff1673ffffffffffffffffffffffffffffffffffffffff166340c10f1933346040518363ffffffff1660e01b8152600401610252929190610b41565b600060405180830381600087803b15801561026c57600080fd5b505af1158015610280573d6000803e3d6000fd5b505050507f9c1359f4b53f71481ac276ccdffa0cc71cd40491a5b8636617ecd8e25d42e2b833346040516102b5929190610b41565b60405180910390a1565b600160009054906101000a900473ffffffffffffffffffffffffffffffffffffffff1681565b6102ed6108bc565b73ffffffffffffffffffffffffffffffffffffffff1661030b61041f565b73ffffffffffffffffffffffffffffffffffffffff1614610361576040517f08c379a000000000000000000000000000000000000000000000000000000000815260040161035890610c00565b60405180910390fd5b600073ffffffffffffffffffffffffffffffffffffffff1660008054906101000a900473ffffffffffffffffffffffffffffffffffffffff1673ffffffffffffffffffffffffffffffffffffffff167f8be0079c531659141344cd1fd0a4f28419497f9722a3daafe3b4186f6b6457e060405160405180910390a360008060006101000a81548173ffffffffffffffffffffffffffffffffffffffff021916908373ffffffffffffffffffffffffffffffffffffffff160217905550565b60008060009054906101000a900473ffffffffffffffffffffffffffffffffffffffff16905090565b600260009054906101000a900473ffffffffffffffffffffffffffffffffffffffff1681565b7f9f2df0fed2c77648de5860a4cc508cd0818c85b8b8a1ab4ceeef8d981c8956a681565b61049a6108bc565b73ffffffffffffffffffffffffffffffffffffffff166104b861041f565b73ffffffffffffffffffffffffffffffffffffffff161461050e576040517f08c379a000000000000000000000000000000000000000000000000000000000815260040161050590610c00565b60405180910390fd5b60008111610551576040517f08c379a000000000000000000000000000000000000000000000000000000000815260040161054890610be0565b60405180910390fd5b600160009054906101000a900473ffffffffffffffffffffffffffffffffffffffff1673ffffffffffffffffffffffffffffffffffffffff166323b872dd3330846040518463ffffffff1660e01b81526004016105b093929190610b0a565b602060405180830381600087803b1580156105ca57600080fd5b505af11580156105de573d6000803e3d6000fd5b505050506040513d601f19601f82011682018060405250810190610602919061092c565b50600160009054906101000a900473ffffffffffffffffffffffffffffffffffffffff1673ffffffffffffffffffffffffffffffffffffffff166342966c68826040518263ffffffff1660e01b815260040161065e9190610c20565b600060405180830381600087803b15801561067857600080fd5b505af115801561068c573d6000803e3d6000fd5b505050503373ffffffffffffffffffffffffffffffffffffffff166108fc829081150290604051600060405180830381858888f193505050501580156106d6573d6000803e3d6000fd5b507f434a87dd0568dfbbb4bc8b6b51b072be25ff126809317b293b9ed43aaa84fd0e3382604051610708929190610b41565b60405180910390a150565b61071b6108bc565b73ffffffffffffffffffffffffffffffffffffffff1661073961041f565b73ffffffffffffffffffffffffffffffffffffffff161461078f576040517f08c379a000000000000000000000000000000000000000000000000000000000815260040161078690610c00565b60405180910390fd5b600073ffffffffffffffffffffffffffffffffffffffff168173ffffffffffffffffffffffffffffffffffffffff1614156107ff576040517f08c379a00000000000000000000000000000000000000000000000000000000081526004016107f690610ba0565b60405180910390fd5b8073ffffffffffffffffffffffffffffffffffffffff1660008054906101000a900473ffffffffffffffffffffffffffffffffffffffff1673ffffffffffffffffffffffffffffffffffffffff167f8be0079c531659141344cd1fd0a4f28419497f9722a3daafe3b4186f6b6457e060405160405180910390a3806000806101000a81548173ffffffffffffffffffffffffffffffffffffffff021916908373ffffffffffffffffffffffffffffffffffffffff16021790555050565b600033905090565b6000813590506108d381610cf8565b92915050565b6000815190506108e881610d0f565b92915050565b6000813590506108fd81610d26565b92915050565b60006020828403121561091557600080fd5b6000610923848285016108c4565b91505092915050565b60006020828403121561093e57600080fd5b600061094c848285016108d9565b91505092915050565b60006020828403121561096757600080fd5b6000610975848285016108ee565b91505092915050565b61098781610c9e565b82525050565b61099681610c4c565b82525050565b6109a581610c6a565b82525050565b6109b481610cb0565b82525050565b60006109c7602683610c3b565b91507f4f776e61626c653a206e6577206f776e657220697320746865207a65726f206160008301527f64647265737300000000000000000000000000000000000000000000000000006020830152604082019050919050565b6000610a2d601e83610c3b565b91507f5765206e65656420746f2077726170206174206c6561737420312077656900006000830152602082019050919050565b6000610a6d602083610c3b565b91507f5765206e65656420746f20756e77726170206174206c656173742031207765696000830152602082019050919050565b6000610aad602083610c3b565b91507f4f776e61626c653a2063616c6c6572206973206e6f7420746865206f776e65726000830152602082019050919050565b610ae981610c94565b82525050565b6000602082019050610b04600083018461098d565b92915050565b6000606082019050610b1f600083018661097e565b610b2c602083018561097e565b610b396040830184610ae0565b949350505050565b6000604082019050610b56600083018561097e565b610b636020830184610ae0565b9392505050565b6000602082019050610b7f600083018461099c565b92915050565b6000602082019050610b9a60008301846109ab565b92915050565b60006020820190508181036000830152610bb9816109ba565b9050919050565b60006020820190508181036000830152610bd981610a20565b9050919050565b60006020820190508181036000830152610bf981610a60565b9050919050565b60006020820190508181036000830152610c1981610aa0565b9050919050565b6000602082019050610c356000830184610ae0565b92915050565b600082825260208201905092915050565b6000610c5782610c74565b9050919050565b60008115159050919050565b6000819050919050565b600073ffffffffffffffffffffffffffffffffffffffff82169050919050565b6000819050919050565b6000610ca982610cd4565b9050919050565b6000610cbb82610cc2565b9050919050565b6000610ccd82610c74565b9050919050565b6000610cdf82610ce6565b9050919050565b6000610cf182610c74565b9050919050565b610d0181610c4c565b8114610d0c57600080fd5b50565b610d1881610c5e565b8114610d2357600080fd5b50565b610d2f81610c94565b8114610d3a57600080fd5b5056fea26469706673582212207e052ca636d4d72d98a8a7b6b3e37ace8e2b80089017c00f5b962b03add42f1964736f6c6343000700003360806040523480156200001157600080fd5b506040518060400160405280600c81526020017f4c696272617279546f6b656e00000000000000000000000000000000000000008152506040518060400160405280600381526020017f4c4942000000000000000000000000000000000000000000000000000000000081525081818160049080519060200190620000989291906200032f565b508060059080519060200190620000b19291906200032f565b506012600660006101000a81548160ff021916908360ff16021790555050506000600660016101000a81548160ff0219169083151502179055506200010f6000801b620001036200019960201b60201c565b620001a160201b60201c565b620001507f9f2df0fed2c77648de5860a4cc508cd0818c85b8b8a1ab4ceeef8d981c8956a6620001446200019960201b60201c565b620001a160201b60201c565b620001917f65d7a28e3265b37a6474929f336521b332c1681b933f6cb9f3376673440d862a620001856200019960201b60201c565b620001a160201b60201c565b5050620003d5565b600033905090565b620001b38282620001b760201b60201c565b5050565b620001e5816000808581526020019081526020016000206000016200025a60201b62000e921790919060201c565b156200025657620001fb6200019960201b60201c565b73ffffffffffffffffffffffffffffffffffffffff168173ffffffffffffffffffffffffffffffffffffffff16837f2f8788117e7eff1d82e926ec794901d17c78024a50270940304540a733656f0d60405160405180910390a45b5050565b60006200028a836000018373ffffffffffffffffffffffffffffffffffffffff1660001b6200029260201b60201c565b905092915050565b6000620002a683836200030c60201b60201c565b6200030157826000018290806001815401808255809150506001900390600052602060002001600090919091909150558260000180549050836001016000848152602001908152602001600020819055506001905062000306565b600090505b92915050565b600080836001016000848152602001908152602001600020541415905092915050565b828054600181600116156101000203166002900490600052602060002090601f016020900481019282601f106200037257805160ff1916838001178555620003a3565b82800160010185558215620003a3579182015b82811115620003a257825182559160200191906001019062000385565b5b509050620003b29190620003b6565b5090565b5b80821115620003d1576000816000905550600101620003b7565b5090565b612af580620003e56000396000f3fe608060405234801561001057600080fd5b50600436106101a95760003560e01c806370a08231116100f9578063a457c2d711610097578063d539139311610071578063d5391393146104e2578063d547741f14610500578063dd62ed3e1461051c578063e63ab1e91461054c576101a9565b8063a457c2d714610452578063a9059cbb14610482578063ca15c873146104b2576101a9565b80639010d07c116100d35780639010d07c146103b657806391d14854146103e657806395d89b4114610416578063a217fddf14610434576101a9565b806370a082311461036057806379cc6790146103905780638456cb59146103ac576101a9565b8063313ce567116101665780633f4ba83a116101405780633f4ba83a1461030057806340c10f191461030a57806342966c68146103265780635c975abb14610342576101a9565b8063313ce5671461029657806336568abe146102b457806339509351146102d0576101a9565b806306fdde03146101ae578063095ea7b3146101cc57806318160ddd146101fc57806323b872dd1461021a578063248a9ca31461024a5780632f2ff15d1461027a575b600080fd5b6101b661056a565b6040516101c39190612634565b60405180910390f35b6101e660048036038101906101e19190611dc1565b61060c565b6040516101f391906125fe565b60405180910390f35b61020461062a565b6040516102119190612896565b60405180910390f35b610234600480360381019061022f9190611d72565b610634565b60405161024191906125fe565b60405180910390f35b610264600480360381019061025f9190611dfd565b61070d565b6040516102719190612619565b60405180910390f35b610294600480360381019061028f9190611e26565b61072c565b005b61029e61079f565b6040516102ab91906128b1565b60405180910390f35b6102ce60048036038101906102c99190611e26565b6107b6565b005b6102ea60048036038101906102e59190611dc1565b610839565b6040516102f791906125fe565b60405180910390f35b6103086108ec565b005b610324600480360381019061031f9190611dc1565b610966565b005b610340600480360381019061033b9190611e9e565b6109e4565b005b61034a6109f8565b60405161035791906125fe565b60405180910390f35b61037a60048036038101906103759190611d0d565b610a0f565b6040516103879190612896565b60405180910390f35b6103aa60048036038101906103a59190611dc1565b610a58565b005b6103b4610aba565b005b6103d060048036038101906103cb9190611e62565b610b34565b6040516103dd91906125c8565b60405180910390f35b61040060048036038101906103fb9190611e26565b610b65565b60405161040d91906125fe565b60405180910390f35b61041e610b96565b60405161042b9190612634565b60405180910390f35b61043c610c38565b6040516104499190612619565b60405180910390f35b61046c60048036038101906104679190611dc1565b610c3f565b60405161047991906125fe565b60405180910390f35b61049c60048036038101906104979190611dc1565b610d0c565b6040516104a991906125fe565b60405180910390f35b6104cc60048036038101906104c79190611dfd565b610d2a565b6040516104d99190612896565b60405180910390f35b6104ea610d50565b6040516104f79190612619565b60405180910390f35b61051a60048036038101906105159190611e26565b610d74565b005b61053660048036038101906105319190611d36565b610de7565b6040516105439190612896565b60405180910390f35b610554610e6e565b6040516105619190612619565b60405180910390f35b606060048054600181600116156101000203166002900480601f0160208091040260200160405190810160405280929190818152602001828054600181600116156101000203166002900480156106025780601f106105d757610100808354040283529160200191610602565b820191906000526020600020905b8154815290600101906020018083116105e557829003601f168201915b5050505050905090565b6000610620610619610ec2565b8484610eca565b6001905092915050565b6000600354905090565b6000610641848484611095565b6107028461064d610ec2565b6106fd85604051806060016040528060288152602001612a4f60289139600260008b73ffffffffffffffffffffffffffffffffffffffff1673ffffffffffffffffffffffffffffffffffffffff16815260200190815260200160002060006106b3610ec2565b73ffffffffffffffffffffffffffffffffffffffff1673ffffffffffffffffffffffffffffffffffffffff1681526020019081526020016000205461132e9092919063ffffffff16565b610eca565b600190509392505050565b6000806000838152602001908152602001600020600201549050919050565b6107526000808481526020019081526020016000206002015461074d610ec2565b610b65565b610791576040517f08c379a000000000000000000000000000000000000000000000000000000000815260040161078890612696565b60405180910390fd5b61079b8282611383565b5050565b6000600660009054906101000a900460ff16905090565b6107be610ec2565b73ffffffffffffffffffffffffffffffffffffffff168173ffffffffffffffffffffffffffffffffffffffff161461082b576040517f08c379a000000000000000000000000000000000000000000000000000000000815260040161082290612836565b60405180910390fd5b6108358282611416565b5050565b60006108e2610846610ec2565b846108dd8560026000610857610ec2565b73ffffffffffffffffffffffffffffffffffffffff1673ffffffffffffffffffffffffffffffffffffffff16815260200190815260200160002060008973ffffffffffffffffffffffffffffffffffffffff1673ffffffffffffffffffffffffffffffffffffffff168152602001908152602001600020546114a990919063ffffffff16565b610eca565b6001905092915050565b61091d7f65d7a28e3265b37a6474929f336521b332c1681b933f6cb9f3376673440d862a610918610ec2565b610b65565b61095c576040517f08c379a0000000000000000000000000000000000000000000000000000000008152600401610953906126d6565b60405180910390fd5b6109646114fe565b565b6109977f9f2df0fed2c77648de5860a4cc508cd0818c85b8b8a1ab4ceeef8d981c8956a6610992610ec2565b610b65565b6109d6576040517f08c379a00000000000000000000000000000000000000000000000000000000081526004016109cd90612796565b60405180910390fd5b6109e082826115a0565b5050565b6109f56109ef610ec2565b82611736565b50565b6000600660019054906101000a900460ff16905090565b6000600160008373ffffffffffffffffffffffffffffffffffffffff1673ffffffffffffffffffffffffffffffffffffffff168152602001908152602001600020549050919050565b6000610a9782604051806060016040528060248152602001612a7760249139610a8886610a83610ec2565b610de7565b61132e9092919063ffffffff16565b9050610aab83610aa5610ec2565b83610eca565b610ab58383611736565b505050565b610aeb7f65d7a28e3265b37a6474929f336521b332c1681b933f6cb9f3376673440d862a610ae6610ec2565b610b65565b610b2a576040517f08c379a0000000000000000000000000000000000000000000000000000000008152600401610b2190612816565b60405180910390fd5b610b326118e6565b565b6000610b5d8260008086815260200190815260200160002060000161198990919063ffffffff16565b905092915050565b6000610b8e826000808681526020019081526020016000206000016119a390919063ffffffff16565b905092915050565b606060058054600181600116156101000203166002900480601f016020809104026020016040519081016040528092919081815260200182805460018160011615610100020316600290048015610c2e5780601f10610c0357610100808354040283529160200191610c2e565b820191906000526020600020905b815481529060010190602001808311610c1157829003601f168201915b5050505050905090565b6000801b81565b6000610d02610c4c610ec2565b84610cfd85604051806060016040528060258152602001612a9b6025913960026000610c76610ec2565b73ffffffffffffffffffffffffffffffffffffffff1673ffffffffffffffffffffffffffffffffffffffff16815260200190815260200160002060008a73ffffffffffffffffffffffffffffffffffffffff1673ffffffffffffffffffffffffffffffffffffffff1681526020019081526020016000205461132e9092919063ffffffff16565b610eca565b6001905092915050565b6000610d20610d19610ec2565b8484611095565b6001905092915050565b6000610d496000808481526020019081526020016000206000016119d3565b9050919050565b7f9f2df0fed2c77648de5860a4cc508cd0818c85b8b8a1ab4ceeef8d981c8956a681565b610d9a60008084815260200190815260200160002060020154610d95610ec2565b610b65565b610dd9576040517f08c379a0000000000000000000000000000000000000000000000000000000008152600401610dd090612756565b60405180910390fd5b610de38282611416565b5050565b6000600260008473ffffffffffffffffffffffffffffffffffffffff1673ffffffffffffffffffffffffffffffffffffffff16815260200190815260200160002060008373ffffffffffffffffffffffffffffffffffffffff1673ffffffffffffffffffffffffffffffffffffffff16815260200190815260200160002054905092915050565b7f65d7a28e3265b37a6474929f336521b332c1681b933f6cb9f3376673440d862a81565b6000610eba836000018373ffffffffffffffffffffffffffffffffffffffff1660001b6119e8565b905092915050565b600033905090565b600073ffffffffffffffffffffffffffffffffffffffff168373ffffffffffffffffffffffffffffffffffffffff161415610f3a576040517f08c379a0000000000000000000000000000000000000000000000000000000008152600401610f31906127f6565b60405180910390fd5b600073ffffffffffffffffffffffffffffffffffffffff168273ffffffffffffffffffffffffffffffffffffffff161415610faa576040517f08c379a0000000000000000000000000000000000000000000000000000000008152600401610fa1906126f6565b60405180910390fd5b80600260008573ffffffffffffffffffffffffffffffffffffffff1673ffffffffffffffffffffffffffffffffffffffff16815260200190815260200160002060008473ffffffffffffffffffffffffffffffffffffffff1673ffffffffffffffffffffffffffffffffffffffff168152602001908152602001600020819055508173ffffffffffffffffffffffffffffffffffffffff168373ffffffffffffffffffffffffffffffffffffffff167f8c5be1e5ebec7d5bd14f71427d1e84f3dd0314c0f7b2291e5b200ac8c7c3b925836040516110889190612896565b60405180910390a3505050565b600073ffffffffffffffffffffffffffffffffffffffff168373ffffffffffffffffffffffffffffffffffffffff161415611105576040517f08c379a00000000000000000000000000000000000000000000000000000000081526004016110fc906127d6565b60405180910390fd5b600073ffffffffffffffffffffffffffffffffffffffff168273ffffffffffffffffffffffffffffffffffffffff161415611175576040517f08c379a000000000000000000000000000000000000000000000000000000000815260040161116c90612676565b60405180910390fd5b611180838383611a58565b6111ec81604051806060016040528060268152602001612a2960269139600160008773ffffffffffffffffffffffffffffffffffffffff1673ffffffffffffffffffffffffffffffffffffffff1681526020019081526020016000205461132e9092919063ffffffff16565b600160008573ffffffffffffffffffffffffffffffffffffffff1673ffffffffffffffffffffffffffffffffffffffff1681526020019081526020016000208190555061128181600160008573ffffffffffffffffffffffffffffffffffffffff1673ffffffffffffffffffffffffffffffffffffffff168152602001908152602001600020546114a990919063ffffffff16565b600160008473ffffffffffffffffffffffffffffffffffffffff1673ffffffffffffffffffffffffffffffffffffffff168152602001908152602001600020819055508173ffffffffffffffffffffffffffffffffffffffff168373ffffffffffffffffffffffffffffffffffffffff167fddf252ad1be2c89b69c2b068fc378daa952ba7f163c4a11628f55a4df523b3ef836040516113219190612896565b60405180910390a3505050565b6000838311158290611376576040517f08c379a000000000000000000000000000000000000000000000000000000000815260040161136d9190612634565b60405180910390fd5b5082840390509392505050565b6113aa81600080858152602001908152602001600020600001610e9290919063ffffffff16565b15611412576113b7610ec2565b73ffffffffffffffffffffffffffffffffffffffff168173ffffffffffffffffffffffffffffffffffffffff16837f2f8788117e7eff1d82e926ec794901d17c78024a50270940304540a733656f0d60405160405180910390a45b5050565b61143d81600080858152602001908152602001600020600001611a6890919063ffffffff16565b156114a55761144a610ec2565b73ffffffffffffffffffffffffffffffffffffffff168173ffffffffffffffffffffffffffffffffffffffff16837ff6391f5c32d9c69d2a47ea670b442974b53935d1edc7fd64eb21e047a839171b60405160405180910390a45b5050565b6000808284019050838110156114f4576040517f08c379a00000000000000000000000000000000000000000000000000000000081526004016114eb90612716565b60405180910390fd5b8091505092915050565b6115066109f8565b611545576040517f08c379a000000000000000000000000000000000000000000000000000000000815260040161153c906126b6565b60405180910390fd5b6000600660016101000a81548160ff0219169083151502179055507f5db9ee0a495bf2e6ff9c91a7834c1ba4fdd244a5e8aa4e537bd38aeae4b073aa611589610ec2565b60405161159691906125e3565b60405180910390a1565b600073ffffffffffffffffffffffffffffffffffffffff168273ffffffffffffffffffffffffffffffffffffffff161415611610576040517f08c379a000000000000000000000000000000000000000000000000000000000815260040161160790612856565b60405180910390fd5b61161c60008383611a58565b611631816003546114a990919063ffffffff16565b60038190555061168981600160008573ffffffffffffffffffffffffffffffffffffffff1673ffffffffffffffffffffffffffffffffffffffff168152602001908152602001600020546114a990919063ffffffff16565b600160008473ffffffffffffffffffffffffffffffffffffffff1673ffffffffffffffffffffffffffffffffffffffff168152602001908152602001600020819055508173ffffffffffffffffffffffffffffffffffffffff16600073ffffffffffffffffffffffffffffffffffffffff167fddf252ad1be2c89b69c2b068fc378daa952ba7f163c4a11628f55a4df523b3ef8360405161172a9190612896565b60405180910390a35050565b600073ffffffffffffffffffffffffffffffffffffffff168273ffffffffffffffffffffffffffffffffffffffff1614156117a6576040517f08c379a000000000000000000000000000000000000000000000000000000000815260040161179d906127b6565b60405180910390fd5b6117b282600083611a58565b61181e81604051806060016040528060228152602001612a0760229139600160008673ffffffffffffffffffffffffffffffffffffffff1673ffffffffffffffffffffffffffffffffffffffff1681526020019081526020016000205461132e9092919063ffffffff16565b600160008473ffffffffffffffffffffffffffffffffffffffff1673ffffffffffffffffffffffffffffffffffffffff1681526020019081526020016000208190555061187681600354611a9890919063ffffffff16565b600381905550600073ffffffffffffffffffffffffffffffffffffffff168273ffffffffffffffffffffffffffffffffffffffff167fddf252ad1be2c89b69c2b068fc378daa952ba7f163c4a11628f55a4df523b3ef836040516118da9190612896565b60405180910390a35050565b6118ee6109f8565b1561192e576040517f08c379a000000000000000000000000000000000000000000000000000000000815260040161192590612776565b60405180910390fd5b6001600660016101000a81548160ff0219169083151502179055507f62e78cea01bee320cd4e420270b5ea74000d11b0c9f74754ebdbfc544b05a258611972610ec2565b60405161197f91906125e3565b60405180910390a1565b60006119988360000183611ae8565b60001c905092915050565b60006119cb836000018373ffffffffffffffffffffffffffffffffffffffff1660001b611b55565b905092915050565b60006119e182600001611b78565b9050919050565b60006119f48383611b55565b611a4d578260000182908060018154018082558091505060019003906000526020600020016000909190919091505582600001805490508360010160008481526020019081526020016000208190555060019050611a52565b600090505b92915050565b611a63838383611b89565b505050565b6000611a90836000018373ffffffffffffffffffffffffffffffffffffffff1660001b611be1565b905092915050565b600082821115611add576040517f08c379a0000000000000000000000000000000000000000000000000000000008152600401611ad490612736565b60405180910390fd5b818303905092915050565b600081836000018054905011611b33576040517f08c379a0000000000000000000000000000000000000000000000000000000008152600401611b2a90612656565b60405180910390fd5b826000018281548110611b4257fe5b9060005260206000200154905092915050565b600080836001016000848152602001908152602001600020541415905092915050565b600081600001805490509050919050565b611b94838383611cc9565b611b9c6109f8565b15611bdc576040517f08c379a0000000000000000000000000000000000000000000000000000000008152600401611bd390612876565b60405180910390fd5b505050565b60008083600101600084815260200190815260200160002054905060008114611cbd5760006001820390506000600186600001805490500390506000866000018281548110611c2c57fe5b9060005260206000200154905080876000018481548110611c4957fe5b9060005260206000200181905550600183018760010160008381526020019081526020016000208190555086600001805480611c8157fe5b60019003818190600052602060002001600090559055866001016000878152602001908152602001600020600090556001945050505050611cc3565b60009150505b92915050565b505050565b600081359050611cdd816129c1565b92915050565b600081359050611cf2816129d8565b92915050565b600081359050611d07816129ef565b92915050565b600060208284031215611d1f57600080fd5b6000611d2d84828501611cce565b91505092915050565b60008060408385031215611d4957600080fd5b6000611d5785828601611cce565b9250506020611d6885828601611cce565b9150509250929050565b600080600060608486031215611d8757600080fd5b6000611d9586828701611cce565b9350506020611da686828701611cce565b9250506040611db786828701611cf8565b9150509250925092565b60008060408385031215611dd457600080fd5b6000611de285828601611cce565b9250506020611df385828601611cf8565b9150509250929050565b600060208284031215611e0f57600080fd5b6000611e1d84828501611ce3565b91505092915050565b60008060408385031215611e3957600080fd5b6000611e4785828601611ce3565b9250506020611e5885828601611cce565b9150509250929050565b60008060408385031215611e7557600080fd5b6000611e8385828601611ce3565b9250506020611e9485828601611cf8565b9150509250929050565b600060208284031215611eb057600080fd5b6000611ebe84828501611cf8565b91505092915050565b611ed081612947565b82525050565b611edf816128e8565b82525050565b611eee816128fa565b82525050565b611efd81612906565b82525050565b6000611f0e826128cc565b611f1881856128d7565b9350611f2881856020860161297d565b611f31816129b0565b840191505092915050565b6000611f496022836128d7565b91507f456e756d657261626c655365743a20696e646578206f7574206f6620626f756e60008301527f64730000000000000000000000000000000000000000000000000000000000006020830152604082019050919050565b6000611faf6023836128d7565b91507f45524332303a207472616e7366657220746f20746865207a65726f206164647260008301527f65737300000000000000000000000000000000000000000000000000000000006020830152604082019050919050565b6000612015602f836128d7565b91507f416363657373436f6e74726f6c3a2073656e646572206d75737420626520616e60008301527f2061646d696e20746f206772616e7400000000000000000000000000000000006020830152604082019050919050565b600061207b6014836128d7565b91507f5061757361626c653a206e6f74207061757365640000000000000000000000006000830152602082019050919050565b60006120bb6039836128d7565b91507f45524332305072657365744d696e7465725061757365723a206d75737420686160008301527f76652070617573657220726f6c6520746f20756e7061757365000000000000006020830152604082019050919050565b60006121216022836128d7565b91507f45524332303a20617070726f766520746f20746865207a65726f20616464726560008301527f73730000000000000000000000000000000000000000000000000000000000006020830152604082019050919050565b6000612187601b836128d7565b91507f536166654d6174683a206164646974696f6e206f766572666c6f7700000000006000830152602082019050919050565b60006121c7601e836128d7565b91507f536166654d6174683a207375627472616374696f6e206f766572666c6f7700006000830152602082019050919050565b60006122076030836128d7565b91507f416363657373436f6e74726f6c3a2073656e646572206d75737420626520616e60008301527f2061646d696e20746f207265766f6b65000000000000000000000000000000006020830152604082019050919050565b600061226d6010836128d7565b91507f5061757361626c653a20706175736564000000000000000000000000000000006000830152602082019050919050565b60006122ad6036836128d7565b91507f45524332305072657365744d696e7465725061757365723a206d75737420686160008301527f7665206d696e74657220726f6c6520746f206d696e74000000000000000000006020830152604082019050919050565b60006123136021836128d7565b91507f45524332303a206275726e2066726f6d20746865207a65726f2061646472657360008301527f73000000000000000000000000000000000000000000000000000000000000006020830152604082019050919050565b60006123796025836128d7565b91507f45524332303a207472616e736665722066726f6d20746865207a65726f20616460008301527f64726573730000000000000000000000000000000000000000000000000000006020830152604082019050919050565b60006123df6024836128d7565b91507f45524332303a20617070726f76652066726f6d20746865207a65726f2061646460008301527f72657373000000000000000000000000000000000000000000000000000000006020830152604082019050919050565b60006124456037836128d7565b91507f45524332305072657365744d696e7465725061757365723a206d75737420686160008301527f76652070617573657220726f6c6520746f2070617573650000000000000000006020830152604082019050919050565b60006124ab602f836128d7565b91507f416363657373436f6e74726f6c3a2063616e206f6e6c792072656e6f756e636560008301527f20726f6c657320666f722073656c6600000000000000000000000000000000006020830152604082019050919050565b6000612511601f836128d7565b91507f45524332303a206d696e7420746f20746865207a65726f2061646472657373006000830152602082019050919050565b6000612551602a836128d7565b91507f45524332305061757361626c653a20746f6b656e207472616e7366657220776860008301527f696c6520706175736564000000000000000000000000000000000000000000006020830152604082019050919050565b6125b381612930565b82525050565b6125c28161293a565b82525050565b60006020820190506125dd6000830184611ed6565b92915050565b60006020820190506125f86000830184611ec7565b92915050565b60006020820190506126136000830184611ee5565b92915050565b600060208201905061262e6000830184611ef4565b92915050565b6000602082019050818103600083015261264e8184611f03565b905092915050565b6000602082019050818103600083015261266f81611f3c565b9050919050565b6000602082019050818103600083015261268f81611fa2565b9050919050565b600060208201905081810360008301526126af81612008565b9050919050565b600060208201905081810360008301526126cf8161206e565b9050919050565b600060208201905081810360008301526126ef816120ae565b9050919050565b6000602082019050818103600083015261270f81612114565b9050919050565b6000602082019050818103600083015261272f8161217a565b9050919050565b6000602082019050818103600083015261274f816121ba565b9050919050565b6000602082019050818103600083015261276f816121fa565b9050919050565b6000602082019050818103600083015261278f81612260565b9050919050565b600060208201905081810360008301526127af816122a0565b9050919050565b600060208201905081810360008301526127cf81612306565b9050919050565b600060208201905081810360008301526127ef8161236c565b9050919050565b6000602082019050818103600083015261280f816123d2565b9050919050565b6000602082019050818103600083015261282f81612438565b9050919050565b6000602082019050818103600083015261284f8161249e565b9050919050565b6000602082019050818103600083015261286f81612504565b9050919050565b6000602082019050818103600083015261288f81612544565b9050919050565b60006020820190506128ab60008301846125aa565b92915050565b60006020820190506128c660008301846125b9565b92915050565b600081519050919050565b600082825260208201905092915050565b60006128f382612910565b9050919050565b60008115159050919050565b6000819050919050565b600073ffffffffffffffffffffffffffffffffffffffff82169050919050565b6000819050919050565b600060ff82169050919050565b600061295282612959565b9050919050565b60006129648261296b565b9050919050565b600061297682612910565b9050919050565b60005b8381101561299b578082015181840152602081019050612980565b838111156129aa576000848401525b50505050565b6000601f19601f8301169050919050565b6129ca816128e8565b81146129d557600080fd5b50565b6129e181612906565b81146129ec57600080fd5b50565b6129f881612930565b8114612a0357600080fd5b5056fe45524332303a206275726e20616d6f756e7420657863656564732062616c616e636545524332303a207472616e7366657220616d6f756e7420657863656564732062616c616e636545524332303a207472616e7366657220616d6f756e74206578636565647320616c6c6f77616e636545524332303a206275726e20616d6f756e74206578636565647320616c6c6f77616e636545524332303a2064656372656173656420616c6c6f77616e63652062656c6f77207a65726fa264697066735822122063fa5423adc6a22bfb6d54c640c2bd8fcf54faa91957647e342945707d35025e64736f6c63430007000033",
  "source": "// SPDX-License-Identifier: UNLICENSED\npragma solidity ^0.7.0;\npragma experimental ABIEncoderV2;\n\nimport \"./LibraryToken.sol\";\nimport \"@openzeppelin/contracts/access/Ownable.sol\";\n\ncontract LIBWrapper is Ownable {  \n  bytes32 public constant MINTER_ROLE = keccak256(\"MINTER_ROLE\");\n\n\tLibraryToken public LIBToken;\n\taddress public LIBTokenAddress;\n\n\tevent LogLIBWrapped(address sender, uint256 amount);\n\tevent LogLIBUnwrapped(address sender, uint256 amount);\n\n  // constructor(address _libTokenAddress) public {\n  //   LIBToken = LibraryToken(_libTokenAddress);s\n  // }\n\n  constructor() public {\n    LIBToken = new LibraryToken();\n  }\n\n\treceive() external payable {\n\t\twrap();\n\t} \n\n\tfunction wrap() public payable {\n\t\trequire(msg.value > 0, \"We need to wrap at least 1 wei\");\n\t\tLIBToken.mint(msg.sender, msg.value);\n\t\temit LogLIBWrapped(msg.sender, msg.value);\n\t}\n\n  function unwrap(uint value) external onlyOwner {\n\t\trequire(value > 0, \"We need to unwrap at least 1 wei\");\n\t\tLIBToken.transferFrom(msg.sender, address(this), value);\n\t\tLIBToken.burn(value);\n\t\tmsg.sender.transfer(value);\n\t\temit LogLIBUnwrapped(msg.sender, value);\n\t}\n  \n}",
  "sourcePath": "/Users/viktortodorov/Desktop/BookLibrary/contracts/LibWrapper.sol",
  "compiler": {
    "name": "solc",
    "version": "0.7.0+commit.9e61f92b.Emscripten.clang",
    "optimizer": false,
    "runs": 200
  },
  "schemaVersion": "2.3.5",
  "updatedAt": "2021-06-15T08:57:04.838Z"
}